:020000042000DA
:1000000040E10120810200205F8A00200774002067
:100010005D8A0020EB0A0020A1AC00200000000057
:10002000000000000000000000000000C1010020EE
:1000300071320020000000001D020020BDA200203F
:100040009B0200209B0200209B0200209B020020BC
:10005000ED3300209B020020C1320020CF3200206F
:100060009B0200209B0200209B0200209B0200209C
:100070009B0200209B0200209B0200209B0200208C
:100080009B0200209B0200209B0200209B0200207C
:100090009B0200209B0200209B0200209B0200206C
:1000A0009B0200209B020020A9A300209B020020AD
:1000B0009B0200209B020020B5A300209B02002091
:1000C0009B0200209B0200209B0200209B0200203C
:1000D0009B02002079A900209B0200209B020020A7
:1000E000C73200209B0200209B0200209B020020C0
:1000F0009B0200209B020020CDA300209B02002039
:100100009B0200209B0200209B0200209B020020FB
:100110009B0200209B020020C1A300209B02002024
:100120009B0200209B020020C13100209B02002086
:100130009B0200209B0200209B0200209B020020CB
:100140009B0200209B0200209B0200209B020020BB
:100150009B0200209B0200209B0200209B020020AB
:100160009B0200209B0200209B0200209B0200209B
:100170009B0200209B0200209B0200200000000048
:100180009B0200209B0200209B0200209B0200207B
:100190009B0200209B0200209B0200209B0200206B
:1001A00000000000000000009B020020DFF80CD0DF
:1001B00000F03AFC00480047D1E3002040E1012074
:1001C0002C4B19680868B0E8F04F80F30988BFF33A
:1001D0006F8F4FF0000080F311887047000000001F
:1001E00008480068006880F308884FF0000080F33A
:1001F000148862B661B6BFF34F8FBFF36F8F00DF15
:1002000000BF00BF08ED00E0DFF80C00016841F41A
:1002100070010160704700BF88ED00E0EFF30980D6
:10022000BFF36F8F134B1A681EF0100F08BF20ED3D
:10023000108A20E9F04F106009B44FF0500080F3AD
:100240001188BFF34F8FBFF36F8F10F041FE4FF057
:10025000000080F3118809BC19680868B0E8F04F05
:100260001EF0100F08BFB0EC108A80F30988BFF3AE
:100270006F8F704778860120EFF30580704700008C
:100280000648804706480047FEE7FEE7FEE7FEE730
:10029000FEE7FEE7FEE7FEE7FEE7FEE791A30020AC
:1002A000AD0100202DE9F05F0546002092469B46F7
:1002B00088460646814640241BE02846414647467C
:1002C000224600F0C6FA53465A46C01A914110D34E
:1002D00011461846224600F0ADFA2D1A67EB0108C8
:1002E0004F4622460120002100F0A4FA17EB000936
:1002F0004E41201EA4F10104DFDC484631462A4667
:100300004346BDE8F09F40EA01039B0703D009E0A4
:1003100008C9121F08C0042AFAD203E011F8013BF1
:1003200000F8013B521EF9D27047D2B201E000F84A
:10033000012B491EFBD270470022F6E710B5134689
:100340000A4604461946FFF7F0FF204610BD421C3E
:1003500010F8011B0029FBD1801A704730B5054603
:100360000020034600E05B1C934205D2EC5CC85CB5
:10037000201A01D1002CF6D130BD2DE9F05F934653
:100380000F468046044600260AF0C2FCD0F80090D2
:10039000824614F8015B2DB100F07EFA0068405DE2
:1003A000C007F6D12B2D02D02D2D1AD0641E0021AE
:1003B000CAF800105A463946204600F071FA014644
:1003C00027B13868A04201D1C7F80080DAF80000F0
:1003D000022809D0CAF80090700505D54842BDE84A
:1003E000F09F46F48066E2E70846F8E72DE9FE4F05
:1003F000804681EA0300C00F0C46009021F00041C6
:1004000023F00045B8EB0200A94105D24046214641
:1004100090461C460B46024623F00040104347D04E
:10042000270DC7F30A00C3F30A510290401A019046
:1004300040286BDAC3F3130040F4801B0098924607
:1004400020B10023D2EB030A63EB0B0B0198594652
:10045000C0F14002504600F0EDF906460D46504608
:100460005946019A00F005FA10EB0800614100249A
:1004700087EA115284EAE7731A4340D0009A62B3C4
:10048000019A012A4FEA075215DC001B61EB0201B9
:100490004FF0004202EA0752CDE90042001C41F54C
:1004A000801132462B4600F059FA03B0BDE8F08FB8
:1004B00040462146F9E7001B61EB0201001C41F5B3
:1004C000801300185B412018A2F5001747EB0301C9
:1004D00040EAD570B6196D4111E06D084FEA360655
:1004E00045EAC0754FEA0752001B61EB0201001C90
:1004F00041F5801149084FEA300000195141324658
:100500002B4603B0BDE8F04F00F019BA0098012265
:1005100040000023D0EB020263EBE0730098214619
:100520004FEAE074B8EB000061EB0401E9E783F007
:1005300000435BE781F0004158E72DE9FE4F81EA77
:10054000030404F0004421F0004100944FF0000B3C
:1005500023F0004350EA01045ED052EA03045BD06A
:10056000C3F30A54C1F30A552C44A4F2F3340194A2
:10057000A0FB0254C1F3130141F48011C3F3130330
:1005800043F4801301FB024400FB034E840A970AE4
:1005900044EA815447EA8357A4FB076802958D0A11
:1005A00005FB07854FEA932C04FB0C542705029D9D
:1005B0004FEA065847EA1637B5EB08056EEB070C0D
:1005C000870E920E47EA811742EA8312A7FB0201C7
:1005D000B6EB0B0164EB00042B0D43EA0C335E1801
:1005E00044EB1C50DA465146E7FB0201C5F3130405
:1005F0004FEA0B3343EA14534FEA0432019C43EAB7
:100600000603A4F10C040294009CCDE900B400F0B0
:10061000A5F903B0BDE8F08F00200146F9E72DE908
:10062000F04D81EA030404F0004B21F0004514462C
:100630004FF0000A23F0004150EA050220D054EAAE
:1006400001021DD0C5F30A570246C5F31303C1F3D7
:100650001300C1F30A5640F4801543F48013A7EB4E
:100660000608101BD64608F2FD3873EB050002D3CE
:1006700008F1010801E092185B41B8F1000F03DABC
:1006800000200146BDE8F08D00204FF480110646A1
:1006900084460EE0171B73EB050705D3121B63EBB3
:1006A000050306434CEA010C49084FEA3000921852
:1006B0005B4150EA0107EDD152EA030012D082EA11
:1006C000040083EA0501084305D0101BAB4106D2A4
:1006D0000122002306E000224FF0004302E06FF009
:1006E000010253101AEB06004CEB085110EB0A0004
:1006F00041EB0B01BDE8F04D00F021B90EB5C10F83
:1007000080EAE0700844CA07002140F233438DE8D4
:100710000E000A460B4600F021F903B000BD0EB5ED
:1007200040F2334102910021CDE900110A460B4607
:1007300000F014F903B000BD70B5C1F30A5201F026
:1007400000450024C1F3130140F2FF3341F480114E
:100750009A4201DA002070BD40F233439A42A2F27D
:10076000334203DC524200F074F800E090402C4326
:10077000F1D0404270BDC1F30A5210B5C1F313016C
:1007800040F2FF3341F480119A4201DA002010BD9B
:1007900040F233439A42A2F2334203DC524200F069
:1007A00058F810BD904010BD30B5041E71F1000422
:1007B00004DB4FF00044404264EB0101141E73F16E
:1007C000000405DB1C464FF00043524263EB040378
:1007D0008B4208BF824230BD30B5041E71F1000467
:1007E00004DB4FF00044404264EB0101141E73F13E
:1007F000000405DB1C464FF00043524263EB040348
:10080000994208BF904230BD30B50B4601460020EA
:100810002022012409E021FA02F59D4205D303FAC2
:1008200002F5491B04FA02F52844151EA2F1010243
:10083000F1DC30BD202A04DB203A00FA02F100206E
:1008400070479140C2F1200320FA03F3194390400E
:100850007047202A04DB203A21FA02F00021704779
:1008600021FA02F3D040C2F1200291400843194618
:100870007047202A06DBCB17203A41FA02F043EA00
:10088000E07306E041FA02F3D040C2F12002914049
:100890000843194670470000004870472C2101208A
:1008A0002DE9F05F82460078002715468B460AF155
:1008B0000104B946302801D09DB113E014F8010BB2
:1008C0000127782803D0582801D045B10AE00DB19E
:1008D000102D07D10027102514F8010B02E0082580
:1008E00000E00A250026B0460EE005FB080005FBE7
:1008F00006F1012701EB10461FFA80F8B6F5803F9C
:1009000000D3B94614F8010B294600F09FF80028DF
:10091000EBDABBF1000F05D00FB1641E00E05446C6
:10092000CBF80040B9F1000F06D00AF0F1F902212E
:100930000160C81EBDE8F09F48EA0640FAE710B51E
:10094000141E73F1000408DA401C41F100019218F2
:100950005B411A4301D120F0010010BD2DE9F04D9B
:1009600092469B4611B1B1FA81F202E0B0FA80F2F0
:1009700020329046FFF75EFF04460F4640EA0A0029
:1009800041EA0B0153465A46084313D0114653EA35
:10099000010019D0C8F140025046FFF75AFF054642
:1009A0000E46504659464246FFF744FF084305D0DD
:1009B000012004E020463946BDE8F08D00200543C3
:1009C00046EAE0762C4337430A986305E40AA0EB35
:1009D00008000022FD0A44EA47540A3002D50020EC
:1009E0000146E9E7010510196941DDE908450019EB
:1009F0006941BDE8F04DA2E7C1F30A52C1F313010A
:100A000040F2FF3341F480119A4202DA002001469D
:100A1000704740F233439A42A2F2334202DC524220
:100A2000FFF717BFFFF706BF064C074D06E0E0686B
:100A300040F0010394E8070098471034AC42F6D325
:100A4000FFF7B8FB48230120682301203A2800D291
:100A5000303820F02002412A01D3A2F13700884229
:100A600001D34FF0FF30704770B58C1810F8015B60
:100A700015F0070301D110F8013B2A1106D110F837
:100A8000012B03E010F8016B01F8016B5B1EF9D13B
:100A90002B0705D40023521E0DD401F8013BFAE7C1
:100AA00010F8013BCB1A921C03E013F8015B01F82C
:100AB000015B521EF9D5A142D8D3002070BD020AB5
:100AC0000A7048707047020E0A70020C4A70020ADF
:100AD0008A70C8707047008840BA70470168C07853
:100AE00009BA21F0FF0108437047FEE730B54FF027
:100AF000FF330022064C07E0855C5D40EDB2521CDE
:100B000054F8255085EA13238A42F5D3D84330BDE3
:100B10002C81012030B503460020074C07E01D5C06
:100B20005540EDB2401C54F8255085EA1222884207
:100B3000F5D3104630BD00002C81012010B50022F5
:100B4000134602E0C45C62405B1C8B42FAD3521C29
:100B5000D0B210BD10B52DED048BFFF7E0FD9FED79
:100B6000211B53EC112BFFF7E8FC9FED209B53EC6E
:100B7000192BFFF7E2FC41EC180B51EC190B53EC6D
:100B8000182BFFF7D4FC41EC100B51EC180B53EC75
:100B9000102BFFF744FD41EC100B0AF0BDF89FED60
:100BA000151B51EC100B53EC112BFFF7C6FC9FEDFE
:100BB000131B53EC112BFFF719FC41EC100B53ECFA
:100BC000102B9FED100B51EC100BFFF728FD9FED44
:100BD0000F1B53EC112BFFF7AAFCBDEC048B41EC6F
:100BE000100B10BD000000000000303F00000000AE
:100BF000000004400000000000A06240000000006F
:100C000000689A400000000010BD1E410000000076
:100C1000001071400FB42DED020B2DE9F047824614
:100C20002DED0C8B86B0B0EE40AAF0EE60AADDE9A7
:100C30002595DDF890809DED28BB8DED04AB9DEDF5
:100C400022CB2098FFF76BFD0E46044646EC180BAE
:100C50002846FFF764FD0F46054647EC190B53EC99
:100C60001C2B51EC1B0BFFF762FC41EC1B0B53ECF4
:100C7000182B51EC190BFFF75AFC41EC190B53ECF4
:100C80001C2B51EC1A0BFFF752FC53EC192BFFF7FE
:100C900054FC53EC1B2BFFF7C2FC53EC182BFFF753
:100CA000A5FB9FED48BB53EC1B2BFFF79FFBFFF70A
:100CB00062FD029046EC1A4B47EC1C5B1E98FFF756
:100CC0002EFD0E46044646EC180B4046FFF727FD66
:100CD0000F46054647EC190B0298FFF720FD41EC43
:100CE0001D0B53EC1A2B51EC1C0BFFF720FC41ECB5
:100CF0001C0B53EC182B51EC190BFFF718FC41ECB3
:100D0000190B53EC1A2B51EC1D0BFFF710FC53EC95
:100D1000192BFFF712FC53EC1C2BFFF780FC53EC54
:100D2000182BFFF763FB53EC1B2BFFF75FFBFFF761
:100D300022FD009046EC184B47EC1D5B1F98FFF717
:100D4000EEFC41EC190B4846FFF7E9FC41EC1A0BAD
:100D50000098FFF7E4FC41EC1C0B53EC182B51EC12
:100D60001D0BFFF7E4FB41EC1D0B53EC192B51EC71
:100D70001A0BFFF7DCFB41EC1A0B53EC182B51EC70
:100D80001C0BFFF7D4FB53EC1A2BFFF7D6FB53ECED
:100D90001D2BFFF744FC53EC192BFFF727FB53ECFB
:100DA0001B2BFFF723FBFFF7E6FC01901822694697
:100DB0005046FFF7A8FA06B0BDEC0C8BBDE8F00773
:100DC0005DF81CFB000000000000E03F10B52DEDB9
:100DD000048BFFF7A4FC9FED311B53EC112BFFF7A5
:100DE000ACFB9FED301B53EC112BFFF7A6FB9FEDE7
:100DF0002F1B53EC112BFFF712FC9FED2E1B53EC16
:100E0000112BFFF794FB9FED2D1B53EC112BFFF7DC
:100E1000EDFA41EC100B53EC102B9FED2A0B51EC2B
:100E2000100BFFF7FCFB9FED291B53EC112BFFF779
:100E30007EFB9FED281B53EC112BFFF7F0FB41ECE1
:100E4000100B09F069FFB0EE408AF0EE608A9FED6A
:100E5000230B51EC180B53EC102BFFF76EFB9FED9F
:100E6000211B53EC112BFFF7C1FA9FED200B41EC36
:100E7000190B53EC102B51EC180BFFF75EFB9FED99
:100E80001D1B53EC112BFFF755FB53EC192BFFF7F0
:100E9000C6FBBDEC048B41EC100B10BD0000000044
:100EA0000000303F0000000000000440000000008F
:100EB0000000F43F000000000000F03F08CD1B08D8
:100EC000CD1BF03FCDCCCCCCCCCC3140B81E85EB8B
:100ED00051B81E4000000000000024400000000047
:100EE00000A062400000000000B49E40000000002E
:100EF00060DBE34000000000A0FCE740F0B52DED12
:100F0000088B8BB0B0EE408AF0EE608A00259FED32
:100F1000A8BBA94C04F1380704F1140608A803F093
:100F2000CBF8020015D0A5A1AC4809F0BBFEAB4838
:100F3000FFF70DFA0246A949002009F01BFB9E4865
:100F40000921183008F096FE01200BB0BDEC088B8B
:100F5000F0BD9FEDA30B53EC102B9DED080B51EC56
:100F6000100BFFF721FC11D29DED080B9EA153EC55
:100F7000102B9A4809F096FE9848FFF7E8F90246C8
:100F80009649012009F0F6FA0220DEE753EC1B2B0C
:100F900051EC180BFFF72AFA9DED081B53EC112BAF
:100FA000FFF702FC10D3B0EE4B0AF0EE6B0A53ECE5
:100FB000102B51EC180BFFF7BAFA9DED081B53EC00
:100FC000112BFFF709FC7DD29FED909B6D1C0A2D24
:100FD00015D90821304606F0BFFC18B90821304663
:100FE00008F048FE8B497D4809F05CFE7B48FFF71E
:100FF000AEF902467949012009F0BCFA81E09DED85
:10100000080B51EC180B53EC102BFFF793FA53EC31
:10101000182BFFF78FFA41EC1A0B6846B0EE4A0A1C
:10102000F0EE6A0A03F00CFB182269463846FFF717
:101030006AF9A06B06908DED04AB02958DED008BE7
:101040009DED080B744953EC102B644809F02AFEFF
:101050006248FFF77CF902466049002009F08AFAED
:10106000A06BFFF75CFB9FED6D1B53EC112BFFF7A3
:10107000B3FB75D26BA15948A26B09F013FE574818
:10108000FFF765F902465549002009F073FA9FED14
:101090006E0B53EC102B9DED080B51EC100BFFF772
:1010A0009BFB30D853EC192B51EC180BFFF79EF932
:1010B0009DED081B53EC112BFFF776FB0ED353EC81
:1010C000192B00E069E051EC180BFFF730FA9DEDA9
:1010D000081B53EC112BFFF77FFB5ED20821304633
:1010E00006F03AFC68B90821304608F0C3FD08E074
:1010F0001621304606F030FC18B11621304600F0BB
:1011000009F9002021E794ED160B684603F098FAE0
:10111000182269463846FFF7F6F894ED140B684636
:1011200003F08EFA2448182269462030FFF7EBF8C6
:1011300047A12A4809F0B6FD2848FFF708F90246FA
:101140002649012009F016FA1621304606F004FC63
:1011500018B91621304608F08DFD0320F5E6FFE7AB
:10116000607A4FF000020028A08F81B2104608D0AC
:1011700008F036F8208F002281B2032008F030F802
:1011800007E008F0DFF8208F002281B2032008F08A
:10119000D9F801200EF03CF9C0E60821304606F0EF
:1011A000DBFB0028A4D00821304600F0B3F89FE70D
:1011B000000000000000E03F00FC02204765745F73
:1011C0005461705F506F776572206572726F722024
:1011D000636F6465203D2025750A00003589012074
:1011E0000000000000003EC054617020506F776521
:1011F00072203D20252E326C66206973206E6F743C
:10120000206E6F726D616C210A000000000000000A
:1012100000000040902101203821012066666666AA
:101220006666AE404461632076616C7565206578C2
:101230006365656473206C696D69746174696F6E50
:101240002025750A000000000000000000000000DA
:101250004C617A6572206973206167696E670A0064
:101260007CB54FF4805441F27F664FF0FF3501AA00
:1012700043F24801A0200BF02BFB002821D10423CE
:101280006A462146A02008F043FA002819D12A46D0
:1012900004216846FFF73EFC241DA4B20546B44273
:1012A000EDD30199C0430C4B88424FF01F01184603
:1012B00008D006F051FB002803D11F21184608F082
:1012C000D9FC7CBD06F048FB0028FAD01F21184647
:1012D00000F020F87CBD000014FC022070B5012253
:1012E00002210A4803F0BFFE0122094D54022146A3
:1012F000284603F0B8FE01200EF08AF82146284661
:10130000BDE87040002203F0AEBE000000200240A5
:1013100000100240012302688B409A43026070472C
:1013200070B50F4C4FF00102607A10B1D1030D4837
:1013300001E004210C4803F096FE01220B4E5502F9
:101340002946304603F08FFE01200EF061F800229E
:101350002946304603F087FE0020E07270BD000091
:1013600000FC0220001C024000200240001002404D
:1013700009280DD2DFE800F00C0505070709090B65
:101380000B000C2104E00B2102E00A2100E00921FE
:101390000148FFF7BFBF000014FC022010B5002277
:1013A000C0B211460EF054FF002801D04FF0FF30BC
:1013B00010BD000070B5A8B10C480121012203F056
:1013C00052FE01220A4D54022146284603F04BFEEC
:1013D00001200EF01DF821462846BDE8704000228D
:1013E00003F041BE03484FF48041E7E7000C0240A0
:1013F00000100240001C02402DE9FE4FCF488046FD
:10140000FFF76CFBCE4C0025CE49042747F6FF764C
:101410006560884203D02680A770E77015E008F168
:101420000400FFF75BFB0146C74AC848914207D159
:1014300005702680A570E57009F0FF00BDE8FE8FFD
:10144000007820B12680A770E5700420F6E7BB4A3B
:10145000012902F1080002F10C0A02F110093BD047
:1014600002294BD0032951D0042956D0052961D037
:1014700002F1140B062969D012297CD013297BD0E4
:1014800007297AD0342979D0142978D0092977D03E
:101490000A2976D04FF001080B2973D00D2972D09C
:1014A0000E2971D00F2970D010296FD011296ED05C
:1014B00015296DD016296CD017296BD018296AD040
:1014C000FF2969D0192968D03329A4D10AF028FC52
:1014D0002680A070E770B1E76560FFF7FFFA8046ED
:1014E0005046FFF7FBFA05464846FFF7F7FA024673
:1014F00008F0FF0029460BF05DF9E9E76560A5609B
:10150000FFF7ECFAC0B20BF011F9D9E06560FFF714
:10151000E5FAC0B20BF0CAF9DAE76560FFF7DEFA68
:1015200007465046FFF7DAFA0246F8B249460BF092
:101530004BF9CDE06560FFF7D1FA05465046FFF75D
:10154000CDFAC1B2E8B20BF065F8C1E76560FFF70C
:10155000C5FA00905046FFF7C1FA80464846FFF7AB
:10156000BDFA05465846FFF7B9FA034600982A46E1
:10157000C0B2414612E014E030E036E041E046E01F
:1015800056E05FE06BE071E074E077E083E089E0D3
:1015900092E099E0A0E0A9E0B3E0B5E00AF096FCA3
:1015A00096E76560FFF79AFA02905046FFF796FAC1
:1015B00082464846FFF792FA01905846FFF78EFAA6
:1015C000054608F11800FFF789FA009002982B46AB
:1015D000C0B25146019A0AF0B6FC79E76560FFF7A0
:1015E0007DFA01A90AF0C8FF28E06560FFF776FAE6
:1015F00005465046FFF772FA0146E8B20AF02EFCA3
:1016000066E76560FFF76AFA0AF0B4FB60E76560B9
:10161000FFF764FA05465046FFF760FA80464846F1
:10162000FFF75CFA0246E8B241460AF02AFC4FE7AF
:101630006560FFF753FA01A90AF0A8FB2680A070A5
:10164000019951E06560FFF749FA05465046FFF7FA
:1016500045FA019001A928460AF0A8FCEEE765606A
:1016600008F05AF945E0A570E77064E0656008F09D
:1016700063FA3EE065600BF0EDF829E06560FFF786
:101680002DFA07465046FFF729FA81B20190B8B209
:101690000BF036F81CE06560FFF720FA80B20BF023
:1016A0001BF815E06021201DFEF746FE0AF006FD3E
:1016B0002680A070602117E0FFF710FA0AF098FC6E
:1016C0002680A07008210FE0FFF708FA0AF0D0FF8B
:1016D0002680A070E570B1E6FFF700FAC0B20AF00C
:1016E000C7FC2680A0700221E170A7E6656008F0C3
:1016F00003F926800028B6D084F80280E770012024
:101700009CE60AF069FCE3E6FFF7E8F9104F019068
:10171000A7F872015046FFF7E1F90190FEF7FFFFCD
:101720009FED0C1B53EC112BFEF779FFC7E95E010F
:101730002680A570E570002080E60000008801206A
:10174000F4860120A5A55A5A78563412EB8501205B
:1017500000FC02200000000000408F402DE9F05FF7
:101760003348344D002480794FF0180805F1450BBB
:1017700027464FF0010940B1012838D0A5F8008074
:101780000320A870EF70BDE8F09F2B482F714FF039
:101790000006407A90B141F2D23A00BF0AEB8600CF
:1017A00005EB460281B20223A020521D07F0B0FFD4
:1017B0002043761C0446202EF0D310E041F2523A2A
:1017C0000AEB860005EB460281B20223A020521DDF
:1017D00007F09EFF2043761C0446202EF0D3D8B19C
:1017E000A5F8008085F80290EF700120CBE785F81E
:1017F0000490002641F2524A0AEB860005EB4602AD
:1018000081B20223A020521D07F082FF2043761CE4
:101810000446202EF0D3E2E7FF2240215846FEF78F
:1018200084FDA5F80080AF708120E8700020AAE751
:10183000FA870120F486012000FC02202DE9F04700
:1018400029482A4CFF268079112720714FF0000883
:101850004FF0010A022580B14FF0030901282BD077
:1018600023A12D4809F01EFA2B48FEF770FD024611
:101870002949012008F07EFE2CE02849C97919B1D8
:1018800066711020208011E001F03AFF811C03D026
:10189000002817DB402801DB667106E0C11700EB6A
:1018A000D16121F01F01401A1CE0278084F80280DA
:1018B000E5700020BDE8F08701F022FF811C08D010
:1018C00000280DDA6671278084F802A0E5700120F7
:1018D000F0E76671278084F80290E5700320E9E75D
:1018E0002028F6DA6071E0E7FA870120F48601200B
:1018F00053776974636820636F6D6D616E642070E7
:101900006172616D6574657220697320696E7661BC
:101910006C69640A000000003589012000FC022087
:10192000F0B5234C06202DED068B81B0251D6946B0
:1019300007F0D4F89FED1FAB9FED209B00261727E3
:1019400020B127800120A070E6702CE0BDF80000D7
:10195000FFF700F9B0EE408AF0EE608A9FED190BB8
:1019600051EC180B53EC102BFEF736FF53EC1A2BEF
:1019700051EC180B06D8FEF7E0FD53EC192BFEF7DF
:1019800035FD05E0FEF7D9FD53EC192BFEF7CFFD31
:10199000FEF7D2FE00B280B20EF044FD2880278010
:1019A000A6700220E07001B00020BDEC068BF0BDF7
:1019B000F486012000000000000024400000000028
:1019C0000000E03F000000000000000000B587B00C
:1019D00000226946114804F06DFB002205A90F485A
:1019E00004F046FB0E489DF8171001719DF8151084
:1019F00041719DF8161081719DF80010C1719DF81C
:101A0000011001729DF802104172862101800021AF
:101A100081700621C17007B0002000BD3C900120FC
:101A2000F4860120084A074803215368436012687E
:101A3000126882600180002181700821C17000203D
:101A400070470000F4860120008001202DE9F05F3E
:101A500067488779C5790830FFF740F8654C064636
:101A60004FF0030B4FF000094FF08B0AC82D72D8CE
:101A7000002D70D060484FF00108007850B15FA190
:101A8000694809F00FF96848FEF761FC02466649AB
:101A9000012029E027716571A11D3046FFF713F879
:101AA000022F6FD853490A312FB16048012F26D039
:101AB000022F53D094E07219B2F5D06F62D806F5B8
:101AC0008056B0B20A4601462B46A02007F020FE01
:101AD000002870D056A1544809F0E4F85248FEF7A7
:101AE00036FC02465049002008F044FDA4F800A04E
:101AF00084F8028084F803900120BDE8F09FC76855
:101B00008068504A3B1A874209D2DFF83CC1D2F8BC
:101B10000080DCF800C0A8EB0C0C63445B1C06EBF7
:101B2000050C9C452ED8874236D8176883197F1C30
:101B3000BB4201D9444B37E06044B8423FD91068FA
:101B4000C61A761C1846324605F054FFAA1BA81A7E
:101B500001193D4840E015E02A463FE083694069AD
:101B60003A4A1F1A834209D2DFF8E4C0D2F8008053
:101B7000DCF800C0A8EB0C0C67447F1C06EB050CDE
:101B8000BC4507D9A4F800A084F802B084F80390FB
:101B90000320B2E7834201D93044DDE71768831997
:101BA0007F1CBB4208D92A4B1268101A1B68301AD6
:101BB000401E1844D0E713E06044B84201D81846EC
:101BC000CAE71068C61A761C1846324605F012FF9E
:101BD000AA1BA81A01191E480A31006805F00AFF5D
:101BE000A4F800A0AD1D84F80290E570002084E701
:101BF000FA870120F4860120B585012052656164D1
:101C0000696E67206C6F6720636F6E74656E7420F9
:101C10007768656E20666C61736820696E207573E5
:101C2000696E670A0000000035890120508D01208F
:101C30005265616420454550524F4D206661696C84
:101C400065640A00C01E0120981E0120C81E0120E4
:101C5000B41E012010B51948194C80792071022852
:101C600002D9611D00201FE028B11649012805D0C6
:101C700002280CD01AE04FF4D06014E0CA688968DA
:101C8000501A8A420FD21049104A096807E08A693F
:101C90004969501A8A4206D20D490E4A09681268EB
:101CA000511A0844401C611DFEF70DFF8A20208058
:101CB0000020A0700520E070002010BDFA870120F0
:101CC000F4860120508D0120981E0120C01E0120A5
:101CD000B41E0120C81E01202DE9F0411548002145
:101CE000804605F039FE21270125134C002630B12E
:101CF0000321404605F030FE38B1032012E0278072
:101D0000A570E6700120BDE8F0810121404605F094
:101D100023FE08B1257108E00221404605F01CFEB3
:101D200010B10220207100E026712780A670E570B6
:101D30000020E8E71CFC0220F4860120FEB51C48C8
:101D40000025202680791B4C012804D02680032002
:101D5000A070E570FEBD18480127C17A19B1017B5A
:101D600019B116A104E01CA102E0C07980B11FA145
:101D7000244808F097FF2348FEF7E9FA0246214974
:101D8000012008F0F7FB2680A770E5700120FEBD5A
:101D900013208DF800001C4800231A46694600688D
:101DA0000DF01AFC2680A570E5700020FEBD000035
:101DB000FA870120F486012000FC02204D6F647533
:101DC0006C6520696E206D6F64756C6174696F6EEF
:101DD000206D6F64650A00004C617A65722069733A
:101DE000206E6F742072656164790A005458205324
:101DF000776974636820697320626C6F636B6564D4
:101E00000A00000035890120148601202DE9F047E1
:101E100019484FF000074FF08708C1784FF00309C9
:101E2000091F11F0FF06A0F5837411D0142E0FD8EE
:101E30000025824616E000BF0AEB050005EB850190
:101E4000214482790A718079491D01F051FE38B12F
:101E5000A4F8008084F80290E7700320BDE8F087C2
:101E60006D1CEDB2B542E7D3A4F80080A77006EB75
:101E70008600E0700020F1E7FA87012070B5224C5F
:101E8000A0880EF0CFFA0546E37800201F490646E9
:101E9000A4F5837431F83020AA4220D101EBC001AF
:101EA0004868F8B14988A1F57F42FF3A14D0C9B219
:101EB000994211D02A4616A11D4808F0F3FE1C488D
:101EC000FEF745FA02461A49012008F053FB258027
:101ED0000320A070E67070BDBDE870400047401C54
:101EE0002428D7D32A4613A1114808F0DBFE104856
:101EF000FEF72DFA02460E49012008F03BFB258033
:101F00000420A070E67070BDFA8701200C800120CB
:101F1000436F6D6D616E6420252358204C656E679C
:101F200074682025235820696E76616C69640A0004
:101F300035890120556E6B6E6F7720636F6D6D6113
:101F40006E64206964203D202523580A00000000AB
:101F5000084810B540690EF063FA074C211DFEF7E2
:101F6000B2FD222020800020A0700420E07000201C
:101F700010BD000000FC0220F48601202DE9F84F7E
:101F800029482A4A0168914208D1017931B143793F
:101F9000994205D8591A491CCDB202E0002500E04B
:101FA0000A25234F01249246814600BF07EBC40651
:101FB000311F2046FEF787FDD9F800204FF00008BA
:101FC000524519D1C5B199F80410601E0844C0B239
:101FD0000A2800D90A38C0B241F6FC7101EB800131
:101FE00004236A46A02007F093FBB8B105211148ED
:101FF00007F040FE6D1EEDB240460EF011FA31467C
:10200000FEF761FD641C0A2CD0D9282038800020FE
:10201000B8705020F8700020BDE8F88F6846FEF7D1
:102020005DFD8046E6E70000B88501205A5AA5A567
:10203000F486012018FC022010B5074C0823221D4D
:102040001021A02007F064FB062020800020A07053
:102050000820E070002010BDF48601200548017BB7
:102060000548017126210180002181700121C17084
:102070000020704700FC0220F486012010B5074CB8
:102080001023221D2021A02007F042FB07202080E2
:102090000020A0701020E070002010BDF486012008
:1020A00010B5074C0923221D0021A02007F030FBAA
:1020B000022020800020A0700920E070002010BDC8
:1020C000F486012005480178054801712721018027
:1020D000002181700121C17000207047E885012036
:1020E000F486012010B50A480A4C80792071611DE0
:1020F00002F082F800218922228018B10320A0700A
:10210000E17010BDA1700920E070002010BD00003A
:10211000FA870120F486012070B5164D2DED028B53
:1021200095ED160B9FED148B51EC100B53EC182B07
:10213000FEF703FAFEF700FB114C80B2211DFEF7FB
:10214000BEFC95ED140B53EC182B51EC100BFEF765
:10215000F4F9FEF7F1FA80B2A11DFEF7B0FC1B20E6
:1021600020800020A0700420E0700020BDEC028BD5
:1021700070BD000000FC022000000000000059407B
:10218000F48601200A4B10B59C7A012209480021EF
:1021900014B10223037104E05B7A0BB1027100E019
:1021A0000171292303808170C270002010BD0000DE
:1021B00000FC0220F48601202DE9F0473248354C1E
:1021C0004FF000092DED028B04F1080680799FED98
:1021D0002F8BB51C4FF0190801280AD028B3A4F89A
:1021E00000800320A07084F80390BDEC028BBDE852
:1021F000F087294853EC182B90ED000B51EC100B95
:10220000FEF79BF9FEF798FA80B2211DFEF757FC06
:102210000027A11D3846FEF752FC31463846FEF72E
:102220004EFC53EC182B1D481AE01D4853EC182B9C
:1022300090ED000B51EC100BFEF77FF9FEF77CFAE6
:1022400080B2211DFEF73BFC0027A11D3846FEF79A
:1022500036FC31463846FEF732FC53EC182B114859
:1022600090ED000B51EC100BFEF767F9FEF764FAE6
:1022700080B22946FEF723FCA4F8008084F802907F
:102280000820E0700020B0E7FA870120000000007D
:1022900000005940F4860120D8850120E085012006
:1022A000C8850120D085012010B5074C1023221DC0
:1022B0003021A02007F02CFA082020800020A070F8
:1022C0001020E070002010BDF48601202DE9F05FA1
:1022D00023484FF000094FF01C0A8179A0F5837064
:1022E000012909D059B1A0F800A00321817080F81C
:1022F00003900846BDE8F09F41F2306501E04FF4DD
:10230000A8550A21017100244FEA000805EBC40614
:10231000B01D08EB840781B27A1D0223A02007F0CC
:10232000F7F98346B61CFA1DB1B20223A02007F0CC
:10233000EFF9641C40EA0B010A2CE7D34046A8F8E9
:1023400000A029B10121817088F803900846D1E7E7
:1023500080F80290292188F803100020CAE70000C5
:10236000FA870120FEB513481349252690F9062067
:102370001248097B124D0068002432B1012A09D0AD
:102380002E800320A870EC70FEBD71B10194112164
:10239000029403E049B90194102102948DF80010D1
:1023A00000231A4669460DF017F92E80AC70EC70C8
:1023B0000020FEBDFA87012000FC022010860120CB
:1023C000F48601202DE9F05F564C002504F5837159
:1023D000656091F80680CE79DFF84C915FEA0800DD
:1023E0004FF0010A4FF0030B4FF0100704D0B8F183
:1023F000010F0DD04DA113E04FF48051554802F06C
:102400002DFE18B11F2E2AD953A109E05DA11AE0B3
:102410000821694802F022FEA0B11F2E2AD967A127
:10242000714808F03FFC7048FDF791FF02466E4985
:10243000012008F09FF8278084F802B0E57003209F
:10244000BDE8F09F69A1684808F02CFC6648FDF7DC
:102450007EFF02466449012008F08CF84DE099F8AF
:10246000071011B189F8056056E099F8090008B124
:102470002036F6B2DFF8A8B13221DBF800000DF00B
:10248000EBF850B167A1584808F00CFC5648FDF72E
:102490005EFF024654490020DEE74046FEF78AFF11
:1024A0003146404607F014FC50B1FF20B8F1000F50
:1024B00003D089F8060067A110E089F80500FAE763
:1024C000B8F1000F1FD089F80660404601F018F9F6
:1024D000B04240461AD007F033FA65A1424808F0EE
:1024E000E1FB4148FDF733FF02463F49002008F079
:1024F00041F8DBF800000DF025F9278084F802A0F0
:10250000E57001209CE789F80560DEE707F01EFD15
:10251000DBF800000DF016F92780A570E5700020AB
:102520008EE70000F486012000FC022053776974D6
:10253000636820636F6D6D616E6420706172616DA0
:102540006574657220697320696E76616C69640ACE
:1025500000000000001C0240537769746368203259
:1025600078333220636F6D6D616E642070617261CB
:102570006D6574657220697320696E76616C69643B
:102580000A00000053776974636820327833322080
:10259000636F6D6D616E6420636F6D65206275742D
:1025A00020737769746368206D6F64652069732098
:1025B00077726F6E670A00000004024053776974F7
:1025C0006368203178333220636F6D6D616E6420F3
:1025D000706172616D6574657220697320696E76D1
:1025E000616C69640A0000003589012053776974C1
:1025F0006368203178333220636F6D6D616E6420C3
:10260000636F6D65206275742073776974636820E9
:102610006D6F64652069732077726F6E670A0000C2
:102620003C86012041637175697265206D75746522
:1026300078206F66207377206661696C6564207707
:1026400068656E2065786375746520636F6D6D6174
:102650006E640A005365742073776974636820633D
:1026600068616E6E656C206661696C65640A000065
:1026700053657420737769746368206368616E6E54
:10268000656C206661696C656420320A0000000098
:102690002DE9F047114890F80690C01DFEF71EFA8C
:1026A00080460E480B30FEF719FA02460327002534
:1026B00088260B4C4046424504DB0146484607F05D
:1026C00067FC28B12680A770E5700320BDE8F0877D
:1026D0002680A570E5700020F8E70000FA87012049
:1026E000F4860120F0B58BB0142103A8FDF724FE79
:1026F00001208DF8000020480327002583798DF8FC
:102700000330C1798DF80110027A8DF80220447AE5
:102710008DF80C40847A8DF80D40C07A8526174CD0
:102720008DF80E00632B11D803F5FA63D8B205F0CB
:10273000E1F858B19DF80C00172807D89DF80D0056
:102740003B2803D89DF80E003B2805D92680A770AA
:10275000E57003200BB0F0BD002203A9084803F088
:102760009BFD00226946064803F032FD2680A570D5
:10277000E5700020EEE70000FA870120F4860120D2
:102780003C9001202DE9F041484C2DED068B84B0A2
:10279000E0880DF047FE00B2FDF7B0FF9FED448BDF
:1027A00053EC182BFDF73BFF41EC190B20890DF082
:1027B00039FE00B2FDF7A2FF53EC182BFDF72FFFF7
:1027C000DFF8F48041EC180B012098F8091003277A
:1027D00000269FED3AAB1A25A4F58374E9B1394977
:1027E000097802291DD3384890ED000B51EC190BE4
:1027F00053EC102BFDF7F0FF3ED353EC1A2B51ECAA
:10280000190BFDF7D1FF37D353EC1A2B51EC180BF2
:10281000FDF7E2FF30D32D4825E02D490978022944
:1028200008D22580A070E670012004B0BDEC068BB4
:10283000BDE8F081274890ED000B51EC190B53ECEB
:10284000102BFDF7C9FF17D353EC1A2B51EC190BC2
:10285000FDF7AAFF10D353EC1A2B51EC180BFDF720
:10286000BBFF09D31C4890ED000B51EC180B53EC47
:10287000102BFDF799FF04D22580A770E670032086
:10288000D3E788ED169B88ED148B0F208DF80000A0
:1028900012480296002301961A46694600680CF019
:1028A0009BFE2580A670E6700020BEE7FA87012017
:1028B000000000000000594000FC02200000000061
:1028C00000000000C1850120D8850120E08501209D
:1028D000C0850120C8850120D085012010860120F7
:1028E000FEB510482A26104D80790024012804D90D
:1028F0002E800320A870EC70FEBD0C49497A8142FD
:102900000BD012208DF80000094802940194002396
:102910001A46694600680CF05FFE2E80AC70EC70C1
:102920000020FEBDFA870120F486012000FC022071
:102930001486012005490120002308711A46194612
:10294000842008F01FF808F0D1F9000000FC0220F4
:102950002DE9F8433D4800251D2690F80680A0F596
:102960008374B8F1010F05D926800320A070E570AB
:10297000BDE8F8830520207141469FED350B684680
:1029800009F0D2F80127E8BB611D4FF62420FEF7BD
:1029900096F8E11DBDF80000FEF791F841469FED65
:1029A0002E0B684609F0C0F860BB28494FF6184066
:1029B000FD39FEF784F82549BDF80000FB39FEF724
:1029C0007EF841469FED260B684609F0ADF8C8B980
:1029D0001E494FF60C60F939FEF771F81B49BDF836
:1029E0000000F739FEF76BF841469FED1F0B684674
:1029F00009F09AF830B915490020F539FEF75FF86B
:102A0000124900E00BE0F339BDF80000FEF757F87B
:102A100041469FED170B684609F086F820B12680E5
:102A2000A770E5700120A3E708494FF4FA70F13967
:102A3000FEF745F80549BDF80000EF39FEF73FF80D
:102A40002680A5701520E070002091E7FA8701200C
:102A50000000000000002EC000000000000024C0A4
:102A600000000000000014C0000000000000000092
:102A700000000000000014402DE9F05F884CA51D07
:102A8000E0880DF0CFFCE1784FF0000BAD1C07465D
:102A90004FF08108A4F583744FF0010AD9468629C6
:102AA00001D080A104E087480078012813D086A1D6
:102AB000914808F0F7F89048FDF749FC02468E4926
:102AC000012007F057FD00BFA4F8008084F802A0A1
:102AD00084F80390C9E0012F0FD0022F4AD0794823
:102AE0000369591CB94202D1017B03297CD0BB4246
:102AF0004ED1017B022977D04AE072490822243165
:102B000005F12000FDF72AFC30B903227B4905F1CD
:102B10004000FDF723FC08B179A1C9E7694887495E
:102B20000026C0F8209007614979002962D1844AC3
:102B3000117899B1407800285FD182A16E4808F0E1
:102B4000B1F86D48FDF703FC02466B49012007F020
:102B500011FD4FF496700CF05BFCB5E782F800A015
:102B600080F801A0814A4168914246D0806800F017
:102B70003FFC3FE0534E3369012B02D0022B04D0BF
:102B800006E0307B032809D002E0307B022805D024
:102B90003A4677A1584808F085F88CE7286C00BAC7
:102BA00020F0FF0295F843000243B261686C95F88B
:102BB000471000BA20F0FF0008437061B2F5C03F33
:102BC0000FD973A14C4808F06DF84B48FDF7BFFBD7
:102BD00002464949012007F0CDFC0220307373E71B
:102BE00002E03761002605E08026076102E032201E
:102BF0000CF00EFC5248007820B159460BF1010B45
:102C00000629F4D358464FF0030B06281BD3012F97
:102C100015D067A1384808F045F83748FDF797FB0D
:102C200002463549012007F0A5FC26490220087319
:102C3000A4F8008084F802A00820E07015E0214884
:102C400080F80CB023E03D48417989B1E6B14F46A8
:102C500080F8059007F0FAFF58B11A49022008736E
:102C6000A4F8008084F802A0E7700120BDE8F09F7E
:102C700056B1144FB208396A78680844294600F002
:102C8000DBFB386A304438620E4981F80CB0A4F896
:102C9000008084F8029084F803900020E6E70000AA
:102CA000FA87012055706772616465206461746100
:102CB000206C656E67746820696E76616C69640A61
:102CC000000000000089012043616E6E6F74206572
:102CD000786375746520636F6D6D616E64206265E5
:102CE0006361757365206F662077726F6E67206D04
:102CF0006F64650A0000000035890120048001200E
:102D00005468652066696C65206973206E6F742055
:102D1000746865206669726D7761726520636F7291
:102D2000726573706F6E64696E6720746F2074686B
:102D30006973206D6F64756C650A0000388D012021
:102D4000B5850120466C61736820696E20757369D2
:102D50006E6720666F72206F746865722066756E8C
:102D60006374696F6E732E2E2E0A0000000008082F
:102D700053657120696E76616C6964203A2025750F
:102D8000097072655F736571203A2025750A00002D
:102D900046696C652073697A652825235829206562
:102DA000786365656473206C696D69740A0000005E
:102DB00057616974696E6720666C61736820746915
:102DC0006D656F75740A0000074901208022087044
:102DD0000020CA61087308610862A1F503710A80C6
:102DE0008870C87070470000008901202DE9F0410B
:102DF000374C832704F5037001260178002501294B
:102E000011D034A13F4807F04DFF3E48FDF79FFA2F
:102E100002463C49012007F0ADFB2780A670E57013
:102E20000420BDE8F081026A81698A4202D20B4621
:102E300035A10EE00269032A01D243A122E08046B7
:102E40004068FDF753FED8F814300246934204D090
:102E500041A12C4807F026FF17E04848DFF820C1C1
:102E60004571D8F80420624501D1012200E0022218
:102E70000271D8F81810C0E90213404807F0E6FEC6
:102E800080B140A11F4807F00DFF1E48FDF75FFA13
:102E900002461C49012007F06DFB2780A670E570F3
:102EA0000120BEE741A1174807F0FCFE1548FDF7D9
:102EB0004EFA02461349012007F05CFB00231A4634
:102EC0001946832007F05EFD3F48067107F00EFFAC
:102ED000F486012043616E6E6F74206578637574AB
:102EE0006520636F6D6D616E6420626563617573EB
:102EF00065206F662077726F6E67206D6F64650A5C
:102F00000000000035890120546865207265636502
:102F100069766564206C656E677468202575206924
:102F200073206C657373207468616E20746865200B
:102F30006C656E67746820696E206865616465728F
:102F40002025752E0A0000004E6F2076616C6964A2
:102F500020646174612E0A004352432076657269D1
:102F600066696564206661696C65642E2025235856
:102F700020213D202523580A00000000388D012023
:102F80000000040855706461746520757067726193
:102F900064652073746174757320746F2065657047
:102FA000726F6D206661696C65640A0055706772A6
:102FB000616465206669726D7761726520737563FF
:102FC000636573730A00000000FC022030B56D4C8D
:102FD00004202DED0A8B81B06946207205F07EFD3C
:102FE000002508B1ADF80050BDF80000FDF797FBD3
:102FF0009FED658B53EC182BFDF79FFA9FED649BBB
:1030000053EC192BFDF799FA9FED63CB53EC1C2B76
:10301000FDF793FA9FED62AB53EC1A2BFDF78DFA97
:103020009FED61BB53EC1B2BFDF7E0F9FDF7A3FB14
:10303000ADF80000611D3220FDF741FDE11DBDF836
:103040000000FDF73CFD6946072005F047FD08B18B
:10305000ADF80050BDF80000FDF761FB53EC182BF4
:10306000FDF76BFA53EC192BFDF767FA9FED501B38
:1030700053EC112BFDF761FA53EC1A2BFDF75DFAB7
:1030800053EC1B2BFDF7B2F9FDF775FB3D49ADF88D
:10309000000009312120FDF712FD3A49BDF800007A
:1030A0000B31FDF70CFD69460F2005F0A7FE08B1B6
:1030B000ADF80050BDF80000FDF731FB53EC182BC4
:1030C000FDF73BFA53EC192BFDF737FA53EC1C2BA9
:1030D000FDF733FA53EC1A2BFDF72FFA53EC1B2BA9
:1030E000FDF784F9FDF747FB2649ADF800000D31E7
:1030F0002C20FDF7E4FC2349BDF800000F31FDF75B
:10310000DEFC6946052005F0E9FC08B1ADF8005089
:10311000BDF80000FDF703FB53EC182BFDF70DFA8B
:1031200053EC192BFDF709FA9FED231B53EC112BE0
:10313000FDF703FA53EC1A2BFDF7FFF953EC1B2BA9
:10314000FDF754F9FDF717FB0E49ADF800001131FA
:103150004FF42070FDF7B3FC0A49BDF800001331AD
:10316000FDF7ADFC0748FF2208211530FDF7DDF81B
:103170001F202080A5701920E07001B00020BDEC58
:103180000A8B30BDF4860120000000000000303FB3
:1031900000000000000004400000000000000840A3
:1031A0000000000000002440000000000000E03F9C
:1031B00000000000000000400000000000804940C6
:1031C000014801F085BB0000AC9301200168182381
:1031D000CAB2103AB2FBF3F2054B6FF30901032AAE
:1031E0009B5CC36500D9091D8165084670470000D6
:1031F0004820012010B5014600208B698A6A4FF0F3
:10320000C07453B1B3F5005F15D072B1012A0CD070
:10321000022A0AD0032A09D104E01AB1012A06D0F1
:10322000022A03D1C96AC90100D5012010BDC96AAB
:10323000A142FAD010BD002AF7D0012AF2D0022A0A
:10324000F3D0032AF3D010BD30B50468256825F407
:1032500080252560046863608368402B036803D081
:1032600099600068C26030BD9A600068C16030BD7E
:1032700070470000114810B5407A4FF00002002856
:1032800011464FF0020008D005F0AAFF04460022C4
:103290001146012005F0A4FF07E006F053F80446AC
:1032A00000221146012006F04DF8204305D00348C6
:1032B0000521183006F0DEFC012010BD00FC0220C4
:1032C000012001F0D5BD4FF4005001F0D1BD022026
:1032D00001F0CEBD10B5174840F6FF74417A1830A2
:1032E00071B115490978B1B100222146012005F0DC
:1032F00077FF70B900222146022005F071FF14E02B
:103300000E49097839B100222146012006F01AF849
:1033100030B1012010BD0C2106F0ACFC042010BD22
:1033200000222146022006F00DF80028F7D00320E5
:1033300010BD000000FC0220C1850120C0850120D5
:1033400070470000002229B101291DD002291ED09A
:103350004FF440720B2800D9001D0E490B6823F46E
:1033600040730B600B6813430B600A6822F0F8028D
:103370000A600A68022303EBC00002430A6008687F
:1033800040F48030086070474FF48072E2E74FF4F9
:103390000072DFE7103C02401348016889050FD531
:1033A000016821F400710160016841F4006101606D
:1033B000016821F400610160016841F4007101605D
:1033C000016849050FD5016821F480610160016839
:1033D00041F480510160016821F48051016001686D
:1033E00041F4806101607047003C024001F040BC44
:1033F00010B586B0044618280ED201F0E9FC012071
:10340000CDE901040390002000900220049068465A
:1034100001F0D0FB002800D0012006B010BD000054
:1034200010B501F0D5FC034991200860BDE81040BB
:1034300001F084BC0C3C02402DE9F0470026174601
:1034400089460546344601F0C3FCDFF83C8012E0B3
:1034500059F8242000232946022001F07BFC08B102
:1034600003260CE059F824002968814201D0022685
:1034700005E0641C2D1DBC4201D24545E8D901F090
:103480005DFC3046BDE8F087FCFF1F080E4A13685C
:1034900023F44073136003290DD0012911680FD064
:1034A00041F40041116011684FF4803343EA002079
:1034B000014311607047116848F204031943F1E7B2
:1034C00041F00401EEE70000103C0240064A136898
:1034D00023F44073136013681360136843F001030F
:1034E0001360017070470000103C0240094910B59C
:1034F0000C6824F440740C600C6844F440740C6054
:103500000C6844F001040C600260BFF36F8F4360ED
:1035100010BD0000103C0240074A136823F44073BA
:103520001360136843F480731360136843F001035E
:103530001360018070470000103C0240074A136886
:1035400023F440731360136843F40073136013682B
:1035500043F001031360016070470000103C02401B
:103560001C490868C2061C4805D5C26942F0100211
:10357000C26110220A600A68920605D5C26942F04B
:103580000802C26120220A600A68520605D5C26993
:1035900042F00402C26140220A600A68120605D5A0
:1035A000C26942F00202C26180220A600A68D20542
:1035B00006D5C26942F00102C2614FF480720A600E
:1035C0000A68920705D5C26942F02002C261022052
:1035D000086070470C3C02404C94012070B51149C2
:1035E00004460020C86101F043FD06460E4D09E087
:1035F000601C07D024B101F03BFD801BA04201D923
:10360000032070BD2868C003F2D42868C00701D029
:1036100001202860286810F4F970F2D0FFF7A0FFAD
:10362000012070BD4C9401200C3C02402DE9F04774
:1036300088B007003048109E1D469246894606D045
:10364000012F07D04FF0FF3008B0BDE8F087447974
:10365000012001E0847905200DF1040804AB03AAE0
:1036600002A9CDF8008000F099FC10B16FF00100C4
:10367000EAE7BDF80C00BDF8081000B200FA81F0CE
:10368000A9F80000BDF80400BDF8101000B200FA5F
:1036900081F0AAF80000FF2C08D02146384600F03F
:1036A000B7F9002805DA6FF00200CDE70020288086
:1036B0001FE0124900EB800001EB400004AB807971
:1036C00003AA02A9CDF8008000F068FC10B16FF0E9
:1036D0000300B9E7BDF80C00BDF8081000B200FA0D
:1036E00081F02880BDF80400BDF8101000B200FA87
:1036F00081F030800020A7E700FC02203085012007
:103700002DE9F04FDFF820828DB0060006D0012EA3
:1037100007D04FF0FF300DB0BDE8F08F98F805509E
:1037200001E098F806506FF00109FF2D30D02946CE
:10373000304600F06DF900280EDA2B4632467BA1A8
:10374000844807F0AFFA8348FCF701FE024681493E
:10375000002006F00FFF1BE07F4900EB800201EB29
:10376000420494F803B01EB1A1886FF0170205E07F
:10377000202D0FD3402D0DD0A188182202EBC000C0
:10378000084487B204AA3946A02009F0A1F828B15C
:103790004846C0E7A18801EBC000F2E73F1DB9B27F
:1037A00003AAA02009F094F810B16FF00200B2E76C
:1037B0000DF1140A08AB07AA06A95846CDF800A0D7
:1037C00000F0ECFB10B16FF00300A4E704980028B0
:1037D00002DBBDF8181001E0BDF81C108946039902
:1037E000002902DBBDF8207001E0BDF814700BF079
:1037F000F7FD0146484604F0CBF880B103980BF082
:10380000EFFD0146384604F0C3F840B15846FDF7D5
:10381000AFFDA7790820CEB1202D22D218E0039861
:103820004A46CDE900704DA14A48049B07F03AFA98
:103830004848FCF78CFD02464649002006F09AFEF7
:10384000584606F06DFB6FF0040064E7402D08D287
:10385000627805F01F01891A00EBC1002189084434
:1038600001E02089503084B204AA2146A02009F04A
:103870002FF810B16FF005004DE7241DA1B203AA87
:10388000A02009F025F810B16FF0060043E708AB5F
:1038900007AA06A93846CDF800A000F07FFB10B1BA
:1038A0006FF0070037E70498002802DBBDF81850D6
:1038B00001E0BDF81C500399002902DBBDF820404F
:1038C00001E0BDF814400BF08BFD0146284604F0E2
:1038D0005FF870B103980BF083FD0146204604F0B9
:1038E00057F830B13846FDF743FDCEB198F90600E0
:1038F00011E703982A46CDE9004025A11548049B0D
:1039000007F0D0F91348FCF722FD024611490020C8
:1039100006F030FE384606F003FB6FF00800FAE6CA
:1039200098F90500F7E6000000FC0220496E766178
:103930006C696420737769746368206368616E6E74
:10394000656C206E756D626572203A2025752025A4
:10395000750A00003589012030850120466972739F
:1039600074206C6576656C20737769746368204495
:10397000412F414420646966666572656E743A2021
:1039800025752C2025642C2025752C2025640A0003
:103990005365636F6E64206C6576656C2073776920
:1039A0007463682044412F414420646966666572EF
:1039B000656E743A2025752C2025642C2025752CE5
:1039C0002025640A000000007CB5044606236A46F0
:1039D0004FF44151A02005F09BFE05000DD1684633
:1039E000FDF77CF809492060884207D0002021605B
:1039F00020716071204607F021F87CBD9DF804001D
:103A000020719DF80500607128467CBD5A5AA5A515
:103A100070B5030001F01F0203D0202906D2521C0A
:103A200009E04029FBD3422902D303E0212901D236
:103A3000212200E0FF220D4900200C68091D0EE044
:103A400000EB800511F815609E4207D101EB45059A
:103A50006E78964202D8AD78954202D2401CA042C0
:103A6000EED3A04201D34FF0FF3070BD2C85012072
:103A700030B589B0044620236A4643F22001A020D5
:103A800005F046FE050019D16846FDF727F82060CD
:103A900007A8FDF723F813496060884210D0124848
:103AA000216061600168E1600068A0600F48016802
:103AB000A16100686061204607F016F809B030BDCA
:103AC00001A8FDF70BF8E06002A8FDF707F8A06079
:103AD00003A8FDF703F8A06104A8FCF7FFFF6061ED
:103AE0002846EBE75A5AA5A5981E0120B41E0120CE
:103AF0002DE9F04FF44C0D462DED0E8B8FB004F1F7
:103B0000180B9FEDF2BB9FEDF3CB9FEDF4DB9FED28
:103B1000F5AB9FEDF68B9FEDF7EB627A267A94F882
:103B200007C005AF41F2523A41F252499FEDF39B73
:103B30006379A17914287DD2DFE800F00A3260872A
:103B4000BCC0CAD9DCE0F7FFF4F3F2F1F0EFEEED20
:103B500001A90AB10B2000E0032005F04FF900286D
:103B600069D1BDF80400FCF7DAFD53EC1B2BFCF720
:103B7000E4FC53EC1C2BFCF7E0FC41EC100B8DED4E
:103B8000020B9FEDE01B53EC112BFCF748FD53ECAF
:103B90001D2BFCF7D2FC41EC100B8DED020B27E046
:103BA00001A90AB1082000E0002005F027F99FEDE7
:103BB000D79B0028D4D1BDF80400FDF707F95CE1DC
:103BC000FCF7BBFC53EC182B41EC100B51EC100B29
:103BD000FCF70CFC0AE000BFFCF7AFFC53EC182B21
:103BE00041EC100B51EC100BFCF7A1FC41EC100B5D
:103BF00051EC100BFCF7A0FD294666E001A90AB1C3
:103C00000A2000E0022005F0F9F80028A8D1BDF84C
:103C10000400FCF784FD53EC1B2BFCF78EFC53ECEB
:103C20001C2BFCF78AFC41EC100B53EC1E2B8DED8A
:103C3000020B01E07AE1E4E0FCF779FC9FEDB51BB3
:103C400053EC112BFCF7EBFC22E001A90AB109208F
:103C500000E0012005F0D2F80028ABD1BDF8040047
:103C6000FCF75DFD53EC1B2BFCF767FC53EC1C2BA6
:103C7000FCF763FC41EC100B53EC1E2B8DED020B9B
:103C8000FCF755FC9FEDA51B53EC112BFCF755FCE5
:103C900053EC1D2BFCF751FC41EC100B53EC1A2B91
:103CA0008DED020BFCF798FD53EC182B9DED020BEC
:103CB00098D88BE729464FF0004006E0E07A1AE0FA
:103CC0002946012001E029460020FCF7FCFE57E0D0
:103CD00094481AB1002EF6D0C11403E0002EF2D0A1
:103CE0004FF4806101F0BAF90128ECD1E8E7002E29
:103CF000E9D0E5E7207B0028E5D0E1E702A901A8AB
:103D000008F06AFF01287CD0D4D800BF53EC1A2BEE
:103D10009DED020B7BE0D2E0C3E0B8E084E049E037
:103D20003EE033E019E008E0FFE702A901A808F04F
:103D3000D9FD012865D0E9D9BCE708AB07AA06A9D7
:103D40004FF00000009726E0BDF81800294680B229
:103D5000FCF7B5FEBDF820000EE008AB07AA06A9E7
:103D60000020009721E000BFBDF81C00294680B26A
:103D7000FCF7A5FEBDF81400A91C80B2FCF79FFE5D
:103D800000200FB0BDEC0E8BBDE8F08F08AB07AA8A
:103D900006A901200097FFF749FC0028D4D089E745
:103DA00008AB07AA06A901200097FFF73FFC0028EF
:103DB000DAD07FE7BCF1000FBED1402BBCD202A904
:103DC00001A808F009FF01285CD0B5D861794FF04F
:103DD00002030AEB810104AA4FF0A00005F098FC51
:103DE00004A8FCF778FE00B2FCF788FC53EC192B12
:103DF000FCF715FC41EC100B53EC102B9DED020B66
:103E000000E03FE051EC100BFCF791FB33E051EC8C
:103E1000100BFCF7E1FC9DED020B53EC192B51EC60
:103E2000100B3FF6D9AECBE6202985D202A901A816
:103E300008F058FD012825D0B1D8A1794FF0020330
:103E400009EB810104AA4FF0A00005F061FC04A871
:103E5000FCF741FE00B2FCF751FC53EC192BFCF7C8
:103E6000DEFB41EC100B53EC102B9DED020B51ECE3
:103E7000100BFCF7BBFA41EC100B53EC1A2B8DED39
:103E8000020BC4E70521584605F0F4FE12E7BCF129
:103E9000000F01D1402B01D32348ADE60AEB83018B
:103EA00003E0202985D209EB8101022304AAA02086
:103EB00005F02EFC04A8FCF70EFE00B29CE6002ADA
:103EC0003FF401AFFCE6000000FC0220000000000F
:103ED0000000303F0000000000000440000000002F
:103EE00000408F40000000000000000000000000C3
:103EF0000000E03F000000000000F43F0000000070
:103F000000005940000000000000364000000000A2
:103F1000000024403D0AD7A3703DD23F00000000BE
:103F2000000010400014024090E8FFFF012028E745
:103F300030B505462DED028B83B09FED168B002426
:103F4000694602A808F0CEFC20B1012003B0BDEC08
:103F5000028B30BD9DED000B51EC180B53EC102B78
:103F6000FCF744FA41EC180B0F200BF051FA641CDB
:103F7000E4B20A2CE4D32046FCF7D1FB41EC100B51
:103F800051EC180B53EC102BFCF749FBC5E9000171
:103F90000020DBE700000000000000002DE9F041F8
:103FA0009846069D16460B46092828D238B3154A6E
:103FB000002100BF01EBC104145D844202D0491C02
:103FC0000829F7D301EBC10084181946607905F080
:103FD0008BFC0746A079314605F086FC40EA0706CF
:103FE000E079414605F080FC0643207A294605F039
:103FF0007BFC304301D06FF00100BDE8F0814FF051
:10400000FF30FAE76C85012070B5002438B1284DE7
:104010004021284601F022F8012825D025E0254D31
:104020004FF48061284601F019F8012800D11024CE
:104030004FF40071284601F011F8012801D144F035
:1040400008044FF48071284601F008F8012801D1D6
:1040500044F004048021284601F000F8012801D131
:1040600044F00204402119E010242021284600F0E9
:10407000F5FF012801D144F008041021284600F082
:10408000EDFF012801D144F004040821284600F086
:10409000E5FF012801D144F002040421284600F084
:1040A000DDFF012801D144F00104204670BD00006D
:1040B000000C0240001C024070B500242DED0A8B5C
:1040C00084B0064625469FED40BB9FED419B694667
:1040D00002A808F081FD20B1012004B0BDEC0A8BDC
:1040E00070BDECB3052C67D253EC1B2B51EC180BB5
:1040F000FCF77CF99DED001B53EC112BFCF76CFBDE
:1041000049D8B0EE4B0AF0EE6B0A53EC102B51EC91
:10411000180BFCF70CFA9DED001B53EC112BFCF770
:1041200043FB38D853EC192B51EC1A0BFCF75EF912
:104130009DED001B53EC112BFCF74EFB2BD8B0EE82
:1041400049CAF0EE69CA53EC1C2B51EC1A0BFCF770
:10415000EEF99DED001B53EC112BFCF725FB00E065
:1041600011E018D89DED000B641CE4B253EC102B49
:1041700051EC180BFCF73AF953EC1C2BFCF7DDF96A
:1041800041EC180B0AE09DED008B0124B0EE48AA2B
:10419000F0EE68AA02E000246D1CEDB2052D0FD9E7
:1041A0000DA1144806F07EFD1248FCF7D0F8024637
:1041B0001049012006F0DEF986ED008B00208CE727
:1041C00003200BF025F982E7333333333333D33F06
:1041D000000000000000E03F47657420546170203B
:1041E000504420506F7765722065786365707469FC
:1041F0006F6E0A003589012070B50D462DED088BD4
:1042000001464FF000409FED859B461E9FED85BB0C
:104210009FED86AB9FED878B884C0B2977D2DFE82B
:1042200001F00647777D899AAEC2D6F5F50094ED88
:104230003C0B53EC1B2B51EC100BFCF7B5FA94ED37
:104240003C0B53EC1A2B51EC100B06D2FCF775F912
:1042500053EC182BFCF76BF905E0FCF76EF953EC07
:10426000182BFCF7C3F8FCF767FA2946FCF72BFC80
:1042700094ED380B53EC1B2B51EC100BFCF794FA1C
:1042800094ED380B40D200BF53EC1A2B51EC100BBD
:10429000FCF753F953EC182BFCF749F941EC100BE0
:1042A00053E000BFFCF70FFC0020BDEC088B70BD95
:1042B00094ED540B53EC1B2B51EC100BFCF774FAE0
:1042C00094ED540B53EC1A2B51EC100B06D2FCF767
:1042D00034F953EC182BFCF72AF905E0FCF72DF91B
:1042E00053EC182BFCF782F8FCF726FA2946FCF76A
:1042F000EAFB94ED500B53EC1B2B51EC100BFCF72D
:1043000053FA94ED500BBFD353EC1A2B74E083E0B7
:104310002946FCF7D8FB94ED580B16E094ED440BBE
:1043200051EC100BFCF708FA2946FCF7CCFB94ED96
:10433000400B0AE094ED4C0B51EC100BFCF7FCF930
:104340002946FCF7C0FB94ED480B51EC100BFCF731
:10435000F3F9291DA6E794ED2C0B53EC192B51EC26
:10436000100BFCF7EAF853EC182BFCF73FF8FCF7BE
:10437000E3F92946FCF7A7FB94ED280B3AE094ED0E
:104380001C0B53EC192B51EC100BFCF7D6F853EC2B
:10439000182BFCF72BF8FCF7CFF92946FCF793FB19
:1043A00094ED180B26E094ED240B53EC192B51ECF3
:1043B000100BFCF7C2F853EC182BFCF717F8FCF7BE
:1043C000BBF92946FCF77FFB94ED200B12E094ED3E
:1043D000340B53EC192B51EC100BFCF7AEF853ECEB
:1043E000182BFCF703F8FCF7A7F92946FCF76BFB41
:1043F00094ED300B53EC192B51EC100BFCF79DF89E
:1044000053EC182BFBF7F2FF48E7FFE72946FCF7D0
:104410005AFB291D304645E7012046E70000000011
:1044200000005940000000000000000000000000F3
:1044300000002440000000000000E03F00FC0220DB
:104440009FED410B80ED000B9FED410B80ED020BCA
:104450009FED410B80ED040B9FED410B80ED060BB2
:104460009FED410B80ED080B9FED410B80ED0A0B9A
:104470009FED410B80ED0C0B9FED410B80ED0E0B82
:104480009FED410B80ED100B9FED410B80ED120B6A
:104490009FED410B80ED140B9FED410B80ED160B52
:1044A0009FED410B80ED180B9FED410B80ED1A0B3A
:1044B0009FED410B80ED1C0B9FED410B80ED1E0B22
:1044C0009FED410B80ED200B9FED410B80ED220B0A
:1044D0009FED410B80ED240B9FED410B80ED260BF2
:1044E0009FED410B80ED280B9FED410B80ED2A0BDA
:1044F0009FED410B80ED2C0B9FED410B80ED2E0BC2
:104500009FED410B80ED300B9FED410B80ED320BA9
:104510009FED410B80ED340B9FED410B80ED360B91
:104520009FED410B80ED380B80ED3A0B80ED3C0B9D
:1045300080ED3E0B9FED3E0B80ED400B9FED3E0B63
:1045400080ED420B0020704795438B6CE7FB0B40DE
:10455000B81E85EB51B80B4037894160E5D0084063
:1045600014AE47E17A1409400F2DB29DEFA7124017
:104570007C14AE47E17A124025068195438B1040AA
:10458000B81E85EB51B81040343333333333154004
:104590000000000000001540CCCCCCCCCCCC1240AC
:1045A0000000000000001340F6285C8FC2F5504068
:1045B000CDCCCCCCCCCC504014AE47E17A144E409C
:1045C0006666666666664E406666666666765540F0
:1045D000000000000040554033333333333324C0F0
:1045E00000000000000024C00000000000C0824065
:1045F00000000000003081400000000000C082C0C8
:1046000000000000003081C00000000000209C403D
:104610000000000000589B400000000000209CC0EB
:104620000000000000589BC00000000000000000D7
:104630000000000000005640000000000000544050
:10464000F0B506462DED028BA3B05948B0EE408A76
:10465000F0EE608A417A0020A9B3564F39780029DC
:1046600079D0554C012976D094ED040B51EC180B00
:1046700053EC102BFCF798F80DD3387800EB400082
:1046800004EBC00010ED020B51EC180B53EC102B97
:10469000FCF7A2F802D2182247494FE001250EE0AC
:1046A00005EB450004EBC00090ED040B51EC180B3A
:1046B00053EC102BFCF778F86CD96D1CEDB2387800
:1046C0008542EDD366E01AE0FBF71DFE182210A923
:1046D00004A8FBF718FE0CACB0EE480A94E80F00F3
:1046E0008DE80F00DDE90A23F0EE680A1CA8FCF74C
:1046F00091FA18221CA916A8FBF705FE2CE02F4FF3
:10470000397839B32E4C012925D094ED040B51ECA6
:10471000180B53EC102BFCF747F80DD3387800EB4F
:10472000400004EBC00010ED020B51EC180B53ECF1
:10473000102BFCF751F818D2214918220AA8FBF7D0
:10474000E2FD3878182200EB400004EBC00110A80D
:104750001839B9E7FFE71690182216A93046FBF77B
:10476000D2FD23B0BDEC028BF0BD01250FE000BFF0
:1047700005EB450004EBC00090ED040B51EC180B69
:1047800053EC102BFCF710F804D96D1CEDB23878FF
:104790008542EDD305EB450004EBC004A4F11801FC
:1047A00018220AA8FBF7AFFD2146182210A88BE7B4
:1047B00000FC0220C1850120988E0120C0850120C7
:1047C000A88D012030B587B0044616236A464FF401
:1047D0004051A02004F09CFF05001ED16846FCF764
:1047E0007DF920609DF8040020719DF8050060713E
:1047F0000DF10600FCF772F9A0600DF10A00FCF75C
:104800006DF9E0600DF10E00FCF768F920610DF123
:104810001200FCF763F96061284607B030BD2DE94E
:10482000F0410446876D00F023FC064694F83500FD
:104830000025022806D08020606584F834500120CD
:10484000BDE8F0812068016821F016010160206850
:10485000416921F080014161206C08B9A06C20B150
:104860002068016821F0080101602068016821F0DA
:10487000010101600BE000F0FBFB801B052806D95D
:104880002020606504F8345F03206070D8E720685A
:104890000068C007EFD194F85C103F208840B860F2
:1048A00004F8345F012060700020C9E790F83510EB
:1048B000022903D08021416501207047052180F83D
:1048C00035100068016821F0010101600020704787
:1048D0002DE9F84304464FF00009CDF800906348F5
:1048E0004FF41651A56D0068B0FBF1F72E6894F8EF
:1048F0005C10082000FA01F131420FD021680A68EB
:1049000052070BD50A6822F004020A6094F85C1082
:104910008840A860606D40F00100606594F85C100C
:104920004FF0010808FA01F0304208D021684969C7
:10493000090604D5A860606D40F00200606594F837
:104940005C1004208840304208D02168096889073B
:1049500004D5A860606D40F00400606594F85C10B8
:1049600010208840304218D021680968090714D502
:10497000A86020680168490304D50068000308D5D1
:10498000A16C07E00168C90503D4016821F00801A2
:104990000160216C09B12046884794F85C10202002
:1049A0008840304231D021680968C9062DD5A860F9
:1049B00094F8350005282068016806D0490347D5DA
:1049C000006800031DD4616C1CE021F01601016039
:1049D0002068416921F080014161206C08B9A06C18
:1049E00020B12068016821F00801016094F85C1092
:1049F0003F208840A86084F8349084F83580216D89
:104A00001FE0E16B09B120468847606D00282BD07C
:104A1000606DC00714D0052084F835002068016857
:104A200021F0010101600098401C0090B84203D8B9
:104A300020680068C007F6D184F8349084F8358087
:104A4000E16C002910D001B02046BDE8F0430847D2
:104A50000168C905D5D4016821F01001016084F80E
:104A6000349084F83580CCE7BDE8F8837486012063
:104A70002DE9F041044600F0FBFA06465CB1002542
:104A800084F83450022084F835002068016821F051
:104A9000010101600DE00120BDE8F08100F0E8FABD
:104AA000801B052805D920206065032084F8350087
:104AB000F2E720680068C007F0D12268116820483A
:104AC0000140D4E901031843D4E9033633431843C2
:104AD00063691843A3691843E3691843236A1843B9
:104AE0000843616A042903D1D4E90B13194308432D
:104AF000106020684069666A20F0070130460E4366
:104B0000012704280CD1A06A0643E06A40B1204680
:104B1000FEF770FB20B14020606584F83570BAE77D
:104B2000206846612046FEF751FB94F85C203F2147
:104B300091408160656584F835700020ACE7000025
:104B40003F8010F02DE9F0410446866D90F8340066
:104B5000002501280DD0012084F8340094F8357028
:104B60000020012F07D084F8340002252846BDE834
:104B7000F0810220FBE7022784F83570606520464B
:104B8000FEF762FB94F85C103F208840B06020681C
:104B9000016841F016010160206C20B120680168B5
:104BA00041F0080101602068016841F001010160E5
:104BB000DCE7000070B5174900240A7E012A1ED0E8
:104BC000154A01230B76156845F080751560156848
:104BD00045F000751560104DF3222D1F2A60026804
:104BE000012A0ED00B70C2684A608268CA60027CDB
:104BF0000A72017C8068FEF7A5FB204670BD02208A
:104C000070BD02220A7042680A614168007CFEF7AA
:104C10003DFCF2E74C940120103C02400EB5401CD4
:104C200015D100F08BF80D49002048700C494A78E6
:104C300072B10C4B01225A71487002208DF80000AD
:104C4000094800231A46694600680AF0C5FC0EBDF3
:104C5000064800680AF036FE0EBD0000B48501204B
:104C600000890120388D012008860120FC85012063
:104C70002DE9F0412F4F38682F4C10F4F97F4FF099
:104C8000FF384FF000050DD0207801282ED0207875
:104C900002282FD0D4F81460FEF762FC304600F0F2
:104CA00057F825703868C0070BD00120386020788D
:104CB000012821D02078022838D06069FFF7AEFFA4
:104CC0002570207800280FD11A48001D016848F28D
:104CD000FF0291430160016821F080710160016869
:104CE00021F0007101602576BDE8F081E668C4F826
:104CF0000C80D1E72669CFE76068401E606060687D
:104D000050B1E068FFF78AFFE068401CE060E068AF
:104D1000217AFEF717FBD4E74646C4F80C802570CD
:104D2000FEF73AFB3046FFF779FFCAE7FEF734FBA0
:104D30002069C3E70C3C02404C9401200348016801
:104D400041F000410160002070470000103C02402B
:104D5000704700002DE9F0471B4E05461446307E93
:104D60001F468946012808D0012030764CF2503881
:104D70004046FEF733FC18B114E00220BDE8F0878E
:104D80009DB1012D16D0022D19D022463B46484632
:104D9000FEF7ACFB4046FEF721FC0C490A6822F006
:104DA00001020A6000213176E8E7E1B24846FEF7E9
:104DB0008DFBEFE7A1B24846FEF7AEFBEAE72146DE
:104DC0004846FEF7BBFBE5E74C940120103C02404F
:104DD000074900200A68002A09DA054A054B0C3AFF
:104DE0001360054B13600968002900DA0120704741
:104DF000103C024023016745AB89EFCD3EB5174C0F
:104E0000B0F5005F10D0022817D0012824D1BFF3DD
:104E10004F8F13480168134A01F4E06111430160A8
:104E2000BFF34F8F00BFFDE74FF480510E4800F0F5
:104E300015F9012810D0032006E008210B4800F0E6
:104E40000DF9012808D004208DF8000000231A462F
:104E5000694620680AF0C0FB3EBD000008860120BC
:104E60000CED00E00400FA05001C024000040240C2
:104E7000044910B50A68024202D00860FFF7BEFF7D
:104E800010BD0000143C01402DE9F84F00224FF006
:104E9000010803254FF00F0E0B6808FA02F42340B7
:104EA000A3426ED14E68012E05D0022E03D0112EE2
:104EB00001D0122E12D186684FEA420C05FA0CF787
:104EC000BE43CF6807FA0CF7374387604668A643AE
:104ED0000C79C4F30014944034434460C66857000E
:104EE00005FA07FC8C6826EA0C06BC403443C46013
:104EF0004C68022C01D0122C13D1D40800EB84048E
:104F0000A346D4F8209054074FEAD46A0EFA0AF662
:104F100029EA06090E6906FA0AF646EA0906CBF8F6
:104F2000206004680E7924EA0C0406F00306BE40F3
:104F3000264306604C68E4006FD53B4C266846F477
:104F400080462660246822F0030604F4804400941E
:104F5000364C3444A446D4F808489607360F0EFA67
:104F600006F7BC43324FB84201D100272EE0314F43
:104F7000B84201D1012729E02F4FB84202D10227C0
:104F800024E04AE02D4FB84201D103271EE02C4F08
:104F9000B84201D1042719E02A4FB84201D10527B0
:104FA00014E0294FB84201D106270FE0274FB8423D
:104FB00001D107270AE0264FB84201D1082705E0B2
:104FC000244FB84201D1092700E00A27B740274300
:104FD000CCF80878204E34684F689C43FF0300D516
:104FE0001C4334601C4E361D34684F689C43BF031D
:104FF00000D51C433460184E083634684F689C4313
:10500000FF0200D51C433460134E0C3634684F68E1
:105010009C43BF0200D51C433460521C102AFFF48D
:105020003BAFBDE8F88F000044380240003001403B
:10503000000002400004024000080240000C024050
:10504000001002400014024000180240001C024000
:105050000020024000240240003C0140006908405A
:1050600000D0012070470AB1816170470904FBE755
:1050700001488068704700006886012090F83D2054
:10508000202A01D002207047242280F83D200268A7
:10509000136823F0010313600268536A23F01003BE
:1050A00053620268536A0B43536201680A6842F014
:1050B00001020A60202180F83D100020704790F81E
:1050C0003D20202A01D002207047242280F83D2074
:1050D0000268136823F00103136003685A6A22F020
:1050E0000F020A4391B2596201680A6842F0010254
:1050F0000A60202180F83D100020704770B5040040
:1051000025D094F83D00002520B984F83C50204675
:1051100000F04CFA242084F83D002068016821F05A
:10512000010101602068016841F4004101602068CC
:10513000016821F40041016000F09AFD4D4A616868
:10514000914201D84C4900E04C49884201D20120EB
:1051500070BD4B492368B0FBF1F15E6826F03F0655
:105160000E435E606368934206D94FF496735943C9
:105170004FF47A73B1FBF3F12368491C1E6A26F0E1
:105180003F06314319626168914210D84900401EC0
:10519000B0FBF1F2521CC2F30B02042A01D204202C
:1051A00022E0B0FBF1F0401CC0F30B001CE0A26851
:1051B000F2B301EBC10303EB0116431EB3FBF6F39D
:1051C0005B1C43F480431B0549D092B301EBC10241
:1051D00002EB0111401EB0FBF1F0401CC0F30B00CC
:1051E00040F4804040F400402168CA694CF6FF73E7
:1051F0009A431043C861D4E907100143206802684C
:1052000022F0C00211430160D4E903010143206888
:10521000826848F2FF339A4311438160D4E9050163
:1052200008432168CA6822F0FF021043C86001E009
:105230000EE016E02068016841F00101016025647C
:10524000202084F83D00256384F83E50002070BD86
:1052500001EB4106431EB3FBF6F35B1CB3E70120F1
:10526000C2E701EB4101401EB0FBF1F0401CC0F36E
:105270000B00B7E7A086010080841E0000093D00F6
:1052800040420F002DE9FF4F83B09A46DDE91197A8
:1052900093460446DDF84080FFF7EAFE054694F8A1
:1052A0003D00202870D11923012271492046009524
:1052B00002F0BAF90028F5D194F83C00012863D037
:1052C000012084F83C0020680168C90703D1016807
:1052D00041F0010101602068016821F40061016072
:1052E000222084F83D00402084F83E0000262664F9
:1052F000C4F82480A4F82A90608D20855D48E0627F
:10530000CDE9007553465A462046049902F094F8B8
:1053100000287CD1208DD0B1012821D0022820681E
:1053200024D0416980690090208D032869D8012824
:105330002BD0514902283B464FF00002009559D02E
:105340008846204602F070F9002860D13CE02068D1
:10535000416981690091016841F40071016077E061
:105360002068016821F480610160F0E7016821F4A0
:10537000806101602068016841F40061016020687B
:1053800041698069009063E06FE02A463946204613
:1053900002F0C9F998BB20680069616A08704EE0A4
:1053A0002068016841F40071016020680069616A49
:1053B0000870606A401C6062218D491E2185618DE4
:1053C000491E6185216838E02068016821F4806108
:1053D000016020680069616A0870606A401C606250
:1053E000208D401E2085608D401E60853B4600223A
:1053F00041460095204602F017F900B9D0E706E0D3
:10540000FFE72A463946204602F08DF918B10120FF
:1054100007B0BDE8F08F20680069616A0870606AB3
:10542000401C6062218D491E2185618D491E618568
:1054300021684A69D24352070AD409690170606A37
:10544000401C6062208D401E2085608D401E60855E
:10545000208D00287FF468AF202084F83D0084F878
:105460003E6084F83C600020D2E70220D0E70000D4
:10547000020010000000FFFF040001002DE9FF4FB3
:1054800083B09A46DDE9119793460446DDF84080E3
:10549000FFF7EEFD054694F83D0020287FD1192343
:1054A000012240492046009502F0BEF8002876D13E
:1054B00094F83C00012872D0012084F83C00206858
:1054C0000168C90703D1016841F00101016020684A
:1054D000016821F400610160212084F83D00402032
:1054E00084F83E0000262664C4F82480A4F82A909C
:1054F000608D20852C48E062CDE9007553465A4600
:105500002046049902F016F870B930E02A46394670
:10551000204602F03BF958B1206C042804D12068E1
:10552000016841F400710160012007B0BDE8F08F0F
:10553000606A216800780861606A401C6062218DA1
:10554000491E89B22185628D521E62852268536987
:10555000DB435B070BD469B100781061606A401CC3
:105560006062208D401E2085608D401E6085208DEC
:105570000028CBD12A463946204602F02FF80028D1
:10558000CAD154F83D0B016841F40071016020203C
:1055900004F81E09E67766770020C6E7FFE70220D9
:1055A000C3E70000020010000000FFFFF0B587B065
:1055B000044614216846FAF7BFFE2668214C204FA6
:1055C000204812220123032104251034BE4219D1A0
:1055D000066846F0020606600068CDE9023100F078
:1055E00002000590C020CDE90002049569461648E6
:1055F000FFF74AFC206840F400102060206800F4A7
:10560000001019E0114FBE4217D1066846F020067F
:105610000660006800F0200005908DE80E00CDE9DE
:10562000031569460A48FFF72FFC206840F4800004
:105630002060206800F48000059007B0F0BD0000F5
:10564000005400403038024000040240005800403E
:105650000014024070B5040011D021684CF6CC4013
:105660000860216845F255500860D4E900014160A6
:105670002168A0688860FFF7FBFC054609E001206F
:1056800070BD00BFFFF7F4FC401B302801D9032098
:1056900070BD2068C0680028F4D121684AF6AA20AD
:1056A0000860002070BD00684AF6AA210160002051
:1056B0007047000002488168027811448160704799
:1056C000688601200B4810B5016841F40071016043
:1056D000016841F480610160016841F480710160FA
:1056E000032000F097F8002000F006F800F03EF8E4
:1056F000002010BD003C024010B5014688B00022D9
:105700001A2000F067F81A2000F056F81348002419
:10571000016841F480210160006805A900F480203F
:105720000690684600F084FA00F0B2FA0C49400096
:10573000B0FBF1F10C480B4A491E026040F2E7321F
:10574000C0E90324C0E9011401F03AF910B10120C5
:1057500008B010BD044801F06DF9F9E74438024083
:1057600040420F00004801400C940120114808B548
:10577000016841F480410160006800F480400090BD
:105780000C48001F016841F0805101600068002250
:1057900000F0805000900F21901E00F01BF80022B6
:1057A0000621042000F016F8BDE80840042000F0AF
:1057B00003B8000044380240002809DB00F01F0253
:1057C000012191404009800000F1E020C0F8001163
:1057D00070470000F0B40E4B1B680C46C3F3022365
:1057E000C3F10705042D00D90425191D072901D28D
:1057F000002300E0DB1E012606FA05F1491E2140C8
:1058000099409E40761E16403143F0BC05F05EBACA
:105810000CED00E0064900F0070208684FF6FF03B0
:10582000184040EA0220034A104308607047000015
:105830000CED00E00000FA052DE9F8431748016877
:1058400041F0805101600068154F00F08050012642
:1058500000903E64FFF70CFC05464FF47A78114C3B
:1058600005E000BFFFF704FC401B40450DD8606811
:10587000C003F7D57E64FFF7FBFB0546464607E00D
:10588000FFF7F6FB401BB04202D90320BDE8F883C6
:1058900060688003F4D50020F8E70000403802403B
:1058A00000000E42007000402DE9F84F04460068E9
:1058B000DFF824A2894F8A4DC1074FF001084FF04D
:1058C000000603D1810701D4400648D5CAF86860B4
:1058D000FFF7CEFB814605E0FFF7CAFBA0EB09000E
:1058E00002287DD828680001F6D42078C1077D48B9
:1058F00005D06168227A890141EA0271016021784C
:10590000890711D501686268237B9201C1F3027196
:1059100042EA036242EA017101603968E26921F0FA
:105920001F01521E114339602178490608D561686C
:10593000227B890141EA0261227A41EA0271016017
:10594000CAF86880FFF794FB814605E0FFF790FBFB
:10595000A0EB0900022843D828680001F6D520688A
:10596000410701D400074ED5CAF87060FFF780FBED
:10597000814605E0FFF77CFBA0EB090002282FD849
:105980002868C0438000F5D520784107564814D5D3
:1059900001682269237D9201C1F3027142EA036228
:1059A00042EA017101603968226A6FF0FF0321F455
:1059B000F85103EB0222114339602178090712D50F
:1059C00001682269C1F30361920142EA0161227E0A
:1059D00041EA027101603868616A20F4403000E0F9
:1059E00051E008433860CAF87080FFF741FB074672
:1059F00005E000BFFFF73CFBC01B022843D8286826
:105A0000C0438000F6D42078800653D53448403017
:105A1000016841F0805101600068344D00F0805011
:105A20000090286840F480702860FFF721FB07464B
:105A300005E000BFFFF71CFBC01B022823D8286825
:105A4000C005F7D5274D143D286810F4407020D0CC
:105A5000218D01F4407181421BD0286820F44071EF
:105A60002348C0F80080066029602868C00710D06D
:105A7000FFF7FEFA064641F2883707E0FFF7F8FA2B
:105A8000801BB84202D90320BDE8F88F2868800740
:105A9000F4D5A16A1248C1F301220830032A13D0B9
:105AA000016821F4F81101602868218DC1F30B0110
:105AB000084328602078C00604D50E4994F82C00CD
:105AC000C1F8E0010020DFE702680B4B22F4F81276
:105AD00019400A430260E7E7000047428C38024061
