:020000042000DA
:1000000098DB0120810200202F800020E76B002078
:100010002D800020EB0A002039A000200000000005
:10002000000000000000000000000000C1010020EE
:10003000892B0020000000001D0200207196002086
:100040009B0200209B0200209B0200209B020020BC
:10005000D52C00209B020020D12B0020DF2B00207C
:100060009B0200209B0200209B0200209B0200209C
:100070009B0200209B0200209B0200209B0200208C
:100080009B0200209B0200209B0200209B0200207C
:100090009B0200209B0200209B0200209B0200206C
:1000A0009B0200209B0200205D9700209B02002005
:1000B0009B0200209B0200209B0200209B0200204C
:1000C0009B0200209B0200209B0200209B0200203C
:1000D0009B020020219D00209B0200209B0200200B
:1000E000D72B00209B0200209B0200209B020020B7
:1000F0009B0200209B020020759700209B0200209D
:100100009B0200209B0200209B0200209B020020FB
:100110009B0200209B020020699700209B02002088
:100120009B0200209B020020D92A00209B02002075
:100130009B0200209B0200209B0200209B020020CB
:100140009B0200209B0200209B0200209B020020BB
:100150009B0200209B0200209B0200209B020020AB
:100160009B0200209B0200209B0200209B0200209B
:100170009B0200209B0200209B0200200000000048
:100180009B0200209B0200209B0200209B0200207B
:100190009B0200209B0200209B0200209B0200206B
:1001A00000000000000000009B020020DFF80CD0DF
:1001B00000F03AFC00480047C5CD002098DB012044
:1001C0002C4B19680868B0E8F04F80F30988BFF33A
:1001D0006F8F4FF0000080F311887047000000001F
:1001E00008480068006880F308884FF0000080F33A
:1001F000148862B661B6BFF34F8FBFF36F8F00DF15
:1002000000BF00BF08ED00E0DFF80C00016841F41A
:1002100070010160704700BF88ED00E0EFF30980D6
:10022000BFF36F8F134B1A681EF0100F08BF20ED3D
:10023000108A20E9F04F106009B44FF0500080F3AD
:100240001188BFF34F8FBFF36F8F0FF03FFA4FF05E
:10025000000080F3118809BC19680868B0E8F04F05
:100260001EF0100F08BFB0EC108A80F30988BFF3AE
:100270006F8F704708820120EFF305807047000000
:100280000648804706480047FEE7FEE7FEE7FEE730
:10029000FEE7FEE7FEE7FEE7FEE7FEE74597002004
:1002A000AD0100202DE9F05F0546002092469B46F7
:1002B00088460646814640241BE02846414647467C
:1002C000224600F0C6FA53465A46C01A914110D34E
:1002D00011461846224600F0ADFA2D1A67EB0108C8
:1002E0004F4622460120002100F0A4FA17EB000936
:1002F0004E41201EA4F10104DFDC484631462A4667
:100300004346BDE8F09F40EA01039B0703D009E0A4
:1003100008C9121F08C0042AFAD203E011F8013BF1
:1003200000F8013B521EF9D27047D2B201E000F84A
:10033000012B491EFBD270470022F6E710B5134689
:100340000A4604461946FFF7F0FF204610BD421C3E
:1003500010F8011B0029FBD1801A704730B5054603
:100360000020034600E05B1C934205D2EC5CC85CB5
:10037000201A01D1002CF6D130BD2DE9F05F934653
:100380000F4680460446002609F08EFED0F8009005
:10039000824614F8015B2DB100F07EFA0068405DE2
:1003A000C007F6D12B2D02D02D2D1AD0641E0021AE
:1003B000CAF800105A463946204600F071FA014644
:1003C00027B13868A04201D1C7F80080DAF80000F0
:1003D000022809D0CAF80090700505D54842BDE84A
:1003E000F09F46F48066E2E70846F8E72DE9FE4F05
:1003F000804681EA0300C00F0C46009021F00041C6
:1004000023F00045B8EB0200A94105D24046214641
:1004100090461C460B46024623F00040104347D04E
:10042000270DC7F30A00C3F30A510290401A019046
:1004300040286BDAC3F3130040F4801B0098924607
:1004400020B10023D2EB030A63EB0B0B0198594652
:10045000C0F14002504600F0EDF906460D46504608
:100460005946019A00F005FA10EB0800614100249A
:1004700087EA115284EAE7731A4340D0009A62B3C4
:10048000019A012A4FEA075215DC001B61EB0201B9
:100490004FF0004202EA0752CDE90042001C41F54C
:1004A000801132462B4600F059FA03B0BDE8F08FB8
:1004B00040462146F9E7001B61EB0201001C41F5B3
:1004C000801300185B412018A2F5001747EB0301C9
:1004D00040EAD570B6196D4111E06D084FEA360655
:1004E00045EAC0754FEA0752001B61EB0201001C90
:1004F00041F5801149084FEA300000195141324658
:100500002B4603B0BDE8F04F00F019BA0098012265
:1005100040000023D0EB020263EBE0730098214619
:100520004FEAE074B8EB000061EB0401E9E783F007
:1005300000435BE781F0004158E72DE9FE4F81EA77
:10054000030404F0004421F0004100944FF0000B3C
:1005500023F0004350EA01045ED052EA03045BD06A
:10056000C3F30A54C1F30A552C44A4F2F3340194A2
:10057000A0FB0254C1F3130141F48011C3F3130330
:1005800043F4801301FB024400FB034E840A970AE4
:1005900044EA815447EA8357A4FB076802958D0A11
:1005A00005FB07854FEA932C04FB0C542705029D9D
:1005B0004FEA065847EA1637B5EB08056EEB070C0D
:1005C000870E920E47EA811742EA8312A7FB0201C7
:1005D000B6EB0B0164EB00042B0D43EA0C335E1801
:1005E00044EB1C50DA465146E7FB0201C5F3130405
:1005F0004FEA0B3343EA14534FEA0432019C43EAB7
:100600000603A4F10C040294009CCDE900B400F0B0
:10061000A5F903B0BDE8F08F00200146F9E72DE908
:10062000F04D81EA030404F0004B21F0004514462C
:100630004FF0000A23F0004150EA050220D054EAAE
:1006400001021DD0C5F30A570246C5F31303C1F3D7
:100650001300C1F30A5640F4801543F48013A7EB4E
:100660000608101BD64608F2FD3873EB050002D3CE
:1006700008F1010801E092185B41B8F1000F03DABC
:1006800000200146BDE8F08D00204FF480110646A1
:1006900084460EE0171B73EB050705D3121B63EBB3
:1006A000050306434CEA010C49084FEA3000921852
:1006B0005B4150EA0107EDD152EA030012D082EA11
:1006C000040083EA0501084305D0101BAB4106D2A4
:1006D0000122002306E000224FF0004302E06FF009
:1006E000010253101AEB06004CEB085110EB0A0004
:1006F00041EB0B01BDE8F04D00F021B90EB5C10F83
:1007000080EAE0700844CA07002140F233438DE8D4
:100710000E000A460B4600F021F903B000BD0EB5ED
:1007200040F2334102910021CDE900110A460B4607
:1007300000F014F903B000BD70B5C1F30A5201F026
:1007400000450024C1F3130140F2FF3341F480114E
:100750009A4201DA002070BD40F233439A42A2F27D
:10076000334203DC524200F074F800E090402C4326
:10077000F1D0404270BDC1F30A5210B5C1F313016C
:1007800040F2FF3341F480119A4201DA002010BD9B
:1007900040F233439A42A2F2334203DC524200F069
:1007A00058F810BD904010BD30B5041E71F1000422
:1007B00004DB4FF00044404264EB0101141E73F16E
:1007C000000405DB1C464FF00043524263EB040378
:1007D0008B4208BF824230BD30B5041E71F1000467
:1007E00004DB4FF00044404264EB0101141E73F13E
:1007F000000405DB1C464FF00043524263EB040348
:10080000994208BF904230BD30B50B4601460020EA
:100810002022012409E021FA02F59D4205D303FAC2
:1008200002F5491B04FA02F52844151EA2F1010243
:10083000F1DC30BD202A04DB203A00FA02F100206E
:1008400070479140C2F1200320FA03F3194390400E
:100850007047202A04DB203A21FA02F00021704779
:1008600021FA02F3D040C2F1200291400843194618
:100870007047202A06DBCB17203A41FA02F043EA00
:10088000E07306E041FA02F3D040C2F12002914049
:10089000084319467047000000487047040F0120C4
:1008A0002DE9F05F82460078002715468B460AF155
:1008B0000104B946302801D09DB113E014F8010BB2
:1008C0000127782803D0582801D045B10AE00DB19E
:1008D000102D07D10027102514F8010B02E0082580
:1008E00000E00A250026B0460EE005FB080005FBE7
:1008F00006F1012701EB10461FFA80F8B6F5803F9C
:1009000000D3B94614F8010B294600F09FF80028DF
:10091000EBDABBF1000F05D00FB1641E00E05446C6
:10092000CBF80040B9F1000F06D009F0BDFB022161
:100930000160C81EBDE8F09F48EA0640FAE710B51E
:10094000141E73F1000408DA401C41F100019218F2
:100950005B411A4301D120F0010010BD2DE9F04D9B
:1009600092469B4611B1B1FA81F202E0B0FA80F2F0
:1009700020329046FFF75EFF04460F4640EA0A0029
:1009800041EA0B0153465A46084313D0114653EA35
:10099000010019D0C8F140025046FFF75AFF054642
:1009A0000E46504659464246FFF744FF084305D0DD
:1009B000012004E020463946BDE8F08D00200543C3
:1009C00046EAE0762C4337430A986305E40AA0EB35
:1009D00008000022FD0A44EA47540A3002D50020EC
:1009E0000146E9E7010510196941DDE908450019EB
:1009F0006941BDE8F04DA2E7C1F30A52C1F313010A
:100A000040F2FF3341F480119A4202DA002001469D
:100A1000704740F233439A42A2F2334202DC524220
:100A2000FFF717BFFFF706BF064C074D06E0E0686B
:100A300040F0010394E8070098471034AC42F6D325
:100A4000FFF7B8FB84100120A41001203A2800D23F
:100A5000303820F02002412A01D3A2F13700884229
:100A600001D34FF0FF30704770B58C1810F8015B60
:100A700015F0070301D110F8013B2A1106D110F837
:100A8000012B03E010F8016B01F8016B5B1EF9D13B
:100A90002B0705D40023521E0DD401F8013BFAE7C1
:100AA00010F8013BCB1A921C03E013F8015B01F82C
:100AB000015B521EF9D5A142D8D3002070BD020AB5
:100AC0000A7048707047020E0A70020C4A70020ADF
:100AD0008A70C8707047008840BA70470168C07853
:100AE00009BA21F0FF0108437047FEE730B54FF027
:100AF000FF330022064C07E0855C5D40EDB2521CDE
:100B000054F8255085EA13238A42F5D3D84330BDE3
:100B10008C06012030B503460020074C07E01D5C21
:100B20005540EDB2401C54F8255085EA1222884207
:100B3000F5D3104630BD00008C06012010B5002210
:100B4000134602E0C45C62405B1C8B42FAD3521C29
:100B5000D0B210BD10B52DED048BFFF7E0FD9FED79
:100B6000211B53EC112BFFF7E8FC9FED209B53EC6E
:100B7000192BFFF7E2FC41EC180B51EC190B53EC6D
:100B8000182BFFF7D4FC41EC100B51EC180B53EC75
:100B9000102BFFF744FD41EC100B09F089FA9FED93
:100BA000151B51EC100B53EC112BFFF7C6FC9FEDFE
:100BB000131B53EC112BFFF719FC41EC100B53ECFA
:100BC000102B9FED100B51EC100BFFF728FD9FED44
:100BD0000F1B53EC112BFFF7AAFCBDEC048B41EC6F
:100BE000100B10BD000000000000303F00000000AE
:100BF000000004400000000000A06240000000006F
:100C000000689A400000000010BD1E410000000076
:100C1000001071400FB42DED020B2DE9F047824614
:100C20002DED0C8B86B0B0EE40AAF0EE60AADDE9A7
:100C30002595DDF890809DED28BB8DED04AB9DEDF5
:100C400022CB2098FFF76BFD0E46044646EC180BAE
:100C50002846FFF764FD0F46054647EC190B53EC99
:100C60001C2B51EC1B0BFFF762FC41EC1B0B53ECF4
:100C7000182B51EC190BFFF75AFC41EC190B53ECF4
:100C80001C2B51EC1A0BFFF752FC53EC192BFFF7FE
:100C900054FC53EC1B2BFFF7C2FC53EC182BFFF753
:100CA000A5FB9FED48BB53EC1B2BFFF79FFBFFF70A
:100CB00062FD029046EC1A4B47EC1C5B1E98FFF756
:100CC0002EFD0E46044646EC180B4046FFF727FD66
:100CD0000F46054647EC190B0298FFF720FD41EC43
:100CE0001D0B53EC1A2B51EC1C0BFFF720FC41ECB5
:100CF0001C0B53EC182B51EC190BFFF718FC41ECB3
:100D0000190B53EC1A2B51EC1D0BFFF710FC53EC95
:100D1000192BFFF712FC53EC1C2BFFF780FC53EC54
:100D2000182BFFF763FB53EC1B2BFFF75FFBFFF761
:100D300022FD009046EC184B47EC1D5B1F98FFF717
:100D4000EEFC41EC190B4846FFF7E9FC41EC1A0BAD
:100D50000098FFF7E4FC41EC1C0B53EC182B51EC12
:100D60001D0BFFF7E4FB41EC1D0B53EC192B51EC71
:100D70001A0BFFF7DCFB41EC1A0B53EC182B51EC70
:100D80001C0BFFF7D4FB53EC1A2BFFF7D6FB53ECED
:100D90001D2BFFF744FC53EC192BFFF727FB53ECFB
:100DA0001B2BFFF723FBFFF7E6FC01901822694697
:100DB0005046FFF7A8FA06B0BDEC0C8BBDE8F00773
:100DC0005DF81CFB000000000000E03F10B52DEDB9
:100DD000048BFFF7A4FC9FED311B53EC112BFFF7A5
:100DE000ACFB9FED301B53EC112BFFF7A6FB9FEDE7
:100DF0002F1B53EC112BFFF712FC9FED2E1B53EC16
:100E0000112BFFF794FB9FED2D1B53EC112BFFF7DC
:100E1000EDFA41EC100B53EC102B9FED2A0B51EC2B
:100E2000100BFFF7FCFB9FED291B53EC112BFFF779
:100E30007EFB9FED281B53EC112BFFF7F0FB41ECE1
:100E4000100B09F035F9B0EE408AF0EE608A9FEDA4
:100E5000230B51EC180B53EC102BFFF76EFB9FED9F
:100E6000211B53EC112BFFF7C1FA9FED200B41EC36
:100E7000190B53EC102B51EC180BFFF75EFB9FED99
:100E80001D1B53EC112BFFF755FB53EC192BFFF7F0
:100E9000C6FBBDEC048B41EC100B10BD0000000044
:100EA0000000303F0000000000000440000000008F
:100EB0000000F43F000000000000F03F08CD1B08D8
:100EC000CD1BF03FCDCCCCCCCCCC3140B81E85EB8B
:100ED00051B81E4000000000000024400000000047
:100EE00000A062400000000000B49E40000000002E
:100EF00060DBE34000000000A0FCE740F0B52DED12
:100F0000088B8BB0B0EE408AF0EE608A00259FED32
:100F1000A1BBA24C04F1380604F1140708A802F0A2
:100F200033FD020015D09EA1A54809F087F8A4481A
:100F3000FFF70DFA0246A249002008F0EFFC97489F
:100F40000921183008F078F801200BB0BDEC088BAF
:100F5000F0BD9FED9C0B53EC102B9DED080B51EC5D
:100F6000100BFFF721FC11D29DED080B97A153EC5C
:100F7000102B934809F062F89148FFF7E8F9024610
:100F80008F49012008F0CAFC0220DEE753EC1B2B3E
:100F900051EC180BFFF72AFA9DED081B53EC112BAF
:100FA000FFF702FC10D3B0EE4B0AF0EE6B0A53ECE5
:100FB000102B51EC180BFFF7BAFA9DED081B53EC00
:100FC000112BFFF709FC7DD29FED899B6D1C0A2D2B
:100FD00015D90821384606F0ADF818B90821384669
:100FE00008F02AF88449764809F028F87448FFF791
:100FF000AEF902467249012008F090FC81E09DEDB7
:10100000080B51EC180B53EC102BFFF793FA53EC31
:10101000182BFFF78FFA41EC1A0B6846B0EE4A0A1C
:10102000F0EE6A0A02F074FF182269463046FFF7B4
:101030006AF9A06B06908DED04AB02958DED008BE7
:101040009DED080B6D4953EC102B5D4808F0F6FF41
:101050005B48FFF77CF902465949002008F05EFC26
:10106000A06BFFF75CFB9FED661B53EC112BFFF7AA
:10107000B3FB75D264A15248A26B08F0DFFF504861
:10108000FFF765F902464E49002008F047FC9FED46
:10109000670B53EC102B9DED080B51EC100BFFF779
:1010A0009BFB30D853EC192B51EC180BFFF79EF932
:1010B0009DED081B53EC112BFFF776FB0ED353EC81
:1010C000192B00E05AE051EC180BFFF730FA9DEDB8
:1010D000081B53EC112BFFF77FFB4FD2082138463A
:1010E00006F028F868B90821384607F0A5FF08E09F
:1010F0001621384606F01EF818B11621384600F0C1
:10110000FBF8002021E794ED160B684602F000FF83
:10111000182269463046FFF7F6F894ED140B68463E
:1011200002F0F6FE1D48182269462030FFF7EBF862
:1011300040A1234808F082FF2148FFF708F9024642
:101140001F49012008F0EAFB1621384605F0F2FF9E
:1011500018B91621384607F06FFF0320F5E6FFE7C0
:10116000A08F002281B2104607F022FB208F80B2B0
:1011700001F04EFC01200CF0E1FDCFE608213846DD
:1011800005F0D8FF0028B3D00821384600F0B4F8A5
:10119000AEE70000000000000000E03F00FC02207D
:1011A0004765745F5461705F506F77657220657238
:1011B000726F7220636F6465203D2025750A000000
:1011C000C58401200000000000003EC05461702072
:1011D000506F776572203D20252E326C6620697332
:1011E000206E6F74206E6F726D616C210A000000BA
:1011F0000000000000000040680F0120100F0120D7
:10120000666666666666EE404461632076616C756C
:10121000652065786365656473206C696D697461C8
:1012200074696F6E2025750A000000000000000040
:10123000000000004C617A65722069732061676963
:101240006E670A007CB54FF4805441F26F564FF040
:10125000FF3501AA43F24801A0200AF083FD0028CF
:1012600021D104236A462146A02007F087FC0028EC
:1012700019D12A4604216846FFF74CFC241DA4B26C
:101280000546B442EDD30199C0430C4B88424FF060
:101290001F01184608D005F04DFF002803D11F217B
:1012A000184607F0C9FE7CBD05F044FF0028FAD0BF
:1012B0001F21184600F020F87CBD000014FC02201D
:1012C00070B5012202210A4803F0F3FA0122094D08
:1012D00054022146284603F0ECFA01200CF02EFDC2
:1012E00021462846BDE87040002203F0E2BA000023
:1012F0000020024000100240012302688B409A4304
:101300000260704770B5012204210B4803F0D1FA46
:1013100001220A4D54022146284603F0CAFA012050
:101320000CF00CFD00222146284603F0C2FA0449C5
:101330000020487270BD00000020024000100240F2
:1013400000FC022009280DD2DFE800F00C0505079B
:101350000709090B0B000C2104E00B2102E00A2114
:1013600000E009210148FFF7C7BF000014FC02207C
:1013700010B50022C0B211460DF000FC002801D0CB
:101380004FF0FF3010BD000070B5A8B10C4801212E
:10139000012203F08EFA01220A4D5402214628460A
:1013A00003F087FA01200CF0C9FC21462846BDE86D
:1013B0007040002203F07DBA03484FF48041E7E714
:1013C000000C024000100240001C02402DE9FE4FBC
:1013D000E9488046FFF782FBE84C0025E8490427EE
:1013E00047F6FF766560884203D02680A770E770D5
:1013F00015E008F10400FFF771FBE24BE24A0146F9
:10140000984207D115702680A570E57009F0FF009D
:10141000BDE8FE8F107820B12680A770E57004200B
:10142000F6E7D54A012902F1080002F10C0A02F19F
:10143000100941D0022951D0032957D004295CD08A
:10144000052967D002F1140B062977D012296ED036
:1014500013296DD007296CD034296BD014296AD098
:10146000092969D00A2968D04FF001080B297CD0DE
:101470000D297BD00E297AD00F2979D0102978D068
:10148000112977D0152976D0162975D0172974D04F
:10149000182973D0FF2972D0192971D0302970D042
:1014A00031296FD032296ED033299ED109F0FEFD4B
:1014B0002680A070E770ABE76560FFF70FFB804602
:1014C0005046FFF70BFB05464846FFF707FB024671
:1014D00008F0FF0029460AF0C9FBE9E76560A5604E
:1014E000FFF7FCFAC0B20AF07DFBDEE06560FFF7B3
:1014F000F5FAC0B20AF024FCDAE76560FFF7EEFA0D
:1015000007465046FFF7EAFA0246F8B249460AF0A3
:10151000B7FBA5E06560FFF7E1FA05465046FFF727
:10152000DDFAC1B2E8B20AF0E3FAC1E706E02BE067
:1015300047E04DE058E05DE06DE076E06560FFF784
:10154000CDFA00905046FFF7C9FA80464846FFF7AB
:10155000C5FA05465846FFF7C1FA034600982A46E1
:10156000C0B241460AF035F8A2E76BE071E074E0E2
:1015700079E085E08BE094E09BE09FE0A7E0B1E0BC
:10158000B3E0CBE0E0E0F1E06560FFF7A7FA02909E
:101590005046FFF7A3FA82464846FFF79FFA0190AC
:1015A0005846FFF79BFA054608F11800FFF796FA30
:1015B000009002982B46C0B25146019A0AF046F8B4
:1015C00076E76560FFF78AFA01A90AF043FA28E096
:1015D0006560FFF783FA05465046FFF77FFA01463C
:1015E000E8B209F0C7FF63E76560FFF777FA09F033
:1015F00059FF5DE76560FFF771FA05465046FFF752
:101600006DFA80464846FFF769FA0246E8B241465D
:1016100009F0C3FF4CE76560FFF760FA01A909F024
:101620004DFF2680A07001999EE06560FFF756FA95
:1016300005465046FFF752FA019001A928460AF0E4
:1016400035F8EEE7656007F09DFB43E0A570E770B5
:1016500062E0656007F052FC3CE065600AF056FB12
:101660002680A0706EE06560FFF738FA07465046A6
:10167000FFF734FA81B20190B8B20AF0A7FAEFE7A7
:101680006560FFF72BFA80B20AF096FAE8E72821A6
:10169000201DFEF751FE0AF08DF82680A070302143
:1016A00062E0FFF71BFA0AF023F82680A0700821F9
:1016B0005AE0FFF713FA0AF049FAD1E7FFF70EFAFA
:1016C000C0B20AF04BF82680A07002214CE06560A1
:1016D00007F048FB26800028B8D084F80280E77025
:1016E000012095E609F0F8FFE2E6FFF7F7F9274F4A
:1016F0000190A7F872015046FFF7F0F90190FFF74B
:101700000EF89FED231B53EC112BFEF788FFC7E962
:101710005E012680A570E570002079E6FFF7DEF90E
:1017200010B1012804D009E0504609F079FE97E78E
:1017300009F0E6FC2680A070062115E02680012035
:1017400084F80280E57063E6FFF7C8F930B101283C
:10175000F4D101A9504609F0F9FC62E7504609F0BE
:10176000D1FD2680A0700521E17051E609F002FE4E
:101770002680A0705021F7E7908301208482012009
:10178000A5A55A5A785634128B81012000FC0220FC
:101790000000000000408F402DE9F0472348182743
:1017A000234C807900264FF0010838B1012818D069
:1017B00027800320A070E670BDE8F0872671002521
:1017C00041F2523909EB850004EB450281B2022354
:1017D000A020521D07F0D2F96D1C402DF2D398B90C
:1017E0001EE084F80480002541F2524909EB85008F
:1017F00004EB450281B20223A020521D07F0BEF97E
:101800006D1C202DF2D328B1278084F80280E67069
:101810000120D1E70648FF2240214530FEF785FD33
:101820002780A6708120E0700020C5E78A83012010
:10183000848201202DE9F0472548264CFF26807937
:10184000112720714FF000084FF0010A022580B1E6
:101850004FF00309012823D01FA1294808F0EEFB0F
:101860002748FEF774FD02462549012008F056F886
:1018700024E02449C97919B166711020208009E05B
:1018800001F0B2FB811C03D000280FDB40281DDBD8
:101890006671278084F80280E5700020BDE8F0873B
:1018A00001F0A2FB811C08D000280DDA66712780A8
:1018B00084F802A0E5700120F0E76671278084F8C3
:1018C0000290E5700320E9E72028F6DA6071E0E78E
:1018D0008A830120848201205377697463682063BE
:1018E0006F6D6D616E6420706172616D657465729B
:1018F00020697320696E76616C69640A00000000DB
:10190000C584012000FC0220F0B5234C06202DEDFB
:10191000068B81B0251D694606F0C8FB9FED1FAB05
:101920009FED209B0026172720B127800120A07063
:10193000E6702CE0BDF80000FFF70CF9B0EE408A2D
:10194000F0EE608A9FED190B51EC180B53EC102B45
:10195000FEF742FF53EC1A2B51EC180B06D8FEF79A
:10196000ECFD53EC192BFEF741FD05E0FEF7E5FD1C
:1019700053EC192BFEF7DBFDFEF7DEFE00B280B262
:101980000DF0E6F928802780A6700220E07001B0F3
:101990000020BDEC068BF0BD848201200000000019
:1019A00000002440000000000000E03F00000000B4
:1019B00000000000084A074803215368436012688A
:1019C000126882600180002181700821C1700020AE
:1019D0007047000084820120008001202DE9F0473B
:1019E00019484FF000074FF08708C1784FF00309FE
:1019F000091F11F0FF06A0F5837411D0132E0FD824
:101A00000025824616E000BF0AEB050005EB8501C4
:101A1000214482790A718079491D01F0DDFC38B1D9
:101A2000A4F8008084F80290E7700320BDE8F087F6
:101A30006D1CEDB2B542E7D3A4F80080A77006EBA9
:101A40008600E0700020F1E78A83012070B5224C07
:101A5000A0880DF07DF90546E37800201F49064671
:101A6000A4F5837431F83020AA4220D101EBC001E3
:101A70004868F8B14988A1F57F42FF3A14D0C9B24D
:101A8000994211D02A4616A11D4808F0D7FA1C48E1
:101A9000FEF75DFC02461A49012007F03FFF258052
:101AA0000320A070E67070BDBDE870400047401C88
:101AB0001A28D7D32A4613A1114808F0BFFA1048B4
:101AC000FEF745FC02460E49012007F027FF25805E
:101AD0000420A070E67070BD8A8301200C80012074
:101AE000436F6D6D616E6420252358204C656E67D1
:101AF00074682025235820696E76616C69640A0039
:101B0000C5840120556E6B6E6F7720636F6D6D61BC
:101B10006E64206964203D202523580A00000000DF
:101B2000084810B540690DF011F9074C211DFEF76A
:101B3000CAFF222020800020A0700420E070002036
:101B400010BD000000FC02208482012010B5074C6B
:101B50000823221D1021A02007F010F80620208065
:101B60000020A0700820E070002010BD84820120B9
:101B70000548C17A05480171262101800021817044
:101B80000121C1700020704700FC022084820120E6
:101B900010B5074C1023221D2021A02006F0EEFFD7
:101BA000072020800020A0701020E070002010BDD1
:101BB0008482012010B5074C0923221D0021A0209A
:101BC00006F0DCFF022020800020A0700920E070D9
:101BD000002010BD8482012005480178054801716C
:101BE00027210180002181700121C17000207047F0
:101BF000888101208482012010B50A480A4C80792E
:101C00002071611D01F060FF00218922228018B13E
:101C10000320A070E17010BDA1700920E0700020C9
:101C200010BD00008A8301208482012070B5164D0A
:101C30002DED028B95ED160B9FED148B51EC100BD7
:101C400053EC182BFEF779FCFEF776FD114C80B2B1
:101C5000211DFEF734FF95ED140B53EC182B51ECBE
:101C6000100BFEF76AFCFEF767FD80B2A11DFEF7C0
:101C700026FF1B2020800020A0700420E0700020A0
:101C8000BDEC028B70BD000000FC022000000000D3
:101C9000000059408482012070B51E482DED028B52
:101CA0009FED1A8B90ED000B53EC182B51EC100BA1
:101CB000FEF743FCFEF740FD174C80B2211DFEF7F6
:101CC000FEFE0025A11D2846FEF7F9FE04F10801DD
:101CD0002846FEF7F4FE114853EC182B90ED000B4C
:101CE00051EC100BFEF729FCFEF726FD80B204F143
:101CF0000A01FEF7E4FE192020800020A0700820D1
:101D0000E0700020BDEC028B70BD00000000000000
:101D100000005940788101208482012080810120C7
:101D200010B5074C1023221D3021A02006F026FFFD
:101D3000082020800020A0701020E070002010BD3E
:101D4000848201202DE9F047164D0A2000242871D5
:101D500041F2065841F2025908EBC40005EB840633
:101D600081B2721D0223A02006F008FF074609EB8E
:101D7000C40081B2F21D0223A02006F0FFFE38430A
:101D8000641C0A2CE8D300211C222A8020B10120E7
:101D9000A870E970BDE8F087A9702920E8700020DC
:101DA000F8E7000084820120FEB513481349252678
:101DB00090F906201248C97A124D0068002432B109
:101DC000012A09D02E800320A870EC70FEBD71B1ED
:101DD00001940D21029403E049B901940C2102946D
:101DE0008DF8001000231A4669460CF08BF82E80FF
:101DF000AC70EC700020FEBD8A83012000FC022044
:101E0000AC810120848201202DE9F05F604C002527
:101E100004F58371656091F80680CF79DFF87491DD
:101E20005FEA08004FF0010A4FF0030B4FF0100675
:101E300004D0B8F1010F13D057A119E04FF480512D
:101E40005F4802F031FD18B13F2F03D95DA10FE0CB
:101E500067A120E099F80500B84239D171A12BE0C3
:101E60000821774802F020FDA0B11F2F1FD975A1CE
:101E70007F4808F0E3F87E48FEF769FA02467C499D
:101E8000012007F04BFD268084F802B0E5700320A6
:101E9000BDE8F09F77A1764808F0D0F87448FEF7C7
:101EA00056FA02467249012007F038FD5BE099F8C6
:101EB0000600B8420CD17CA16D4808F0BFF86C4810
:101EC000FEF745FA02466A49012007F027FD59E06E
:101ED00099F8070010B1B8F1000F12D0DFF8E4B1A3
:101EE0003221DBF800000CF04DF860B176A16048BB
:101EF00008F0A4F85E48FEF72AFA02465C49002082
:101F0000D2E77DA1D8E74046FFF73EFA3946404682
:101F100007F0B8F850B1FF20B8F1000F03D089F8EE
:101F200006007DA110E089F80500FAE7B8F1000F7E
:101F30001FD089F80670404601F056F8B842404676
:101F40001AD006F033FF7BA1494808F077F84848DB
:101F5000FEF7FDF902464649002007F0DFFCDBF8FA
:101F600000000CF085F8268084F802A0E5700120BE
:101F70008EE789F80570DEE707F0C2F9DBF80000AC
:101F80000CF076F82680A570E570002080E7000050
:101F90008482012000FC0220537769746368206307
:101FA0006F6D6D616E6420706172616D65746572D4
:101FB00020697320696E76616C69640A0000000014
:101FC000001C0240537769746368203278333220F2
:101FD000636F6D6D616E6420706172616D657465B3
:101FE0007220697320696E76616C69640A00000072
:101FF000537769746368203278333220636F6D6D74
:10200000616E6420636F6D652062757420737769FB
:10201000746368206D6F64652069732077726F6EDA
:10202000670A000053616D65206173207478206336
:10203000757272656E74206368616E6E656C0A00FD
:10204000000402405377697463682031783332208A
:10205000636F6D6D616E6420706172616D65746532
:102060007220697320696E76616C69640A000000F1
:10207000C584012053776974636820317833322036
:10208000636F6D6D616E6420636F6D652062757442
:1020900020737769746368206D6F646520697320AD
:1020A00077726F6E670A000053616D65206173205F
:1020B00072782063757272656E74206368616E6EEB
:1020C000656C0A00D08101204163717569726520D9
:1020D0006D75746578206F66207377206661696C12
:1020E0006564207768656E20657863757465206324
:1020F0006F6D6D616E640A0053776974636820695F
:102100007320626C6F636B65642062792053573172
:102110005F424C4F434B0A005365742073776974D8
:102120006368206368616E6E656C206661696C65CA
:10213000640A0000536574207377697463682063D0
:1021400068616E6E656C206661696C656420320A38
:10215000000000002DE9F047114890F80690C01DDE
:10216000FEF7BCFC80460E480B30FEF7B7FC02467B
:102170000327002588260B4C4046424504DB0146D8
:10218000484607F0DFF828B12680A770E5700320E5
:10219000BDE8F0872680A570E5700020F8E7000014
:1021A0008A830120848201200549012000230871CF
:1021B0001A461946842007F0B9FD07F063FF0000B6
:1021C00000FC0220F8B5354C05209FED350B207141
:1021D000684608F075FE012700251D26E8BB611D35
:1021E0004FF62420FEF76BFCE11DBDF80000FEF762
:1021F00066FC9FED2D0B684608F062FE68BB04F19B
:1022000009014FF61840FEF75AFC04F10B01BDF826
:102210000000FEF754FC9FED260B684608F050FEC8
:10222000D8B904F10D014FF60C60FEF748FC04F13B
:102230000F01BDF80000FEF742FC9FED1F0B684642
:1022400008F03EFE48B904F111010020FEF737FC0A
:1022500004F11301BDF8000000E007E0FEF72FFCD9
:102260009FED170B684608F02BFE20B12680A77063
:10227000E5700120F8BD09494FF4FA701531FEF7F9
:102280001EFC0649BDF800001731FEF718FC268039
:10229000A5701520E0700020F8BD000084820120A8
:1022A0000000000000002EC000000000000024C05C
:1022B00000000000000014C000000000000000004A
:1022C00000000000000014402DE9F05F884CA51DBF
:1022D000E0880CF03DFDE1784FF0000BAD1C0746A7
:1022E0004FF08108A4F583744FF0010AD94686297E
:1022F00001D080A104E087480078012813D086A18E
:10230000914807F09BFE9048FEF721F802468E495F
:10231000012007F003FB00BFA4F8008084F802A0AE
:1023200084F80390C9E0012F0FD0022F4AD07948DA
:102330000369591CB94202D1017B03297CD0BB42FD
:102340004ED1017B022977D04AE072490A2224311A
:1023500005F12000FEF702F830B903227B4905F1B0
:102360004000FDF7FBFF08B179A1C9E7694887493B
:102370000026C0F8209007614979002962D1844A7B
:10238000117899B1407800285FD182A16E4807F09A
:1023900055FE6D48FDF7DBFF02466B49012007F053
:1023A000BDFA4FF496700BF0C9FCB5E782F800A0B7
:1023B00080F801A0814A4168914246D0806800F0CF
:1023C0008BFC3FE0534E3369012B02D0022B04D02B
:1023D00006E0307B032809D002E0307B022805D0DC
:1023E0003A4677A1584807F029FE8CE7286C00BAD6
:1023F00020F0FF0295F843000243B261686C95F843
:10240000471000BA20F0FF0008437061B2F5C03FEA
:102410000FD973A14C4807F011FE4B48FDF797FF09
:1024200002464949012007F079FA0220307373E728
:1024300002E03761002605E08026076102E03220D5
:102440000BF07CFC5248007820B159460BF1010B8F
:102450000629F4D358464FF0030B06281BD3012F4F
:1024600015D067A1384807F0E9FD3748FDF76FFF41
:1024700002463549012007F051FA26490220087327
:10248000A4F8008084F802A00820E07015E021483C
:1024900080F80CB023E03D48417989B1E6B14F4660
:1024A00080F8059007F09EFD58B11A490220087384
:1024B000A4F8008084F802A0E7700120BDE8F09F36
:1024C00056B1144FB208396A78680844294600F0BA
:1024D00027FC386A304438620E4981F80CB0A4F801
:1024E000008084F8029084F803900020E6E7000062
:1024F0008A8301205570677261646520646174612C
:10250000206C656E67746820696E76616C69640A18
:10251000000000009084012043616E6E6F7420659E
:10252000786375746520636F6D6D616E642062659C
:102530006361757365206F662077726F6E67206DBB
:102540006F64650A00000000C5840120048001203A
:102550005468652066696C65206973206E6F74200D
:10256000746865206669726D7761726520636F7249
:10257000726573706F6E64696E6720746F20746823
:102580006973206D6F64756C650A0000C88801204E
:1025900065810120466C61736820696E20757369DE
:1025A0006E6720666F72206F746865722066756E44
:1025B0006374696F6E732E2E2E0A000000000808E7
:1025C00053657120696E76616C6964203A202575C7
:1025D000097072655F736571203A2025750A0000E5
:1025E00046696C652073697A65282523582920651A
:1025F000786365656473206C696D69740A00000016
:1026000057616974696E6720666C617368207469CC
:102610006D656F75740A00000749012080220870FB
:102620000020CA61087308610862A1F503710A807D
:102630008870C87070470000908401202DE9F04137
:10264000374C832704F50370012601780025012902
:1026500011D034A13F4807F0F1FC3E48FDF777FE6A
:1026600002463C49012007F059F92780A670E57021
:102670000420BDE8F081026A81698A4202D20B46D9
:1026800035A10EE00269032A01D243A122E080466F
:102690004068FEF72BFAD8F814300246934204D073
:1026A00041A12C4807F0CAFC17E04848DFF820C1D8
:1026B0004571D8F80420624501D1012200E00222D0
:1026C0000271D8F81810C0E90213404807F08AFCDC
:1026D00080B140A11F4807F0B1FC1E48FDF737FE4E
:1026E00002461C49012007F019F92780A670E57001
:1026F0000120BEE741A1174807F0A0FC1548FDF7EF
:1027000026FE02461349012007F008F900231A4665
:102710001946832007F00AFB3F48067107F0B2FC18
:102720008482012043616E6E6F74206578637574D6
:102730006520636F6D6D616E6420626563617573A2
:1027400065206F662077726F6E67206D6F64650A13
:1027500000000000C584012054686520726563652F
:1027600069766564206C656E6774682025752069DC
:1027700073206C657373207468616E2074686520C3
:102780006C656E67746820696E2068656164657247
:102790002025752E0A0000004E6F2076616C69645A
:1027A00020646174612E0A00435243207665726989
:1027B00066696564206661696C65642E202523580E
:1027C00020213D202523580A00000000C888012050
:1027D000000004085570646174652075706772614B
:1027E00064652073746174757320746F20656570FF
:1027F000726F6D206661696C65640A00557067725E
:10280000616465206669726D7761726520737563B6
:10281000636573730A00000000FC022030B56D4C44
:1028200004202DED0A8B81B06946207205F03EFC34
:10283000002508B1ADF80050BDF80000FDF76FFFAE
:102840009FED658B53EC182BFDF777FE9FED649B96
:1028500053EC192BFDF771FE9FED63CB53EC1C2B52
:10286000FDF76BFE9FED62AB53EC1A2BFDF765FE97
:102870009FED61BB53EC1B2BFDF7B8FDFDF77BFF14
:10288000ADF80000611D3220FEF719F9E11DBDF819
:102890000000FEF714F96946022005F007FC08B1B4
:1028A000ADF80050BDF80000FDF739FF53EC182BD0
:1028B000FDF743FE53EC192BFDF73FFE9FED501B38
:1028C00053EC112BFDF739FE53EC1A2BFDF735FEB7
:1028D00053EC1B2BFDF78AFDFDF74DFF3D49ADF88D
:1028E000000009312120FEF7EAF83A49BDF800005E
:1028F0000B31FEF7E4F86946032005F0D7FB08B179
:10290000ADF80050BDF80000FDF709FF53EC182B9F
:10291000FDF713FE53EC192BFDF70FFE53EC1C2BA8
:10292000FDF70BFE53EC1A2BFDF707FE53EC1B2BA8
:10293000FDF75CFDFDF71FFF2649ADF800000D31E6
:102940002C20FEF7BCF82349BDF800000F31FEF73C
:10295000B6F86946052005F0A9FB08B1ADF80050AE
:10296000BDF80000FDF7DBFE53EC182BFDF7E5FD8D
:1029700053EC192BFDF7E1FD9FED231B53EC112BBD
:10298000FDF7DBFD53EC1A2BFDF7D7FD53EC1B2BAA
:10299000FDF72CFDFDF7EFFE0E49ADF800001131FB
:1029A0004FF42070FEF78BF80A49BDF80000133190
:1029B000FEF785F80748FF2208211530FDF7B5FC22
:1029C0001F202080A5701920E07001B00020BDEC10
:1029D0000A8B30BD84820120000000000000303FDF
:1029E000000000000000044000000000000008405B
:1029F0000000000000002440000000000000E03F54
:102A0000000000000000004000000000008049407D
:102A100038B5010A8DF800101C4C8DF80100002219
:102A20001021204601F045FF012302226946184883
:102A300003F002FA002823D01548426D15A11F4863
:102A400007F0FCFA1D48FDF782FC02461B490020F6
:102A500006F064FF1A480D21054604F06BFB78B9B7
:102A600018A1164807F0EAFA1448FDF770FC024670
:102A70001249002006F052FF0D21284606F0DCFA2C
:102A800001221021204601F014FF38BD0000024051
:102A9000F48A012057726974652044414335353406
:102AA00031206661696C65642C204572726F7243D7
:102AB0006F6465203D202523580A0000C58401204D
:102AC00014FC0220444143353534312061626E6F7D
:102AD000726D616C0A000000014801F01FBB00002C
:102AE000048E012001681823CAB2103AB2FBF3F237
:102AF000054B6FF30901032A9B5CC36500D9091DCF
:102B00008165084670470000200E012010B501467F
:102B100000208B698A6A4FF0C07453B1B3F5005F2F
:102B200015D072B1012A0CD0022A0AD0032A09D189
:102B300004E01AB1012A06D0022A03D1C96AC901E8
:102B400000D5012010BDC96AA142FAD010BD002AEB
:102B5000F7D0012AF2D0022AF3D0032AF3D010BD15
:102B600030B50468256825F4802525600468636015
:102B70008368402B036803D099600068C26030BD51
:102B80009A600068C16030BD7047000010B5002237
:102B90001146022005F00CFE0446002211460120D9
:102BA00005F006FE002204431146104605F000FE23
:102BB00004430020FFF72CFF2CB10521034806F049
:102BC0003BFA012010BD002010BD000018FC0220BF
:102BD000012001F073BD4FF4005001F06FBD0220E1
:102BE00001F06CBD0E4810B5007848B140F6FF7496
:102BF00000222146012005F0DBFD38B1012010BD87
:102C00000C21084806F018FA042010BD00222146C5
:102C1000022005F0CDFD0028F7D0032010BD0000F4
:102C20007081012018FC022070470000002229B1A9
:102C300001291DD002291ED04FF440720B2800D963
:102C4000001D0E490B6823F440730B600B6813439F
:102C50000B600A6822F0F8020A600A68022303EB9C
:102C6000C00002430A60086840F480300860704782
:102C70004FF48072E2E74FF40072DFE7103C02404D
:102C80001348016889050FD5016821F400710160BE
:102C9000016841F400610160016821F40061016094
:102CA000016841F400710160016849050FD50168B0
:102CB00021F480610160016841F480510160016884
:102CC00021F480510160016841F480610160704726
:102CD000003C024001F0F2BB10B586B00446182853
:102CE0000ED201F09BFC0120CDE9010403900020ED
:102CF000009002200490684601F082FB002800D07A
:102D0000012006B010BD000010B501F087FC03499A
:102D100091200860BDE8104001F036BC0C3C024038
:102D20002DE9F0470026174689460546344601F04E
:102D300075FCDFF83C8012E059F824200023294676
:102D4000022001F02DFC08B103260CE059F8240004
:102D50002968814201D0022605E0641C2D1DBC4279
:102D600001D24545E8D901F00FFC3046BDE8F087B7
:102D7000FCFF1F080E4A136823F4407313600329F5
:102D80000DD0012911680FD041F400411160116884
:102D90004FF4803343EA002001431160704711680B
:102DA00048F204031943F1E741F00401EEE70000A3
:102DB000103C0240064A136823F440731360136802
:102DC0001360136843F00103136001707047000043
:102DD000103C0240094910B50C6824F440740C60A2
:102DE0000C6844F440740C600C6844F001040C60FE
:102DF0000260BFF36F8F436010BD0000103C0240C3
:102E0000074A136823F440731360136843F4807314
:102E10001360136843F001031360018070470000E2
:102E2000103C0240074A136823F440731360136890
:102E300043F400731360136843F0010313600160EF
:102E400070470000103C02401C490868C2061C483C
:102E500005D5C26942F01002C26110220A600A68F8
:102E6000920605D5C26942F00802C26120220A60BA
:102E70000A68520605D5C26942F00402C2614022C6
:102E80000A600A68120605D5C26942F00202C261F0
:102E900080220A600A68D20506D5C26942F00102A2
:102EA000C2614FF480720A600A68920705D5C26950
:102EB00042F02002C2610220086070470C3C0240D0
:102EC000A48E012070B5114904460020C86101F0AC
:102ED000F5FC06460E4D09E0601C07D024B101F058
:102EE000EDFC801BA04201D9032070BD2868C003FF
:102EF000F2D42868C00701D001202860286810F4A7
:102F0000F970F2D0FFF7A0FF012070BDA48E012060
:102F10000C3C02402DE9F04788B007003048109E75
:102F20001D469246894606D0012F07D04FF0FF304C
:102F300008B0BDE8F0874479012001E084790520DC
:102F40000DF1040804AB03AA02A9CDF8008000F03B
:102F50007FFC10B16FF00100EAE7BDF80C00BDF88E
:102F6000081000B200FA81F0A9F80000BDF80400D2
:102F7000BDF8101000B200FA81F0AAF80000FF2C92
:102F800008D02146384600F0B7F9002805DA6FF07E
:102F90000200CDE7002028801FE0124900EB8000EE
:102FA00001EB400004AB807903AA02A9CDF80080B0
:102FB00000F04EFC10B16FF00300B9E7BDF80C0053
:102FC000BDF8081000B200FA81F02880BDF80400B6
:102FD000BDF8101000B200FA81F030800020A7E7A1
:102FE00000FC0220E08001202DE9F04FDFF8208274
:102FF0008DB0060006D0012E07D04FF0FF300DB087
:10300000BDE8F08F98F8055001E098F806506FF091
:103010000109FF2D30D02946304600F06DF9002817
:103020000EDA2B4632467BA1844807F007F8834826
:10303000FDF78DF902468149002006F06FFC1BE088
:103040007F4900EB800201EB420494F803B01EB10B
:10305000A1886FF0170205E0202D0FD3402D0DD071
:10306000A188182202EBC000084487B204AA39469E
:10307000A02008F077FE28B14846C0E7A18801EB00
:10308000C000F2E73F1DB9B203AAA02008F06AFE13
:1030900010B16FF00200B2E70DF1140A08AB07AAF5
:1030A00006A95846CDF800A000F0D2FB10B16FF091
:1030B0000300A4E70498002802DBBDF8181001E023
:1030C000BDF81C1089460399002902DBBDF8207069
:1030D00001E0BDF814700AF019FE0146484604F0FC
:1030E0003DF880B103980AF011FE0146384604F01D
:1030F00035F840B15846FEF725F9A7790820CEB13A
:10310000202D22D218E003984A46CDE900704DA147
:103110004A48049B06F092FF4848FDF718F902461A
:103120004649002006F0FAFB584606F0D3F86FF047
:10313000040064E7402D08D2627805F01F01891A67
:1031400000EBC1002189084401E02089503084B29D
:1031500004AA2146A02008F005FE10B16FF005007A
:103160004DE7241DA1B203AAA02008F0FBFD10B179
:103170006FF0060043E708AB07AA06A93846CDF86A
:1031800000A000F065FB10B16FF0070037E704986E
:10319000002802DBBDF8185001E0BDF81C5003996F
:1031A000002902DBBDF8204001E0BDF814400AF020
:1031B000ADFD0146284603F0D1FF70B103980AF037
:1031C000A5FD0146204603F0C9FF30B13846FEF7A1
:1031D000B9F8CEB198F9060011E703982A46CDE96F
:1031E000004025A11548049B06F028FF1348FDF771
:1031F000AEF802461149002006F090FB384606F072
:1032000069F86FF00800FAE698F90500F7E60000A3
:1032100000FC0220496E76616C69642073776974E2
:103220006368206368616E6E656C206E756D6265A3
:1032300072203A2025752025750A0000C5840120DA
:10324000E08001204669727374206C6576656C209D
:103250007377697463682044412F41442064696630
:10326000666572656E743A2025752C2025642C20C5
:1032700025752C2025640A005365636F6E64206CED
:103280006576656C207377697463682044412F41CB
:103290004420646966666572656E743A2025752CF3
:1032A0002025642C2025752C2025640A00000000B0
:1032B0007CB5044606236A464FF44151A02005F030
:1032C0005DFC05000DD16846FDF708FC094920604A
:1032D000884207D00020216020716071204606F0EE
:1032E00081FD7CBD9DF8040020719DF80500607192
:1032F00028467CBD5A5AA5A570B5030001F01F02EF
:1033000003D0202906D2521C09E04029FBD34229D0
:1033100002D303E0212901D2212200E0FF220D493E
:1033200000200C68091D0EE000EB800511F8156007
:103330009E4207D101EB45056E78964202D8AD78E2
:10334000954202D2401CA042EED3A04201D34FF0DE
:10335000FF3070BDDC80012030B589B004462023E9
:103360006A4643F22001A02005F008FC050019D1AF
:103370006846FDF7B3FB206007A8FDF7AFFB1349D4
:103380006060884210D01248216061600168E1608D
:103390000068A0600F480168A16100686061204674
:1033A00006F076FD09B030BD01A8FDF797FBE0609F
:1033B00002A8FDF793FBA06003A8FDF78FFBA061B7
:1033C00004A8FDF78BFB60612846EBE75A5AA5A5D8
:1033D000940C0120B00C01202DE9F04FE84C0D4673
:1033E0002DED0E8B8DB004F1180A4FF0004B9FEDC0
:1033F000E5BB9FEDE6CB9FEDE7DB9FEDE8AB9FEDF7
:10340000E98B9FEDEAEB277A94F807C005AB41F210
:10341000523941F252469FEDE79B6279A179132818
:103420007DD2DFE800F00A2F5B7EB0B3BDC7CACE05
:10343000DAE2FAEEEDECEBEAE90001A9032004F090
:10344000C5FF00286CD1BDF80400FDF768F953EC06
:103450001B2BFDF772F853EC1C2BFDF76EF841ECBB
:10346000100B8DED020B9FEDD51B53EC112BFDF7CF
:10347000D6F853EC1D2BFDF760F841EC100B8DEDE9
:10348000020B25E001A9002004F0A0FF9FEDCD9BD9
:103490000028D7D1BDF80400FDF798FC4CE100BF2F
:1034A000FDF74BF853EC182B41EC100B51EC100BC3
:1034B000FCF79CFF0AE000BFFDF73FF853EC182B28
:1034C00041EC100B51EC100BFDF731F841EC100BF7
:1034D00051EC100BFDF730F929465EE001A90220FE
:1034E00004F074FF0028ADD1BDF80400FDF717F912
:1034F00053EC1B2BFDF721F853EC1C2BFDF71DF8AB
:1035000041EC100B53EC1E2B8DED020BFDF70FF869
:103510009FEDAE1B53EC112BFDF781F821E02DE15F
:10352000D3E001A9012004F051FF00288AD1BDF8A1
:103530000400FDF7F4F853EC1B2BFCF7FEFF53ECF3
:103540001C2BFCF7FAFF41EC100B53EC1E2B8DEDFE
:10355000020BFCF7ECFF9FED9F1B53EC112BFCF7CC
:10356000ECFF53EC1D2BFCF7E8FF41EC100B53EC88
:103570001A2B8DED020BFDF72FF953EC182B9DED57
:10358000020B9FD892E72946584606E0607A15E07C
:103590002946012001E029460020FDF794FA4FE07A
:1035A000002FF8D04FF480618C4801F07DF901289C
:1035B000F1D1EDE7002FEED0EAE7E07A0028EAD07B
:1035C000E6E702A901A808F089FC01287DD0DAD835
:1035D00053EC1A2B9DED020B78E002A901A808F02C
:1035E000CBFB012871D0F3D9CDE7009308AB07AA34
:1035F00006A94FF000002EE0B2E0A7E073E039E04A
:103600002EE023E009E000BFBDF81800294680B293
:10361000FDF755FABDF820000EE0009308AB07AAAD
:1036200006A9002021E000BFBDF81C00294680B299
:10363000FDF745FABDF81400A91C80B2FDF73FFA6A
:1036400000200DB0BDEC0E8BBDE8F08F009308ABF1
:1036500007AA06A90120FFF75DFC0028D4D092E755
:10366000009308AB07AA06A90120FFF753FC002826
:10367000DAD088E7BCF1000F85D1402A83D202A9B5
:1036800001A808F02BFC01285BD0ADD861794FF080
:10369000020309EB810104AA4FF0A00005F06EFAC5
:1036A00004A8FDF718FA00B2FDF728F853EC192B1F
:1036B000FCF7B5FF41EC100B53EC102B9DED020B0A
:1036C00051EC100BFCF733FF34E03AE051EC100BF7
:1036D000FDF782F89DED020B53EC192B51EC100B0A
:1036E0003FF6EAAEDCE62029B9D202A901A808F02B
:1036F00043FB012825D0B2D8A0794FF0020306EB96
:10370000800104AA4FF0A00005F038FA04A8FDF7E4
:10371000E2F900B2FCF7F2FF53EC192BFCF77FFF44
:1037200041EC100B53EC102B9DED020B51EC100BE8
:10373000FCF75CFE41EC100B53EC1A2B8DED020BE9
:10374000C4E70521504605F077FC1CE7BCF1000FEB
:1037500001D1402A01D32248BEE609EB820103E0F1
:10376000202986D206EB8101022304AAA02005F0BD
:1037700005FA04A8FDF7AFF900B2ADE6012060E755
:1037800000FC0220000000000000303F00000000AC
:10379000000004400000000000408F4000000000D6
:1037A00000000000000000000000E03F00000000FA
:1037B0000000F43F0000000000005940000000003D
:1037C0000000364000000000000024403D0AD7A35E
:1037D000703DD23F00000000000010400014024085
:1037E00090E8FFFF30B505462DED028B83B09FEDCD
:1037F000168B0024694602A808F0BEFA20B1012009
:1038000003B0BDEC028B30BD9DED000B51EC180BED
:1038100053EC102BFCF7EAFD41EC180B0F200AF0DB
:103820008DFA641CE4B20A2CE4D32046FCF777FF3F
:1038300041EC100B51EC180B53EC102BFCF7EFFE86
:10384000C5E900010020DBE70000000000000000E7
:103850002DE9F0419846069D16460B46092828D2C8
:1038600038B3154A002100BF01EBC104145D844246
:1038700002D0491C0829F7D301EBC100841819466E
:10388000607905F067FA0746A079314605F062FADB
:1038900040EA0706E079414605F05CFA0643207AE3
:1038A000294605F057FA304301D06FF00100BDE81A
:1038B000F0814FF0FF30FAE71C81012070B5002441
:1038C00038B12F4D4021284600F0EEFF012834D0BA
:1038D00034E02C4D4FF40061284600F0E5FF01284C
:1038E00000D110244FF48061284600F0DDFF01284C
:1038F00001D144F008044FF40071284600F0D4FFD1
:10390000012801D144F004044FF48071284600F0EE
:10391000CBFF012801D144F002048021284600F0A9
:10392000C3FF012801D144F001044021284600F0E2
:10393000BBFF012822D1203420E01024202128467A
:1039400000F0B2FF012801D144F0080410212846FC
:1039500000F0AAFF012801D144F004040821284600
:1039600000F0A2FF012801D144F0020404212846FE
:1039700000F09AFF012801D144F00104204670BDF7
:10398000000C0240001C024070B500242DED0A8B93
:1039900084B0064625469FED40BB9FED419B69469E
:1039A00002A808F09BFA20B1012004B0BDEC0A8BFC
:1039B00070BDECB3052C67D253EC1B2B51EC180BEC
:1039C000FCF714FD9DED001B53EC112BFCF704FFDD
:1039D00049D8B0EE4B0AF0EE6B0A53EC102B51ECC9
:1039E000180BFCF7A4FD9DED001B53EC112BFCF70D
:1039F000DBFE38D853EC192B51EC1A0BFCF7F6FC14
:103A00009DED001B53EC112BFCF7E6FE2BD8B0EE1E
:103A100049CAF0EE69CA53EC1C2B51EC1A0BFCF7A7
:103A200086FD9DED001B53EC112BFCF7BDFE00E065
:103A300011E018D89DED000B641CE4B253EC102B80
:103A400051EC180BFCF7D2FC53EC1C2BFCF775FD6A
:103A500041EC180B0AE09DED008B0124B0EE48AA62
:103A6000F0EE68AA02E000246D1CEDB2052D0FD91E
:103A70000DA1144806F0E2FA1248FCF768FC024671
:103A80001049012005F04AFF86ED008B00208CE7ED
:103A900003200AF053F982E7333333333333D33F10
:103AA000000000000000E03F476574205461702072
:103AB000504420506F776572206578636570746933
:103AC0006F6E0A00C584012070B50D462DED088B80
:103AD00001464FF000409FED859B461E9FED85BB44
:103AE0009FED86AB9FED878B884C0B2977D2DFE863
:103AF00001F00647777D899AAEC2D6F5F50094EDC0
:103B00003C0B53EC1B2B51EC100BFCF74DFE94EDD2
:103B10003C0B53EC1A2B51EC100B06D2FCF70DFDAD
:103B200053EC182BFCF703FD05E0FCF706FD53EC06
:103B3000182BFCF75BFCFCF7FFFD2946FCF7C3FFE5
:103B400094ED380B53EC1B2B51EC100BFCF72CFEB7
:103B500094ED380B40D200BF53EC1A2B51EC100BF4
:103B6000FCF7EBFC53EC182BFCF7E1FC41EC100BE1
:103B700053E000BFFCF7A7FF0020BDEC088B70BD31
:103B800094ED540B53EC1B2B51EC100BFCF70CFE7B
:103B900094ED540B53EC1A2B51EC100B06D2FCF79E
:103BA000CCFC53EC182BFCF7C2FC05E0FCF7C5FC81
:103BB00053EC182BFCF71AFCFCF7BEFD2946FCF76A
:103BC00082FF94ED500B53EC1B2B51EC100BFCF7C8
:103BD000EBFD94ED500BBFD353EC1A2B74E083E054
:103BE0002946FCF770FF94ED580B16E094ED440B5A
:103BF00051EC100BFCF7A0FD2946FCF764FF94ED97
:103C0000400B0AE094ED4C0B51EC100BFCF794FDCB
:103C10002946FCF758FF94ED480B51EC100BFCF7CC
:103C20008BFD291DA6E794ED2C0B53EC192B51ECC1
:103C3000100BFCF782FC53EC182BFCF7D7FBFCF7BE
:103C40007BFD2946FCF73FFF94ED280B3AE094ED0D
:103C50001C0B53EC192B51EC100BFCF76EFC53ECC6
:103C6000182BFCF7C3FBFCF767FD2946FCF72BFF7D
:103C700094ED180B26E094ED240B53EC192B51EC2A
:103C8000100BFCF75AFC53EC182BFCF7AFFBFCF7BE
:103C900053FD2946FCF717FF94ED200B12E094ED3D
:103CA000340B53EC192B51EC100BFCF746FC53EC86
:103CB000182BFCF79BFBFCF73FFD2946FCF703FFA5
:103CC00094ED300B53EC192B51EC100BFCF735FC39
:103CD00053EC182BFCF78AFB48E7FFE72946FCF773
:103CE000F2FE291D304645E7012046E700000000AE
:103CF000000059400000000000000000000000002B
:103D000000002440000000000000E03F00FC022012
:103D10009FED410B80ED000B9FED410B80ED020B01
:103D20009FED410B80ED040B9FED410B80ED060BE9
:103D30009FED410B80ED080B9FED410B80ED0A0BD1
:103D40009FED410B80ED0C0B9FED410B80ED0E0BB9
:103D50009FED410B80ED100B9FED410B80ED120BA1
:103D60009FED410B80ED140B9FED410B80ED160B89
:103D70009FED410B80ED180B9FED410B80ED1A0B71
:103D80009FED410B80ED1C0B9FED410B80ED1E0B59
:103D90009FED410B80ED200B9FED410B80ED220B41
:103DA0009FED410B80ED240B9FED410B80ED260B29
:103DB0009FED410B80ED280B9FED410B80ED2A0B11
:103DC0009FED410B80ED2C0B9FED410B80ED2E0BF9
:103DD0009FED410B80ED300B9FED410B80ED320BE1
:103DE0009FED410B80ED340B9FED410B80ED360BC9
:103DF0009FED410B80ED380B80ED3A0B80ED3C0BD5
:103E000080ED3E0B9FED3E0B80ED400B9FED3E0B9A
:103E100080ED420B0020704795438B6CE7FB0B4015
:103E2000B81E85EB51B80B4037894160E5D008409A
:103E300014AE47E17A1409400F2DB29DEFA712404E
:103E40007C14AE47E17A124025068195438B1040E1
:103E5000B81E85EB51B8104034333333333315403B
:103E60000000000000001540CCCCCCCCCCCC1240E3
:103E70000000000000001340F6285C8FC2F550409F
:103E8000CDCCCCCCCCCC504014AE47E17A144E40D3
:103E90006666666666664E40666666666676554027
:103EA000000000000040554033333333333324C027
:103EB00000000000000024C00000000000C082409C
:103EC00000000000003081400000000000C082C0FF
:103ED00000000000003081C00000000000209C4075
:103EE0000000000000589B400000000000209CC023
:103EF0000000000000589BC000000000000000000F
:103F00000000000000005640000000000000544087
:103F1000F0B53D4E07462DED028BA3B03178B0EEE3
:103F2000408AF0EE608A002039B3384C012924D051
:103F300094ED040B51EC180B53EC102BFCF734FCF4
:103F40000DD3307800EB400004EBC00010ED020B05
:103F500051EC180B53EC102BFCF73EFC0FD218223F
:103F60002A490AA8FCF7CFF93078182200EB400064
:103F700004EBC00110A8183923E016903BE001259E
:103F80000FE000BF05EB450004EBC00090ED040B13
:103F900051EC180B53EC102BFCF706FC04D96D1CEC
:103FA000EDB230788542EDD305EB450004EBC0045B
:103FB000A4F1180118220AA8FCF7A5F92146182235
:103FC00010A8FCF7A0F9182210A904A8FCF79BF987
:103FD0000CACB0EE480A94E80F008DE80F00DDE964
:103FE0000A23F0EE680A1CA8FCF714FE18221CA98C
:103FF00016A8FCF788F9182216A93846FCF783F9A9
:1040000023B0BDEC028BF0BD70810120308901200E
:1040100030B587B0044616236A464FF44051A020BD
:1040200004F0ACFD05001ED16846FCF757FD20608A
:104030009DF8040020719DF8050060710DF10600E7
:10404000FCF74CFDA0600DF10A00FCF747FDE060B5
:104050000DF10E00FCF742FD20610DF11200FCF79E
:104060003DFD6061284607B030BD2DE9F0410446B2
:10407000876D00F023FC064694F8350000250228E1
:1040800006D08020606584F834500120BDE8F081BE
:104090002068016821F0160101602068416921F063
:1040A00080014161206C08B9A06C20B120680168D2
:1040B00021F0080101602068016821F00101016020
:1040C0000BE000F0FBFB801B052806D92020606573
:1040D00004F8345F03206070D8E720680068C007E8
:1040E000EFD194F85C103F208840B86004F8345F4A
:1040F000012060700020C9E790F83510022903D034
:104100008021416501207047052180F83510006845
:10411000016821F001010160002070472DE9F8439A
:1041200004464FF00009CDF8009063484FF4165153
:10413000A56D0068B0FBF1F72E6894F85C100820BC
:1041400000FA01F131420FD021680A6852070BD5FD
:104150000A6822F004020A6094F85C108840A860A3
:10416000606D40F00100606594F85C104FF001084C
:1041700008FA01F0304208D021684969090604D5DF
:10418000A860606D40F00200606594F85C10042047
:104190008840304208D021680968890704D5A860A2
:1041A000606D40F00400606594F85C101020884059
:1041B000304218D021680968090714D5A860206822
:1041C0000168490304D50068000308D5A16C07E025
:1041D0000168C90503D4016821F008010160216C60
:1041E00009B12046884794F85C102020884030426E
:1041F00031D021680968C9062DD5A86094F835002A
:1042000005282068016806D0490347D500680003E7
:104210001DD4616C1CE021F0160101602068416929
:1042200021F080014161206C08B9A06C20B12068A8
:10423000016821F00801016094F85C103F2088407B
:10424000A86084F8349084F83580216D1FE0E16B1C
:1042500009B120468847606D00282BD0606DC007EB
:1042600014D0052084F835002068016821F0010190
:1042700001600098401C0090B84203D82068006894
:10428000C007F6D184F8349084F83580E16C0029B9
:1042900010D001B02046BDE8F04308470168C905C9
:1042A000D5D4016821F01001016084F8349084F8BD
:1042B0003580CCE7BDE8F883048201202DE9F04188
:1042C000044600F0FBFA06465CB1002584F8345041
:1042D000022084F835002068016821F001010160A6
:1042E0000DE00120BDE8F08100F0E8FA801B052810
:1042F00005D920206065032084F83500F2E72068A6
:104300000068C007F0D12268116820480140D4E954
:1043100001031843D4E90336334318436369184350
:10432000A3691843E3691843236A18430843616A81
:10433000042903D1D4E90B13194308431060206802
:104340004069666A20F0070130460E4301270428C1
:104350000CD1A06A0643E06A40B12046FEF7D6FBC6
:1043600020B14020606584F83570BAE72068466166
:104370002046FEF7B7FB94F85C203F219140816016
:10438000656584F835700020ACE700003F8010F0D0
:104390002DE9F0410446866D90F83400002501288F
:1043A0000DD0012084F8340094F835700020012FDE
:1043B00007D084F8340002252846BDE8F0810220A9
:1043C000FBE7022784F8357060652046FEF7C8FBDE
:1043D00094F85C103F208840B0602068016841F08C
:1043E00016010160206C20B12068016841F00801CD
:1043F00001602068016841F001010160DCE7000014
:1044000070B5174900240A7E012A1ED0154A0123DF
:104410000B76156845F080751560156845F00075D8
:104420001560104DF3222D1F2A600268012A0ED05C
:104430000B70C2684A608268CA60027C0A72017CA2
:104440008068FEF7F3FB204670BD022070BD02229B
:104450000A7042680A614168007CFEF78BFCF2E753
:10446000A48E0120103C02400EB5401C15D100F076
:104470008BF80D49002048700C494A7872B10C4BFA
:1044800001225A71487002208DF80000094800236B
:104490001A466946006809F035FD0EBD06480068F9
:1044A00009F0A6FE0EBD0000648101209084012069
:1044B000C8880120A48101209C8101202DE9F041C0
:1044C0002F4F38682F4C10F4F97F4FF0FF384FF022
:1044D00000050DD0207801282ED0207802282FD07A
:1044E000D4F81460FEF7B0FC304600F057F82570A1
:1044F0003868C0070BD0012038602078012821D00F
:104500002078022838D06069FFF7AEFF2570207848
:1045100000280FD11A48001D016848F2FF0291439C
:104520000160016821F080710160016821F0007173
:1045300001602576BDE8F081E668C4F80C80D1E71B
:104540002669CFE76068401E6060606850B1E0682F
:10455000FFF78AFFE068401CE060E068217AFEF720
:1045600065FBD4E74646C4F80C802570FEF788FB4F
:104570003046FFF779FFCAE7FEF782FB2069C3E701
:104580000C3C0240A48E01200348016841F0004128
:104590000160002070470000103C0240704700009E
:1045A0002DE9F0471B4E05461446307E1F468946CE
:1045B000012808D0012030764CF250384046FEF7F2
:1045C00081FC18B114E00220BDE8F0879DB1012DF7
:1045D00016D0022D19D022463B464846FEF7FAFB7C
:1045E0004046FEF76FFC0C490A6822F001020A609F
:1045F00000213176E8E7E1B24846FEF7DBFBEFE762
:10460000A1B24846FEF7FCFBEAE721464846FEF722
:1046100009FCE5E7A48E0120103C02400749002078
:104620000A68002A09DA054A054B0C3A1360054B63
:1046300013600968002900DA01207047103C02402D
:1046400023016745AB89EFCD3EB5174CB0F5005F50
:1046500010D0022817D0012824D1BFF34F8F134860
:104660000168134A01F4E06111430160BFF34F8F09
:1046700000BFFDE74FF480510E4800F015F9012806
:1046800010D0032006E008210B4800F00DF90128A6
:1046900008D004208DF8000000231A4669462068DF
:1046A00009F030FC3EBD0000A48101200CED00E0CB
:1046B0000400FA05001C024000040240044910B541
:1046C0000A68024202D00860FFF7BEFF10BD00007A
:1046D000143C01402DE9F84F00224FF0010803255A
:1046E0004FF00F0E0B6808FA02F42340A3426ED17C
:1046F0004E68012E05D0022E03D0112E01D0122EAD
:1047000012D186684FEA420C05FA0CF7BE43CF6817
:1047100007FA0CF7374387604668A6430C79C4F361
:104720000014944034434460C668570005FA07FCFF
:104730008C6826EA0C06BC403443C4604C68022CEA
:1047400001D0122C13D1D40800EB8404A346D4F872
:10475000209054074FEAD46A0EFA0AF629EA0609AD
:104760000E6906FA0AF646EA0906CBF820600468E4
:104770000E7924EA0C0406F00306BE4026430660C8
:104780004C68E4006FD53B4C266846F480462660B2
:10479000246822F0030604F480440094364C344428
:1047A000A446D4F808489607360F0EFA06F7BC431D
:1047B000324FB84201D100272EE0314FB84201D12B
:1047C000012729E02F4FB84202D1022724E04AE016
:1047D0002D4FB84201D103271EE02C4FB84201D122
:1047E000042719E02A4FB84201D1052714E0294FC8
:1047F000B84201D106270FE0274FB84201D1072761
:104800000AE0264FB84201D1082705E0244FB842FC
:1048100001D1092700E00A27B7402743CCF80878E0
:10482000204E34684F689C43FF0300D51C4334601E
:104830001C4E361D34684F689C43BF0300D51C4393
:104840003460184E083634684F689C43FF0200D528
:104850001C433460134E0C3634684F689C43BF02CF
:1048600000D51C433460521C102AFFF43BAFBDE856
:10487000F88F000044380240003001400000024040
:104880000004024000080240000C024000100240F8
:104890000014024000180240001C024000200240A8
:1048A00000240240003C01400069084000D0012083
:1048B00070470AB1816170470904FBE701488068CD
:1048C00070470000F881012090F83D20202A01D097
:1048D00002207047242280F83D200268136823F0EC
:1048E000010313600268536A23F0100353620268E5
:1048F000536A0B43536201680A6842F001020A607E
:10490000202180F83D100020704790F83D20202A9B
:1049100001D002207047242280F83D2002681368ED
:1049200023F00103136003685A6A22F00F020A435E
:1049300091B2596201680A6842F001020A602021BE
:1049400080F83D100020704770B5040025D094F821
:104950003D00002520B984F83C50204600F04CFA78
:10496000242084F83D002068016821F001010160E5
:104970002068016841F4004101602068016821F469
:104980000041016000F09AFD4D4A6168914201D8F2
:104990004C4900E04C49884201D2012070BD4B498E
:1049A0002368B0FBF1F15E6826F03F060E435E60BF
:1049B0006368934206D94FF4967359434FF47A7360
:1049C000B1FBF3F12368491C1E6A26F03F06314310
:1049D00019626168914210D84900401EB0FBF1F2A3
:1049E000521CC2F30B02042A01D2042022E0B0FBC5
:1049F000F1F0401CC0F30B001CE0A268F2B301EB25
:104A0000C10303EB0116431EB3FBF6F35B1C43F437
:104A100080431B0549D092B301EBC10202EB0111A7
:104A2000401EB0FBF1F0401CC0F30B0040F480408E
:104A300040F400402168CA694CF6FF739A43104362
:104A4000C861D4E9071001432068026822F0C0025F
:104A500011430160D4E9030101432068826848F2F0
:104A6000FF339A4311438160D4E90501084321686B
:104A7000CA6822F0FF021043C86001E00EE016E0B1
:104A80002068016841F0010101602564202084F85C
:104A90003D00256384F83E50002070BD01EB4106C7
:104AA000431EB3FBF6F35B1CB3E70120C2E701EB47
:104AB0004101401EB0FBF1F0401CC0F30B00B7E712
:104AC000A086010080841E0000093D0040420F00C6
:104AD0002DE9FF4F83B09A46DDE9119793460446CE
:104AE000DDF84080FFF7EAFE054694F83D002028F7
:104AF00070D11923012271492046009502F084F9F2
:104B00000028F5D194F83C00012863D0012084F8F6
:104B10003C0020680168C90703D1016841F0010128
:104B200001602068016821F400610160222084F89E
:104B30003D00402084F83E0000262664C4F824800E
:104B4000A4F82A90608D20855D48E062CDE900756B
:104B500053465A462046049902F05EF800287CD15C
:104B6000208DD0B1012821D00228206824D04169AD
:104B700080690090208D032869D801282BD05149E5
:104B800002283B464FF00002009559D08846204647
:104B900002F03AF9002860D13CE02068416981695F
:104BA0000091016841F40071016077E020680168BC
:104BB00021F480610160F0E7016821F48061016007
:104BC0002068016841F400610160206841698069E2
:104BD000009063E06FE02A463946204602F093F9E0
:104BE00098BB20680069616A08704EE0206801681F
:104BF00041F40071016020680069616A0870606AB0
:104C0000401C6062218D491E2185618D491E618590
:104C1000216838E02068016821F480610160206823
:104C20000069616A0870606A401C6062208D401EE5
:104C30002085608D401E60853B46002241460095E0
:104C4000204602F0E1F800B9D0E706E0FFE72A4687
:104C50003946204602F057F918B1012007B0BDE8E7
:104C6000F08F20680069616A0870606A401C6062A9
:104C7000218D491E2185618D491E618521684A6902
:104C8000D24352070AD409690170606A401C60620D
:104C9000208D401E2085608D401E6085208D00285F
:104CA0007FF468AF202084F83D0084F83E6084F8EB
:104CB0003C600020D2E70220D0E700000200100094
:104CC0000000FFFF040001002DE9FF4F83B09A466A
:104CD000DDE9119793460446DDF84080FFF7EEFDCD
:104CE000054694F83D0020287FD119230122404930
:104CF0002046009502F088F8002876D194F83C0010
:104D0000012872D0012084F83C0020680168C9079E
:104D100003D1016841F0010101602068016821F4BC
:104D200000610160212084F83D00402084F83E00AD
:104D300000262664C4F82480A4F82A90608D20857B
:104D40002C48E062CDE9007553465A462046049946
:104D500001F0E0FF70B930E02A463946204602F003
:104D600005F958B1206C042804D12068016841F489
:104D700000710160012007B0BDE8F08F606A216812
:104D800000780861606A401C6062218D491E89B20A
:104D90002185628D521E628522685369DB435B0761
:104DA0000BD469B100781061606A401C6062208D8C
:104DB000401E2085608D401E6085208D0028CBD14F
:104DC0002A463946204601F0F9FF0028CAD154F896
:104DD0003D0B016841F400710160202004F81E09B8
:104DE000E67766770020C6E7FFE70220C3E700000A
:104DF000020010000000FFFFF0B587B00446142148
:104E00006846FBF799FA2668214C204F2048122269
:104E10000123032104251034BE4219D1066846F04F
:104E2000020606600068CDE9023100F0020005903C
:104E3000C020CDE90002049569461648FFF74AFCF8
:104E4000206840F400102060206800F4001019E091
:104E5000114FBE4217D1066846F020060660006872
:104E600000F0200005908DE80E00CDE9031569469D
:104E70000A48FFF72FFC206840F48000206020687B
:104E800000F48000059007B0F0BD00000054004021
:104E90003038024000040240005800400014024034
:104EA00070B5040011D021684CF6CC400860216830
:104EB00045F255500860D4E9000141602168A068BE
:104EC0008860FFF7FBFC054609E0012070BD00BFCC
:104ED000FFF7F4FC401B302801D9032070BD206887
:104EE000C0680028F4D121684AF6AA200860002092
:104EF00070BD00684AF6AA210160002070470000DA
:104F0000024881680278114481607047F88101206D
:104F10000B4810B5016841F400710160016841F46B
:104F200080610160016841F480710160032000F03C
:104F300097F8002000F006F800F03EF8002010BDC1
:104F4000003C024010B5014688B000221A2000F053
:104F500067F81A2000F056F813480024016841F45D
:104F600080210160006805A900F480200690684651
:104F700000F084FA00F0B2FA0C494000B0FBF1F105
:104F80000C480B4A491E026040F2E732C0E9032494
:104F9000C0E9011401F03AF910B1012008B010BDC8
:104FA000044801F06DF9F9E74438024040420F002F
:104FB00000480140648E0120114808B5016841F4A1
:104FC00080410160006800F4804000900C48001FA0
:104FD000016841F0805101600068002200F08050BB
:104FE00000900F21901E00F01BF8002206210420E3
:104FF00000F016F8BDE80840042000F003B80000F7
:1050000044380240002809DB00F01F0201219140D2
:105010004009800000F1E020C0F800117047000056
:10502000F0B40E4B1B680C46C3F30223C3F1070513
:10503000042D00D90425191D072901D2002300E001
:10504000DB1E012606FA05F1491E214099409E40CB
:10505000761E16403143F0BC05F004B80CED00E0BC
:10506000064900F0070208684FF6FF03184040EABF
:105070000220034A10430860704700000CED00E076
:105080000000FA052DE9F8431748016841F0805106
:1050900001600068154F00F08050012600903E64CA
:1050A000FFF70CFC05464FF47A78114C05E000BF81
:1050B000FFF704FC401B40450DD86068C003F7D5DE
:1050C0007E64FFF7FBFB0546464607E0FFF7F6FB6D
:1050D000401BB04202D90320BDE8F883606880031A
:1050E000F4D50020F8E700004038024000000E42EE
:1050F000007000402DE9F84F04460068DFF824A254
:10510000894F8A4DC1074FF001084FF0000603D1C7
:10511000810701D4400648D5CAF86860FFF7CEFB86
:10512000814605E0FFF7CAFBA0EB090002287DD805
:1051300028680001F6D42078C1077D4805D0616851
:10514000227A890141EA027101602178890711D52B
:1051500001686268237B9201C1F3027142EA036233
:1051600042EA017101603968E26921F01F01521EB3
:10517000114339602178490608D56168227B89018D
:1051800041EA0261227A41EA02710160CAF868804C
:10519000FFF794FB814605E0FFF790FBA0EB0900C9
:1051A000022843D828680001F6D52068410701D4B9
:1051B00000074ED5CAF87060FFF780FB814605E016
:1051C000FFF77CFBA0EB090002282FD82868C0431A
:1051D0008000F5D520784107564814D5016822692A
:1051E000237D9201C1F3027142EA036242EA017136
:1051F00001603968226A6FF0FF0321F4F85103EB74
:105200000222114339602178090712D50168226909
:10521000C1F30361920142EA0161227E41EA027117
:1052200001603868616A20F4403000E051E00843D2
:105230003860CAF87080FFF741FB074605E000BF01
:10524000FFF73CFBC01B022843D82868C0438000FE
:10525000F6D42078800653D534484030016841F0B8
:10526000805101600068344D00F080500090286843
:1052700040F480702860FFF721FB074605E000BF7F
:10528000FFF71CFBC01B022823D82868C005F7D5F0
:10529000274D143D286810F4407020D0218D01F472
:1052A000407181421BD0286820F440712348C0F827
:1052B0000080066029602868C00710D0FFF7FEFA5A
:1052C000064641F2883707E0FFF7F8FA801BB8423C
:1052D00002D90320BDE8F88F28688007F4D5A16AB9
:1052E0001248C1F301220830032A13D0016821F4C7
:1052F000F81101602868218DC1F30B010843286073
:105300002078C00604D50E4994F82C00C1F8E001BD
:105310000020DFE702680B4B22F4F81219400A4321
:105320000260E7E7000047428C3802400038024044
:10533000843802408838024000700040400E4742E6
:1053400000104742FFFCFF0F2DE9F0470E46050015
:1053500065D0DFF81481D8F80000F7B200F00F0034
:10536000B04207D288F80070D8F8000000F00F00B3
:10537000B04254D128683D4C810712D5400703D56F
:10538000206840F4E05020602878000703D52068AA
:1053900040F4604020602068A96820F0F0000843D5
:1053A00020602878C0072DD0304968680839012866
:1053B00012D0022813D0032811D0096889070029C8
:1053C0002DDA216821F0030101432160FFF776FA0D
:1053D000814641F2883A0EE009688903EFE70968DF
:1053E0008901ECE7FFF76AFAA0EB0901514502D900
:1053F0000320BDE8F0872068696800F00C00B0EB7E
:10540000810FEFD1D8F80010404601F00F01B142F2
:1054100007D90770006800F00F00B04201D00120EA
:10542000E7E72878400705D52068E96820F4E050D0
:10543000084320602878000706D52068296920F4F1
:10544000604040EAC100206000F058F82168084A36
:10545000C1F30311515CC840064908600648006862
:10546000FFF770FD0020C4E7003C0240083802400E
:10547000280E012004820120FC8101200F220260FD
:105480000C4A136803F003034360136803F0F0034E
:105490008360136803F4E053C36012684FF4E05371
:1054A00003EAD20202610448006800F00F000860BD
:1054B0007047000008380240003C0240044805499B
:1054C00000680968044AC1F38221515CC8407047F2
:1054D0000482012008380240380E012004480549A2
:1054E00000680968044AC1F34231515CC840704702
:1054F0000482012008380240380E0120154810B5FA
:10550000006810F00C02144813D01449042A0FD07C
:10551000082A0ED10F4C241F2268236802F03F0294
:105520005B0207D52068C0F38810A0FB010106E0EC
:10553000084610BD2168C1F38811A1FB00010023BA
:10554000FAF7B0FE2168C1F30141491C4900B0FBE4
:10555000F1F010BD083802400024F400002D3101A4
:105560002DE9F84F040076D02078DFF838A3CE4D2F
:10557000C00749D0DAF800105046C1F38101012973
:1055800008D00068C0F3810002280AD1281D0068F5
:10559000400206D52868800336D560680028E2D02E
:1055A00032E06068B0F5803F10D0B0F5A02F2868D9
:1055B00010D020F480302860286820F480202860F3
:1055C0006068A0B1FFF77AF906460CE0286840F45D
:1055D0008030F4E740F480202860F7E7FFF76EF9A9
:1055E000801B642873D828688003F7D50CE0FFF788
:1055F00065F9064605E000BFFFF760F9801B6428E7
:10560000F0D828688003F7D42078DFF8A0828007DC
:105610004FF000093ED5DAF80010504611F00C0F9B
:1056200009D00068C0F3810002280BD19D48001FFB
:105630000068400206D42868800715D5E068012874
:1056400009D111E0E068B8B10120C8F80000FFF707
:1056500035F9064605E020E1FFF730F9801B022806
:10566000C0D828688007F7D52868216920F0F8009D
:1056700040EAC10028600DE0C8F80090FFF71EF96D
:10568000064604E0FFF71AF9801B02281FD8286895
:105690008007F7D42078000722D5824E84486169BC
:1056A0006C3671B101210160FFF708F9074604E08B
:1056B000FFF704F9C01B022809D830688007F7D526
:1056C0000EE0C0F80090FFF7F9F8074605E082E029
:1056D000FFF7F4F8C01B02287DD830688007F7D4A4
:1056E0002078400768D5DFF8BCB100270BF1380BF4
:1056F000DBF80000C0000BD4DBF8001041F0805153
:10570000CBF80010DBF80000012700F0805000907B
:10571000684E3068C00510D4306840F48070306046
:10572000FFF7CCF8009005E0FFF7C8F80099401AA1
:10573000022850D83068C005F6D55A4EA0686836A1
:1057400001280FD00528306810D020F0010030600B
:10575000306820F004003060A068B8B1FFF7AEF800
:1057600000900FE0306840F00100F4E740F00400E2
:105770003060F7E7FFF7A2F80099411A41F288304C
:10578000814266D830688007F4D50EE0FFF796F8BE
:10579000009007E0FFF792F80099411A41F2883033
:1057A000814256D830688007F4D42FB1DBF800105E
:1057B00021F08051CBF80010A069D0B3DAF80020B6
:1057C0005146C2F38102022A4AD00228484607D035
:1057D000C8F8600000E03CE0FFF770F804463BE0EA
:1057E0004746C8F86000FFF769F8064605E000BFC5
:1057F000FFF764F8801B02282BD828688001F7D4B3
:10580000D4E907010843A16A2B4A490802EB014188
:10581000626A41EA8211084394F82C1040EA01615F
:105820002048001F016001203866FFF747F8044652
:1058300005E034E0FFF742F8001B022809D8286889
:105840008001F7D52BE000BFFFF738F8001B0228D6
:1058500002D90320BDE8F88F28688001F4D41EE047
:105860000128F7D00868E26900F48001914214D160
:10587000226A00F03F0191420FD147F6C071626A7F
:105880000140914209D1A26A00F44031914204D111
:10589000E16A00F07060884201D00120DAE7002060
:1058A000D8E70000083802400038024000004742B4
:1058B000800E4742007000400000FFFF10B50068F6
:1058C0000B4641680D480140080CD870C1F3042410
:1058D0005C7001F03F049C70C1F34231197052B901
:1058E00002F0B1FBD870587802F0ADFB5870987890
:1058F00002F0A9FB9870002010BD00003FFFFF00E0
:1059000010B50B460168896A596001680969C1F3DD
:105910000E019960006801680E480140C1F305401E
:105920001870C1F306245C7001F07F049C70402461
:1059300004EA1141D97052B902F085FB1870587809
:1059400002F081FB5870987802F07DFB987000207F
:1059500010BD00007F7F7F0070B5040002D0607F23
:1059600010B106E0012070BD00202077204600F035
:1059700049F8022060772168CA20486221685320D4
:105980004862204602F074FBFF25042618BB2068FD
:1059900081681B4A114081602168886862681043F1
:1059A000D4E904231A43104388602168E068086141
:1059B00020680169228941EA024101612068C168C9
:1059C00021F08001C16020688068800607D42046ED
:1059D00000F0FEF818B1206845626677C2E72068DB
:1059E000016C21F4802101642068016CA2691143DB
:1059F00001642068456201206077002070BD0000CE
:105A0000BFFF8FFF00680349884202D1024901208D
:105A100008607047002800403C0E47422DE9F047DF
:105A20000446007F0B4601281FD04FF0010984F87F
:105A30001C9002206077DAB19878D97840EA014565
:105A400058781978000240EA413005432168CA209D
:105A50004862216853204862204602F009FB002674
:105A6000FF274FF0040860BB1AE00220BDE8F08772
:105A70005878C10603D500F0EF000A305870D87886
:105A800002F0EAFA0204587802F0E6FA42EA00224A
:105A9000987802F0E1FA0243187842EA4035D5E7F7
:105AA0000F480540206845602068C16821F08001EA
:105AB000C1602068806880060AD4204600F088F81B
:105AC00030B12068476284F81D8026770120CDE739
:105AD0002068476284F81D9026770020C6E7000002
