:020000042000DA
:1000000008DF012081020020FF840020977000207B
:10001000FD840020EB0A0020A1A3002000000000C6
:10002000000000000000000000000000C1010020EE
:1000300009310020000000001D02002095990020D9
:100040009B0200209B0200209B0200209B020020BC
:100050003D3200209B020020393100204731002032
:100060009B0200209B0200209B0200209B0200209C
:100070009B0200209B0200209B0200209B0200208C
:100080009B0200209B0200209B0200209B0200207C
:100090009B0200209B0200209B0200209B0200206C
:1000A0009B0200209B020020819A00209B020020DE
:1000B0009B0200209B0200209B0200209B0200204C
:1000C0009B0200209B0200209B0200209B0200203C
:1000D0009B02002039A000209B0200209B020020F0
:1000E0003F3100209B0200209B0200209B02002049
:1000F0009B0200209B0200208D9A00209B02002082
:100100009B0200209B0200209B0200209B020020FB
:100110009B0200209B0200209B0200209B020020EB
:100120009B0200209B020020593000209B020020EF
:100130009B0200209B0200209B0200209B020020CB
:100140009B0200209B0200209B0200209B020020BB
:100150009B0200209B0200209B0200209B020020AB
:100160009B0200209B0200209B0200209B0200209B
:100170009B0200209B0200209B0200200000000048
:100180009B0200209B0200209B0200209B0200207B
:100190009B0200209B0200209B0200209B0200206B
:1001A00000000000000000009B020020DFF80CD0DF
:1001B00000F03AFC00480047CDCD002008DF0120C8
:1001C0002C4B19680868B0E8F04F80F30988BFF33A
:1001D0006F8F4FF0000080F311887047000000001F
:1001E00008480068006880F308884FF0000080F33A
:1001F000148862B661B6BFF34F8FBFF36F8F00DF15
:1002000000BF00BF08ED00E0DFF80C00016841F41A
:1002100070010160704700BF88ED00E0EFF30980D6
:10022000BFF36F8F134B1A681EF0100F08BF20ED3D
:10023000108A20E9F04F106009B44FF0500080F3AD
:100240001188BFF34F8FBFF36F8F0FF07BF94FF023
:10025000000080F3118809BC19680868B0E8F04F05
:100260001EF0100F08BFB0EC108A80F30988BFF3AE
:100270006F8F704738860120EFF3058070470000CC
:100280000648804706480047FEE7FEE7FEE7FEE730
:10029000FEE7FEE7FEE7FEE7FEE7FEE7699A0020DD
:1002A000AD0100202DE9F05F0546002092469B46F7
:1002B00088460646814640241BE02846414647467C
:1002C000224600F0C6FA53465A46C01A914110D34E
:1002D00011461846224600F0ADFA2D1A67EB0108C8
:1002E0004F4622460120002100F0A4FA17EB000936
:1002F0004E41201EA4F10104DFDC484631462A4667
:100300004346BDE8F09F40EA01039B0703D009E0A4
:1003100008C9121F08C0042AFAD203E011F8013BF1
:1003200000F8013B521EF9D27047D2B201E000F84A
:10033000012B491EFBD270470022F6E710B5134689
:100340000A4604461946FFF7F0FF204610BD421C3E
:1003500010F8011B0029FBD1801A704730B5054603
:100360000020034600E05B1C934205D2EC5CC85CB5
:10037000201A01D1002CF6D130BD2DE9F05F934653
:100380000F468046044600260AF042F8D0F8009056
:10039000824614F8015B2DB100F07EFA0068405DE2
:1003A000C007F6D12B2D02D02D2D1AD0641E0021AE
:1003B000CAF800105A463946204600F071FA014644
:1003C00027B13868A04201D1C7F80080DAF80000F0
:1003D000022809D0CAF80090700505D54842BDE84A
:1003E000F09F46F48066E2E70846F8E72DE9FE4F05
:1003F000804681EA0300C00F0C46009021F00041C6
:1004000023F00045B8EB0200A94105D24046214641
:1004100090461C460B46024623F00040104347D04E
:10042000270DC7F30A00C3F30A510290401A019046
:1004300040286BDAC3F3130040F4801B0098924607
:1004400020B10023D2EB030A63EB0B0B0198594652
:10045000C0F14002504600F0EDF906460D46504608
:100460005946019A00F005FA10EB0800614100249A
:1004700087EA115284EAE7731A4340D0009A62B3C4
:10048000019A012A4FEA075215DC001B61EB0201B9
:100490004FF0004202EA0752CDE90042001C41F54C
:1004A000801132462B4600F059FA03B0BDE8F08FB8
:1004B00040462146F9E7001B61EB0201001C41F5B3
:1004C000801300185B412018A2F5001747EB0301C9
:1004D00040EAD570B6196D4111E06D084FEA360655
:1004E00045EAC0754FEA0752001B61EB0201001C90
:1004F00041F5801149084FEA300000195141324658
:100500002B4603B0BDE8F04F00F019BA0098012265
:1005100040000023D0EB020263EBE0730098214619
:100520004FEAE074B8EB000061EB0401E9E783F007
:1005300000435BE781F0004158E72DE9FE4F81EA77
:10054000030404F0004421F0004100944FF0000B3C
:1005500023F0004350EA01045ED052EA03045BD06A
:10056000C3F30A54C1F30A552C44A4F2F3340194A2
:10057000A0FB0254C1F3130141F48011C3F3130330
:1005800043F4801301FB024400FB034E840A970AE4
:1005900044EA815447EA8357A4FB076802958D0A11
:1005A00005FB07854FEA932C04FB0C542705029D9D
:1005B0004FEA065847EA1637B5EB08056EEB070C0D
:1005C000870E920E47EA811742EA8312A7FB0201C7
:1005D000B6EB0B0164EB00042B0D43EA0C335E1801
:1005E00044EB1C50DA465146E7FB0201C5F3130405
:1005F0004FEA0B3343EA14534FEA0432019C43EAB7
:100600000603A4F10C040294009CCDE900B400F0B0
:10061000A5F903B0BDE8F08F00200146F9E72DE908
:10062000F04D81EA030404F0004B21F0004514462C
:100630004FF0000A23F0004150EA050220D054EAAE
:1006400001021DD0C5F30A570246C5F31303C1F3D7
:100650001300C1F30A5640F4801543F48013A7EB4E
:100660000608101BD64608F2FD3873EB050002D3CE
:1006700008F1010801E092185B41B8F1000F03DABC
:1006800000200146BDE8F08D00204FF480110646A1
:1006900084460EE0171B73EB050705D3121B63EBB3
:1006A000050306434CEA010C49084FEA3000921852
:1006B0005B4150EA0107EDD152EA030012D082EA11
:1006C000040083EA0501084305D0101BAB4106D2A4
:1006D0000122002306E000224FF0004302E06FF009
:1006E000010253101AEB06004CEB085110EB0A0004
:1006F00041EB0B01BDE8F04D00F021B90EB5C10F83
:1007000080EAE0700844CA07002140F233438DE8D4
:100710000E000A460B4600F021F903B000BD0EB5ED
:1007200040F2334102910021CDE900110A460B4607
:1007300000F014F903B000BD70B5C1F30A5201F026
:1007400000450024C1F3130140F2FF3341F480114E
:100750009A4201DA002070BD40F233439A42A2F27D
:10076000334203DC524200F074F800E090402C4326
:10077000F1D0404270BDC1F30A5210B5C1F313016C
:1007800040F2FF3341F480119A4201DA002010BD9B
:1007900040F233439A42A2F2334203DC524200F069
:1007A00058F810BD904010BD30B5041E71F1000422
:1007B00004DB4FF00044404264EB0101141E73F16E
:1007C000000405DB1C464FF00043524263EB040378
:1007D0008B4208BF824230BD30B5041E71F1000467
:1007E00004DB4FF00044404264EB0101141E73F13E
:1007F000000405DB1C464FF00043524263EB040348
:10080000994208BF904230BD30B50B4601460020EA
:100810002022012409E021FA02F59D4205D303FAC2
:1008200002F5491B04FA02F52844151EA2F1010243
:10083000F1DC30BD202A04DB203A00FA02F100206E
:1008400070479140C2F1200320FA03F3194390400E
:100850007047202A04DB203A21FA02F00021704779
:1008600021FA02F3D040C2F1200291400843194618
:100870007047202A06DBCB17203A41FA02F043EA00
:10088000E07306E041FA02F3D040C2F12002914049
:100890000843194670470000004870475C07012074
:1008A0002DE9F05F82460078002715468B460AF155
:1008B0000104B946302801D09DB113E014F8010BB2
:1008C0000127782803D0582801D045B10AE00DB19E
:1008D000102D07D10027102514F8010B02E0082580
:1008E00000E00A250026B0460EE005FB080005FBE7
:1008F00006F1012701EB10461FFA80F8B6F5803F9C
:1009000000D3B94614F8010B294600F09FF80028DF
:10091000EBDABBF1000F05D00FB1641E00E05446C6
:10092000CBF80040B9F1000F06D009F071FD0221AB
:100930000160C81EBDE8F09F48EA0640FAE710B51E
:10094000141E73F1000408DA401C41F100019218F2
:100950005B411A4301D120F0010010BD2DE9F04D9B
:1009600092469B4611B1B1FA81F202E0B0FA80F2F0
:1009700020329046FFF75EFF04460F4640EA0A0029
:1009800041EA0B0153465A46084313D0114653EA35
:10099000010019D0C8F140025046FFF75AFF054642
:1009A0000E46504659464246FFF744FF084305D0DD
:1009B000012004E020463946BDE8F08D00200543C3
:1009C00046EAE0762C4337430A986305E40AA0EB35
:1009D00008000022FD0A44EA47540A3002D50020EC
:1009E0000146E9E7010510196941DDE908450019EB
:1009F0006941BDE8F04DA2E7C1F30A52C1F313010A
:100A000040F2FF3341F480119A4202DA002001469D
:100A1000704740F233439A42A2F2334202DC524220
:100A2000FFF717BFFFF706BF064C074D06E0E0686B
:100A300040F0010394E8070098471034AC42F6D325
:100A4000FFF7B8FBBC080120DC0801203A2800D2DF
:100A5000303820F02002412A01D3A2F13700884229
:100A600001D34FF0FF30704770B58C1810F8015B60
:100A700015F0070301D110F8013B2A1106D110F837
:100A8000012B03E010F8016B01F8016B5B1EF9D13B
:100A90002B0705D40023521E0DD401F8013BFAE7C1
:100AA00010F8013BCB1A921C03E013F8015B01F82C
:100AB000015B521EF9D5A142D8D3002070BD020AB5
:100AC0000A7048707047020E0A70020C4A70020ADF
:100AD0008A70C8707047008840BA70470168C07853
:100AE00009BA21F0FF0108437047FEE730B54FF027
:100AF000FF330022064C07E0855C5D40EDB2521CDE
:100B000054F8255085EA13238A42F5D3D84330BDE3
:100B10001C81012030B503460020074C07E01D5C16
:100B20005540EDB2401C54F8255085EA1222884207
:100B3000F5D3104630BD00001C81012010B5002205
:100B4000134602E0C45C62405B1C8B42FAD3521C29
:100B5000D0B210BD10B52DED048BFFF7E0FD9FED79
:100B6000211B53EC112BFFF7E8FC9FED209B53EC6E
:100B7000192BFFF7E2FC41EC180B51EC190B53EC6D
:100B8000182BFFF7D4FC41EC100B51EC180B53EC75
:100B9000102BFFF744FD41EC100B09F03DFC9FEDDD
:100BA000151B51EC100B53EC112BFFF7C6FC9FEDFE
:100BB000131B53EC112BFFF719FC41EC100B53ECFA
:100BC000102B9FED100B51EC100BFFF728FD9FED44
:100BD0000F1B53EC112BFFF7AAFCBDEC048B41EC6F
:100BE000100B10BD000000000000303F00000000AE
:100BF000000004400000000000A06240000000006F
:100C000000689A400000000010BD1E410000000076
:100C1000001071400FB42DED020B2DE9F047824614
:100C20002DED0C8B84B0B0EE40AAF0EE60AADDE9A9
:100C300020569DED22BB8DED02AB9DED1ECBBDF888
:100C40007400FFF76CFD8846044648EC180BB0B200
:100C5000FFF765FD8946074649EC190B53EC1C2B41
:100C600051EC1B0BFFF763FC41EC1B0B53EC182BF7
:100C700051EC190BFFF75BFC41EC190B53EC1C2BEF
:100C800051EC1A0BFFF753FC53EC192BFFF755FCF3
:100C900053EC1B2BFFF7C3FC53EC182BFFF7A6FB01
:100CA0009FED4CBB53EC1B2BFFF7A0FBFFF763FD45
:100CB00086B2ADF8046048EC1A4B49EC1C7BBDF8D9
:100CC0007000FFF72CFD8846044648EC180BA8B2CC
:100CD000FFF725FD8946074649EC190B3046FFF71B
:100CE0001EFD41EC1D0B53EC1A2B51EC1C0BFFF7B6
:100CF0001EFC41EC1C0B53EC182B51EC190BFFF7AD
:100D000016FC41EC190B53EC1A2B51EC1D0BFFF7A1
:100D10000EFC53EC192BFFF710FC53EC1C2BFFF7C8
:100D20007EFC53EC182BFFF761FB53EC1B2BFFF7FA
:100D30005DFBFFF720FD86B2ADF8006048EC184B74
:100D400049EC1D7BBDF87200FFF7E9FC41EC190B83
:100D5000280CFFF7E4FC41EC1A0B3046FFF7DFFCF0
:100D600041EC1C0B53EC182B51EC1D0BFFF7DFFB78
:100D700041EC1D0B53EC192B51EC1A0BFFF7D7FB71
:100D800041EC1A0B53EC182B51EC1C0BFFF7CFFB6B
:100D900053EC1A2BFFF7D1FB53EC1D2BFFF73FFC55
:100DA00053EC192BFFF722FB53EC1B2BFFF71EFB19
:100DB000FFF7E1FCADF802009DE81E008AE80E0096
:100DC000CAF80C4004B0BDEC0C8BBDE8F0075DF830
:100DD0001CFB0000000000000000E03F10B52DEDFE
:100DE000048BFFF79CFC9FED311B53EC112BFFF79D
:100DF000A4FB9FED301B53EC112BFFF79EFB9FEDE7
:100E00002F1B53EC112BFFF70AFC9FED2E1B53EC0D
:100E1000112BFFF78CFB9FED2D1B53EC112BFFF7D4
:100E2000E5FA41EC100B53EC102B9FED2A0B51EC23
:100E3000100BFFF7F4FB9FED291B53EC112BFFF771
:100E400076FB9FED281B53EC112BFFF7E8FB41ECE1
:100E5000100B09F0E1FAB0EE408AF0EE608A9FEDE7
:100E6000230B51EC180B53EC102BFFF766FB9FED97
:100E7000211B53EC112BFFF7B9FA9FED200B41EC2E
:100E8000190B53EC102B51EC180BFFF756FB9FED91
:100E90001D1B53EC112BFFF74DFB53EC192BFFF7E8
:100EA000BEFBBDEC048B41EC100B10BD000000003C
:100EB0000000303F0000000000000440000000007F
:100EC0000000F43F000000000000F03F08CD1B08C8
:100ED000CD1BF03FCDCCCCCCCCCC3140B81E85EB7B
:100EE00051B81E4000000000000024400000000037
:100EF00000A062400000000000B49E40000000001E
:100F000060DBE34000000000A0FCE740F0B52DED01
:100F1000088B89B0B0EE408AF0EE608A00269FED23
:100F2000A2BBA34C04F10C0502A802F0DFFF0200F3
:100F30009FEDA09B15D0A1A1A84809F033FAA748BE
:100F4000FFF705FA0246A549002008F073FE98480D
:100F50000921103008F08EFA012009B0BDEC088B91
:100F6000F0BD9FED9F0B53EC102B9DED020B51EC50
:100F7000100BFFF719FC11D29DED020B9AA153EC57
:100F8000102B964809F00EFA9448FFF7E0F9024654
:100F90009249012008F04EFE0220DEE753EC1B2BA5
:100FA00051EC180BFFF722FA9DED021B53EC112BAD
:100FB000FFF7FAFB10D3B0EE4B0AF0EE6B0A53ECDE
:100FC000102B51EC180BFFF7B2FA9DED021B53ECFE
:100FD000112BFFF701FC7CD28DED008B9DED020BF8
:100FE00089A153EC102B7D4809F0DCF97B48FFF711
:100FF000AEF902467949002008F01CFE9DED020B77
:1010000051EC180B53EC102BFFF794FA53EC182B00
:10101000FFF790FA41EC1A0B761C53EC1A2B84A1C3
:101020006E48009609F0BEF96C48FFF790F9024649
:101030006A49002008F0FEFDB0EE4A0AF0EE6A0AA6
:1010400004A803F0FFF904AF97E80F0004F12807A4
:1010500087E80F00208DFFF762FB9FED7F1B53ECAD
:10106000112BFFF7B9FB68D2228D7DA15B4809F0F7
:1010700099F95A48FFF76BF902465849002008F0E1
:10108000D9FD9FED800B53EC102B9DED020B51EC25
:10109000100BFFF7A1FB2ED853EC192B51EC180BBA
:1010A000FFF7A4F99DED021B53EC112BFFF77CFB1E
:1010B0000CD353EC192B51EC180BFFF738FA9DEDBC
:1010C000021B53EC112BFFF787FB61D20821284646
:1010D00000E05DE006F084FA002851D108214CE0E0
:1010E0001621284606F07CFA002849D01621284609
:1010F00000F036F944E094ED100B04A803F0A2F9D7
:1011000004AE96E80F0004F1280686E80F0094ED7F
:101110000E0B04A803F096F904AE183496E80F00FD
:1011200084E80F001621284606F05AFA18B916214D
:10113000284608F09FF903200FE70022618D104632
:1011400007F09EFD208D01F023FF01200CF0C4FD6F
:10115000002717E005200CF0BFFD7F1C322F11D9AE
:101160004AA11E4809F01EF91C48FFF7F0F8024694
:101170001A49002008F05EFD1721284608F07AF988
:101180000020EAE606F034FA00287FF4CDAEE1E76D
:101190000821284606F024FA0028A1D00821284674
:1011A00000F0DEF89CE70000333333333333D33FB2
:1011B00000FC022000000000000000404765745F52
:1011C0005461705F506F776572206572726F722024
:1011D000636F6465203D2025750A0000F5880120B5
:1011E0000000000000003EC054617020506F776521
:1011F00072203D20256C66206973206E6F74206E0E
:101200006F726D616C210A0054617020706F776598
:1012100072203D20256C662C2064657374696E61B4
:1012200074696F6E20697320256C660A00000000E7
:10123000526573656172636820706F7765722064B0
:10124000617461203D20256C662E2074696D657384
:10125000203D2025750A0000666666666666EE40DB
:101260004461632076616C756520657863656564AB
:1012700073206C696D69746174696F6E20252358E1
:101280000A0000000000000000000000544D50471C
:1012900044206572726F72207768656E2063616C9E
:1012A0006920706F7765720A000000007CB54FF40A
:1012B000805441F26F564FF0FF3501AA43F24801C6
:1012C000A0200AF041FD002821D104236A462146CE
:1012D000A02007F021FE002819D12A4604216846E3
:1012E000FFF718FC241DA4B20546B442EDD30199C2
:1012F000C0430C4B88424FF01F01184608D006F03F
:101300006FF9002803D11F21184608F0B3F87CBDFF
:1013100006F066F90028FAD01F21184600F020F8E0
:101320007CBD00000CFC022070B5012202210A489D
:1013300003F071FD0122094D54022146284603F0B5
:101340006AFD01200CF0C8FC21462846BDE870402B
:10135000002203F060BD00000020024000100240A7
:10136000012302688B409A430260704770B50122E6
:1013700004210B4803F04FFD01220A4D540221467F
:10138000284603F048FD01200CF0A6FC002221466F
:10139000284603F040FD04490020487270BD00005B
:1013A000002002400010024000FC022009280DD25B
:1013B000DFE800F00C0505070709090B0B000C21FD
:1013C00004E00B2102E00A2100E009210148FFF7B7
:1013D000C7BF00000CFC022010B50022C0B21146AD
:1013E0000DF09AFB002801D04FF0FF3010BD000037
:1013F00070B5A8B10C480121012203F00CFD0122B7
:101400000A4D54022146284603F005FD01200CF048
:1014100063FC21462846BDE87040002203F0FBBC77
:1014200003484FF48041E7E7000C024000100240FF
:10143000001C02402DE9FE4FC5488046FFF74EFBD9
:10144000C44C0025C449042747F6FF7665608842EE
:1014500043D108F10400FFF741FBBD4A014602F108
:10146000080002F10C0B02F1100901293BD00229FE
:101470004AD0032950D0042955D0052960D002F163
:10148000140A062968D012297CD013297BD0072999
:101490007AD0342979D0142978D0092977D00A292B
:1014A00076D04FF001080B2973D00D2972D00E2988
:1014B00071D00F2970D010296FD011296ED0152945
:1014C0006DD016296CD017296BD018296AD0FF2946
:1014D00069D0192968D0332967D02680A770E770B2
:1014E0000420BDE8FE8F6560FFF7F8FA0546584610
:1014F000FFF7F4FA80464846FFF7F0FA0246E8B2F2
:1015000041460AF0A5FB1FE16560A560FFF7E6FA1A
:10151000C0B20AF03DFBD8E06560FFF7DFFAC0B269
:101520000AF000FC10E16560FFF7D8FA074658465C
:10153000FFF7D4FA0246F8B249460AF093FBCCE032
:101540006560FFF7CBFA05465846FFF7C7FAC1B208
:10155000E8B20AF0A7FAF7E06560FFF7BFFA0546C0
:101560005846FFF7BBFA83464846FFF7B7FA80466E
:101570005046FFF7B3FA0346E8B2424659460AF02E
:1015800002F8E1E012E02EE034E03FE044E054E015
:101590005DE069E06FE072E075E081E087E090E097
:1015A00097E09EE0A7E0B1E0B3E0CBE06560FFF735
:1015B00095FA02905846FFF791FA83464846FFF79E
:1015C0008DFA01905046FFF789FA054608F1180098
:1015D000FFF784FA009002982B46C0B25946019A50
:1015E0000AF00EF8B0E06560FFF778FA01A90AF09A
:1015F0000BFA28E06560FFF771FA05465846FFF7D9
:101600006DFA0146E8B209F08FFF9DE06560FFF7D3
:1016100065FA09F021FF97E06560FFF75FFA05467C
:101620005846FFF75BFA80464846FFF757FA0246EE
:10163000E8B2414609F08BFF86E06560FFF74EFA9D
:1016400001A909F015FF2680A070019951E065609D
:10165000FFF744FA05465846FFF740FA019001A902
:10166000284609F0FDFFEEE7656007F059FD45E00B
:10167000A570E77064E0656007F05EFE3EE06560BF
:101680000AF036FB29E06560FFF728FA074658465E
:10169000FFF724FA81B20190B8B20AF071FA1CE0A7
:1016A0006560FFF71BFA80B20AF060FA15E02821A6
:1016B000201DFEF741FE0AF057F82680A070302169
:1016C00017E0FFF70BFA09F0EDFF2680A070082164
:1016D0000FE0FFF703FA0AF013FA2680A070E57016
:1016E000FFE6FFF7FBF9C0B20AF012F82680A070FF
:1016F0000221E170F5E6656007F002FD2680002812
:10170000B6D084F80280E7700120EAE609F0BEFF57
:101710001AE0FFF7E3F9114F0190A7F85A01584674
:10172000FFF7DCF90190FEF7FAFF9FED0D1B53EC7C
:10173000112BFEF774FFC7E958012680A570E570EC
:101740000020CEE609F05EFE2680A070E770C8E6B5
:10175000C0870120B4860120A5A55A5A00FC0220AA
:101760000000000000408F402DE9F0472348182773
:10177000234C807900264FF0010838B1012818D099
:1017800027800320A070E670BDE8F0872671002551
:1017900041F2523909EB850004EB450281B2022384
:1017A000A020521D07F0B8FB6D1C402DF2D398B954
:1017B0001EE084F80480002541F2524909EB8500BF
:1017C00004EB450281B20223A020521D07F0A4FBC6
:1017D0006D1C202DF2D328B1278084F80280E6709A
:1017E0000120D1E70648FF2240214530FEF79DFD4C
:1017F0002780A6708120E0700020C5E7BA8701200D
:10180000B48601202DE9F0472548264CFF26807933
:10181000112720714FF000084FF0010A022580B116
:101820004FF00309012823D01FA1294808F0BAFD71
:101830002748FEF78CFD02462549012008F0FAF9F9
:1018400024E02449C97919B166711020208009E08B
:1018500001F07EFE811C03D000280FDB40281DDB39
:101860006671278084F80280E5700020BDE8F0876B
:1018700001F06EFE811C08D000280DDA6671278009
:1018800084F802A0E5700120F0E76671278084F8F3
:101890000290E5700320E9E72028F6DA6071E0E7BE
:1018A000BA870120B4860120537769746368206386
:1018B0006F6D6D616E6420706172616D65746572CB
:1018C00020697320696E76616C69640A000000000B
:1018D000F588012000FC0220F0B5234C06202DEDF8
:1018E000068B81B0251D694606F048FE9FED1FABB3
:1018F0009FED209B0026172720B127800120A07094
:10190000E6702CE0BDF80000FFF724F9B0EE408A45
:10191000F0EE608A9FED190B51EC180B53EC102B75
:10192000FEF75AFF53EC1A2B51EC180B06D8FEF7B2
:1019300004FE53EC192BFEF759FD05E0FEF7FDFD03
:1019400053EC192BFEF7F3FDFEF7F6FE00B280B262
:101950000DF03EF928802780A6700220E07001B0CB
:101960000020BDEC068BF0BDB48601200000000015
:1019700000002440000000000000E03F00000000E4
:101980000000000000B587B000226946114804F04D
:1019900069FA002205A90F4804F042FA0E489DF8A2
:1019A000171001719DF8151041719DF81610817185
:1019B0009DF80010C1719DF8011001729DF8021090
:1019C000417286210180002181700621C17007B01B
:1019D000002000BD848E0120B4860120084A0748FB
:1019E00003215368436012681268826001800021FD
:1019F00081700821C170002070470000B48601206A
:101A0000008001202DE9F05F67488779C5790830AB
:101A1000FFF764F8654C06464FF0030B4FF00009E2
:101A20004FF08B0AC82D72D8002D70D060484FF04F
:101A30000108007850B15FA1694808F0B3FC68481C
:101A4000FEF785FC02466649012029E02771657191
:101A5000A11D3046FFF737F8022F6FD853490A31DE
:101A60002FB16048012F26D0022F53D094E0721975
:101A7000B2F5AE6F62D806F58056B0B20A4601469E
:101A80002B46A02007F048FA002870D056A15448F1
:101A900008F088FC5248FEF75AFC024650490020E4
:101AA00008F0C8F8A4F800A084F8028084F8039035
:101AB0000120BDE8F09FC7688068504A3B1A874202
:101AC00009D2DFF83CC1D2F80080DCF800C0A8EBF6
:101AD0000C0C63445B1C06EB050C9C452ED887421E
:101AE00036D8176883197F1CBB4201D9444B37E0B5
:101AF0006044B8423FD91068C61A761C1846324670
:101B000005F0B4FDAA1BA81A01193D4840E015E0F4
:101B10002A463FE0836940693A4A1F1A834209D244
:101B2000DFF8E4C0D2F80080DCF800C0A8EB0C0CB1
:101B300067447F1C06EB050CBC4507D9A4F800A040
:101B400084F802B084F803900320B2E7834201D9FD
:101B50003044DDE7176883197F1CBB4208D92A4B44
:101B60001268101A1B68301A401E1844D0E713E0A0
:101B70006044B84201D81846CAE71068C61A761CF5
:101B80001846324605F072FDAA1BA81A01191E4814
:101B90000A31006805F06AFDA4F800A0AD1D84F8C4
:101BA0000290E570002084E7BA870120B486012006
:101BB000A585012052656164696E67206C6F67209E
:101BC000636F6E74656E74207768656E20666C61F5
:101BD000736820696E207573696E670A00000000E3
:101BE000F5880120108D0120526561642045455023
:101BF000524F4D206661696C65640A00340501200E
:101C00000C0501203C0501202805012010B51948CC
:101C1000194C80792071022802D9611D00201FE033
:101C200028B11649012805D002280CD01AE04FF43B
:101C3000AE6014E0CA688968501A8A420FD210490F
:101C4000104A096807E08A694969501A8A4206D22F
:101C50000D490E4A09681268511A0844401C611D5A
:101C6000FEF731FF8A2020800020A0700520E07060
:101C7000002010BDBA870120B4860120108D0120FC
:101C80000C05012034050120280501203C05012018
:101C90000548817A05480171212101800021817068
:101CA0000121C1700020704700FC0220B486012091
:101CB000FEB51C480025202680791B4C012804D045
:101CC00026800320A070E570FEBD18480127417AE8
:101CD00019B1C17A19B116A104E01CA102E0C079C2
:101CE00080B11FA1244808F05DFB2348FEF72FFBBD
:101CF00002462149012007F09DFF2680A770E5706C
:101D00000120FEBD06208DF800001C4800231A4665
:101D1000694600680CF0C4F82680A570E5700020C4
:101D2000FEBD0000BA870120B486012000FC02201D
:101D30004D6F64756C6520696E206D6F64756C61A4
:101D400074696F6E206D6F64650A00004C617A657E
:101D500072206973206E6F742072656164790A0065
:101D600054582053776974636820697320626C6FDC
:101D7000636B65640A000000F5880120E48501209A
:101D80002DE9F04719484FF000074FF08708C17858
:101D90004FF00309091F11F0FF06A0F5837411D05D
:101DA000132E0FD80025824616E000BF0AEB05006F
:101DB00005EB8501214482790A718079491D01F082
:101DC000BDFD38B1A4F8008084F80290E7700320CC
:101DD000BDE8F0876D1CEDB2B542E7D3A4F80080F2
:101DE000A77006EB8600E0700020F1E7BA870120BB
:101DF00070B5224CA0880CF0EBFE0546E37800207D
:101E00001F490646A4F5837431F83020AA4220D138
:101E100001EBC0014868F8B14988A1F57F42FF3A5B
:101E200014D0C9B2994211D02A4616A11D4808F013
:101E3000B9FA1C48FEF78BFA02461A49012007F04E
:101E4000F9FE25800320A070E67070BDBDE87040EB
:101E50000047401C2228D7D32A4613A1114808F076
:101E6000A1FA1048FEF773FA02460E49012007F066
:101E7000E1FE25800420A070E67070BDBA870120C5
:101E80000C800120436F6D6D616E64202523582006
:101E90004C656E6774682025235820696E76616CE6
:101EA00069640A00F5880120556E6B6E6F772063B8
:101EB0006F6D6D616E64206964203D202523580A92
:101EC00000000000084810B5C0680CF07FFE074C09
:101ED000211DFEF7F8FD222020800020A0700420A4
:101EE000E070002010BD000000FC0220B48601203C
:101EF0002DE9F84F29482A4A0168914208D1017911
:101F000031B14379994205D8591A491CCDB202E042
:101F1000002500E00A25234F01249246814600BF98
:101F200007EBC406311F2046FEF7CDFDD9F800208F
:101F30004FF00008524519D1C5B199F80410601E40
:101F40000844C0B20A2800D90A38C0B241F26C5124
:101F500001EB800104236A46A02006F0DDFFB8B142
:101F60000521114807F086FA6D1EEDB240460CF0CF
:101F70002DFE3146FEF7A7FD641C0A2CD0D928207F
:101F800038800020B8705020F8700020BDE8F88F2D
:101F90006846FEF7A3FD8046E6E70000A88501201D
:101FA0005A5AA5A5B486012010FC022010B5074C92
:101FB0000823221D1021A02006F0AEFF062020805D
:101FC0000020A0700820E070002010BDB486012021
:101FD0000548C17A054801712621018000218170E0
:101FE0000121C1700020704700FC0220B48601204E
:101FF00010B5074C1023221D2021A02006F08CFFD5
:10200000072020800020A0701020E070002010BD6C
:10201000B486012010B5074C0923221D0021A02001
:1020200006F07AFF022020800020A0700920E070D6
:10203000002010BDB48601200548017805480171D3
:1020400027210180002181700121C170002070478B
:10205000C8850120B486012010B50A480A4C807951
:102060002071611D01F0CAFF00218922228018B170
:102070000320A070E17010BDA1700920E070002065
:1020800010BD0000BA870120B486012070B5164D3E
:102090002DED028B95ED100B9FED148B51EC100B79
:1020A00053EC182BFEF749FAFEF746FB114C80B2B1
:1020B000211DFEF704FD95ED0E0B53EC182B51EC92
:1020C000100BFEF73AFAFEF737FB80B2A11DFEF7C0
:1020D000F6FC1B2020800020A0700420E07000206F
:1020E000BDEC028B70BD000000FC0220000000006F
:1020F00000005940B486012070B51E482DED028BBA
:102100009FED1A8B90ED000B53EC182B51EC100B3C
:10211000FEF713FAFEF710FB174C80B2211DFEF7F5
:10212000CEFC0025A11D2846FEF7C9FC04F10801DC
:102130002846FEF7C4FC114853EC182B90ED000B19
:1021400051EC100BFEF7F9F9FEF7F6FA80B204F144
:102150000A01FEF7B4FC192020800020A07008209E
:10216000E0700020BDEC028B70BD0000000000009C
:1021700000005940B8850120B4860120C0850120A7
:1021800010B5074C1023221D3021A02006F0C4FEFC
:10219000082020800020A0701020E070002010BDDA
:1021A000B48601202DE9F047164D0A20002428713D
:1021B00041F2065841F2025908EBC40005EB8406CF
:1021C00081B2721D0223A02006F0A6FE074609EB8D
:1021D000C40081B2F21D0223A02006F09DFE384308
:1021E000641C0A2CE8D300211C222A8020B1012083
:1021F000A870E970BDE8F087A9702920E870002078
:10220000F8E70000B4860120FEB5134813492526DF
:1022100090F906201248C97A124D0068002432B1A4
:10222000012A09D02E800320A870EC70FEBD71B188
:1022300001940D21029403E049B901940C21029408
:102240008DF8001000231A4669460BF029FE2E80F7
:10225000AC70EC700020FEBDBA87012000FC0220AB
:10226000E4850120B48601202DE9F047424C002589
:1022700004F5837065608779C6794FF0010A4FF0E5
:1022800003094FF010081FB1012F0DD03BA113E03F
:102290004FF48051434802F0B9FD18B13F2E29D9BF
:1022A00041A109E04BA11BE00821574802F0AEFD17
:1022B000A8B11F2E1ED955A15F4808F073F85E48DB
:1022C000FEF745F802465C49012007F0B3FCA4F88C
:1022D000008084F80290E5700320BDE8F08757A1E4
:1022E000554808F05FF85448FEF731F80246524965
:1022F00001202DE0DFF8789199F8070000B16FB167
:102300003846FFF775F83146384607F0D9F850B12E
:10231000FF202FB189F8060056A110E05CA1DFE78D
:1023200089F80500F8E7E7B189F80660384601F05A
:102330000FF9B042384617D006F006FF59A13E48C3
:1023400008F030F83C48FEF702F802463A4900200F
:1023500007F070FCA4F8008084F802A0E57001206A
:10236000BBE789F80560E1E707F060F9A4F80080B1
:10237000A570E5700020B0E7B4860120537769743A
:10238000636820636F6D6D616E6420706172616D52
:102390006574657220697320696E76616C69640A80
:1023A00000000000001C024053776974636820320B
:1023B00078333220636F6D6D616E6420706172617D
:1023C0006D6574657220697320696E76616C6964ED
:1023D0000A00000053776974636820327833322032
:1023E000636F6D6D616E6420636F6D6520627574DF
:1023F00020737769746368206D6F6465206973204A
:1024000077726F6E670A00000004024053776974A8
:102410006368203178333220636F6D6D616E6420A4
:10242000706172616D6574657220697320696E7682
:10243000616C69640A000000F588012053776974B3
:102440006368203178333220636F6D6D616E642074
:10245000636F6D652062757420737769746368209B
:102460006D6F64652069732077726F6E670A000074
:1024700000FC0220536574207377697463682063DD
:1024800068616E6E656C206661696C65640A000047
:1024900053776974636820697320626C6F636B653E
:1024A000640A0A0053657420737769746368206353
:1024B00068616E6E656C206661696C656420320AC5
:1024C000000000002DE9F047114890F80690C01D6B
:1024D000FEF704FB80460E480B30FEF7FFFA02467B
:1024E0000327002588260B4C4046424504DB014665
:1024F000484607F0BDF828B12680A770E570032094
:10250000BDE8F0872680A570E5700020F8E70000A0
:10251000BA870120B4860120F0B58BB0142103A83E
:10252000FDF70AFF01208DF8000020480327002551
:1025300083798DF80330C1798DF80110027A8DF816
:102540000220447A8DF80C40847A8DF80D40C07AD0
:102550008526174C8DF80E00632B11D803F5FA630E
:10256000D8B205F00BF858B19DF80C00172807D821
:102570009DF80D003B2803D89DF80E003B2805D997
:102580002680A770E57003200BB0F0BD002203A9E0
:10259000084803F059FD00226946064803F0F0FCA4
:1025A0002680A570E5700020EEE70000BA870120C4
:1025B000B4860120848E01202DE9F041484C2DED98
:1025C000068B84B0E0880CF003FB00B2FEF796F8AF
:1025D0009FED448B53EC182BFEF721F841EC190BBF
:1025E00020890CF0F5FA00B2FEF788F853EC182BAE
:1025F000FEF715F841EC180B3C4801271A26007825
:102600009FED3BAB00254FF00308A4F5837402282F
:102610005CD3394890ED000B51EC190B53EC102BA7
:10262000FEF7DAF817D353EC1A2B51EC190BFEF71F
:10263000BBF810D353EC1A2B51EC180BFEF7CCF867
:1026400009D32E4890ED000B51EC180B53EC102BD6
:10265000FEF7AAF809D2268084F80280E5700320EC
:1026600004B0BDEC068BBDE8F081254800231A4676
:1026700080ED109B80ED0E8B0B208DF80000214823
:1026800002950195694600680BF00AFC1E484FF45C
:10269000C8730022694600680BF074FB60B11BA18F
:1026A000224807F07FFE2148FDF751FE02461F49F0
:1026B000002007F0BFFA09E0019890F8008010B1FF
:1026C0000CF078FD0195B8F1000F04D02680A770BA
:1026D000E5700120C4E72680A570E5700020BFE703
:1026E000BA8701200000000000005940B085012099
:1026F0000000000000000000B8850120C085012016
:1027000000FC0220E4850120E88501206F734D65FF
:102710007373616765517565756547657428292010
:1027200074696D656F75740A00000000F5880120FA
:1027300005490120002308711A461946842007F034
:1027400081FC07F053FE000000FC0220F8B5354C78
:1027500005209FED350B2071684608F065FD0127C7
:1027600000251D26E8BB611D4FF62420FEF7A7F9C2
:10277000E11DBDF80000FEF7A2F99FED2D0B6846A4
:1027800008F052FD68BB04F109014FF61840FEF74E
:1027900096F904F10B01BDF80000FEF790F99FEDEA
:1027A000260B684608F040FDD8B904F10D014FF63C
:1027B0000C60FEF784F904F10F01BDF80000FEF78C
:1027C0007EF99FED1F0B684608F02EFD48B904F115
:1027D00011010020FEF773F904F11301BDF80000A8
:1027E00000E007E0FEF76BF99FED170B684608F075
:1027F0001BFD20B12680A770E5700120F8BD0949B6
:102800004FF4FA701531FEF75AF90649BDF8000089
:102810001731FEF754F92680A5701520E0700020CE
:10282000F8BD0000B48601200000000000002EC0AA
:1028300000000000000024C000000000000014C0E0
:102840000000000000000000000000000000144034
:102850002DE9F05F884CA51DE0880CF0B9F9E1780E
:102860004FF0000BAD1C07464FF08108A4F58374B0
:102870004FF0010AD946862901D080A104E087489B
:102880000078012813D086A1914807F08BFD90486D
:10289000FDF75DFD02468E49012007F0CBF900BF30
:1028A000A4F8008084F802A084F80390C9E0012F06
:1028B0000FD0022F4AD079480369591CB94202D17E
:1028C000017B03297CD0BB424ED1017B022977D00A
:1028D0004AE072490822243105F12000FDF73EFD4F
:1028E00030B903227B4905F14000FDF737FD08B1FF
:1028F00079A1C9E7694887490026C0F82090076197
:102900004979002962D1844A117899B14078002828
:102910005FD182A16E4807F045FD6D48FDF717FDB8
:1029200002466B49012007F085F94FF416700BF051
:10293000D3F9B5E782F800A080F801A0814A416888
:10294000914246D0806800F07BFC3FE0534E3369F3
:10295000012B02D0022B04D006E0307B032809D0E3
:1029600002E0307B022805D03A4677A1584807F0AC
:1029700019FD8CE7286C00BA20F0FF0295F843009F
:102980000243B261686C95F8471000BA20F0FF006E
:1029900008437061B2F5C03F0FD973A14C4807F0EE
:1029A00001FD4B48FDF7D3FC02464949012007F0E1
:1029B00041F90220307373E702E03761002605E039
:1029C0008026076102E064200BF086F95248007807
:1029D00020B159460BF1010B0629F4D358464FF0AC
:1029E000030B06281BD3012F15D067A1384807F029
:1029F000D9FC3748FDF7ABFC02463549012007F00A
:102A000019F9264902200873A4F8008084F802A06E
:102A10000820E07015E0214880F80CB023E03D4824
:102A2000417989B1E6B14F4680F8059007F08EFCF8
:102A300058B11A4902200873A4F8008084F802A053
:102A4000E7700120BDE8F09F56B1144FB208396A13
:102A500078680844294600F017FC386A3044386228
:102A60000E4981F80CB0A4F8008084F8029084F834
:102A700003900020E6E70000BA87012055706772D6
:102A80006164652064617461206C656E67746820A0
:102A9000696E76616C69640A00000000C0880120DC
:102AA00043616E6E6F742065786375746520636F23
:102AB0006D6D616E642062656361757365206F661C
:102AC0002077726F6E67206D6F64650A00000000EA
:102AD000F5880120048001205468652066696C65D2
:102AE000206973206E6F7420746865206669726D4A
:102AF0007761726520636F72726573706F6E64695F
:102B00006E6720746F2074686973206D6F64756CD4
:102B1000650A0000F88C0120A5850120466C6173D0
:102B20006820696E207573696E6720666F72206F0A
:102B3000746865722066756E6374696F6E732E2E8D
:102B40002E0A00000000080853657120696E766146
:102B50006C6964203A202575097072655F73657130
:102B6000203A2025750A000046696C652073697A51
:102B70006528252358292065786365656473206C72
:102B8000696D69740A00000057616974696E672095
:102B9000666C6173682074696D656F75740A0000F6
:102BA00007490120802208700020CA61087308616B
:102BB0000862A1F503710A808870C8707047000030
:102BC000C08801202DE9F041364C012604F5037040
:102BD000832701780025012911D033A13E4807F051
:102BE000E1FB3D48FDF7B3FB02463B49012007F0FE
:102BF00021F82780A670E5700420BDE8F081026A04
:102C000081698A4202D20B4634A10EE00269032A8E
:102C100001D242A122E080464068FDF767FFD8F864
:102C200014300246934204D040A12B4807F0BAFB6F
:102C300017E04748DFF81CC14571D8F80420624509
:102C400001D1012200E002220271D8F81810C0E977
:102C500002133F4807F07AFB80B13FA11E4807F0FE
:102C6000A1FB1D48FDF773FB02461B49012006F03E
:102C7000E1FF2780A670E5700120BEE740A116485D
:102C800007F090FB1448FDF762FB02461249012051
:102C900006F0D0FF00231A461946832007F0D2F928
:102CA00007F0A4FBB486012043616E6E6F7420654B
:102CB000786375746520636F6D6D616E6420626505
:102CC0006361757365206F662077726F6E67206D24
:102CD0006F64650A00000000F588012054686520D3
:102CE0007265636569766564206C656E67746820DB
:102CF0002575206973206C657373207468616E207C
:102D0000746865206C656E67746820696E206865FC
:102D1000616465722025752E0A0000004E6F2076D2
:102D2000616C696420646174612E0A00435243201F
:102D30007665726966696564206661696C65642E92
:102D40002025235820213D202523580A000000007B
:102D5000F88C0120000004085570646174652075CA
:102D60007067726164652073746174757320746F29
:102D700020656570726F6D206661696C65640A001C
:102D800055706772616465206669726D77617265FE
:102D900020737563636573730A00000030B56D4C72
:102DA00004202DED0A8B81B06946207205F0E6FB08
:102DB000002508B1ADF80050BDF80000FDF7AFFCEC
:102DC0009FED658B53EC182BFDF7B7FB9FED649BD4
:102DD00053EC192BFDF7B1FB9FED63CB53EC1C2B90
:102DE000FDF7ABFB9FED62AB53EC1A2BFDF7A5FB98
:102DF0009FED61BB53EC1B2BFDF7F8FAFDF7BBFC15
:102E0000ADF80000611D3220FDF759FEE11DBDF84F
:102E10000000FDF754FE6946022005F0AFFB08B143
:102E2000ADF80050BDF80000FDF779FC53EC182B0D
:102E3000FDF783FB53EC192BFDF77FFB9FED501B38
:102E400053EC112BFDF779FB53EC1A2BFDF775FBB7
:102E500053EC1B2BFDF7CAFAFDF78DFC3D49ADF88D
:102E6000000009312120FDF72AFE3A49BDF8000093
:102E70000B31FDF724FE6946032005F07FFB08B106
:102E8000ADF80050BDF80000FDF749FC53EC182BDD
:102E9000FDF753FB53EC192BFDF74FFB53EC1C2BA9
:102EA000FDF74BFB53EC1A2BFDF747FB53EC1B2BA9
:102EB000FDF79CFAFDF75FFC2649ADF800000D31E7
:102EC0002C20FDF7FCFD2349BDF800000F31FDF774
:102ED000F6FD6946052005F051FB08B1ADF800503C
:102EE000BDF80000FDF71BFC53EC182BFDF725FB8C
:102EF00053EC192BFDF721FB9FED231B53EC112BFA
:102F0000FDF71BFB53EC1A2BFDF717FB53EC1B2BA8
:102F1000FDF76CFAFDF72FFC0E49ADF800001131FA
:102F20004FF42070FDF7CBFD0A49BDF800001331C6
:102F3000FDF7C5FD0748FF2208211530FDF7F5F91B
:102F40001F202080A5701920E07001B00020BDEC8A
:102F50000A8B30BDB4860120000000000000303F25
:102F600000000000000004400000000000000840D5
:102F70000000000000002440000000000000E03FCE
:102F800000000000000000400000000000804940F8
:102F900038B5010A8DF800101C4C8DF80100002294
:102FA0001021204601F037FF01230222694618480C
:102FB00003F0F4F9002823D01548426D15A11F48ED
:102FC00007F0F0F91D48FDF7C2F902461B49002041
:102FD00006F030FE1A480D21054604F001FB78B9D1
:102FE00018A1164807F0DEF91448FDF7B0F90246BB
:102FF0001249002006F01EFE0D21284606F03AFA7E
:1030000001221021204601F006FF38BD00000240D9
:10301000A48E0120577269746520444143353534CC
:1030200031206661696C65642C204572726F724351
:103030006F6465203D202523580A0000F588012093
:103040000CFC0220444143353534312061626E6FFF
:10305000726D616C0A000000014801F0E1BA0000E5
:103060007491012001681823CAB2103AB2FBF3F23E
:10307000054B6FF30901032A9B5CC36500D9091D49
:1030800081650846704700007406012010B50146AE
:1030900000208B698A6A4FF0C07453B1B3F5005FAA
:1030A00015D072B1012A0CD0022A0AD0032A09D104
:1030B00004E01AB1012A06D0022A03D1C96AC90163
:1030C00000D5012010BDC96AA142FAD010BD002A66
:1030D000F7D0012AF2D0022AF3D0032AF3D010BD90
:1030E00030B50468256825F4802525600468636090
:1030F0008368402B036803D099600068C26030BDCC
:103100009A600068C16030BD7047000010B50022B1
:103110001146022005F0B4FD0446002211460120AC
:1031200005F0AEFD204304D00521024806F0A2F9C7
:10313000012010BD10FC0220012001F071BD4FF4F0
:10314000005001F06DBD022001F06ABD0E4810B5BF
:10315000007848B140F6FF7400222146012005F0B6
:103160008FFD38B1012010BD0C21084806F082F90E
:10317000042010BD00222146022005F081FD002818
:10318000F7D0032010BD0000B085012010FC022004
:1031900070470000002229B101291DD002291ED04C
:1031A0004FF440720B2800D9001D0E490B6823F420
:1031B00040730B600B6813430B600A6822F0F8023F
:1031C0000A600A68022303EBC00002430A60086831
:1031D00040F48030086070474FF48072E2E74FF4AB
:1031E0000072DFE7103C02401348016889050FD5E3
:1031F000016821F400710160016841F4006101601F
:10320000016821F400610160016841F4007101600E
:10321000016849050FD5016821F4806101600168EA
:1032200041F480510160016821F48051016001681E
:1032300041F4806101607047003C024001F0C0BB76
:1032400010B586B0044618280ED201F069FC0120A2
:10325000CDE901040390002000900220049068460C
:1032600001F050FB002800D0012006B010BD000086
:1032700010B501F055FC034991200860BDE81040ED
:1032800001F004BC0C3C02402DE9F0470026174633
:1032900089460546344601F043FCDFF83C8012E0E5
:1032A00059F8242000232946022001F0FBFB08B135
:1032B00003260CE059F824002968814201D0022637
:1032C00005E0641C2D1DBC4201D24545E8D901F042
:1032D000DDFB3046BDE8F087FCFF1F080E4A13688F
:1032E00023F44073136003290DD0012911680FD016
:1032F00041F40041116011684FF4803343EA00202B
:10330000014311607047116848F204031943F1E763
:1033100041F00401EEE70000103C0240064A136849
:1033200023F44073136013681360136843F00103C0
:103330001360017070470000103C0240094910B54D
:103340000C6824F440740C600C6844F440740C6005
:103350000C6844F001040C600260BFF36F8F43609F
:1033600010BD0000103C0240074A136823F440736C
:103370001360136843F480731360136843F0010310
:103380001360018070470000103C0240074A136838
:1033900023F440731360136843F4007313601368DD
:1033A00043F001031360016070470000103C0240CD
:1033B0001C490868C2061C4805D5C26942F01002C3
:1033C000C26110220A600A68920605D5C26942F0FD
:1033D0000802C26120220A600A68520605D5C26945
:1033E00042F00402C26140220A600A68120605D552
:1033F000C26942F00202C26180220A600A68D205F4
:1034000006D5C26942F00102C2614FF480720A60BF
:103410000A68920705D5C26942F02002C261022003
:10342000086070470C3C02401492012070B51149AD
:1034300004460020C86101F0F3FC06460E4D09E089
:10344000601C07D024B101F0EBFC801BA04201D925
:10345000032070BD2868C003F2D42868C00701D0DB
:1034600001202860286810F4F970F2D0FFF7A0FF5F
:10347000012070BD149201200C3C02402DE9F04760
:1034800088B007003048109E1D469246894606D0F7
:10349000012F07D04FF0FF3008B0BDE8F087447926
:1034A000012001E0847905200DF1040804AB03AA92
:1034B00002A9CDF8008000F07DFC10B16FF0010092
:1034C000EAE7BDF80C00BDF8081000B200FA81F080
:1034D000A9F80000BDF80400BDF8101000B200FA11
:1034E00081F0AAF80000FF2C08D02146384600F0F1
:1034F000B7F9002805DA6FF00200CDE70020288038
:103500001FE0124900EB800001EB400004AB807922
:1035100003AA02A9CDF8008000F04CFC10B16FF0B6
:103520000300B9E7BDF80C00BDF8081000B200FABE
:1035300081F02880BDF80400BDF8101000B200FA38
:1035400081F030800020A7E700FC022020850120C8
:103550002DE9F04FDFF820828DB0060006D0012E55
:1035600007D04FF0FF300DB0BDE8F08F98F8055050
:1035700001E098F806506FF00109FF2D30D0294680
:10358000304600F06DF900280EDA2B4632467BA15A
:10359000844806F007FF8348FCF7D9FE02468149BC
:1035A000002006F047FB1BE07F4900EB800201EBA7
:1035B000420494F803B01EB1A1886FF0170205E031
:1035C000202D0FD3402D0DD0A188182202EBC00072
:1035D000084487B204AA3946A02008F0B5FB28B1F8
:1035E0004846C0E7A18801EBC000F2E73F1DB9B231
:1035F00003AAA02008F0A8FB10B16FF00200B2E708
:103600000DF1140A08AB07AA06A95846CDF800A088
:1036100000F0D0FB10B16FF00300A4E7049800287D
:1036200002DBBDF8181001E0BDF81C1089460399B3
:10363000002902DBBDF8207001E0BDF814700AF02B
:1036400033FB0146484603F0DFFF80B103980AF0E0
:103650002BFB0146384603F0D7FF40B15846FDF733
:10366000A5FEA7790820CEB1202D22D218E003981C
:103670004A46CDE900704DA14A48049B06F092FEEF
:103680004848FCF764FE02464649002006F0D2FA9C
:10369000584605F0B5FF6FF0040064E7402D08D2EE
:1036A000627805F01F01891A00EBC10021890844E6
:1036B00001E02089503084B204AA2146A02008F0FD
:1036C00043FB10B16FF005004DE7241DA1B203AA22
:1036D000A02008F039FB10B16FF0060043E708ABFB
:1036E00007AA06A93846CDF800A000F063FB10B188
:1036F0006FF0070037E70498002802DBBDF8185088
:1037000001E0BDF81C500399002902DBBDF8204000
:1037100001E0BDF814400AF0C7FA0146284603F05C
:1037200073FF70B103980AF0BFFA0146204603F018
:103730006BFF30B13846FDF739FECEB198F906007F
:1037400011E703982A46CDE9004025A11548049BBE
:1037500006F028FE1348FCF7FAFD02461149002046
:1037600006F068FA384605F04BFF6FF00800FAE6FD
:1037700098F90500F7E6000000FC0220496E76612A
:103780006C696420737769746368206368616E6E26
:10379000656C206E756D626572203A202575202556
:1037A000750A0000F58801202085012046697273A2
:1037B00074206C6576656C20737769746368204447
:1037C000412F414420646966666572656E743A20D3
:1037D00025752C2025642C2025752C2025640A00B5
:1037E0005365636F6E64206C6576656C20737769D2
:1037F0007463682044412F414420646966666572A1
:10380000656E743A2025752C2025642C2025752C96
:103810002025640A000000007CB5044606236A46A1
:103820004FF44151A02005F077FB05000DD168460B
:10383000FDF754F909492060884207D00020216033
:1038400020716071204606F059FC7CBD9DF8040093
:1038500020719DF80500607128467CBD5A5AA5A5C7
:1038600070B5030001F01F0203D0202905D2521CBD
:1038700006E04029FBD3212202E02129FBD3FF22CD
:103880000D4900200C68091D0FE000BF00EB80050A
:1038900011F815609E4207D101EB45056E789642FE
:1038A00002D8AD78954202D2401CA042EED3A0428D
:1038B00001D34FF0FF3070BD1C85012030B589B0B9
:1038C000044620236A4643F22001A02005F024FB91
:1038D000050019D16846FDF701F9206007A8FDF73A
:1038E000FDF813496060884210D012482160616081
:1038F0000168E1600068A0600F480168A16100688C
:103900006061204606F050FC09B030BD01A8FDF70B
:10391000E5F8E06002A8FDF7E1F8A06003A8FDF774
:10392000DDF8A06104A8FDF7D9F860612846EBE74F
:103930005A5AA5A50C050120280501202DE9F04FB4
:10394000E84C0D462DED0E8B8DB004F1100A4FF0B2
:10395000004B9FEDE5BB9FEDE6CB9FEDE7DB9FEDD9
:10396000E8AB9FEDE98B9FEDEAEB277A94F807C06F
:1039700005AB41F2523941F252469FEDE79B627925
:10398000A17913287DD2DFE800F00A2F5B7EB0B367
:10399000BDC7CACEDAE2FAEEEDECEBEAE90001A926
:1039A000032004F07BFF00286CD1BDF80400FCF775
:1039B000B6FE53EC1B2BFCF7C0FD53EC1C2BFCF7A5
:1039C000BCFD41EC100B8DED020B9FEDD51B53ECB4
:1039D000112BFCF724FE53EC1D2BFCF7AEFD41EC44
:1039E000100B8DED020B25E001A9002004F056FF1D
:1039F0009FEDCD9B0028D7D1BDF80400FDF7EEF96F
:103A00004CE100BFFCF799FD53EC182B41EC100B77
:103A100051EC100BFCF7EAFC0AE000BFFCF78DFD4F
:103A200053EC182B41EC100B51EC100BFCF77FFD05
:103A300041EC100B51EC100BFCF77EFE29465EE0CA
:103A400001A9022004F02AFF0028ADD1BDF804002E
:103A5000FCF765FE53EC1B2BFCF76FFD53EC1C2BA6
:103A6000FCF76BFD41EC100B53EC1E2B8DED020BA4
:103A7000FCF75DFD9FEDAE1B53EC112BFCF7CFFD6A
:103A800021E02DE1D3E001A9012004F007FF002887
:103A90008AD1BDF80400FCF742FE53EC1B2BFCF767
:103AA0004CFD53EC1C2BFCF748FD41EC100B53EC88
:103AB0001E2B8DED020BFCF73AFD9FED9F1B53EC87
:103AC000112BFCF73AFD53EC1D2BFCF736FD41ECB6
:103AD000100B53EC1A2B8DED020BFCF77DFE53EC13
:103AE000182B9DED020B9FD892E72946584606E019
:103AF000607A15E02946012001E029460020FCF704
:103B0000E2FF4FE0002FF8D04FF480618C4801F0C5
:103B10007DF90128F1D1EDE7002FEED0EAE7E07A58
:103B20000028EAD0E6E702A901A808F0C9F90128AF
:103B30007DD0DAD853EC1A2B9DED020B78E002A968
:103B400001A808F00BF9012871D0F3D9CDE7009353
:103B500008AB07AA06A94FF000002EE0B2E0A7E0EC
:103B600073E039E02EE023E009E000BFBDF8180063
:103B7000294680B2FCF7A3FFBDF820000EE00093B9
:103B800008AB07AA06A9002021E000BFBDF81C0071
:103B9000294680B2FCF793FFBDF81400A91C80B23F
:103BA000FCF78DFF00200DB0BDEC0E8BBDE8F08F53
:103BB000009308AB07AA06A90120FFF75FFC0028C5
:103BC000D4D092E7009308AB07AA06A90120FFF71B
:103BD00055FC0028DAD088E7BCF1000F85D1402AD7
:103BE00083D202A901A808F06BF901285BD0ADD8F7
:103BF00061794FF0020309EB810104AA4FF0A000A4
:103C000005F08AF904A8FCF766FF00B2FCF776FD20
:103C100053EC192BFCF703FD41EC100B53EC102B6C
:103C20009DED020B51EC100BFCF781FC34E03AE007
:103C300051EC100BFCF7D0FD9DED020B53EC192B52
:103C400051EC100B3FF6EAAEDCE62029B9D202A90E
:103C500001A808F083F8012825D0B2D8A0794FF048
:103C6000020306EB800104AA4FF0A00005F054F90E
:103C700004A8FCF730FF00B2FCF740FD53EC192B11
:103C8000FCF7CDFC41EC100B53EC102B9DED020B1F
:103C900051EC100BFCF7AAFB41EC100B53EC1A2B68
:103CA0008DED020BC4E70521504605F0E3FB1CE750
:103CB000BCF1000F01D1402A01D32248BEE609EB36
:103CC000820103E0202986D206EB8101022304AAA7
:103CD000A02005F021F904A8FCF7FDFE00B2ADE636
:103CE000012060E700FC0220000000000000303FDF
:103CF00000000000000004400000000000408F4071
:103D00000000000000000000000000000000E03F94
:103D1000000000000000F43F0000000000005940D7
:103D200000000000000036400000000000002440B9
:103D30003D0AD7A3703DD23F0000000000001040B4
:103D40000014024090E8FFFF30B505462DED028BD0
:103D500083B09FED168B0024694602A807F0FEFF92
:103D600020B1012003B0BDEC028B30BD9DED000BF6
:103D700051EC180B53EC102BFCF738FB41EC180BF3
:103D80000F2009F0A9FF641CE4B20A2CE4D32046FA
:103D9000FCF7C5FC41EC100B51EC180B53EC102B4D
:103DA000FCF73DFCC5E900010020DBE70000000056
:103DB000000000002DE9F0419846069D16460B468E
:103DC000092828D238B3154A002100BF01EBC104ED
:103DD000145D844202D0491C0829F7D301EBC100CD
:103DE00084181946607905F083F90746A0793146B1
:103DF00005F07EF940EA0706E079414605F078F9DA
:103E00000643207A294605F073F9304301D06FF05C
:103E10000100BDE8F0814FF0FF30FAE75C8501203A
:103E200070B5002438B12F4D4021284600F0EEFF38
:103E3000012834D034E02C4D4FF40061284600F0C6
:103E4000E5FF012800D110244FF48061284600F0DE
:103E5000DDFF012801D144F008044FF40071284629
:103E600000F0D4FF012801D144F004044FF4807124
:103E7000284600F0CBFF012801D144F00204802144
:103E8000284600F0C3FF012801D144F0010440217D
:103E9000284600F0BBFF012822D1203420E0102466
:103EA0002021284600F0B2FF012801D144F0080487
:103EB0001021284600F0AAFF012801D144F0040493
:103EC0000821284600F0A2FF012801D144F0020495
:103ED0000421284600F09AFF012801D144F0010492
:103EE000204670BD000C0240001C024070B500244A
:103EF0002DED0A8B84B0064625469FED3CBB9FED19
:103F00003D9B694602A807F0DBFF20B1012004B009
:103F1000BDEC0A8B70BDECB3052C5FD253EC1B2BB0
:103F200051EC180BFCF762FA9DED001B53EC112BC2
:103F3000FCF752FC49D8B0EE4B0AF0EE6B0A53EC9A
:103F4000102B51EC180BFCF7F2FA9DED001B53EC13
:103F5000112BFCF729FC38D853EC192B51EC1A0B18
:103F6000FCF744FA9DED001B53EC112BFCF734FCDD
:103F70002BD8B0EE49CAF0EE69CA53EC1C2B51ECB9
:103F80001A0BFCF7D4FA9DED001B53EC112BFCF738
:103F90000BFC00E011E018D89DED000B641CE4B2AE
:103FA00053EC102B51EC180BFCF720FA53EC1C2BA4
:103FB000FCF7C3FA41EC180B0AE09DED008B0124DD
:103FC000B0EE48AAF0EE68AA02E000246D1CEDB243
:103FD000052D03D8032009F07FFE92E7032D01D9B8
:103FE000022094E786ED008B002090E733333333D3
:103FF0003333D33F000000000000E03F70B50D46B2
:104000002DED088B01464FF000409FED859B461E2D
:104010009FED85BB9FED86AB9FED878B884C0B2971
:1040200077D2DFE801F00647777D899AAEC2D6F5F0
:10403000F50094ED360B53EC1B2B51EC100BFCF7F9
:10404000B3FB94ED360B53EC1A2B51EC100B06D24C
:10405000FCF773FA53EC182BFCF769FA05E0FCF750
:104060006CFA53EC182BFCF7C1F9FCF765FB2946F9
:10407000FCF729FD94ED320B53EC1B2B51EC100B8C
:10408000FCF792FB94ED320B40D200BF53EC1A2B9D
:1040900051EC100BFCF751FA53EC182BFCF747FAD4
:1040A00041EC100B53E000BFFCF70DFD0020BDEC10
:1040B000088B70BD94ED4E0B53EC1B2B51EC100B89
:1040C000FCF772FB94ED4E0B53EC1A2B51EC100BDA
:1040D00006D2FCF732FA53EC182BFCF728FA05E06D
:1040E000FCF72BFA53EC182BFCF780F9FCF724FBB8
:1040F0002946FCF7E8FC94ED4A0B53EC1B2B51ECE2
:10410000100BFCF751FB94ED4A0BBFD353EC1A2B69
:1041100074E083E02946FCF7D6FC94ED520B16E0E0
:1041200094ED3E0B51EC100BFCF706FB2946FCF717
:10413000CAFC94ED3A0B0AE094ED460B51EC100BDF
:10414000FCF7FAFA2946FCF7BEFC94ED420B51EC61
:10415000100BFCF7F1FA291DA6E794ED260B53ECA2
:10416000192B51EC100BFCF7E8F953EC182BFCF76A
:104170003DF9FCF7E1FA2946FCF7A5FC94ED220B8A
:104180003AE094ED160B53EC192B51EC100BFCF7A5
:10419000D4F953EC182BFCF729F9FCF7CDFA294692
:1041A000FCF791FC94ED120B26E094ED1E0B53EC02
:1041B000192B51EC100BFCF7C0F953EC182BFCF742
:1041C00015F9FCF7B9FA2946FCF77DFC94ED1A0BBA
:1041D00012E094ED2E0B53EC192B51EC100BFCF765
:1041E000ACF953EC182BFCF701F9FCF7A5FA2946BA
:1041F000FCF769FC94ED2A0B53EC192B51EC100BD6
:10420000FCF79BF953EC182BFCF7F0F848E7FFE7B5
:104210002946FCF758FC291D304645E7012046E7B2
:1042200000000000000059400000000000000000F5
:104230000000000000002440000000000000E03FFB
:1042400000FC02209FED410B80ED000B9FED410B28
:1042500080ED020B9FED410B80ED040B9FED410BB8
:1042600080ED060B9FED410B80ED080B9FED410BA0
:1042700080ED0A0B9FED410B80ED0C0B9FED410B88
:1042800080ED0E0B9FED410B80ED100B9FED410B70
:1042900080ED120B9FED410B80ED140B9FED410B58
:1042A00080ED160B9FED410B80ED180B9FED410B40
:1042B00080ED1A0B9FED410B80ED1C0B9FED410B28
:1042C00080ED1E0B9FED410B80ED200B9FED410B10
:1042D00080ED220B9FED410B80ED240B9FED410BF8
:1042E00080ED260B9FED410B80ED280B9FED410BE0
:1042F00080ED2A0B9FED410B80ED2C0B9FED410BC8
:1043000080ED2E0B9FED410B80ED300B9FED410BAF
:1043100080ED320B9FED410B80ED340B9FED410B97
:1043200080ED360B9FED410B80ED380B80ED3A0BA5
:1043300080ED3C0B80ED3E0B9FED3E0B80ED400B86
:104340009FED3E0B80ED420B0020704795438B6C38
:10435000E7FB0B40B81E85EB51B80B403789416035
:10436000E5D0084014AE47E17A1409400F2DB29D04
:10437000EFA712407C14AE47E17A124025068195E2
:10438000438B1040B81E85EB51B8104034333333A3
:10439000333315400000000000001540CCCCCCCCDD
:1043A000CCCC12400000000000001340F6285C8FC7
:1043B000C2F55040CDCCCCCCCCCC504014AE47E173
:1043C0007A144E406666666666664E406666666647
:1043D00066765540000000000040554033333333CB
:1043E000333324C000000000000024C0000000009F
:1043F00000C082400000000000308140000000004A
:1044000000C082C000000000003081C00000000039
:1044100000209C400000000000589B40000000006D
:1044200000209CC00000000000589BC0000000005D
:1044300000000000000000000000564000000000E6
:1044400000005440F0B5314E00252DED028B8BB0AD
:1044500096F800C0B0EE408AF0EE608A0746BCF1E4
:10446000000F22D02A4CBCF1010F1ED094ED020B9C
:1044700051EC180B53EC102BFCF796F90BD330785A
:1044800004EB001010ED020B51EC180B53EC102B49
:10449000FCF7A2F90CD23578D4E90201D4E9002363
:1044A00004EB051CACF1100C1AE065F30F0026E0DC
:1044B00001250CE004EB051090ED020B51EC180BFC
:1044C00053EC102BFCF770F904D96D1CEDB2307869
:1044D0008542EFD304EB051C5CE902015CE904238F
:1044E0009CE870108DE87310B0EE480AF0EE680A90
:1044F00006A8FCF78FFB0DF1180E9EE80F0087E869
:104500000F000BB0BDEC028BF0BD0000B0850120A8
:10451000308D012030B587B0044616236A464FF42B
:104520004051A02004F0F8FC05001ED16846FCF7BD
:10453000D5FA20609DF8040020719DF80500607197
:104540000DF10600FCF7CAFAA0600DF10A00FCF7B5
:10455000C5FAE0600DF10E00FCF7C0FA20610DF124
:104560001200FCF7BBFA6061284607B030BD2DE9A8
:10457000F0410446876D00F053FC064694F8350080
:104580000025022806D08020606584F83450012080
:10459000BDE8F0812068016821F016010160206803
:1045A000416921F080014161206C08B9A06C20B103
:1045B0002068016821F0080101602068016821F08D
:1045C000010101600BE000F02BFC801B052806D9DF
:1045D0002020606504F8345F03206070D8E720680D
:1045E0000068C007EFD194F85C103F208840B860A5
:1045F00004F8345F012060700020C9E790F835109E
:10460000022903D08021416501207047052180F8EF
:1046100035100068016821F0010101600020704739
:104620002DE9F84304464FF00009CDF800906348A7
:104630004FF41651A56D0068B0FBF1F72E6894F8A1
:104640005C10082000FA01F131420FD021680A689D
:1046500052070BD50A6822F004020A6094F85C1035
:104660008840A860606D40F00100606594F85C10BF
:104670004FF0010808FA01F0304208D0216849697A
:10468000090604D5A860606D40F00200606594F8EA
:104690005C1004208840304208D0216809688907EE
:1046A00004D5A860606D40F00400606594F85C106B
:1046B00010208840304218D021680968090714D5B5
:1046C000A86020680168490304D50068000308D584
:1046D000A16C07E00168C90503D4016821F0080155
:1046E0000160216C09B12046884794F85C102020B5
:1046F0008840304231D021680968C9062DD5A860AC
:1047000094F8350005282068016806D0490347D58C
:10471000006800031DD4616C1CE021F016010160EB
:104720002068416921F080014161206C08B9A06CCA
:1047300020B12068016821F00801016094F85C1044
:104740003F208840A86084F8349084F83580216D3B
:104750001FE0E16B09B120468847606D00282BD02F
:10476000606DC00714D0052084F83500206801680A
:1047700021F0010101600098401C0090B84203D86C
:1047800020680068C007F6D184F8349084F835803A
:10479000E16C002910D001B02046BDE8F043084785
:1047A0000168C905D5D4016821F01001016084F8C1
:1047B000349084F83580CCE7BDE8F8833486012056
:1047C0002DE9F041044600F02BFB06465CB10025C4
:1047D00084F83450022084F835002068016821F004
:1047E000010101600DE00120BDE8F08100F018FB3F
:1047F000801B052805D920206065032084F835003A
:10480000F2E720680068C007F0D1226811682048EC
:104810000140D4E901031843D4E903363343184374
:1048200063691843A3691843E3691843236A18436B
:104830000843616A042903D1D4E90B1319430843DF
:10484000106020684069666A20F0070130460E4318
:10485000012704280CD1A06A0643E06A40B1204633
:10486000FEF714FC20B14020606584F83570BAE78B
:10487000206846612046FEF7F5FB94F85C203F2156
:1048800091408160656584F835700020ACE70000D8
:104890003F8010F02DE9F0410446866D90F8340019
:1048A000002501280DD0012084F8340094F83570DB
:1048B0000020012F07D084F8340002252846BDE8E7
:1048C000F0810220FBE7022784F8357060652046FE
:1048D000FEF706FC94F85C103F208840B06020682A
:1048E000016841F016010160206C20B12068016868
:1048F00041F0080101602068016841F00101016098
:10490000DCE7000070B5174900240A7E012A1ED09A
:10491000154A01230B76156845F0807515601568FA
:1049200045F000751560104DF3222D1F2A600268B6
:10493000012A0ED00B70C2684A608268CA60027C8D
:104940000A72017C8068FEF725FC204670BD0220BB
:1049500070BD02220A7042680A614168007CFEF75D
:10496000BDFCF2E714920120103C02400EB5401C41
:1049700015D100F08BF80D49002048700C494A7899
:1049800072B10C4B01225A71487002208DF8000060
:10499000094800231A466946006809F081FA0EBDED
:1049A0000648006809F0F2FB0EBD0000A485012056
:1049B000C0880120F88C0120E0850120D8850120E5
:1049C0002DE9F0412F4F38682F4C10F4F97F4FF04C
:1049D000FF384FF000050DD0207801282ED0207828
:1049E00002282FD0D4F81460FEF7E2FC304600F025
:1049F00057F825703868C0070BD001203860207840
:104A0000012821D02078022838D06069FFF7AEFF56
:104A10002570207800280FD11A48001D016848F23F
:104A2000FF0291430160016821F08071016001681B
:104A300021F0007101602576BDE8F081E668C4F8D8
:104A40000C80D1E72669CFE76068401E606060682F
:104A500050B1E068FFF78AFFE068401CE060E06862
:104A6000217AFEF797FBD4E74646C4F80C80257000
:104A7000FEF7BAFB3046FFF779FFCAE7FEF7B4FB53
:104A80002069C3E70C3C02401492012003480168EE
:104A900041F000410160002070470000103C0240DE
:104AA000704700002DE9F0471B4E05461446307E46
:104AB0001F468946012808D0012030764CF2503834
:104AC0004046FEF7B3FC18B114E00220BDE8F087C1
:104AD0009DB1012D16D0022D19D022463B464846E5
:104AE000FEF72CFC4046FEF7A1FC0C490A6822F0B8
:104AF00001020A6000213176E8E7E1B24846FEF79C
:104B00000DFCEFE7A1B24846FEF72EFCEAE721468E
:104B10004846FEF73BFCE5E714920120103C0240BA
:104B2000074900200A68002A09DA054A054B0C3AB1
:104B30001360054B13600968002900DA01207047F3
:104B4000103C024023016745AB89EFCD3EB51F4CB9
:104B5000B0F5005F10D0022827D0012822D1BFF382
:104B60004F8F1B4801681B4A01F4E061114301604B
:104B7000BFF34F8F00BFFDE74FF48051164800F0A0
:104B800045F901280ED01548C07960B114A122481A
:104B900005F008FC2048FBF7DAFB02461E4901201D
:104BA00005F048F83EBD032006E008211B4800F050
:104BB0002DF90128F6D004208DF8000000231A46B4
:104BC0006946206809F06CF93EBD0000E0850120CF
:104BD0000CED00E00400FA05001C024000FC02207D
:104BE000446574656374656420327833322073776A
:104BF00069746368207374726F6265207369676E8D
:104C0000616C2062757420697420697320626C6F16
:104C1000636B65640A000000F5880120000402400F
:104C2000044910B50A68024202D00860FFF78EFFFF
:104C300010BD0000143C01402DE9F84F00224FF058
:104C4000010803254FF00F0E0B6808FA02F4234009
:104C5000A3426ED14E68012E05D0022E03D0112E34
:104C600001D0122E12D186684FEA420C05FA0CF7D9
:104C7000BE43CF6807FA0CF7374387604668A64300
:104C80000C79C4F30014944034434460C668570060
:104C900005FA07FC8C6826EA0C06BC403443C46065
:104CA0004C68022C01D0122C13D1D40800EB8404E0
:104CB000A346D4F8209054074FEAD46A0EFA0AF6B5
:104CC00029EA06090E6906FA0AF646EA0906CBF849
:104CD000206004680E7924EA0C0406F00306BE4046
:104CE000264306604C68E4006FD53B4C266846F4CA
:104CF00080462660246822F0030604F48044009471
:104D0000364C3444A446D4F808489607360F0EFAB9
:104D100006F7BC43324FB84201D100272EE0314F95
:104D2000B84201D1012729E02F4FB84202D1022712
:104D300024E04AE02D4FB84201D103271EE02C4F5A
:104D4000B84201D1042719E02A4FB84201D1052702
:104D500014E0294FB84201D106270FE0274FB8428F
:104D600001D107270AE0264FB84201D1082705E004
:104D7000244FB84201D1092700E00A27B740274352
:104D8000CCF80878204E34684F689C43FF0300D568
:104D90001C4334601C4E361D34684F689C43BF036F
:104DA00000D51C433460184E083634684F689C4365
:104DB000FF0200D51C433460134E0C3634684F6834
:104DC0009C43BF0200D51C433460521C102AFFF4E0
:104DD0003BAFBDE8F88F000044380240003001408E
:104DE000000002400004024000080240000C0240A3
:104DF000001002400014024000180240001C024053
:104E00000020024000240240003C014000690840AC
:104E100000D0012070470AB1816170470904FBE7A7
:104E200001488068704700002886012090F83D20E6
:104E3000202A01D002207047242280F83D200268F9
:104E4000136823F0010313600268536A23F0100310
:104E500053620268536A0B43536201680A6842F066
:104E600001020A60202180F83D100020704790F870
:104E70003D20202A01D002207047242280F83D20C6
:104E80000268136823F00103136003685A6A22F072
:104E90000F020A4391B2596201680A6842F00102A6
:104EA0000A60202180F83D100020704770B5040092
:104EB00025D094F83D00002520B984F83C502046C8
:104EC00000F04CFA242084F83D002068016821F0AD
:104ED000010101602068016841F40041016020681F
:104EE000016821F40041016000F09AFD4D4A6168BB
:104EF000914201D84C4900E04C49884201D201203E
:104F000070BD4B492368B0FBF1F15E6826F03F06A7
:104F10000E435E606368934206D94FF4967359431B
:104F20004FF47A73B1FBF3F12368491C1E6A26F033
:104F30003F06314319626168914210D84900401E12
:104F4000B0FBF1F2521CC2F30B02042A01D204207E
:104F500022E0B0FBF1F0401CC0F30B001CE0A268A3
:104F6000F2B301EBC10303EB0116431EB3FBF6F3EF
:104F70005B1C43F480431B0549D092B301EBC10293
:104F800002EB0111401EB0FBF1F0401CC0F30B001E
:104F900040F4804040F400402168CA694CF6FF7339
:104FA0009A431043C861D4E907100143206802689E
:104FB00022F0C00211430160D4E9030101432068DB
:104FC000826848F2FF339A4311438160D4E90501B6
:104FD00008432168CA6822F0FF021043C86001E05C
:104FE0000EE016E02068016841F0010101602564CF
:104FF000202084F83D00256384F83E50002070BDD9
:1050000001EB4106431EB3FBF6F35B1CB3E7012043
:10501000C2E701EB4101401EB0FBF1F0401CC0F3C0
:105020000B00B7E7A086010080841E0000093D0048
:1050300040420F002DE9FF4F83B09A46DDE91197FA
:1050400093460446DDF84080FFF7EAFE054694F8F3
:105050003D00202870D11923012271492046009576
:1050600002F02AF90028F5D194F83C00012863D019
:10507000012084F83C0020680168C90703D1016859
:1050800041F0010101602068016821F400610160C4
:10509000222084F83D00402084F83E00002626644B
:1050A000C4F82480A4F82A90608D20855D48E062D1
:1050B000CDE9007553465A462046049902F004F89B
:1050C00000287CD1208DD0B1012821D00228206871
:1050D00024D0416980690090208D032869D8012877
:1050E0002BD0514902283B464FF00002009559D081
:1050F0008846204602F0E0F8002860D13CE02068B5
:10510000416981690091016841F40071016077E0B3
:105110002068016821F480610160F0E7016821F4F2
:10512000806101602068016841F4006101602068CD
:1051300041698069009063E06FE02A463946204665
:1051400002F039F998BB20680069616A08704EE086
:105150002068016841F40071016020680069616A9B
:105160000870606A401C6062218D491E2185618D36
:10517000491E6185216838E02068016821F480615A
:10518000016020680069616A0870606A401C6062A2
:10519000208D401E2085608D401E60853B4600228C
:1051A00041460095204602F087F800B9D0E706E0B6
:1051B000FFE72A463946204602F0FDF818B10120E3
:1051C00007B0BDE8F08F20680069616A0870606A06
:1051D000401C6062218D491E2185618D491E6185BB
:1051E00021684A69D24352070AD409690170606A8A
:1051F000401C6062208D401E2085608D401E6085B1
:10520000208D00287FF468AF202084F83D0084F8CA
:105210003E6084F83C600020D2E70220D0E7000026
:10522000020010000000FFFF040001002DE9FF4F05
:1052300083B09A46DDE9119793460446DDF8408035
:10524000FFF7EEFD054694F83D0020287FD1192395
:10525000012240492046009502F02EF8002876D120
:1052600094F83C00012872D0012084F83C002068AA
:105270000168C90703D1016841F00101016020689C
:10528000016821F400610160212084F83D00402084
:1052900084F83E0000262664C4F82480A4F82A90EE
:1052A000608D20852C48E062CDE9007553465A4652
:1052B0002046049901F086FF70B930E02A4639464D
:1052C000204602F0ABF858B1206C042804D12068C5
:1052D000016841F400710160012007B0BDE8F08F62
:1052E000606A216800780861606A401C6062218DF4
:1052F000491E89B22185628D521E628522685369DA
:10530000DB435B070BD469B100781061606A401C15
:105310006062208D401E2085608D401E6085208D3E
:105320000028CBD12A463946204601F09FFF0028AD
:10533000CAD154F83D0B016841F40071016020208E
:1053400004F81E09E67766770020C6E7FFE702202B
:10535000C3E70000020010000000FFFFF0B587B0B7
:10536000044614216846FAF7E7FF2668214C204FCF
:10537000204812220123032104251034BE4219D1F2
:10538000066846F0020606600068CDE9023100F0CA
:1053900002000590C020CDE9000204956946164838
:1053A000FFF74AFC206840F400102060206800F4F9
:1053B000001019E0114FBE4217D1066846F02006D2
:1053C0000660006800F0200005908DE80E00CDE931
:1053D000031569460A48FFF72FFC206840F4800057
:1053E0002060206800F48000059007B0F0BD000048
:1053F0000054004030380240000402400058004091
:105400000014024070B5040011D021684CF6CC4065
:105410000860216845F255500860D4E900014160F8
:105420002168A0688860FFF7FBFC054609E00120C1
:1054300070BD00BFFFF7F4FC401B302801D90320EA
:1054400070BD2068C0680028F4D121684AF6AA20FF
:105450000860002070BD00684AF6AA2101600020A3
:1054600070470000024881680278114481607047EB
:10547000288601200B4810B5016841F400710160D5
:10548000016841F480610160016841F4807101604C
:10549000032000F097F8002000F006F800F03EF836
:1054A000002010BD003C024010B5014688B000222B
:1054B0001A2000F067F81A2000F056F8134800246C
:1054C000016841F480210160006805A900F4802092
:1054D0000690684600F084FA00F0B2FA0C494000E9
:1054E000B0FBF1F10C480B4A491E026040F2E73272
:1054F000C0E90324C0E9011401F03AF910B1012018
:1055000008B010BD044801F04FF9F9E744380240F3
:1055100040420F0000480140D4910120114808B5D5
:10552000016841F480410160006800F4804000900F
:105530000C48001F016841F08051016000680022A2
:1055400000F0805000900F21901E00F01BF8002208
:105550000621042000F016F8BDE80840042000F001
:1055600003B8000044380240002809DB00F01F02A5
:10557000012191404009800000F1E020C0F80011B5
:1055800070470000F0B40E4B1B680C46C3F30223B7
:10559000C3F10705042D00D90425191D072901D2DF
:1055A000002300E0DB1E012606FA05F1491E21401A
:1055B00099409E40761E16403143F0BC04F006BF71
:1055C0000CED00E0064900F0070208684FF6FF0303
:1055D000184040EA0220034A104308607047000068
:1055E0000CED00E00000FA052DE9F84317480168CA
:1055F00041F0805101600068154F00F08050012695
:1056000000903E64FFF70CFC05464FF47A78114C8D
:1056100005E000BFFFF704FC401B40450DD8606863
:10562000C003F7D57E64FFF7FBFB0546464607E05F
:10563000FFF7F6FB401BB04202D90320BDE8F88318
:1056400060688003F4D50020F8E70000403802408D
:1056500000000E42007000402DE9F84F044600683B
:10566000DFF824A2894F8A4DC1074FF001084FF09F
:10567000000603D1810701D4400648D5CAF8686006
:10568000FFF7CEFB814605E0FFF7CAFBA0EB090060
:1056900002287DD828680001F6D42078C1077D480B
:1056A00005D06168227A890141EA0271016021789E
:1056B000890711D501686268237B9201C1F30271E9
:1056C00042EA036242EA017101603968E26921F04D
:1056D0001F01521E114339602178490608D56168BF
:1056E000227B890141EA0261227A41EA027101606A
:1056F000CAF86880FFF794FB814605E0FFF790FB4E
:10570000A0EB0900022843D828680001F6D52068DC
:10571000410701D400074ED5CAF87060FFF780FB3F
:10572000814605E0FFF77CFBA0EB090002282FD89B
:105730002868C0438000F5D520784107564814D525
:1057400001682269237D9201C1F3027142EA03627A
:1057500042EA017101603968226A6FF0FF0321F4A7
:10576000F85103EB0222114339602178090712D561
:1057700001682269C1F30361920142EA0161227E5C
:1057800041EA027101603868616A20F4403000E04B
:1057900051E008433860CAF87080FFF741FB0746C4
:1057A00005E000BFFFF73CFBC01B022843D8286878
:1057B000C0438000F6D42078800653D5344840306A
:1057C000016841F0805101600068344D00F0805064
:1057D0000090286840F480702860FFF721FB07469E
:1057E00005E000BFFFF71CFBC01B022823D8286878
:1057F000C005F7D5274D143D286810F4407020D01F
:10580000218D01F4407181421BD0286820F4407141
:105810002348C0F80080066029602868C00710D0BF
:10582000FFF7FEFA064641F2883707E0FFF7F8FA7D
:10583000801BB84202D90320BDE8F88F2868800792
:10584000F4D5A16A1248C1F301220830032A13D00B
:10585000016821F4F81101602868218DC1F30B0162
:10586000084328602078C00604D50E4994F82C001F
:10587000C1F8E0010020DFE702680B4B22F4F812C8
:1058800019400A430260E7E7000047428C380240B3
:1058900000380240843802408838024000700040DE
:1058A000400E474200104742FFFCFF0F2DE9F04732
:1058B0000E46050065D0DFF81481D8F80000F7B275
:1058C00000F00F00B04207D288F80070D8F800004E
:1058D00000F00F00B04254D128683D4C810712D52A
:1058E000400703D5206840F4E05020602878000786
:1058F00003D5206840F4604020602068A96820F04B
:10590000F000084320602878C0072DD0304968682F
:105910000839012812D0022813D0032811D00968B1
:10592000890700292DDA216821F003010143216054
:10593000FFF776FA814641F2883A0EE0096889035A
:10594000EFE709688901ECE7FFF76AFAA0EB0901C4
:10595000514502D90320BDE8F0872068696800F04E
:105960000C00B0EB810FEFD1D8F80010404601F0E9
:105970000F01B14207D90770006800F00F00B04274
:1059800001D00120E7E72878400705D52068E968BD
:1059900020F4E050084320602878000706D52068EE
:1059A000296920F4604040EAC100206000F058F806
:1059B0002168084AC1F30311515CC84006490860D8
:1059C00006480068FFF770FD0020C4E7003C024075
:1059D000083802407C060120348601202C860120F4
:1059E0000F2202600C4A136803F00303436013683C
:1059F00003F0F0038360136803F4E053C36012689C
:105A00004FF4E05303EAD20202610448006800F058
:105A10000F0008607047000008380240003C024058
:105A20000448054900680968044AC1F38221515CB1
:105A3000C840704734860120083802408C06012097
:105A40000448054900680968044AC1F34231515CC1
:105A5000C840704734860120083802408C06012077
:105A6000154810B5006810F00C02144813D0144902
:105A7000042A0FD0082A0ED10F4C241F2268236855
:105A800002F03F025B0207D52068C0F38810A0FB3C
:105A9000010106E0084610BD2168C1F38811A1FB91
:105AA00000010023FAF7FEFB2168C1F30141491C04
:105AB0004900B0FBF1F010BD083802400024F400AA
:105AC000002D31012DE9F84F040076D02078DFF861
:105AD00038A3CE4DC00749D0DAF800105046C1F3C4
