:020000042000DA
:1000000060DA012081020020276200208B5200204C
:1000100025620020A90A00201572002000000000BF
:10002000000000000000000000000000C1010020EE
:10003000A11F0020000000001D020020556B0020C1
:100040009B0200209B0200209B0200209B020020BC
:10005000F12000209B020020D11F0020DF1F002084
:100060009B0200209B0200209B0200209B0200209C
:100070009B0200209B0200209B0200209B0200208C
:100080009B0200209B0200209B0200209B0200207C
:100090009B0200209B0200209B0200209B0200206C
:1000A0009B0200209B020020416C00209B0200204C
:1000B0009B0200209B0200209B0200209B0200204C
:1000C0009B0200209B0200209B0200209B0200203C
:1000D0009B020020497100209B0200209B0200200F
:1000E000D71F00209B0200209B0200209B020020C3
:1000F0009B0200209B0200204D6C00209B020020F0
:100100009B0200209B0200209B0200209B020020FB
:100110009B0200209B0200209B0200209B020020EB
:100120009B0200209B020020F11E00209B02002069
:100130009B0200209B0200209B0200209B020020CB
:100140009B0200209B0200209B0200209B020020BB
:100150009B0200209B0200209B0200209B020020AB
:100160009B0200209B0200209B0200209B0200209B
:100170009B0200209B0200209B0200200000000048
:100180009B0200209B0200209B0200209B0200207B
:100190009B0200209B0200209B0200209B0200206B
:1001A00000000000000000009B020020DFF80CD0DF
:1001B00000F01CFC004800475584002060DA012054
:1001C0002C4B19680868B0E8F04F80F30988BFF33A
:1001D0006F8F4FF0000080F311887047000000001F
:1001E00008480068006880F308884FF0000080F33A
:1001F000148862B661B6BFF34F8FBFF36F8F00DF15
:1002000000BF00BF08ED00E0DFF80C00016841F41A
:1002100070010160704700BF88ED00E0EFF30980D6
:10022000BFF36F8F134B1A681EF0100F08BF20ED3D
:10023000108A20E9F04F106009B44FF0500080F3AD
:100240001188BFF34F8FBFF36F8F09F053FD4FF04D
:10025000000080F3118809BC19680868B0E8F04F05
:100260001EF0100F08BFB0EC108A80F30988BFF3AE
:100270006F8F7047AC850120EFF305807047000059
:100280000648804706480047FEE7FEE7FEE7FEE730
:10029000FEE7FEE7FEE7FEE7FEE7FEE7296C00204B
:1002A000AD0100202DE9F05F0546002092469B46F7
:1002B00088460646814640241BE02846414647467C
:1002C000224600F0C0FA53465A46C01A914110D354
:1002D00011461846224600F0A7FA2D1A67EB0108CE
:1002E0004F4622460120002100F09EFA17EB00093C
:1002F0004E41201EA4F10104DFDC484631462A4667
:100300004346BDE8F09F40EA01039B0703D009E0A4
:1003100008C9121F08C0042AFAD203E011F8013BF1
:1003200000F8013B521EF9D27047D2B201E000F84A
:10033000012B491EFBD270470022F6E710B5134689
:100340000A4604461946FFF7F0FF204610BD30B5B7
:1003500005460020034600E05B1C934205D2EC5C9E
:10036000C85C201A01D1002CF6D130BD2DE9F05F18
:1003700093460F4680460446002606F083FFD0F8D9
:100380000090824614F8015B2DB100F07FFA0068FE
:10039000405DC007F6D12B2D02D02D2D1AD0641E42
:1003A0000021CAF800105A463946204600F072FA79
:1003B000014627B13868A04201D1C7F80080DAF8B9
:1003C0000000022809D0CAF80090700505D54842FF
:1003D000BDE8F09F46F48066E2E70846F8E72DE9BD
:1003E000FE4F804681EA0300C00F0C46009021F0CA
:1003F000004123F00045B8EB0200A94105D2404678
:10040000214690461C460B46024623F0004010430E
:1004100047D0270DC7F30A00C3F30A510290401AD0
:10042000019040286BDAC3F3130040F4801B00985E
:10043000924620B10023D2EB030A63EB0B0B019829
:100440005946C0F14002504600F0EEF906460D460E
:1004500050465946019A00F006FA10EB0800614137
:10046000002487EA115284EAE7731A4340D0009AC5
:1004700062B3019A012A4FEA075215DC001B61EBB7
:1004800002014FF0004202EA0752CDE90042001C8F
:1004900041F5801132462B4600F05AFA03B0BDE810
:1004A000F08F40462146F9E7001B61EB0201001C7A
:1004B00041F5801300185B412018A2F5001747EBA7
:1004C000030140EAD570B6196D4111E06D084FEA9D
:1004D000360645EAC0754FEA0752001B61EB020180
:1004E000001C41F5801149084FEA300000195141C4
:1004F00032462B4603B0BDE8F04F00F01ABA009820
:10050000012240000023D0EB020263EBE07300986D
:1005100021464FEAE074B8EB000061EB0401E9E723
:1005200083F000435BE781F0004158E72DE9FE4F7F
:1005300081EA030404F0004421F0004100944FF0EC
:10054000000B23F0004350EA01045ED052EA03049A
:100550005BD0C3F30A54C1F30A552C44A4F2F3341C
:100560000194A0FB0254C1F3130141F48011C3F3C1
:10057000130343F4801301FB024400FB034E840A7F
:10058000970A44EA815447EA8357A4FB0768029517
:100590008D0A05FB07854FEA932C04FB0C542705B5
:1005A000029D4FEA065847EA1637B5EB08056EEB91
:1005B000070C870E920E47EA811742EA8312A7FBC7
:1005C0000201B6EB0B0164EB00042B0D43EA0C3384
:1005D0005E1844EB1C50DA465146E7FB0201C5F3B6
:1005E00013044FEA0B3343EA14534FEA0432019CDD
:1005F00043EA0603A4F10C040294009CCDE900B484
:1006000000F0A6F903B0BDE8F08F00200146F9E73D
:100610002DE9F04D81EA030404F0004B21F0004580
:1006200014464FF0000A23F0004150EA050220D0A2
:1006300054EA01021DD0C5F30A570246C5F313035D
:10064000C1F31300C1F30A5640F4801543F480133C
:10065000A7EB0608101BD64608F2FD3873EB050021
:1006600002D308F1010801E092185B41B8F1000FD4
:1006700003DA00200146BDE8F08D00204FF4801120
:10068000064684460EE0171B73EB050705D3121BC5
:1006900063EB050306434CEA010C49084FEA3000BE
:1006A00092185B4150EA0107EDD152EA030012D0E3
:1006B00082EA040083EA0501084305D0101BAB4120
:1006C00006D20122002306E000224FF0004302E0A0
:1006D0006FF0010253101AEB06004CEB085110EBBF
:1006E0000A0041EB0B01BDE8F04D00F022B90EB558
:1006F000C10F80EAE0700844CA07002140F233438A
:100700008DE80E000A460B4600F022F903B000BD4A
:100710000EB540F2334102910021CDE900110A46A5
:100720000B4600F015F903B000BD70B5C1F30A52D5
:1007300001F000450024C1F3130140F2FF3341F4FE
:1007400080119A4201DA002070BD40F233439A4290
:10075000A2F2334203DC524200F075F800E0904010
:100760002C43F1D0404270BDC1F30A5210B5C1F321
:10077000130140F2FF3341F480119A4201DA002064
:1007800010BD40F233439A42A2F2334203DC52429C
:1007900000F059F810BD904010BD000030B5041EA7
:1007A00071F1000404DB4FF00044404264EB0101AE
:1007B000141E73F1000405DB1C464FF00043524247
:1007C00063EB04038B4208BF824230BD30B5041E88
:1007D00071F1000404DB4FF00044404264EB01017E
:1007E000141E73F1000405DB1C464FF00043524217
:1007F00063EB0403994208BF904230BD30B50B460D
:10080000014600202022012409E021FA02F59D4240
:1008100005D303FA02F5491B04FA02F52844151E14
:10082000A2F10102F1DC30BD202A04DB203A00FAFB
:1008300002F1002070479140C2F1200320FA03F337
:10084000194390407047202A04DB203A21FA02F035
:100850000021704721FA02F3D040C2F120029140FA
:10086000084319467047202A06DBCB17203A41FA85
:1008700002F043EAE07306E041FA02F3D040C2F12D
:100880002002914008431946704700000048704715
:1008900094AE00202DE9F05F8246007800271546CF
:1008A0008B460AF10104B946302801D09DB113E00E
:1008B00014F8010B0127782803D0582801D045B13E
:1008C0000AE00DB1102D07D10027102514F8010BF7
:1008D00002E0082500E00A250026B0460EE005FBF0
:1008E000080005FB06F1012701EB10461FFA80F80E
:1008F000B6F5803F00D3B94614F8010B294600F045
:1009000087F80028EBDABBF1000F05D00FB1641EA9
:1009100000E05446CBF80040B9F1000F06D006F0D5
:10092000B1FC02210160C81EBDE8F09F48EA064004
:10093000FAE710B5141E73F1000408DA401C41F107
:10094000000192185B411A4301D120F0010010BD53
:100950002DE9F04D92469B4611B1B1FA81F202E0C9
:10096000B0FA80F220329046FFF75EFF04460F4651
:1009700040EA0A0041EA0B0153465A46084313D0A5
:10098000114653EA010019D0C8F140025046FFF762
:100990005AFF05460E46504659464246FFF744FF69
:1009A000084305D0012004E020463946BDE8F08D1B
:1009B0000020054346EAE0762C4337430A98630556
:1009C000E40AA0EB08000022FD0A44EA47540A307A
:1009D00002D500200146E9E7010510196941DDE96A
:1009E000084500196941BDE8F04DA2E7064C074DE6
:1009F00006E0E06840F0010394E8070098471034EF
:100A0000AC42F6D3FFF7D6FBF4AE002014AF0020C3
:100A10003A2800D2303820F02002412A01D3A2F136
:100A20003700884201D34FF0FF30704770B58C1803
:100A300010F8015B15F0070301D110F8013B2A11F2
:100A400006D110F8012B03E010F8016B01F8016BDF
:100A50005B1EF9D12B0705D40023521E0DD401F8DB
:100A6000013BFAE710F8013BCB1A921C03E013F8A4
:100A7000015B01F8015B521EF9D5A142D8D30020D9
:100A800070BD020A0A7048707047020E0A70020CAC
:100A90004A70020A8A70C87070470168C07809BA43
:100AA00021F0FF0108437047FEE7000030B54FF02A
:100AB000FF330022064C07E0855C5D40EDB2521C1E
:100AC00054F8255085EA13238A42F5D3D84330BD24
:100AD000BC80012010B50022134602E0C45C6240D5
:100AE0005B1C8B42FAD3521CD0B210BD10B52DED59
:100AF000048BFFF70DFE9FED211B53EC112BFFF72D
:100B000015FD9FED209B53EC192BFFF70FFD41ECDA
:100B1000180B51EC190B53EC182BFFF701FD41ECAE
:100B2000100B51EC180B53EC102BFFF771FD41EC3F
:100B3000100B06F0ADFB9FED151B51EC100B53ECA9
:100B4000112BFFF7F3FC9FED131B53EC112BFFF759
:100B500046FC41EC100B53EC102B9FED100B51ECAD
:100B6000100BFFF755FD9FED0F1B53EC112BFFF7FB
:100B7000D7FCBDEC048B41EC100B10BD0000000055
:100B80000000303F000000000000044000000000B2
:100B900000A062400000000000689A4000000000D1
:100BA00010BD1E4100000000001071400FB42DED7B
:100BB000020B2DE9F04782462DED0C8B84B0B0EE90
:100BC00040AAF0EE60AADDE920569DED22BB8DED36
:100BD00002AB9DED1ECBBDF87400FFF799FD884672
:100BE000044648EC180BB0B2FFF792FD8946074661
:100BF00049EC190B53EC1C2B51EC1B0BFFF790FC31
:100C000041EC1B0B53EC182B51EC190BFFF788FC34
:100C100041EC190B53EC1C2B51EC1A0BFFF780FC29
:100C200053EC192BFFF782FC53EC1B2BFFF7F0FC66
:100C300053EC182BFFF7D3FB9FED4CBB53EC1B2B56
:100C4000FFF7CDFBFFF790FD86B2ADF8046048ECEE
:100C50001A4B49EC1C7BBDF87000FFF759FD884624
:100C6000044648EC180BA8B2FFF752FD8946074628
:100C700049EC190B3046FFF74BFD41EC1D0B53ECD3
:100C80001A2B51EC1C0BFFF74BFC41EC1C0B53ECEB
:100C9000182B51EC190BFFF743FC41EC190B53ECEB
:100CA0001A2B51EC1D0BFFF73BFC53EC192BFFF7F4
:100CB0003DFC53EC1C2BFFF7ABFC53EC182BFFF760
:100CC0008EFB53EC1B2BFFF78AFBFFF74DFD86B223
:100CD000ADF8006048EC184B49EC1D7BBDF8720084
:100CE000FFF716FD41EC190B280CFFF711FD41EC45
:100CF0001A0B3046FFF70CFD41EC1C0B53EC182B84
:100D000051EC1D0BFFF70CFC41EC1D0B53EC192BA8
:100D100051EC1A0BFFF704FC41EC1A0B53EC182BA7
:100D200051EC1C0BFFF7FCFB53EC1A2BFFF7FEFBFF
:100D300053EC1D2BFFF76CFC53EC192BFFF74FFB0B
:100D400053EC1B2BFFF74BFBFFF70EFDADF802003A
:100D50009DE81E008AE80E00CAF80C4004B0BDEC05
:100D60000C8BBDE8F0075DF81CFB000000000000E4
:100D70000000E03F10B52DED048BFFF7C9FC9FED9F
:100D8000311B53EC112BFFF7D1FB9FED301B53ECC4
:100D9000112BFFF7CBFB9FED2F1B53EC112BFFF714
:100DA00037FC9FED2E1B53EC112BFFF7B9FB9FED8A
:100DB0002D1B53EC112BFFF712FB41EC100B53ECE6
:100DC000102B9FED2A0B51EC100BFFF721FC9FED30
:100DD000291B53EC112BFFF7A3FB9FED281B53ECB2
:100DE000112BFFF715FC41EC100B06F051FAB0EE99
:100DF000408AF0EE608A9FED230B51EC180B53EC08
:100E0000102BFFF793FB9FED211B53EC112BFFF7EA
:100E1000E6FA9FED200B41EC190B53EC102B51EC33
:100E2000180BFFF783FB9FED1D1B53EC112BFFF7F6
:100E30007AFB53EC192BFFF7EBFBBDEC048B41EC79
:100E4000100B10BD000000000000303F000000004B
:100E500000000440000000000000F43F000000001B
:100E60000000F03F08CD1B08CD1BF03FCDCCCCCC13
:100E7000CCCC3140B81E85EB51B81E4000000000BC
:100E8000000024400000000000A0624000000000BC
:100E900000B49E400000000060DBE3400000000062
:100EA000A0FCE74070B5012202210A4802F0B3F825
:100EB0000122094D54022146284602F0ACF80120D7
:100EC00007F0B4FB21462846BDE87040002202F03E
:100ED000A2B80000002002400010024010B500221D
:100EE000C0B2114608F0ACFA002801D04FF0FF3034
:100EF00010BD000070B5A8B10C480121012202F01C
:100F00008AF801220A4D54022146284602F083F84D
:100F1000012007F08BFB21462846BDE870400022E7
:100F200002F079B803484FF48041E7E7000C024033
:100F300000100240001C02402DE9FE4F96488046FA
:100F4000FFF7ABFD954C00259549042747F6FF7642
:100F50006560884231D108F10400FFF79EFD8E4A9A
:100F6000014602F1080002F10C0B02F110090129FF
:100F700029D0022939D003293FD0042944D005299A
:100F80004FD002F1140A062957D012296CD0132928
:100F90007DD007297CD014297BD009297AD00D294E
:100FA00079D00E2978D00F2977D0102976D0112941
:100FB00075D0152974D0FF2973D02680A770E770EB
:100FC0000420BDE8FE8F6560FFF767FD8046584648
:100FD000FFF763FD05464846FFF75FFD024608F050
:100FE000FF00294607F026F8D2E06560A560FFF70C
:100FF00054FDC0B206F0DAFFC3E06560FFF74DFDB7
:10100000C0B207F07FF8C3E06560FFF746FD074612
:101010005846FFF742FD0246F8B2494607F014F879
:101020009DE06560FFF739FD05465846FFF735FD41
:10103000C1B2E8B206F07AFFAAE06560FFF72DFDC5
:1010400000905846FFF729FD80464846FFF725FDEA
:1010500005465046FFF721FD034600982A46C0B2D8
:10106000414606F016FD93E06560FFF716FD02901D
:101070005846FFF712FD83464846FFF70EFD0190E4
:101080005046FFF70AFD054608F118000AE014E093
:101090001AE025E035E03EE04AE04DE059E062E04C
:1010A0006BE073E0FFF7F9FC009002982B46C0B2AA
:1010B0005946019A06F02AFD6AE06560FFF7EDFCEB
:1010C00001A906F0E5FE22E06560FFF7E6FC0546B3
:1010D0005846FFF7E2FC0146E8B206F0ABFC57E0E9
:1010E0006560FFF7DAFC05465846FFF7D6FC8046F8
:1010F0004846FFF7D2FC0246E8B2414606F0ADFC96
:1011000046E06560FFF7C9FC01A906F03BFC2680BC
:10111000A070019938E0656005F0B4FB268018B135
:101120000120A070E7704CE7A570E770002048E749
:10113000656006F0CDFF12E06560FFF7AEFC074684
:101140005846FFF7AAFC81B20190B8B206F026FF1C
:1011500005E06560FFF7A1FC80B206F015FF268070
:10116000A070E5702DE72821201DFFF7E5F806F0B7
:101170003FFD2680A070302106E0FFF78EFC06F0D0
:1011800001FD2680A0700821E1701AE706F0EEFC50
:101190002680A070E77014E734870120288601209C
:1011A000A5A55A5A2DE9F04726480025264C8079F6
:1011B0002F464FF018084FF0010940B101281AD00E
:1011C000A4F800800320A070E770BDE8F087002637
:1011D00041F2523A0AEB860004EB460281B2022346
:1011E000A020121D05F062FA2843761C0546402E09
:1011F000F0D398B91FE0002641F2524A0AEB86006C
:1012000004EB460281B20223A020121D05F04EFA23
:101210002843761C0546202EF0D330B1A4F8008078
:1012200084F80290E7700120CFE70748FF224021B1
:101230004430FFF77AF8A4F80080A7708020E070AF
:101240000020C2E72E870120288601202DE9F047E3
:101250001F48204CFF268079112720714FF000088D
:101260004FF0010A022520B14FF00309012817D0E1
:1012700024E01949C97919B166711020208009E06C
:1012800001F056F8811C03D000280FDB40281DDB3D
:101290006671278084F80280E5700020BDE8F08741
:1012A00001F046F8811C08D000280DDA667127800D
:1012B00084F802A0E5700120F0E76671278084F8C9
:1012C0000290E5700320E9E74028F6DA6071E0E774
:1012D0002E8701202886012000FC0220F0B5234C37
:1012E00006202DED068B81B0251D694604F0DAFF3E
:1012F0009FED1FAB9FED209B0026172720B1278075
:101300000120A070E6702CE0BDF80000FFF7EEFBB6
:10131000B0EE408AF0EE608A9FED190B51EC180B8D
:1013200053EC102BFFF752FA53EC1A2B51EC180B1D
:1013300006D8FFF7FBF853EC192BFFF750F805E040
:10134000FFF7F4F853EC192BFFF7EAF8FFF7EDF984
:1013500000B280B208F0CEF828802780A670022064
:10136000E07001B00020BDEC068BF0BD28860120A6
:101370000000000000002440000000000000E03FEA
:10138000000000000000000000B587B000226946A0
:10139000114802F067FE002205A90F4802F040FE46
:1013A0000E489DF8171001719DF8151041719DF8B8
:1013B000161081719DF80010C1719DF80110017225
:1013C0009DF8021041728621018000218170062162
:1013D000C17007B0002000BDDC89012028860120F3
:1013E000084A074803215368436012681268826004
:1013F0000180002181700821C17000207047000029
:10140000288601200080012070B5144CA08808F0C7
:1014100071F8E5780021124A124B0C4633F831601E
:10142000864213D103EBC103596891B15B88A3F5E0
:101430007F46FF3E07D0DBB2AB4204D010800320D2
:101440009070D47070BDBDE870400847491C1629E3
:10145000E4D3108004209070D47070BD2E870120DA
:10146000288601200C80012010B5074C0823221D7E
:101470001021A02005F01AF9062020800020A0707D
:101480000820E070002010BD288601200548417A20
:101490000548017126210180002181700121C17060
:1014A0000020704700FC02202886012010B5074C60
:1014B0001023221D2021A02005F0F8F8072020800D
:1014C0000020A0701020E070002010BD28860120B0
:1014D00010B5074C0923221D0021A02005F0E6F8D5
:1014E000022020800020A0700920E070002010BDA4
:1014F0002886012070B5164D2DED028B95ED0C0B55
:101500009FED148B51EC100B53EC182BFFF70EF8DA
:10151000FFF70BF9114C80B2211DFFF7B2FA95EDE0
:10152000080B53EC182B51EC100BFEF7FFFFFFF7E5
:10153000FCF880B2A11DFFF7A4FA1B202080002038
:10154000A0700420E0700020BDEC028B70BD000094
:1015500000FC022000000000000059402886012005
:1015600070B51E482DED028B9FED1A8B90ED000B90
:1015700053EC182B51EC100BFEF7D8FFFFF7D5F802
:10158000174C80B2211DFFF77CFA0025A11D2846CB
:10159000FFF777FA04F108012846FFF772FA1148BD
:1015A00053EC182B90ED000B51EC100BFEF7BEFF27
:1015B000FFF7BBF880B204F10A01FFF762FA1B20C3
:1015C00020800020A0700820E0700020BDEC028B7D
:1015D00070BD000000000000000059404885012057
:1015E000288601205085012010B5074C1023221DAC
:1015F0003021A02005F05AF8082020800020A0709B
:101600001020E070002010BD288601202DE9F84F41
:1016100040480126A0F5837490F906203E48DFF883
:10162000FCA000F11003417A4FF01A0B00254FF493
:101630008069009342B1012A33D025202080032005
:10164000A070E570BDE8F88F804600295CD00021CD
:10165000334803F0E2FA0821314803F0DEFA88F853
:1016600009500022B8F82A10104604F0A1FF18B162
:101670000521009805F0A4F998F8080030B90BE0AE
:10168000012006F0D3FF7F1C642F23D84946504623
:1016900001F0BCFC0028F3D0B8F8280000F00CFCE6
:1016A00032E089BB8046418D408B002208444108CE
:1016B000104604F07DFF18B10521009805F080F96F
:1016C00098F8080080B915E0012006F0AFFF7F1CF4
:1016D000642F09D90621009805F072F9A4F800B02A
:1016E000A670E5700120ADE74946504601F08EFC3A
:1016F0000028E9D000210A4803F064FA08210848CC
:1017000003F060FA88F8096025202080A570E57054
:10171000002097E72E87012000FC022000140240E1
:101720000C8C01202DE9F0472F480024DFF8B88009
:10173000446000F583704FF0010A8779C6794FF055
:101740000309102517B1012F09D00FE04FF4805184
:10175000264801F05BFC18B33F2E07D80FE00821A4
:10176000234801F053FCD8B11F2E08D9A8F8005027
:1017700088F8029088F803400320BDE8F087DFF87E
:10178000749099F8070058B93846FFF7B3FB314613
:10179000384605F01BF970B1FF204FB189F80600FB
:1017A000A8F8005088F802A088F803400120E4E778
:1017B00089F80500F4E757B189F80660384600F06B
:1017C000B7FDB042384605D004F0D0FFE8E789F80D
:1017D0000560F3E705F098F9A8F8005088F8024092
:1017E00088F803400020C8E728860120001C02403A
:1017F0000004024000FC0220F0B587B014216846C6
:10180000FEF79AFD01208DF814001D48002585265D
:1018100081798DF81710C1798DF81510027A8DF83D
:101820001620477A8DF80070837A8DF8013090F891
:101830000BC00320134C8DF802C00C290AD849B103
:101840001F2A07D832B1172F04D83B2B02D8BCF17E
:101850003B0F05D92680A070E570032007B0F0BDCE
:1018600000226946084802F0EFFC002205A906485C
:1018700002F086FC2680A570E5700020EEE70000EF
:101880002E87012028860120DC8901202DE9F04FD8
:101890005E4C00272DED068B85B0E08807F02AFE10
:1018A00000B2FEF724FF9FED5A8B53EC182BFEF786
:1018B000AFFE41EC190B208907F01CFE00B2FEF7C9
:1018C00016FF53EC182BFEF7A3FE41EC180B524801
:1018D00000251A260078A4F583744FF001094FF013
:1018E00003089FED4EAB022809D2268084F80290AF
:1018F000E570012005B0BDEC068BBDE8F08F4948CE
:1019000090ED000B51EC190B53EC102BFEF75EFF22
:1019100017D353EC1A2B51EC190BFEF73FFF10D3E2
:1019200053EC1A2B51EC180BFEF750FF09D33E482D
:1019300090ED000B51EC180B53EC102BFEF72EFF23
:1019400005D2268084F80280E5700320D2E7B0EE4D
:10195000490AF0EE690A684600F0A6FEDFF8CC807E
:101960009DE80E1008F12800B0EE480A80E80E004D
:10197000F0EE680A6846C8F834C000F095FE9DE8AD
:101980000E1008F1180080E80E00C8F824C0B8F85E
:10199000280028B398F8090030B1B8F82A10B8F830
:1019A0001A000844410801E0B8F82A100022104645
:1019B00004F0FEFDDFF874A00AF1100A18B1052149
:1019C000504604F0FDFF98F8080030B14FF4806BEA
:1019D0005946174801F01AFB18B198F8091059B187
:1019E0000EE0012006F022FE7F1C642FF0D90621B4
:1019F000504604F0E5FF78E7B8F8280000F05CFAFC
:101A00002680A570E570002074E700002E87012075
:101A10000000000000005940468501200000000041
:101A200000000000488501205085012000FC0220B4
:101A30000014024005490120002308711A46194686
:101A4000842005F087FB05F00BFC000000FC022061
:101A50002DE9F05F684CA51DE08807F04BFDE178AB
:101A60004FF0000BAD1C06464FF08108A4F58374BF
:101A70004FF0010AD946862907D000BFA4F800809C
:101A800084F802A084F803909BE05C480078012869
:101A9000F4D1012E12D05948022E016901F1010240
:101AA0003BD0B24202D1027B032A04D0B142E5D13D
:101AB000017B0229E2D18027066157E04F490822C5
:101AC000243105F12000FEF742FC0028D6D1032284
:101AD0004B4905F14000FEF73AFC0028CED14748BB
:101AE00048490027C0F820900661497991BB464AD1
:101AF000117831B1407870BB4FF4167006F096FD46
:101B0000BCE782F800A080F801A0404A41689142F9
:101B10002FD0806800F0EEFA28E0022A1CD00229BB
:101B2000ACD1017B0229A9D1296C95F8432009BACF
:101B300021F0FF01114381616A6C95F8473012BAB8
:101B400022F0FF021A434261B1F5C03F08D90221D9
:101B5000017393E70AE00CE0017B0329E4D08DE7F1
:101B60000027066102E0642006F060FD2648007848
:101B700020B159460BF1010B0629F4D358464FF01A
:101B8000030B06280BD3012E2AD01C490220087310
:101B9000A4F8008084F802A00820E07011E0194841
:101BA000417989B1E7B14E4680F8059005F008FB10
:101BB00058B1124802210173A4F8008084F802A0F1
:101BC000E6700120BDE8F09F57B10C4EBA08316AAB
:101BD00070680844294600F0B1FA306A384430622F
:101BE0000649002081F80CB0A4F8008084F8029027
:101BF00084F80390E6E700002E8701203488012056
:101C0000048001206C88012045850120000008081F
:101C100007490120802208700020CA61087308610A
:101C20000862A1F503710A808870C87070470000CF
:101C3000348801202DE9F0411F4C012604F5037082
:101C4000832701780025012905D02780A670E5703B
:101C50000420BDE8F081026A81698A421ED30269CC
:101C6000032A1BD380464068FEF720FFD8F81420D3
:101C70004146824212D11148DFF844C045714B6899
:101C8000634501D1012300E002230371D8F8181045
:101C9000C0E90212094805F093FA20B12780A67026
:101CA000E5700120D5E700231A461946832005F088
:101CB00051FA05F0D5FA0000288601206C88012031
:101CC0000000040830B56D4C04202DED0A8B81B066
:101CD0006946207204F0E6FA002508B1ADF800501C
:101CE000BDF80000FEF714FD9FED658B53EC182B3B
:101CF000FEF71CFC9FED649B53EC192BFEF716FCC2
:101D00009FED63CB53EC1C2BFEF710FC9FED62ABF9
:101D100053EC1A2BFEF70AFC9FED61BB53EC1B2B17
:101D2000FEF75DFBFEF720FDADF80000611D3220DF
:101D3000FEF7A7FEE11DBDF80000FEF7A2FE694612
:101D4000022004F0AFFA08B1ADF80050BDF8000071
:101D5000FEF7DEFC53EC182BFEF7E8FB53EC192BD7
:101D6000FEF7E4FB9FED501B53EC112BFEF7DEFB5F
:101D700053EC1A2BFEF7DAFB53EC1B2BFEF72FFB71
:101D8000FEF7F2FC3D49ADF8000009312120FEF7D5
:101D900078FE3A49BDF800000B31FEF772FE694645
:101DA000032004F07FFA08B1ADF80050BDF8000040
:101DB000FEF7AEFC53EC182BFEF7B8FB53EC192BD7
:101DC000FEF7B4FB53EC1C2BFEF7B0FB53EC1A2BC5
:101DD000FEF7ACFB53EC1B2BFEF701FBFEF7C4FC3C
:101DE0002649ADF800000D312C20FEF74AFE2349AC
:101DF000BDF800000F31FEF744FE6946052004F0EF
:101E000051FA08B1ADF80050BDF80000FEF780FCB3
:101E100053EC182BFEF78AFB53EC192BFEF786FBCD
:101E20009FED231B53EC112BFEF780FB53EC1A2B79
:101E3000FEF77CFB53EC1B2BFEF7D1FAFEF794FC6C
:101E40000E49ADF80000113140F26220FEF719FE94
:101E50000A49BDF800001331FEF713FE0748FF22C0
:101E600008211530FEF761FA1F202080A570192087
:101E7000E07001B00020BDEC0A8B30BD2886012047
:101E8000000000000000303F00000000000004409F
:101E90000000000000000840000000000000244096
:101EA000000000000000E03F0000000000000040D3
:101EB000000000000080494038B5010A8DF800108C
:101EC000094C8DF8010000221021204601F0A3F8F2
:101ED000012302226946054802F060FB012210211D
:101EE000204601F098F838BD00000240FC8901202E
:101EF000014800F0C7BC0000CC8C01200168182309
:101F0000CAB2103AB2FBF3F2054B6FF30901032A90
:101F10009B5CC36500D9091D8165084670470000B8
:101F2000ACAD002010B5014600208B698A6A4FF0E5
:101F3000C07453B1B3F5005F15D072B1012A0CD053
:101F4000022A0AD0032A09D104E01AB1012A06D0D4
:101F5000022A03D1C96AC90100D5012010BDC96A8E
:101F6000A142FAD010BD002AF7D0012AF2D0022AED
:101F7000F3D0032AF3D010BD30B50468256825F4EA
:101F800080252560046863608368402B036803D064
:101F900099600068C26030BD9A600068C16030BD61
:101FA0007047000010B500221146022004F000FB2B
:101FB000044600221146012004F0FAFA204304D01E
:101FC0000521024804F0FCFC012010BD10FC022099
:101FD000012000F025BF4FF4005000F021BF022087
:101FE00000F01EBF2DE9F041002440F6FF752246A7
:101FF0002946012004F0DCFA70B10120BDE8F0812F
:10200000012006F013FB641C642C08D906210B4840
:1020100004F0D6FC0220F1E7094F4FF48066314608
:10202000384600F0F3FF0028EAD0002229460220BB
:1020300004F0BEFA0028E1D00320DFE710FC022004
:102040000014024070470000002229B101291DD070
:1020500002291ED04FF440720B2800D9001D0E49F2
:102060000B6823F440730B600B6813430B600A6822
:1020700022F0F8020A600A68022303EBC000024360
:102080000A60086840F48030086070474FF480723E
:10209000E2E74FF40072DFE7103C024013480168AA
:1020A00089050FD5016821F400710160016841F4D0
:1020B00000610160016821F400610160016841F480
:1020C00000710160016849050FD5016821F4806144
:1020D0000160016841F480510160016821F4805180
:1020E0000160016841F4806101607047003C02407A
:1020F00000F090BD10B586B0044618280ED200F04E
:1021000039FE0120CDE90104039000200090022057
:102110000490684600F028FD002800D0012006B099
:1021200010BD000010B500F025FE034991200860A5
:10213000BDE8104000F0D4BD0C3C02402DE9F04752
:102140000026174689460546344600F013FEDFF8A0
:102150003C8012E059F8242000232946022000F098
:10216000CBFD08B103260CE059F824002968814210
:1021700001D0022605E0641C2D1DBC4201D245455C
:10218000E8D900F0ADFD3046BDE8F087F8FF0F0854
:102190000E4A136823F44073136003290DD00129FC
:1021A00011680FD041F40041116011684FF4803381
:1021B00043EA0020014311607047116848F20403AC
:1021C0001943F1E741F00401EEE70000103C024042
:1021D000064A136823F4407313601368136013688E
:1021E00043F001031360017070470000103C02408F
:1021F000094910B50C6824F440740C600C6844F470
:1022000040740C600C6844F001040C600260BFF381
:102210006F8F436010BD0000103C0240074A1368F6
:1022200023F440731360136843F4807313601368DE
:1022300043F001031360018070470000103C02402E
:10224000074A136823F440731360136843F4007360
:102250001360136843F001031360016070470000CE
:10226000103C02401C490868C2061C4805D5C269DA
:1022700042F01002C26110220A600A68920605D577
:10228000C26942F00802C26120220A600A6852064E
:1022900005D5C26942F00402C26140220A600A68A0
:1022A000120605D5C26942F00202C26180220A60AC
:1022B0000A68D20506D5C26942F00102C2614FF434
:1022C00080720A600A68920705D5C26942F020024E
:1022D000C2610220086070470C3C02406C8D0120F6
:1022E00070B5114904460020C86100F099FE064609
:1022F0000E4D09E0601C07D024B100F091FE801B58
:10230000A04201D9032070BD2868C003F2D4286818
:10231000C00701D001202860286810F4F970F2D0BD
:10232000FFF7A0FF012070BD6C8D01200C3C024026
:102330002DE9F04FDFF8CC8106002DED028B8BB03C
:1023400008D0012E09D04FF0FF300BB0BDEC028B4E
:10235000BDE8F08F98F8055001E098F806506FF04E
:102360000109FF2D22D02946304600F0D3F800287D
:102370001CDB654900EB800201EB420494F803B0DA
:102380001EB1A1886FF0170206E0A188202D02D2AD
:1023900001EBC00003E0182202EBC000084487B242
:1023A00004AA3946A02005F0BFFE08B14846CCE794
:1023B0003F1DB9B202AAA02005F0B6FE10B16FF021
:1023C0000200C2E70DF10C0A07AB06AA05A95846A0
:1023D000CDF800A000F0CCF810B16FF00300B4E726
:1023E0000498002802DBBDF8147001E0BDF81870F5
:1023F0000299002902DBBDF81C1001E0BDF80C10A9
:10240000894606F0FBF89FED418B01463846B0EE59
:10241000480AF0EE680A03F093F988B1029806F0D2
:10242000EDF80146B0EE480AF0EE680A484603F0BF
:1024300087F928B1A77908202EB1202D0ED204E00B
:102440006FF0040081E7402D08D2627805F01F018B
:10245000891A00EBC1002189084401E0208950302D
:1024600084B204AA2146A02005F05EFE10B16FF0F0
:1024700005006AE7241DA1B202AAA02005F054FEBF
:1024800010B16FF0060060E707AB06AA05A9384651
:10249000CDF800A000F06CF810B16FF0070054E721
:1024A0000498002802DBBDF8144001E0BDF8184094
:1024B0000299002902DBBDF81C5001E0BDF80C5068
:1024C00006F09CF80146B0EE480AF0EE680A204695
:1024D00003F036F978B1029806F090F80146B0EEB4
:1024E000480AF0EE680A284603F02AF918B12EB11E
:1024F00098F9060029E76FF0080026E798F905002B
:1025000023E7000000FC0220C08401209A999999D9
:102510009999A93F70B5030001F01F0203D020294B
:1025200005D2521C06E04029FBD3212202E02129DA
:10253000FBD3FF220D4900200C68091D0FE000BFEE
:1025400000EB800511F815609E4207D101EB4505AF
:102550006E78964202D8AD78954202D2401CA042D5
:10256000EED3A04201D34FF0FF3070BDBC840120F8
:102570002DE9F0419846069D16460B46092828D2BB
:1025800038B3154A002100BF01EBC104145D844239
:1025900002D0491C0829F7D301EBC1008418194661
:1025A000607904F0DBF80746A079314604F0D6F8EC
:1025B00040EA0706E079414604F0D0F80643207A65
:1025C000294604F0CBF8304301D06FF00100BDE89C
:1025D000F0814FF0FF30FAE7FC84012070B5002451
:1025E00038B12F4D4021284600F010FD012834D08D
:1025F00034E02C4D4FF40061284600F007FD01281F
:1026000000D110244FF48061284600F0FFFC01281F
:1026100001D144F008044FF40071284600F0F6FCA4
:10262000012801D144F004044FF48071284600F0E1
:10263000EDFC012801D144F002048021284600F07D
:10264000E5FC012801D144F001044021284600F0B6
:10265000DDFC012822D1203420E01024202128464E
:1026600000F0D4FC012801D144F0080410212846D0
:1026700000F0CCFC012801D144F0040408212846D4
:1026800000F0C4FC012801D144F0020404212846D2
:1026900000F0BCFC012801D144F00104204670BDCB
:1026A000000C0240001C0240F0B5314E00252DED1B
:1026B000028B8BB096F800C0B0EE408AF0EE608AD4
:1026C0000746BCF1000F22D02A4CBCF1010F1ED0EE
:1026D00094ED020B51EC180B53EC102BFEF75EF847
:1026E0000BD3307804EB001010ED020B51EC180BFB
:1026F00053EC102BFEF76AF80CD23578D4E90201BE
:10270000D4E9002304EB051CACF1100C1AE065F3CE
:102710000F0026E001250CE004EB051090ED020B04
:1027200051EC180B53EC102BFEF738F804D96D1C44
:10273000EDB230788542EFD304EB051C5CE9020171
:102740005CE904239CE870108DE87310B0EE480A31
:10275000F0EE680A06A8FEF729FA0DF1180E9EE8B9
:102760000F0087E80F000BB0BDEC028BF0BD00003E
:10277000468501208888012030B587B0044616239D
:102780006A464FF44051A02003F090FF05001ED18F
:102790006846FEF782F920609DF8040020719DF8DC
:1027A000050060710DF10600FEF777F9A0600DF1EC
:1027B0000A00FEF772F9E0600DF10E00FEF76DF908
:1027C00020610DF11200FEF768F96061284607B03C
:1027D00030BD2DE9F0410446876D00F021FC06462E
:1027E00094F835000025022806D08020606584F822
:1027F00034500120BDE8F0812068016821F0160105
:1028000001602068416921F080014161206C08B9B4
:10281000A06C20B12068016821F0080101602068E7
:10282000016821F0010101600BE000F0F9FB801B61
:10283000052806D92020606504F8345F0320607005
:10284000D8E720680068C007EFD194F85C103F20FB
:102850008840B86004F8345F012060700020C9E748
:1028600090F83510022903D080214165012070477E
:10287000052180F835100068016821F00101016030
:10288000002070472DE9F84304464FF00009CDF8C9
:10289000009063484FF41651A56D0068B0FBF1F746
:1028A0002E6894F85C10082000FA01F131420FD034
:1028B00021680A6852070BD50A6822F004020A60F0
:1028C00094F85C108840A860606D40F0010060657D
:1028D00094F85C104FF0010808FA01F0304208D07B
:1028E00021684969090604D5A860606D40F00200BE
:1028F000606594F85C1004208840304208D021685C
:102900000968890704D5A860606D40F0040060651F
:1029100094F85C1010208840304218D02168096873
:10292000090714D5A86020680168490304D5006828
:10293000000308D5A16C07E00168C90503D401684C
:1029400021F008010160216C09B12046884794F804
:102950005C1020208840304231D021680968C906C7
:102960002DD5A86094F8350005282068016806D0A8
:10297000490347D5006800031DD4616C1CE021F0B9
:10298000160101602068416921F080014161206CDD
:1029900008B9A06C20B12068016821F0080101602D
:1029A00094F85C103F208840A86084F8349084F844
:1029B0003580216D1FE0E16B09B120468847606DCD
:1029C00000282BD0606DC00714D0052084F8350096
:1029D0002068016821F0010101600098401C00900E
:1029E000B84203D820680068C007F6D184F8349054
:1029F00084F83580E16C002910D001B02046BDE894
:102A0000F04308470168C905D5D4016821F01001D9
:102A1000016084F8349084F83580CCE7BDE8F88311
:102A2000A88501202DE9F041044600F0F9FA064698
:102A30005CB1002584F83450022084F83500206809
:102A4000016821F0010101600DE00120BDE8F08185
:102A500000F0E6FA801B052805D9202060650320D8
:102A600084F83500F2E720680068C007F0D12268DA
:102A7000116820480140D4E901031843D4E9033622
:102A80003343184363691843A3691843E369184340
:102A9000236A18430843616A042903D1D4E90B135C
:102AA00019430843106020684069666A20F00701F6
:102AB00030460E43012704280CD1A06A0643E06A81
:102AC00040B12046FFF72EFA20B14020606584F81F
:102AD0003570BAE7206846612046FFF70FFA94F890
:102AE0005C203F2191408160656584F8357000204D
:102AF000ACE700003F8010F02DE9F0410446866D00
:102B000090F83400002501280DD0012084F834000D
:102B100094F835700020012F07D084F83400022586
:102B20002846BDE8F0810220FBE7022784F83570D3
:102B300060652046FFF720FA94F85C103F2088403B
:102B4000B0602068016841F016010160206C20B17E
:102B50002068016841F0080101602068016841F0C7
:102B600001010160DCE7000070B5174900240A7E0E
:102B7000012A1ED0154A01230B76156845F0807591
:102B80001560156845F000751560104DF3222D1F76
:102B90002A600268012A0ED00B70C2684A608268FF
:102BA000CA60027C0A72017C8068FFF74DFA2046F9
:102BB00070BD022070BD02220A7042680A6141683D
:102BC000007CFFF7E5FAF2E76C8D0120103C024033
:102BD0000EB5401C15D100F083F80A49002048705A
:102BE00009494A78002A0CD0084B01225A714870D2
:102BF00007488DF8002000231A466946006805F052
:102C0000E3FD0EBD44850120348801206C8801203D
:102C1000648501202DE9F0412F4F38682F4C10F4C6
:102C2000F97F4FF0FF384FF000050DD020780128D4
:102C30002ED0207802282FD0D4F81460FFF712FB92
:102C4000304600F057F825703868C0070BD00120D7
:102C500038602078012821D02078022838D0606997
:102C6000FFF7B6FF2570207800280FD11A48001D05
:102C7000016848F2FF0291430160016821F0807110
:102C80000160016821F0007101602576BDE8F081E6
:102C9000E668C4F80C80D1E72669CFE76068401E7B
:102CA0006060606850B1E068FFF792FFE068401C28
:102CB000E060E068217AFFF7C7F9D4E74646C4F838
:102CC0000C802570FFF7EAF93046FFF781FFCAE76D
:102CD000FFF7E4F92069C3E70C3C02406C8D01204A
:102CE0000348016841F00041016000207047000086
:102CF000103C0240704700002DE9F0471B4E05468E
:102D00001446307E1F468946012808D001203076BF
:102D10004CF250384046FFF7E3FA18B114E00220B5
:102D2000BDE8F0879DB1012D16D0022D19D02246A5
:102D30003B464846FFF75CFA4046FFF7D1FA0C499C
:102D40000A6822F001020A6000213176E8E7E1B268
:102D50004846FFF73DFAEFE7A1B24846FFF75EFAB3
:102D6000EAE721464846FFF76BFAE5E76C8D01205C
:102D7000103C0240074900200A68002A09DA054A87
:102D8000054B0C3A1360054B13600968002900DA03
:102D900001207047103C024023016745AB89EFCD0D
:102DA0003EB5194CB0F5005F10D002281BD00128A9
:102DB00028D1BFF34F8F15480168154A01F4E0612F
:102DC00011430160BFF34F8F00BFFDE74FF4805107
:102DD000104800F01BF9012814D00F48C0790028D2
:102DE00010D1022006E008210C4800F00FF901285C
:102DF00008D003208DF8000000231A466946206899
:102E000005F0E2FC3EBD0000648501200CED00E011
:102E10000400FA05001C024000FC022000040240ED
:102E2000044910B50A68024202D00860FFF7B8FFF3
:102E300010BD0000143C01402DE9F84F00224FF076
:102E4000010803254FF00F0E0B6808FA02F4234027
:102E5000A3426ED14E68012E05D0022E03D0112E52
:102E600001D0122E12D186684FEA420C05FA0CF7F7
:102E7000BE43CF6807FA0CF7374387604668A6431E
:102E80000C79C4F30014944034434460C66857007E
:102E900005FA07FC8C6826EA0C06BC403443C46083
:102EA0004C68022C01D0122C13D1D40800EB8404FE
:102EB000A346D4F8209054074FEAD46A0EFA0AF6D3
:102EC00029EA06090E6906FA0AF646EA0906CBF867
:102ED000206004680E7924EA0C0406F00306BE4064
:102EE000264306604C68E4006FD53B4C266846F4E8
:102EF00080462660246822F0030604F4804400948F
:102F0000364C3444A446D4F808489607360F0EFAD7
:102F100006F7BC43324FB84201D100272EE0314FB3
:102F2000B84201D1012729E02F4FB84202D1022730
:102F300024E04AE02D4FB84201D103271EE02C4F78
:102F4000B84201D1042719E02A4FB84201D1052720
:102F500014E0294FB84201D106270FE0274FB842AD
:102F600001D107270AE0264FB84201D1082705E022
:102F7000244FB84201D1092700E00A27B740274370
:102F8000CCF80878204E34684F689C43FF0300D586
:102F90001C4334601C4E361D34684F689C43BF038D
:102FA00000D51C433460184E083634684F689C4383
:102FB000FF0200D51C433460134E0C3634684F6852
:102FC0009C43BF0200D51C433460521C102AFFF4FE
:102FD0003BAFBDE8F88F00004438024000300140AC
:102FE000000002400004024000080240000C0240C1
:102FF000001002400014024000180240001C024071
:103000000020024000240240003C014000690840CA
:1030100000D0012070470AB1816170470904FBE7C5
:1030200001488068704700009C85012090F83D2091
:10303000202A01D002207047242280F83D20026817
:10304000136823F0010313600268536A23F010032E
:1030500053620268536A0B43536201680A6842F084
:1030600001020A60202180F83D100020704790F88E
:103070003D20202A01D002207047242280F83D20E4
:103080000268136823F00103136003685A6A22F090
:103090000F020A4391B2596201680A6842F00102C4
:1030A0000A60202180F83D100020704770B50400B0
:1030B00025D094F83D00002520B984F83C502046E6
:1030C00000F04CFA242084F83D002068016821F0CB
:1030D000010101602068016841F40041016020683D
:1030E000016821F40041016000F09AFD4D4A6168D9
:1030F000914201D84C4900E04C49884201D201205C
:1031000070BD4B492368B0FBF1F15E6826F03F06C5
:103110000E435E606368934206D94FF49673594339
:103120004FF47A73B1FBF3F12368491C1E6A26F051
:103130003F06314319626168914210D84900401E30
:10314000B0FBF1F2521CC2F30B02042A01D204209C
:1031500022E0B0FBF1F0401CC0F30B001CE0A268C1
:10316000F2B301EBC10303EB0116431EB3FBF6F30D
:103170005B1C43F480431B0549D092B301EBC102B1
:1031800002EB0111401EB0FBF1F0401CC0F30B003C
:1031900040F4804040F400402168CA694CF6FF7357
:1031A0009A431043C861D4E90710014320680268BC
:1031B00022F0C00211430160D4E9030101432068F9
:1031C000826848F2FF339A4311438160D4E90501D4
:1031D00008432168CA6822F0FF021043C86001E07A
:1031E0000EE016E02068016841F0010101602564ED
:1031F000202084F83D00256384F83E50002070BDF7
:1032000001EB4106431EB3FBF6F35B1CB3E7012061
:10321000C2E701EB4101401EB0FBF1F0401CC0F3DE
:103220000B00B7E7A086010080841E0000093D0066
:1032300040420F002DE9FF4F83B09A46DDE9119718
:1032400093460446DDF84080FFF7EAFE054694F811
:103250003D00202870D11923012271492046009594
:1032600002F024F90028F5D194F83C00012863D03D
:10327000012084F83C0020680168C90703D1016877
:1032800041F0010101602068016821F400610160E2
:10329000222084F83D00402084F83E000026266469
:1032A000C4F82480A4F82A90608D20855D48E062EF
:1032B000CDE9007553465A462046049901F0FEFFB9
:1032C00000287CD1208DD0B1012821D0022820688F
:1032D00024D0416980690090208D032869D8012895
:1032E0002BD0514902283B464FF00002009559D09F
:1032F0008846204602F0DAF8002860D13CE02068D9
:10330000416981690091016841F40071016077E0D1
:103310002068016821F480610160F0E7016821F410
:10332000806101602068016841F4006101602068EB
:1033300041698069009063E06FE02A463946204683
:1033400002F033F998BB20680069616A08704EE0AA
:103350002068016841F40071016020680069616AB9
:103360000870606A401C6062218D491E2185618D54
:10337000491E6185216838E02068016821F4806178
:10338000016020680069616A0870606A401C6062C0
:10339000208D401E2085608D401E60853B460022AA
:1033A00041460095204602F081F800B9D0E706E0DA
:1033B000FFE72A463946204602F0F7F818B1012007
:1033C00007B0BDE8F08F20680069616A0870606A24
:1033D000401C6062218D491E2185618D491E6185D9
:1033E00021684A69D24352070AD409690170606AA8
:1033F000401C6062208D401E2085608D401E6085CF
:10340000208D00287FF468AF202084F83D0084F8E8
:103410003E6084F83C600020D2E70220D0E7000044
:10342000020010000000FFFF040001002DE9FF4F23
:1034300083B09A46DDE9119793460446DDF8408053
:10344000FFF7EEFD054694F83D0020287FD11923B3
:10345000012240492046009502F028F8002876D144
:1034600094F83C00012872D0012084F83C002068C8
:103470000168C90703D1016841F0010101602068BA
:10348000016821F400610160212084F83D004020A2
:1034900084F83E0000262664C4F82480A4F82A900C
:1034A000608D20852C48E062CDE9007553465A4670
:1034B0002046049901F080FF70B930E02A46394671
:1034C000204602F0A5F858B1206C042804D12068E9
:1034D000016841F400710160012007B0BDE8F08F80
:1034E000606A216800780861606A401C6062218D12
:1034F000491E89B22185628D521E628522685369F8
:10350000DB435B070BD469B100781061606A401C33
:103510006062208D401E2085608D401E6085208D5C
:103520000028CBD12A463946204601F099FF0028D1
:10353000CAD154F83D0B016841F4007101602020AC
:1035400004F81E09E67766770020C6E7FFE7022049
:10355000C3E70000020010000000FFFFF0B587B0D5
:10356000044614216846FCF7E7FE2668214C204FEC
:10357000204812220123032104251034BE4219D110
:10358000066846F0020606600068CDE9023100F0E8
:1035900002000590C020CDE9000204956946164856
:1035A000FFF74AFC206840F400102060206800F417
:1035B000001019E0114FBE4217D1066846F02006F0
:1035C0000660006800F0200005908DE80E00CDE94F
:1035D000031569460A48FFF72FFC206840F4800075
:1035E0002060206800F48000059007B0F0BD000066
:1035F00000540040303802400004024000580040AF
:103600000014024070B5040011D021684CF6CC4083
:103610000860216845F255500860D4E90001416016
:103620002168A0688860FFF7FBFC054609E00120DF
:1036300070BD00BFFFF7F4FC401B302801D9032008
:1036400070BD2068C0680028F4D121684AF6AA201D
:103650000860002070BD00684AF6AA2101600020C1
:103660007047000002488168027811448160704709
:103670009C8501200B4810B5016841F40071016080
:10368000016841F480610160016841F4807101606A
:10369000032000F097F8002000F006F800F03EF854
:1036A000002010BD003C024010B5014688B0002249
:1036B0001A2000F067F81A2000F056F8134800248A
:1036C000016841F480210160006805A900F48020B0
:1036D0000690684600F084FA00F0B2FA0C49400007
:1036E000B0FBF1F10C480B4A491E026040F2E73290
:1036F000C0E90324C0E9011401F03AF910B1012036
:1037000008B010BD044801F04FF9F9E74438024011
:1037100040420F00004801402C8D0120114808B59F
:10372000016841F480410160006800F4804000902D
:103730000C48001F016841F08051016000680022C0
:1037400000F0805000900F21901E00F01BF8002226
:103750000621042000F016F8BDE80840042000F01F
:1037600003B8000044380240002809DB00F01F02C3
:10377000012191404009800000F1E020C0F80011D3
:1037800070470000F0B40E4B1B680C46C3F30223D5
:10379000C3F10705042D00D90425191D072901D2FD
:1037A000002300E0DB1E012606FA05F1491E214038
:1037B00099409E40761E16403143F0BC03F040BD58
:1037C0000CED00E0064900F0070208684FF6FF0321
:1037D000184040EA0220034A104308607047000086
:1037E0000CED00E00000FA052DE9F84317480168E8
:1037F00041F0805101600068154F00F080500126B3
:1038000000903E64FFF70CFC05464FF47A78114CAB
:1038100005E000BFFFF704FC401B40450DD8606881
:10382000C003F7D57E64FFF7FBFB0546464607E07D
:10383000FFF7F6FB401BB04202D90320BDE8F88336
:1038400060688003F4D50020F8E7000040380240AB
:1038500000000E42007000402DE9F84F0446006859
:10386000DFF824A2894F8A4DC1074FF001084FF0BD
:10387000000603D1810701D4400648D5CAF8686024
:10388000FFF7CEFB814605E0FFF7CAFBA0EB09007E
:1038900002287DD828680001F6D42078C1077D4829
:1038A00005D06168227A890141EA027101602178BC
:1038B000890711D501686268237B9201C1F3027107
:1038C00042EA036242EA017101603968E26921F06B
:1038D0001F01521E114339602178490608D56168DD
:1038E000227B890141EA0261227A41EA0271016088
:1038F000CAF86880FFF794FB814605E0FFF790FB6C
:10390000A0EB0900022843D828680001F6D52068FA
:10391000410701D400074ED5CAF87060FFF780FB5D
:10392000814605E0FFF77CFBA0EB090002282FD8B9
:103930002868C0438000F5D520784107564814D543
:1039400001682269237D9201C1F3027142EA036298
:1039500042EA017101603968226A6FF0FF0321F4C5
:10396000F85103EB0222114339602178090712D57F
:1039700001682269C1F30361920142EA0161227E7A
:1039800041EA027101603868616A20F4403000E069
:1039900051E008433860CAF87080FFF741FB0746E2
:1039A00005E000BFFFF73CFBC01B022843D8286896
:1039B000C0438000F6D42078800653D53448403088
:1039C000016841F0805101600068344D00F0805082
:1039D0000090286840F480702860FFF721FB0746BC
:1039E00005E000BFFFF71CFBC01B022823D8286896
:1039F000C005F7D5274D143D286810F4407020D03D
:103A0000218D01F4407181421BD0286820F440715F
:103A10002348C0F80080066029602868C00710D0DD
:103A2000FFF7FEFA064641F2883707E0FFF7F8FA9B
:103A3000801BB84202D90320BDE8F88F28688007B0
:103A4000F4D5A16A1248C1F301220830032A13D029
:103A5000016821F4F81101602868218DC1F30B0180
:103A6000084328602078C00604D50E4994F82C003D
:103A7000C1F8E0010020DFE702680B4B22F4F812E6
:103A800019400A430260E7E7000047428C380240D1
:103A900000380240843802408838024000700040FC
:103AA000400E474200104742FFFCFF0F2DE9F04750
:103AB0000E46050065D0DFF81481D8F80000F7B293
:103AC00000F00F00B04207D288F80070D8F800006C
:103AD00000F00F00B04254D128683D4C810712D548
:103AE000400703D5206840F4E050206028780007A4
:103AF00003D5206840F4604020602068A96820F069
:103B0000F000084320602878C0072DD0304968684D
:103B10000839012812D0022813D0032811D00968CF
:103B2000890700292DDA216821F003010143216072
:103B3000FFF776FA814641F2883A0EE00968890378
:103B4000EFE709688901ECE7FFF76AFAA0EB0901E2
:103B5000514502D90320BDE8F0872068696800F06C
:103B60000C00B0EB810FEFD1D8F80010404601F007
:103B70000F01B14207D90770006800F00F00B04292
:103B800001D00120E7E72878400705D52068E968DB
:103B900020F4E050084320602878000706D520680C
:103BA000296920F4604040EAC100206000F058F824
:103BB0002168084AC1F30311515CC84006490860F6
:103BC00006480068FFF770FD0020C4E7003C024093
:103BD00008380240B4AD0020A8850120A08501204E
:103BE0000F2202600C4A136803F00303436013685A
:103BF00003F0F0038360136803F4E053C3601268BA
:103C00004FF4E05303EAD20202610448006800F076
:103C10000F0008607047000008380240003C024076
:103C20000448054900680968044AC1F38221515CCF
:103C3000C8407047A885012008380240C4AD002064
:103C40000448054900680968044AC1F34231515CDF
:103C5000C8407047A885012008380240C4AD002044
:103C6000154810B5006810F00C02144813D0144920
:103C7000042A0FD0082A0ED10F4C241F2268236873
:103C800002F03F025B0207D52068C0F38810A0FB5A
:103C9000010106E0084610BD2168C1F38811A1FBAF
:103CA00000010023FCF7FEFA2168C1F30141491C21
:103CB0004900B0FBF1F010BD083802400024F400C8
:103CC000002D31012DE9F84F040076D02078DFF87F
:103CD00038A3CE4DC00749D0DAF800105046C1F3E2
:103CE0008101012908D00068C0F3810002280AD1AF
:103CF000281D0068400206D52868800336D5606814
:103D00000028E2D032E06068B0F5803F10D0B0F516
:103D1000A02F286810D020F480302860286820F474
:103D2000802028606068A0B1FFF77AF906460CE0B1
:103D3000286840F48030F4E740F480202860F7E7FA
:103D4000FFF76EF9801B642873D828688003F7D5C5
:103D50000CE0FFF765F9064605E000BFFFF760F9E4
:103D6000801B6428F0D828688003F7D42078DFF817
:103D7000A08280074FF000093ED5DAF800105046C7
:103D800011F00C0F09D00068C0F3810002280BD19C
:103D90009D48001F0068400206D42868800715D59A
:103DA000E068012809D111E0E068B8B10120C8F845
:103DB0000000FFF735F9064605E020E1FFF730F98E
:103DC000801B0228C0D828688007F7D52868216999
:103DD00020F0F80040EAC10028600DE0C8F800902B
:103DE000FFF71EF9064604E0FFF71AF9801B0228C8
:103DF0001FD828688007F7D42078000722D5824E84
:103E0000844861696C3671B101210160FFF708F9DE
:103E1000074604E0FFF704F9C01B022809D8306800
:103E20008007F7D50EE0C0F80090FFF7F9F80746D5
:103E300005E082E0FFF7F4F8C01B02287DD8306867
:103E40008007F7D42078400768D5DFF8BCB1002799
:103E50000BF1380BDBF80000C0000BD4DBF80010CE
:103E600041F08051CBF80010DBF80000012700F092
:103E700080500090684E3068C00510D4306840F41F
:103E800080703060FFF7CCF8009005E0FFF7C8F8CD
:103E90000099401A022850D83068C005F6D55A4E0D
:103EA000A068683601280FD00528306810D020F0AF
:103EB00001003060306820F004003060A068B8B1C4
:103EC000FFF7AEF800900FE0306840F00100F4E733
:103ED00040F004003060F7E7FFF7A2F80099411ABC
:103EE00041F28830814266D830688007F4D50EE010
:103EF000FFF796F8009007E0FFF792F80099411A53
:103F000041F28830814256D830688007F4D42FB10E
:103F1000DBF8001021F08051CBF80010A069D0B37D
:103F2000DAF800205146C2F38102022A4AD0022860
:103F3000484607D0C8F8600000E03CE0FFF770F8A2
:103F400004463BE04746C8F86000FFF769F80646BC
:103F500005E000BFFFF764F8801B02282BD8286813
:103F60008001F7D4D4E907010843A16A2B4A490824
:103F700002EB0141626A41EA8211084394F82C1075
:103F800040EA01612048001F016001203866FFF708
:103F900047F8044605E034E0FFF742F8001B02282A
:103FA00009D828688001F7D52BE000BFFFF738F863
:103FB000001B022802D90320BDE8F88F2868800181
:103FC000F4D41EE00128F7D00868E26900F480010B
:103FD000914214D1226A00F03F0191420FD147F67D
:103FE000C071626A0140914209D1A26A00F4403175
:103FF000914204D1E16A00F07060884201D0012052
:10400000DAE70020D8E70000083802400038024014
:1040100000004742800E4742007000400000FFFF52
:1040200010B500680B4641680D480140080CD87077
:10403000C1F304245C7001F03F049C70C1F3423171
:10404000197052B902F0FBF8D870587802F0F7F8FE
:104050005870987802F0F3F89870002010BD0000B6
:104060003FFFFF0010B50B460168896A596001687F
:104070000969C1F30E019960006801680E480140AA
:10408000C1F305401870C1F306245C7001F07F0491
:104090009C70402404EA1141D97052B902F0CFF863
:1040A0001870587802F0CBF85870987802F0C7F87A
:1040B0009870002010BD00007F7F7F0070B5040065
:1040C00002D0607F10B106E0012070BD0020207793
:1040D000204600F049F8022060772168CA20486233
:1040E000216853204862204602F0BEF8FF250426CE
:1040F00018BB206881681B4A11408160216888686C
:1041000062681043D4E904231A431043886021688D
:10411000E068086120680169228941EA0241016181
:104120002068C16821F08001C16020688068800635
:1041300007D4204600F0FEF818B120684562667783
:10414000C2E72068016C21F4802101642068016CC1
:10415000A269114301642068456201206077002054
:1041600070BD0000BFFF8FFF00680349884202D185
:104170000249012008607047002800403C0E474279
:104180002DE9F0470446007F0B4601281FD04FF071
:10419000010984F81C9002206077DAB19878D97808
:1041A00040EA014558781978000240EA4130054359
:1041B0002168CA204862216853204862204602F0E4
:1041C00053F80026FF274FF0040860BB1AE00220D6
:1041D000BDE8F0875878C10603D500F0EF000A303B
:1041E0005870D87802F034F80204587802F030F8A9
:1041F00042EA0022987802F02BF80243187842EA4B
:104200004035D5E70F480540206845602068C16803
:1042100021F08001C1602068806880060AD42046B1
:1042200000F088F830B12068476284F81D80267756
:104230000120CDE72068476284F81D902677002092
:10424000C6E700003FFFFF002DE9F0470446007F6E
:104250000D46012827D04FF0010A84F81CA0022047
:1042600060772068002680684FEA4060F2B100283D
:1042700000DBEE70A878297840EA01476878E97891
:10428000000240EA014007432168CA2048622168D1
:1042900053204862204601F0E7FF4FF0FF084FF03F
:1042A0000409A0BB16E00220BDE8F087002800DB6F
:1042B000EE70287801F0CCFF0204687801F0C8FFA6
:1042C00042EA0022A87801F0C3FF0243E87842EAFC
:1042D0000047D9E7164807402068076020688168D2
:1042E00021F480218160D5E90301084321688A68AF
:1042F000104388602068C16821F08001C160206897
:10430000806880060BD4204600F014F838B121688C
:10431000C1F8248084F81D9026770120C4E7216825
:10432000C1F8248084F81DA026770020BCE7000097
:104330007F7F7F0070B504460068C16821F0A0014E
:10434000C160FEF76DFE05464FF47A7607E000BFC8
:10435000FEF766FE401BB04201D9032070BD206805
:10436000C0688006F4D5002070BD70B5040005D08B
:104370000025A56294F8510010B106E0012070BD3F
:1043800084F85050204600F031F8022084F85100A3
:104390002068016821F040010160D4E9010108436F
:1043A000D4E903121143084361690843218B01F4E6
:1043B00000710843E1690843216A0843A16A084380
:1043C00021680860A069042101EA1040616A08437D
:1043D000216848602068C16921F40061C161656598
:1043E000012084F85100002070BD0000F0B587B0B6
:1043F000044614216846FBF79FFF5C485A4F236828
:1044000000225A491438022403250526BB4215D13F
:104410000B6843F480530B60096801F480510591E7
:10442000016841F0010101600068694600F0010087
:104430000590E020CDE900044D481BE04B4FDFF82C
:1044400034C13F1F63451DD1396841F48041396053
:10445000396801F480410591016841F00201016071
:104460000068694600F0020005904FF46040CDE915
:104470000004414802AB83E8640000BFFEF7DCFCA7
:1044800007B0F0BDDFF8F4C063451AD1396841F4D4
:1044900000413960396801F400410591016841F03B
:1044A000040101600068029200F0040005904FF4DE
:1044B000E050CDE900040620CDE9035069463048BC
:1044C000DCE7DFF8C0C04FF4E047634515D10B6867
:1044D00043F400530B60096801F400510591016831
:1044E00041F0100101600068009700F01000CDE974
:1044F000046069460395244833E0DFF890C06345C3
:1045000016D10B6843F480130B60096801F4801125
:104510000591016841F0200101600068694600F0E2
:10452000200005904FF46070CDE900041848A1E721
:10453000DFF860C06345A3D10B6843F400130B6040
:10454000096801F400110591016841F04001016022
:104550000068009700F04000CDE904600E4869460D
:104560000395CDE9014289E700300140443802401B
:10457000000002400038004000040240003C0040BF
:104580000008024000340140001002400050014089
:104590000014024000540140001802402DE9F84F79
:1045A000044690F8500000271D461646894601280B
:1045B0000DD04FF0010B84F850B0FEF731FD80466E
:1045C00094F85100BA46012804D002278EE0022058
:1045D000BDE8F88FB9F1000F7DD0002E7BD003200D
:1045E00084F85100C4F854A0C4F83090A686E6863A
:1045F000C4F838A0A4F83CA0A4F83EA0C4F844A095
:10460000C4F840A0A068B0F5004F04D1206801684C
:1046100041F48041016020680168490603D40168C3
:1046200041F040010160E068B0F5006F606803D0C0
:1046300030B3012E24D040E008B1012E1CD1206BF4
:1046400021680088C86006E020688168890709D56C
:10465000216B0988C160206B801C2063E08E401EA6
:10466000E08609E0FEF7DCFCA0EB0800A84202D3DC
:10467000681C01D031E07DB3E08E0028E4D11FE05A
:10468000206B21680078087306E02068816889073C
:1046900009D5216B09780173206B401C2063E08EE3
:1046A000401EE08609E0FEF7BBFCA0EB0800A84234
:1046B00002D3681C01D010E075B1E08E0028E4D16F
:1046C00042462946204602F0E9F808B120206065FC
:1046D000A06820B107E008E0FFE7032706E02068B4
:1046E000C16880680090606D00B1012784F851B006
:1046F00084F850A038466BE72DE9F84F044690F84F
:10470000500000270A9E1D4692468B464FF0010935
:1047100001280ED0012084F85000FEF781FC80466D
:1047200094F85100616801280CD0B1F5827F07D15F
:1047300002E00220BDE8F88FA16809B9042801D081
:104740000227C2E0BBF1000F27D0BAF1000F24D03E
:104750001DB394F85100042802D0052084F85100BC
:1047600000206065C4F838A0E587A587C4F830B09C
:10477000E586A5862064606420680168490603D444
:10478000016841F040010160E068B0F5006F6068C9
:1047900005D0E8B3012D46D07FE0012795E008B1B0
:1047A000012D39D1206B21680088C860206B801CE6
:1047B0002063E08E401EE0862EE020688168890735
:1047C0000FD5E18E69B1B9F1010F0AD1216B0988CA
:1047D000C160206B801C2063E08E401EE0864FF09D
:1047E000000920688168C9070CD0E18F51B1C06809
:1047F000A16B0880A06B801CA063E08F401EE08747
:104800004FF00109FEF70CFCA0EB0800B04200E0FD
:1048100009E001D3701C50D1E08E0028CDD1E08F8B
:104820000028CAD13FE0206B216800780873206B14
:10483000401C2063E08E401EE0862EE020688168E8
:1048400089070FD5E18E69B1B9F1010F0AD1216B4A
:1048500009780173206B401C2063E08E401EE086C7
:104860004FF0000920688168C9070CD0E18F51B171
:10487000C068A16B0870A06B401CA063E08F401E55
:10488000E0874FF00109FEF7CBFBA0EB0800B04238
:1048900002D3701C01D010E07EB1E08E0028CDD193
:1048A000E08F0028CAD142463146204601F0F6FF8B
:1048B00028B101272020606507E0032705E0A068F4
:1048C00018B92068C16880680090012084F8510000
:1048D000002084F8500038462CE7704770470000ED
:1048E00070B590F83C20012A32D0012480F83C4079
:1048F000022280F83D2003685A689D6822F0700605
:104900000A6832435A60134B02689A4214D0B2F1DB
:10491000804F11D0104B9A420ED0104B9A420BD0C0
:104920000F4B9A4208D00F4B9A4205D00E4B9A4239
:1049300002D00E4B9A4204D1496825F080031943F6
:10494000916080F83D40002180F83C10084670BD21
:10495000022070BD0000014000040040000800403B
:10496000000C0040000401400040014000180040DD
:1049700010B5040003D094F83D0010B107E0012009
:1049800010BD002084F83C00204600F00CF8022006
:1049900084F83D00211D206802F05EF9012084F8B2
:1049A0003D00002010BD70470168CA6842F0010256
:1049B000CA600068816801F00701062903D0016818
:1049C00041F001010160002070470000084A0168C1
:1049D00091420BD1007F0749012805D0042805D159
:1049E000B1F81800FDF768BA088DFBE770470000C2
:1049F0000004014000FC02202DE9F041044690F83B
:104A00003C000D4601283DD0012684F83C60022080
:104A100084F83D00AAB3042A46D02068082A55D05D
:104A2000D5E90027E968036A23F480530362D0F8CC
:104A30001CC0036A2CF4407C4CEA07274FF6FF7C2D
:104A400027F470470CEA013139434FF4204723F42F
:104A5000204307EA02321A43C16102622068C16939
:104A600021F44061C1612068C169AA6841EA02215C
:104A7000C0F81C1084F83D60002084F83C00BDE8BC
:104A8000F08101E00220FAE7D5E90012EB68206826
:104A900002F054F92068816921F00C0181612068DD
:104AA0008169AA6811430FE0D5E90012EB6820681C
:104AB00002F084F92068816921F4406181612068F5
:104AC0008169AA6841EA02218161D3E7D5E9002C16
:104AD0002F7B016A21F480710162C169036A21F0B0
:104AE000030141EA0C0121F0F00C39074FF4206773
:104AF0004CEA116123F4206307EA02221A43C161E0
:104B000002622068C16921F00C01C1612068C1699D
:104B1000AA681143ACE710B5040003D094F83D0037
:104B200010B107E0012010BD002084F83C002046B1
:104B300000F00CF8022084F83D00211D206802F0EE
:104B40008BF8012084F83D00002010BD10B586B020
:104B5000044614216846FBF7EFFB1749206888429A
:104B600028D116480021026842F002020260006863
:104B700000F00200059011481438026842F0040267
:104B80000260006800F0040005904FF4A0700090EF
:104B90000220CDE901010320CDE903106946084850
:104BA000FEF74AF9002205212E20FEF7EBFD2E200C
:104BB000FEF7DAFD06B010BD0004014044380240A3
:104BC0000008024010B50268044631B1042908D03B
:104BD00008291AD00C2908D11BE0D06840F0020047
:104BE00002E0D06840F00400D0600122206802F0AA
:104BF00097F82068816801F00701062903D0016851
:104C000041F001010160002010BDD06840F00800B3
:104C1000EAE7D06840F01000E6E710B50268044605
:104C200031B1042908D008291ED00C2908D11FE071
:104C3000D06820F0020002E0D06820F00400D060CC
:104C40000022206802F06CF82068016A41F211121B
:104C5000114207D1016A9210114203D1016821F07B
:104C600001010160002010BDD06820F00800E6E7D7
:104C7000D06820F01000E2E770B5044600680169D2
:104C80004FF00005C943890715D4C168C943890796
:104C900011D4E91E01610120207720688069800716
:104CA000204602D0FFF792FE04E000F098F820467C
:104CB00000F096F8257720680169C943490717D4A1
:104CC000C168C943490713D46FF004010161022090
:104CD00020772068806910F4407F204602D0FFF7DB
:104CE00075FE04E000F07BF8204600F079F82577A7
:104CF00020680169C943090716D4C168C943090777
:104D000012D46FF008010161042020772068C06987
:104D10008007204602D0FFF759FE04E000F05FF85C
:104D2000204600F05DF8257720680169C943C9066F
:104D300017D4C168C943C90613D46FF010010161CB
:104D4000082020772068C06910F4407F204602D0F8
:104D5000FFF73CFE04E000F042F8204600F040F887
:104D6000257720680169C943C90708D1C168C943CB
:104D7000C90704D1891E0161204600F033F820687C
:104D80000169C943090609D4C168C943090605D4A4
:104D90006FF0800101612046FFF79FFD20680169E7
:104DA000C943490609D4C168C943490605D46FF00F
:104DB00040010161204600F01FF820680169C943E5
:104DC00089060BD4C168C943890607D46FF0200156
:104DD00001612046BDE87040FFF780BD70BD70479F
:104DE0007047000000680349884201D1FEF73ABCD1
:104DF0007047000000480140704710B50446006845
:104E0000416994F83920C1F3C011212A0BD151B165
:104E1000416921F080014161206B08B1FDF7D9FCA7
:104E2000204602F044F82068416994F83A20C1F322
:104E30008011222A0BD151B1416921F04001416119
:104E4000606B08B1FDF7C5FC204602F022F8002097
:104E500010BD704770B5026804461068D168536988
:104E600010F00F0F52D003F0010501F490762E439D
:104E70005FD0C20705D0CA0503D5E26B42F001023C
:104E8000E263420705D5DA0703D0E26B42F0020283
:104E9000E263820705D5DA0703D0E26B42F0040231
:104EA000E263020707D501F020022A4303D0E26B38
:104EB00042F00802E263E26B002A33D0800604D598
:104EC000880602D5204601F0FBFF20684069E16BAF
:104ED000C0F38010090700D428B3204601F0D9FFA1
:104EE0002068416949061AD5416921F040014161B4
:104EF000606BA0B11B490165606BFDF7B1FC002838
:104F000010D0606B016DBDE870400847830610D576
:104F10008B060ED52046BDE8704001F0D1BF20467B
:104F2000FFF797FF70BD2046FFF793FF0020E06377
:104F300070BD030606D50B0604D52046BDE87040BB
:104F400002F09EB84006F3D54806F1D5D168204658
:104F500021F04001D160202184F8391000F094F94B
:104F600070BD0000F36D002070B5040004D094F80B
:104F70003900002510B106E0012070BD84F83850DA
:104F8000204600F023F8242084F839002068C16806
:104F900021F40051C160204601F0DEFF2068016964
:104FA00021F4904101612068416921F02A014161A9
:104FB0002068C16841F40051C160E563202084F895
:104FC000390084F83A00002070BD0000F0B587B0C9
:104FD000064614216846FBF7AFF9334F30680025C9
:104FE0003249022203230724B8423DD12F4814300E
:104FF000076847F010070760006800F01000059090
:10500000086840F0010008600868694600F0010087
:10501000059058028DE82500CDE903342448FDF7BA
:105020000BFF254C234820604FF00060C4E90105C8
:105030004014C4E9035065614FF44030A561C4E9F0
:10504000075020466562FDF7EDFC08B1FCF7FAFF5A
:105050007463002206212520A663FEF793FB25201A
:10506000FEF782FB07B0F0BD144EB042FAD10F48F4
:105070001030066846F480260660006800F4802040
:105080000590086840F0020008600868694600F072
:10509000020005904FF440608DE82500CDE903340F
:1050A0000748FDF7C9FEDDE7001001403038024037
:1050B0000000024040640240CC8C012000480040C7
:1050C00000040240F8B5044690F83A0020283CD18C
:1050D000C1B3BAB394F83800012836D0012084F85F
:1050E0003800A162A2850025E563222084F83A00F9
:1050F000636B1748D863636B16481864636B164874
:10510000D864606B134605650846666B21680246E5
:105110003046091DFDF7F0FC2068016841680091E8
:1051200084F83850C16841F48071C16020684169D9
:1051300041F0010141612068416941F04001416154
:105140000020F8BDFFE70120FBE70220F9E700009F
:105150004D6E0020896E0020036E002090F83A30DA
:10516000202B22D1F9B1F2B190F83830012B1CD0AC
:1051700081628285C2850021C163222280F83A20A3
:1051800080F838100168CA6842F48072CA60016809
:105190004A6942F001024A610068C16841F0200199
:1051A000C160002070470120704702207047000056
:1051B00000680449884203D10348006803F07ABCC0
:1051C00070470000001001405C85012070472DE908
:1051D000F843044690F839001F4616460D4620282D
:1051E00050D1B5B1AEB194F8380001284AD00120B1
:1051F00084F838004FF00008C4F83C80212084F87F
:105200003900FDF70DFFA6848146E68484F83880D6
:1052100026E00120BDE8F883E08C401EE084A06811
:105220004B46B0F5805F4FF000024FF08001204602
:10523000009703D001F055FFE8B90DE001F051FFF0
:10524000C8B928882168C0F308004860206908B1FF
:105250006D1C05E0AD1C03E0216815F8010B4860EA
:10526000E08C0028D8D14B460022402120460097F0
:1052700001F037FF08B10320CCE7202084F8390083
:105280000020C7E70220C5E77047FEE701684A69CA
:10529000D24352050FD46FF480624A61002140F876
:1052A000301F202242738173026942F004020261BE
:1052B0000173012070470020704700002DE9F84F6E
:1052C0000446006889460B9D01689846174641F4DC
:1052D000806101602068016841F48071016000957F
:1052E0004FF0011B0022594620460A9B00F0DEF8D1
:1052F0004FF4007A40B120680068C00501D5C4F8B9
:1053000040A00320BDE8F88F216809F0FE00086185
:105310002B46284920460A9A00F0FCF8F0BB20688A
:105320004169806900902A4620460A9900F070F988
:1053300040B1206C04283AD12068016841F4007122
:10534000016034E0FEB2B8F1010F09D02168380ADB
:1053500008612A4620460A9900F05AF90028E8D147
:10536000206806612A4620460A9900F051F9002873
:10537000DFD12068016841F480710160009500224E
:10538000594620460A9B00F091F80028B3D12168C5
:1053900009F0FF0040F00100086100E007E02B4643
:1053A000044920460A9A00F0B5F80028AAD0012046
:1053B000A8E70000020001002DE9F8430446006858
:1053C0000D46DDE9089701689846164641F480715C
:1053D00001604B4600224FF001112046009700F07B
:1053E00065F848B120680068C00502D54FF4007028
:1053F00020640320BDE8F883216805F0FE00086101
:105400003B464A461549204600F084F888B9206892
:105410004169806900903A464946204600F0F8F814
:1054200048B1206C042804D12068016841F400715F
:1054300001600120DEE7F5B2B8F1010F09D0216863
:10544000300A08613A464946204600F0E1F8002853
:10545000E7D1206805610020CCE7000002000100D0
:1054600070B516460D4604460DE02046FFF70EFFC8
:1054700008B1012070BD681C05D0FDF7D1FD801B6F
:10548000A84207D835B120684069C0434007ECD432
:10549000002070BD002044F8300F20216173A073FC
:1054A000216941F0200121612073E2E72DE9F047F5
:1054B0001E4690460D460446C1F30747DDF820908E
:1054C00008E0701C06D0FDF7ABFDA0EB0900B04270
:1054D0000FD876B12068012F18D0806925EA000026
:1054E0000004000C14D000214145EAD00020BDE8A2
:1054F000F087002044F8300F20216173A0732169E8
:1055000041F02001216120730120F0E74069E5E7C7
:105510000121E9E72DE9F0479A4691460E460446F7
:1055200000254FF02008C1F3074725E020684069B7
:10553000C043400514D42068016841F40071016043
:1055400021686FF480604861256384F83D8084F8A9
:105550003E50206C40F00400206484F83C501FE072
:10556000B9F1FF3F08D0FDF75BFDA0EB0A0149450B
:105570000CD8B9F1000F09D02068012F13D0806931
:1055800026EA00000004000C0BD0CFE744F8305F9F
:1055900084F80D80A573206940F0200020612573F8
:1055A0000120BDE8F0874069EAE72DE9F0410025D8
:1055B00090460E460446202717E04069C043C006C7
:1055C0000CD454F8301B6FF01000486144F81059A7
:1055D0006777A577206A2062257717E0FDF720FD21
:1055E000A0EB0800B04208D83EB120684169C94329
:1055F0004906E2D40020BDE8F08144F8305F6773CB
:10560000A573206940F02000206125730120F2E796
:1056100070B516460D4604460DE02046FFF736FEEF
:1056200008B1012070BD681C05D0FDF7F9FC801B96
:10563000A84207D835B120684069C0430006ECD4C1
:10564000002070BD002044F8300F20216173A0734A
:10565000216941F0200121612073E2E73EB5322447
:105660009BB28DE81C0080B20A4601461023024816
:10567000FDF7E0FD3EBD00007C8901202DE9FE4FD5
:105680000027DFF868B091460E4682461D46B846B0
:105690003A4604215846FDF7BEFC1DE006F03F00E7
:1056A000C0F14004AC4200DB2C463222A1B209EB2F
:1056B00007008DE807001FFA8AF1102332460C48D4
:1056C000FDF7B4FE5FEA000808D1301986B22D1B41
:1056D00027440A2002F0AAFF002DDFDC012204216A
:1056E0005846FDF798FC4046BDE8FE8F0014024086
:1056F0007C89012070B50F4C0D4800252060257174
:10570000FF206071A071E560657208210A48FDF70D
:105710007DFC012640B1E5714FF480710748FDF72B
:1057200075FC18B1257270BDE671F5E7267270BD83
:105730005A5AA5A500FC022000200240000C02409D
:1057400010B50C462DED068BB0EE40AAF0EE60AA27
:10575000FAF7CDFF9FED161B53EC112BFAF7E6FE7F
:1057600041EC190B2046FAF7C2FF9FED131B53ECD7
:10577000112BFAF7DBFE41EC180B53EC1A2BFAF75E
:10578000CFFE53EC192BFBF721F80AD353EC1A2B5D
:1057900051EC180BFAF723FE53EC192BFAF7FEFF26
:1057A00003D20020BDEC068B10BD0120FAE70000FB
:1057B000000000000000303F000000000000103F2B
:1057C0002DE9F04110237C4A2021A02000F06EFF3B
:1057D00004467948002604230674784A4021A02014
:1057E00000F064FF7549764D20430E7103D004210B
:1057F000284601F0E5F873490868734C800103D529
:10580000207840F0010020700868400103D520781E
:1058100040F0020020700868000103D5207840F0B5
:10582000040020700868C00003D5207840F008000C
:1058300020700868800003D5207840F010002070A8
:105840000868400003D5207840F0200020700868E8
:10585000002803DA207840F040002070086840F00B
:105860008070086000210222084600F0A1FE18B1F5
:105870000521284601F0A4F803F02EFF2078504DB2
:1058800010F0180FA5F110055CD050492868884227
:1058900054D1287900B12E714D48E96809B1002230
:1058A00000E001220221FDF7B6FBE879DFF8248150
:1058B0004FF48047012802D06879402801D30122A3
:1058C00006E00020FCF734FD6979884210D10022FF
:1058D00039464046FDF79FFBA8793F4F20280ED25E
:1058E0000120FCF725FDA979884205D1002207E0B7
:1058F000002000F08BFFE2E7012000F087FF01228B
:1059000001213846FDF787FB687A38B1002133481A
:10591000FFF758F908213148FFF754F90122304FB9
:10592000550229463846FDF776FB012002F07EFE3F
:10593000002229463846FDF76EFB08E0002000F003
:1059400065FF02E010F0050F25D000F055F8254D59
:105950002E706E706670FCF7E5FB2348FCF70CFFB9
:105960002149224B22480E790622DEB1012E1CD09D
:10597000022E17D00822C5E901024979002919D160
:105980000121617069706968814213D0BDE8F041FE
:105990001046FCF7AFBB00202E6000F037FFFCF78D
:1059A00001FBD2E7C5E90132E7E7124A6A60072244
:1059B000AA60E2E7BDE8F081588801200480012058
:1059C00010FC022074380240448501205A5AA5A5D3
:1059D00000200240001C0240000C02400C8C012000
:1059E00000100240348801206C8801200000040867
:1059F00000000808000006087FB5012291032B482B
:105A0000FDF709FB2A4E012211463046FDF703FB44
:105A1000012202212748FDF7FEFA0122264D5402F9
:105A200021462846FDF7F7FA012002F0FFFD00228B
:105A300021462846FDF7EFFAFFF75CFE9FED1F0BAE
:105A40006846FCF731FE1F4C9DE80F0004F1280565
:105A50009FED1D0B85E80F006846FCF725FE9DE8CD
:105A60000F00103D85E80F00208D00281DD000227A
:105A7000618D104600F09CFD083D18B105212846B7
:105A800000F09EFF208DFCF717FA4FF4807130462E
:105A9000FDF7BCFA002808D1FCF7A4FA18B10521DB
:105AA000284600F08DFF012020727FBD001C0240BF
:105AB000000C0240002002400010024000000000E4
:105AC0000000000000FC022000000000000010C0E8
:105AD000094808B5016841F48001016000680022AE
