:020000042000DA
:1000000008DF012081020020AB7E0020E36A00208F
:10001000A97E0020EB0A0020899900200000000042
:10002000000000000000000000000000C1010020EE
:10003000712C0020000000001D020020C59000204F
:100040009B0200209B0200209B0200209B020020BC
:10005000ED2D00209B020020A12C0020AF2C0020C1
:100060009B0200209B0200209B0200209B0200209C
:100070009B0200209B0200209B0200209B0200208C
:100080009B0200209B0200209B0200209B0200207C
:100090009B0200209B0200209B0200209B0200206C
:1000A0009B0200209B020020B19100209B020020B7
:1000B0009B0200209B0200209B0200209B0200204C
:1000C0009B0200209B0200209B0200209B0200203C
:1000D0009B020020699700209B0200209B020020C9
:1000E000A72C00209B0200209B0200209B020020E6
:1000F0009B0200209B020020BD9100209B0200205B
:100100009B0200209B0200209B0200209B020020FB
:100110009B0200209B0200209B0200209B020020EB
:100120009B0200209B020020C12B00209B0200208C
:100130009B0200209B0200209B0200209B020020CB
:100140009B0200209B0200209B0200209B020020BB
:100150009B0200209B0200209B0200209B020020AB
:100160009B0200209B0200209B0200209B0200209B
:100170009B0200209B0200209B0200200000000048
:100180009B0200209B0200209B0200209B0200207B
:100190009B0200209B0200209B0200209B0200206B
:1001A00000000000000000009B020020DFF80CD0DF
:1001B00000F03AFC0048004771C1002008DF012030
:1001C0002C4B19680868B0E8F04F80F30988BFF33A
:1001D0006F8F4FF0000080F311887047000000001F
:1001E00008480068006880F308884FF0000080F33A
:1001F000148862B661B6BFF34F8FBFF36F8F00DF15
:1002000000BF00BF08ED00E0DFF80C00016841F41A
:1002100070010160704700BF88ED00E0EFF30980D6
:10022000BFF36F8F134B1A681EF0100F08BF20ED3D
:10023000108A20E9F04F106009B44FF0500080F3AD
:100240001188BFF34F8FBFF36F8F0DF0EFFF4FF0AB
:10025000000080F3118809BC19680868B0E8F04F05
:100260001EF0100F08BFB0EC108A80F30988BFF3AE
:100270006F8F704734860120EFF3058070470000D0
:100280000648804706480047FEE7FEE7FEE7FEE730
:10029000FEE7FEE7FEE7FEE7FEE7FEE799910020B6
:1002A000AD0100202DE9F05F0546002092469B46F7
:1002B00088460646814640241BE02846414647467C
:1002C000224600F0C6FA53465A46C01A914110D34E
:1002D00011461846224600F0ADFA2D1A67EB0108C8
:1002E0004F4622460120002100F0A4FA17EB000936
:1002F0004E41201EA4F10104DFDC484631462A4667
:100300004346BDE8F09F40EA01039B0703D009E0A4
:1003100008C9121F08C0042AFAD203E011F8013BF1
:1003200000F8013B521EF9D27047D2B201E000F84A
:10033000012B491EFBD270470022F6E710B5134689
:100340000A4604461946FFF7F0FF204610BD421C3E
:1003500010F8011B0029FBD1801A704730B5054603
:100360000020034600E05B1C934205D2EC5CC85CB5
:10037000201A01D1002CF6D130BD2DE9F05F934653
:100380000F4680460446002609F036FBD0F8009060
:10039000824614F8015B2DB100F07EFA0068405DE2
:1003A000C007F6D12B2D02D02D2D1AD0641E0021AE
:1003B000CAF800105A463946204600F071FA014644
:1003C00027B13868A04201D1C7F80080DAF80000F0
:1003D000022809D0CAF80090700505D54842BDE84A
:1003E000F09F46F48066E2E70846F8E72DE9FE4F05
:1003F000804681EA0300C00F0C46009021F00041C6
:1004000023F00045B8EB0200A94105D24046214641
:1004100090461C460B46024623F00040104347D04E
:10042000270DC7F30A00C3F30A510290401A019046
:1004300040286BDAC3F3130040F4801B0098924607
:1004400020B10023D2EB030A63EB0B0B0198594652
:10045000C0F14002504600F0EDF906460D46504608
:100460005946019A00F005FA10EB0800614100249A
:1004700087EA115284EAE7731A4340D0009A62B3C4
:10048000019A012A4FEA075215DC001B61EB0201B9
:100490004FF0004202EA0752CDE90042001C41F54C
:1004A000801132462B4600F059FA03B0BDE8F08FB8
:1004B00040462146F9E7001B61EB0201001C41F5B3
:1004C000801300185B412018A2F5001747EB0301C9
:1004D00040EAD570B6196D4111E06D084FEA360655
:1004E00045EAC0754FEA0752001B61EB0201001C90
:1004F00041F5801149084FEA300000195141324658
:100500002B4603B0BDE8F04F00F019BA0098012265
:1005100040000023D0EB020263EBE0730098214619
:100520004FEAE074B8EB000061EB0401E9E783F007
:1005300000435BE781F0004158E72DE9FE4F81EA77
:10054000030404F0004421F0004100944FF0000B3C
:1005500023F0004350EA01045ED052EA03045BD06A
:10056000C3F30A54C1F30A552C44A4F2F3340194A2
:10057000A0FB0254C1F3130141F48011C3F3130330
:1005800043F4801301FB024400FB034E840A970AE4
:1005900044EA815447EA8357A4FB076802958D0A11
:1005A00005FB07854FEA932C04FB0C542705029D9D
:1005B0004FEA065847EA1637B5EB08056EEB070C0D
:1005C000870E920E47EA811742EA8312A7FB0201C7
:1005D000B6EB0B0164EB00042B0D43EA0C335E1801
:1005E00044EB1C50DA465146E7FB0201C5F3130405
:1005F0004FEA0B3343EA14534FEA0432019C43EAB7
:100600000603A4F10C040294009CCDE900B400F0B0
:10061000A5F903B0BDE8F08F00200146F9E72DE908
:10062000F04D81EA030404F0004B21F0004514462C
:100630004FF0000A23F0004150EA050220D054EAAE
:1006400001021DD0C5F30A570246C5F31303C1F3D7
:100650001300C1F30A5640F4801543F48013A7EB4E
:100660000608101BD64608F2FD3873EB050002D3CE
:1006700008F1010801E092185B41B8F1000F03DABC
:1006800000200146BDE8F08D00204FF480110646A1
:1006900084460EE0171B73EB050705D3121B63EBB3
:1006A000050306434CEA010C49084FEA3000921852
:1006B0005B4150EA0107EDD152EA030012D082EA11
:1006C000040083EA0501084305D0101BAB4106D2A4
:1006D0000122002306E000224FF0004302E06FF009
:1006E000010253101AEB06004CEB085110EB0A0004
:1006F00041EB0B01BDE8F04D00F021B90EB5C10F83
:1007000080EAE0700844CA07002140F233438DE8D4
:100710000E000A460B4600F021F903B000BD0EB5ED
:1007200040F2334102910021CDE900110A460B4607
:1007300000F014F903B000BD70B5C1F30A5201F026
:1007400000450024C1F3130140F2FF3341F480114E
:100750009A4201DA002070BD40F233439A42A2F27D
:10076000334203DC524200F074F800E090402C4326
:10077000F1D0404270BDC1F30A5210B5C1F313016C
:1007800040F2FF3341F480119A4201DA002010BD9B
:1007900040F233439A42A2F2334203DC524200F069
:1007A00058F810BD904010BD30B5041E71F1000422
:1007B00004DB4FF00044404264EB0101141E73F16E
:1007C000000405DB1C464FF00043524263EB040378
:1007D0008B4208BF824230BD30B5041E71F1000467
:1007E00004DB4FF00044404264EB0101141E73F13E
:1007F000000405DB1C464FF00043524263EB040348
:10080000994208BF904230BD30B50B4601460020EA
:100810002022012409E021FA02F59D4205D303FAC2
:1008200002F5491B04FA02F52844151EA2F1010243
:10083000F1DC30BD202A04DB203A00FA02F100206E
:1008400070479140C2F1200320FA03F3194390400E
:100850007047202A04DB203A21FA02F00021704779
:1008600021FA02F3D040C2F1200291400843194618
:100870007047202A06DBCB17203A41FA02F043EA00
:10088000E07306E041FA02F3D040C2F12002914049
:1008900008431946704700000048704744F40020A0
:1008A0002DE9F05F82460078002715468B460AF155
:1008B0000104B946302801D09DB113E014F8010BB2
:1008C0000127782803D0582801D045B10AE00DB19E
:1008D000102D07D10027102514F8010B02E0082580
:1008E00000E00A250026B0460EE005FB080005FBE7
:1008F00006F1012701EB10461FFA80F8B6F5803F9C
:1009000000D3B94614F8010B294600F09FF80028DF
:10091000EBDABBF1000F05D00FB1641E00E05446C6
:10092000CBF80040B9F1000F06D009F065F80221BC
:100930000160C81EBDE8F09F48EA0640FAE710B51E
:10094000141E73F1000408DA401C41F100019218F2
:100950005B411A4301D120F0010010BD2DE9F04D9B
:1009600092469B4611B1B1FA81F202E0B0FA80F2F0
:1009700020329046FFF75EFF04460F4640EA0A0029
:1009800041EA0B0153465A46084313D0114653EA35
:10099000010019D0C8F140025046FFF75AFF054642
:1009A0000E46504659464246FFF744FF084305D0DD
:1009B000012004E020463946BDE8F08D00200543C3
:1009C00046EAE0762C4337430A986305E40AA0EB35
:1009D00008000022FD0A44EA47540A3002D50020EC
:1009E0000146E9E7010510196941DDE908450019EB
:1009F0006941BDE8F04DA2E7C1F30A52C1F313010A
:100A000040F2FF3341F480119A4202DA002001469D
:100A1000704740F233439A42A2F2334202DC524220
:100A2000FFF717BFFFF706BF064C074D06E0E0686B
:100A300040F0010394E8070098471034AC42F6D325
:100A4000FFF7B8FBE8F5002008F600203A2800D2AE
:100A5000303820F02002412A01D3A2F13700884229
:100A600001D34FF0FF30704770B58C1810F8015B60
:100A700015F0070301D110F8013B2A1106D110F837
:100A8000012B03E010F8016B01F8016B5B1EF9D13B
:100A90002B0705D40023521E0DD401F8013BFAE7C1
:100AA00010F8013BCB1A921C03E013F8015B01F82C
:100AB000015B521EF9D5A142D8D3002070BD020AB5
:100AC0000A7048707047020E0A70020C4A70020ADF
:100AD0008A70C8707047008840BA70470168C07853
:100AE00009BA21F0FF0108437047FEE730B54FF027
:100AF000FF330022064C07E0855C5D40EDB2521CDE
:100B000054F8255085EA13238A42F5D3D84330BDE3
:100B10001C81012010B50022134602E0C45C624033
:100B20005B1C8B42FAD3521CD0B210BD10B52DED18
:100B3000048BFFF7F4FD9FED211B53EC112BFFF706
:100B4000FCFC9FED209B53EC192BFFF7F6FC41ECCE
:100B5000180B51EC190B53EC182BFFF7E8FC41EC88
:100B6000100B51EC180B53EC102BFFF758FD41EC18
:100B7000100B08F045FF9FED151B51EC100B53ECCB
:100B8000112BFFF7DAFC9FED131B53EC112BFFF732
:100B90002DFC41EC100B53EC102B9FED100B51EC86
:100BA000100BFFF73CFD9FED0F1B53EC112BFFF7D4
:100BB000BEFCBDEC048B41EC100B10BD000000002E
:100BC0000000303F00000000000004400000000072
:100BD00000A062400000000000689A400000000091
:100BE00010BD1E4100000000001071400FB42DED3B
:100BF000020B2DE9F04782462DED0C8B84B0B0EE50
:100C000040AAF0EE60AADDE920569DED22BB8DEDF5
:100C100002AB9DED1ECBBDF87400FFF780FD88464A
:100C2000044648EC180BB0B2FFF779FD8946074639
:100C300049EC190B53EC1C2B51EC1B0BFFF777FC09
:100C400041EC1B0B53EC182B51EC190BFFF76FFC0D
:100C500041EC190B53EC1C2B51EC1A0BFFF767FC02
:100C600053EC192BFFF769FC53EC1B2BFFF7D7FC58
:100C700053EC182BFFF7BAFB9FED4CBB53EC1B2B2F
:100C8000FFF7B4FBFFF777FD86B2ADF8046048ECE0
:100C90001A4B49EC1C7BBDF87000FFF740FD8846FD
:100CA000044648EC180BA8B2FFF739FD8946074601
:100CB00049EC190B3046FFF732FD41EC1D0B53ECAC
:100CC0001A2B51EC1C0BFFF732FC41EC1C0B53ECC4
:100CD000182B51EC190BFFF72AFC41EC190B53ECC4
:100CE0001A2B51EC1D0BFFF722FC53EC192BFFF7CD
:100CF00024FC53EC1C2BFFF792FC53EC182BFFF752
:100D000075FB53EC1B2BFFF771FBFFF734FD86B22D
:100D1000ADF8006048EC184B49EC1D7BBDF8720043
:100D2000FFF7FDFC41EC190B280CFFF7F8FC41EC38
:100D30001A0B3046FFF7F3FC41EC1C0B53EC182B5D
:100D400051EC1D0BFFF7F3FB41EC1D0B53EC192B82
:100D500051EC1A0BFFF7EBFB41EC1A0B53EC182B81
:100D600051EC1C0BFFF7E3FB53EC1A2BFFF7E5FBF1
:100D700053EC1D2BFFF753FC53EC192BFFF736FBFD
:100D800053EC1B2BFFF732FBFFF7F5FCADF802002D
:100D90009DE81E008AE80E00CAF80C4004B0BDECC5
:100DA0000C8BBDE8F0075DF81CFB000000000000A4
:100DB0000000E03F10B52DED048BFFF7B0FC9FED78
:100DC000311B53EC112BFFF7B8FB9FED301B53EC9D
:100DD000112BFFF7B2FB9FED2F1B53EC112BFFF7ED
:100DE0001EFC9FED2E1B53EC112BFFF7A0FB9FED7C
:100DF0002D1B53EC112BFFF7F9FA41EC100B53ECC0
:100E0000102B9FED2A0B51EC100BFFF708FC9FED08
:100E1000291B53EC112BFFF78AFB9FED281B53EC8A
:100E2000112BFFF7FCFB41EC100B08F0E9FDB0EED5
:100E3000408AF0EE608A9FED230B51EC180B53ECC7
:100E4000102BFFF77AFB9FED211B53EC112BFFF7C3
:100E5000CDFA9FED200B41EC190B53EC102B51EC0C
:100E6000180BFFF76AFB9FED1D1B53EC112BFFF7CF
:100E700061FB53EC192BFFF7D2FBBDEC048B41EC6B
:100E8000100B10BD000000000000303F000000000B
:100E900000000440000000000000F43F00000000DB
:100EA0000000F03F08CD1B08CD1BF03FCDCCCCCCD3
:100EB000CCCC3140B81E85EB51B81E40000000007C
:100EC000000024400000000000A06240000000007C
:100ED00000B49E400000000060DBE3400000000022
:100EE000A0FCE74070B5012202210A4803F0BFFCD4
:100EF0000122094D54022146284603F0B8FC012086
:100F00000BF062FD21462846BDE87040002203F048
:100F1000AEBC000000200240001002400123026825
:100F20008B409A430260704770B5012204210B4840
:100F300003F09DFC01220A4D54022146284603F08D
:100F400096FC01200BF040FD00222146284603F0CC
:100F50008EFC04490020487270BD00000020024051
:100F60000010024000FC022010B50022C0B2114661
:100F70000CF04AFC002801D04FF0FF3010BD0000FB
:100F800070B5A8B10C480121012203F070FC0122C8
:100F90000A4D54022146284603F069FC01200BF05B
:100FA00013FD21462846BDE87040002203F05FBCD7
:100FB00003484FF48041E7E7000C02400010024074
:100FC000001C02402DE9FE4FB1488046FFF786FD28
:100FD000B04C0025B049042747F6FF76656088428B
:100FE0003DD108F10400FFF779FDA94A014602F15D
:100FF000080002F10C0A02F11009012935D002297A
:1010000044D003294AD004294FD005295AD002F1EF
:10101000140B062962D0122976D0132975D007291E
:1010200074D0142973D0092972D00A2971D04FF0D5
:1010300001080B296ED00D296DD00E296CD00F2917
:101040006BD010296AD0112969D0152968D01629CA
:1010500067D017297ED018297DD0FF297CD0268023
:10106000A770E7700420BDE8FE8F6560FFF736FDCE
:1010700005465046FFF732FD80464846FFF72EFDF5
:101080000246E8B241460AF09DF8FCE06560A560C2
:10109000FFF724FDC0B20AF035F8D3E06560FFF732
:1010A0001DFDC0B20AF0F8F8EDE06560FFF716FD2F
:1010B00007465046FFF712FD0246F8B249460AF0CD
:1010C0008BF8C7E06560FFF709FD05465046FFF75E
:1010D00005FDC1B2E8B209F09FFFD4E06560FFF7FB
:1010E000FDFC05465046FFF7F9FC82464846FFF7EF
:1010F000F5FC80465846FFF7F1FC0346E8B242464D
:10110000514609F0FAFCBEE00CE02CE032E03DE094
:101110004DE056E062E065E06EE071E07DE083E086
:101120008CE093E06560FFF7D9FC02905046FFF732
:10113000D5FC82464846FFF7D1FC01905846FFF7A0
:10114000CDFC054608F11800FFF7C8FC0090029896
:10115000C0B202E083E08CE093E02B465146019A56
:1011600009F008FD8FE06560FFF7B8FC01A909F000
:1011700005FF22E06560FFF7B1FC05465046FFF72A
:10118000ADFC0146E8B209F089FC7CE06560FFF740
:10119000A5FC05465046FFF7A1FC80464846FFF7F0
:1011A0009DFC0246E8B2414609F08BFC6BE06560AD
:1011B000FFF794FC01A909F019FC2680A0700199A1
:1011C00055E06560FFF78AFC05465046FFF786FC50
:1011D000019001A9284609F0FDFCEEE7656007F0E3
:1011E00075FC02E0656007F011FD2680B0B384F85D
:1011F0000280E770012036E765600AF033F829E0E5
:101200006560FFF76BFC07465046FFF767FC81B24D
:101210000190B8B209F06EFF1CE06560FFF75EFC5C
:1012200080B209F05DFF15E02821201DFFF784F84A
:1012300009F054FD2680A070302118E0FFF74EFC25
:1012400009F0EAFC2680A070082110E0FFF746FCB8
:1012500009F010FF2680A070E57004E70DE0FFF7AD
:101260003DFCC0B209F00EFD2680A0700221E170A5
:10127000F9E6656007F01AFCB7E7A570E770002093
:10128000F1E609F0BDFC2680A070E770EBE60000F7
:10129000BC870120B0860120A5A55A5A2DE9F04748
:1012A00022480026224C807918274FF0010838B1D7
:1012B000012818D027800320A070E670BDE8F087D1
:1012C000002541F2523900BF09EB850004EB4502CD
:1012D00081B20223A020121D07F0F4FA6D1C402DEC
:1012E000F2D388B91CE0002541F2524909EB850090
:1012F00004EB450281B20223A020121D07F0E2FA9E
:101300006D1C202DF2D328B1278084F80280E6706E
:101310000120D3E70648FF2240214430FFF705F8BB
:101320002780A6708020E0700020C7E7B6870120E4
:10133000B08601202DE9F0472548264CFF2680790C
:10134000112720714FF000084FF0010A022580B1EB
:101350004FF00309012823D01FA1294808F016FBEC
:101360002748FEF7F4FF02462549012007F0FAFF5F
:1013700024E02449C97919B166711020208009E060
:1013800001F0BEFE811C03D000280FDB40281DDBCE
:101390006671278084F80280E5700020BDE8F08740
:1013A00001F0AEFE811C08D000280DDA667127809E
:1013B00084F802A0E5700120F0E76671278084F8C8
:1013C0000290E5700320E9E72028F6DA6071E0E793
:1013D000B6870120B0860120537769746368206363
:1013E0006F6D6D616E6420706172616D65746572A0
:1013F00020697320696E76616C69640A00000000E0
:10140000F188012000FC0220F0B5234C06202DEDD0
:10141000068B81B0251D694606F086FD9FED1FAB4A
:101420009FED209B0026172720B127800120A07068
:10143000E6702CE0BDF80000FFF778FBB0EE408AC4
:10144000F0EE608A9FED190B51EC180B53EC102B4A
:10145000FFF7C2F953EC1A2B51EC180B06D8FFF723
:101460006CF853EC192BFEF7C1FF05E0FFF765F8A8
:1014700053EC192BFFF75BF8FFF75EF900B280B26F
:101480000CF01CFA28802780A6700220E07001B0C2
:101490000020BDEC068BF0BDB086012000000000EE
:1014A00000002440000000000000E03F00000000B9
:1014B0000000000000B587B000226946114804F022
:1014C000FDF9002205A90F4804F0D6F90E489DF851
:1014D000171001719DF8151041719DF8161081715A
:1014E0009DF80010C1719DF8011001729DF8021065
:1014F000417286210180002181700621C17007B0F0
:10150000002000BD848E0120B0860120084A0748D3
:1015100003215368436012681268826001800021D1
:1015200081700821C170002070470000B086012042
:10153000008001202DE9F05F67488779C579083080
:10154000FFF7CCFA654C06464FF0030B4FF000094D
:101550004FF08B0AC82D72D8002D70D060484FF024
:101560000108007850B15FA1694808F00FFA684897
:10157000FEF7EDFE02466649012029E027716571FC
:10158000A11D3046FFF79FFA022F6FD853490A3149
:101590002FB16048012F26D0022F53D094E072194A
:1015A000B2F5AE6F62D806F58056B0B20A46014673
:1015B0002B46A02007F086F9002870D056A1544889
:1015C00008F0E4F95248FEF7C2FE024650490020F6
:1015D00007F0C8FEA4F800A084F8028084F8039005
:1015E0000120BDE8F09FC7688068504A3B1A8742D7
:1015F00009D2DFF83CC1D2F80080DCF800C0A8EBCB
:101600000C0C63445B1C06EB050C9C452ED88742F2
:1016100036D8176883197F1CBB4201D9444B37E089
:101620006044B8423FD91068C61A761C1846324644
:1016300005F002FDAA1BA81A01193D4840E015E07B
:101640002A463FE0836940693A4A1F1A834209D219
:10165000DFF8E4C0D2F80080DCF800C0A8EB0C0C86
:1016600067447F1C06EB050CBC4507D9A4F800A015
:1016700084F802B084F803900320B2E7834201D9D2
:101680003044DDE7176883197F1CBB4208D92A4B19
:101690001268101A1B68301A401E1844D0E713E075
:1016A0006044B84201D81846CAE71068C61A761CCA
:1016B0001846324605F0C0FCAA1BA81A01191E489C
:1016C0000A31006805F0B8FCA4F800A0AD1D84F84C
:1016D0000290E570002084E7B6870120B0860120E3
:1016E000A585012052656164696E67206C6F672073
:1016F000636F6E74656E74207768656E20666C61CA
:10170000736820696E207573696E670A00000000B7
:10171000F18801200C8D01205265616420454550FF
:10172000524F4D206661696C65640A001CF200200E
:10173000F4F1002024F2002010F2002010B5194826
:10174000194C80792071022802D9611D00201FE008
:1017500028B11649012805D002280CD01AE04FF410
:10176000AE6014E0CA688968501A8A420FD21049E4
:10177000104A096807E08A694969501A8A4206D204
:101780000D490E4A09681268511A0844401C611D2F
:10179000FFF799F98A2020800020A0700520E070D2
:1017A000002010BDB6870120B08601200C8D0120DD
:1017B000F4F100201CF2002010F2002024F200209E
:1017C0000548817A0548017121210180002181703D
:1017D0000121C1700020704700FC0220B08601206A
:1017E000FEB51C480025202680791B4C012804D01A
:1017F00026800320A070E570FEBD18480127417ABD
:1018000019B1C17A19B116A104E01CA102E0C07996
:1018100080B11FA1244808F0B9F82348FEF797FDCE
:1018200002462149012007F09DFD2680A770E57042
:101830000120FEBD09208DF800001C4800231A4637
:10184000694600680BF0A4F92680A570E5700020B9
:10185000FEBD0000B6870120B086012000FC0220FA
:101860004D6F64756C6520696E206D6F64756C6179
:1018700074696F6E206D6F64650A00004C617A6553
:1018800072206973206E6F742072656164790A003A
:1018900054582053776974636820697320626C6FB1
:1018A000636B65640A000000F1880120E485012073
:1018B0002DE9F04719484FF000074FF08708C1782D
:1018C0004FF00309091F11F0FF06A0F5837411D032
:1018D000132E0FD80025824616E000BF0AEB050044
:1018E00005EB8501214482790A718079491D01F057
:1018F0000BFE38B1A4F8008084F80290E770032052
:10190000BDE8F0876D1CEDB2B542E7D3A4F80080C6
:10191000A77006EB8600E0700020F1E7B687012093
:1019200070B5224CA0880BF0C9FF0546E378002073
:101930001F490646A4F5837431F83020AA4220D10D
:1019400001EBC0014868F8B14988A1F57F42FF3A30
:1019500014D0C9B2994211D02A4616A11D4808F0E8
:1019600015F81C48FEF7F3FC02461A49012007F05F
:10197000F9FC25800320A070E67070BDBDE87040C2
:101980000047401C2228D7D32A4613A1114807F04C
:10199000FDFF1048FEF7DBFC02460E49012007F070
:1019A000E1FC25800420A070E67070BDB6870120A0
:1019B0000C800120436F6D6D616E642025235820DB
:1019C0004C656E6774682025235820696E76616CBB
:1019D00069640A00F1880120556E6B6E6F77206391
:1019E0006F6D6D616E64206964203D202523580A67
:1019F0000000000010B50748074CC068211DFFF724
:101A000062F8222020800020A0700420E0700020D6
:101A100010BD000000FC0220B08601202DE9F84F27
:101A20002848294902688A4208D1027932B14379AB
:101A30009A4205D89A1A521CD5B202E0002500E05D
:101A40000A25224F01248A46814600BF07EBC406BF
:101A5000311F2046FFF737F8D9F800204FF0000873
:101A6000524519D1C5B199F80410601E0844C0B29E
:101A70000A2800D90A38C0B241F26C5101EB80014A
:101A800004236A46A02006F01DFFA8B105211048D6
:101A900007F05AF96D1EEDB231464046FFF713F8D4
:101AA000641C0A2CD2D9282038800020B87050201D
:101AB000F8700020BDE8F88F6846FFF70FF8804601
:101AC000E8E70000A88501205A5AA5A5B0860120A4
:101AD00010FC022010B5074C0823221D1021A02065
:101AE00006F0F0FE062020800020A0700820E070A4
:101AF000002010BDB08601200548C17A054801715B
:101B000026210180002181700121C17000207047D1
:101B100000FC0220B086012010B5074C1023221DC6
:101B20002021A02006F0CEFE072020800020A070FB
:101B30001020E070002010BDB086012010B5074CC9
:101B40000923221D0021A02006F0BCFE02202080D7
:101B50000020A0700920E070002010BDB086012098
:101B60000548017805480171272101800021817015
:101B70000121C17000207047C8850120B086012076
:101B800010B50A480A4C80792071611D01F0F2FFFE
:101B900000218922228018B10320A070E17010BDBD
:101BA000A1700920E070002010BD0000B687012060
:101BB000B086012070B5164D2DED028B95ED100B02
:101BC0009FED148B51EC100B53EC182BFEF7B5FC6A
:101BD000FEF7B2FD114C80B2211DFEF770FF95EDAE
:101BE0000E0B53EC182B51EC100BFEF7A6FCFEF776
:101BF000A3FD80B2A11DFEF762FF1B202080002004
:101C0000A0700420E0700020BDEC028B70BD0000CD
:101C100000FC02200000000000005940B0860120B6
:101C200070B51E482DED028B9FED1A8B90ED000BC9
:101C300053EC182B51EC100BFEF77FFCFEF77CFDEC
:101C4000174C80B2211DFEF73AFF0025A11D284642
:101C5000FEF735FF04F108012846FEF730FF114872
:101C600053EC182B90ED000B51EC100BFEF765FCBC
:101C7000FEF762FD80B204F10A01FEF720FF192091
:101C800020800020A0700820E0700020BDEC028BB6
:101C900070BD00000000000000005940B885012020
:101CA000B0860120C085012010B5074C1023221DED
:101CB0003021A02006F006FE082020800020A07021
:101CC0001020E070002010BDB08601202DE9F04703
:101CD000164D0A200024287141F2065841F202599B
:101CE00008EBC40005EB840681B2721D0223A0201C
:101CF00006F0E8FD074609EBC40081B2F21D02239D
:101D0000A02006F0DFFD3843641C0A2CE8D3002134
:101D10001C222A8020B10120A870E970BDE8F0875C
:101D2000A9702920E8700020F8E70000B0860120A3
:101D30002DE9FE4F29482B4A082590F90610DFF8B7
:101D4000A080D07A284C4FF0FF374FF025090026AD
:101D500041B1012915D0A4F800900320A070E670CD
:101D6000BDE8FE8F924690B3FFF7DEF800211F48D2
:101D700004F07FFB08211D4804F07BFB8AF80B6010
:101D80000EE0924618BBFFF7CFF80021174804F089
:101D900045FB0821154804F041FB01218AF80B108E
:101DA00008200BF0A3FCCDE9010501468DF8005099
:101DB0003846FEF788FE01993846091DFEF783FE76
:101DC00000231A466946D8F800000AF0E1FEA4F89C
:101DD0000090A670E6700020C2E70000B6870120E0
:101DE000E485012000FC0220B0860120B49001208F
:101DF0002DE9F05F4B4C002504F583706560877911
:101E0000C6794FF0010A4FF003094FF010081FB1D7
:101E1000012F0DD044A113E04FF480514C4802F043
:101E200021FD18B13F2E2BD94AA109E054A11BE096
:101E30000821604802F016FDA8B11F2E20D95EA12E
:101E4000684807F0A3FD6748FEF781FA0246654936
:101E5000012007F087FAA4F8008084F80290E5706A
:101E60000320BDE8F09F60A15E4807F08FFD5D484C
:101E7000FEF76DFA02465B49012007F073FA3FE076
:101E8000DFF8989199F8070000B197B13846FFF74D
:101E900077F83146384606F07DFFDFF880B1010063
:101EA0000BF10C0B0FD0FF202FB189F806005CA1BD
:101EB00015E062A1D8E789F80500F8E71121584636
:101EC00006F042FF1CE017B389F80660384601F0BF
:101ED00017F9B04238461DD006F00CFE5CA141480F
:101EE00007F054FD3F48FEF732FA02463D49002014
:101EF00007F038FA1121584605F056F80028DDD0D1
:101F0000A4F8008084F802A0E5700120A9E789F810
:101F10000560DBE706F0DEFFA4F80080A570E57041
:101F200000209EE7B08601205377697463682063C0
:101F30006F6D6D616E6420706172616D6574657244
:101F400020697320696E76616C69640A0000000084
:101F5000001C024053776974636820327833322062
:101F6000636F6D6D616E6420706172616D65746523
:101F70007220697320696E76616C69640A000000E2
:101F8000537769746368203278333220636F6D6DE4
:101F9000616E6420636F6D6520627574207377696C
:101FA000746368206D6F64652069732077726F6E4B
:101FB000670A0000000402405377697463682031A7
:101FC00078333220636F6D6D616E64207061726171
:101FD0006D6574657220697320696E76616C6964E1
:101FE0000A000000F188012053776974636820318A
:101FF00078333220636F6D6D616E6420636F6D6541
:102000002062757420737769746368206D6F6465EE
:102010002069732077726F6E670A000000FC02204F
:1020200053657420737769746368206368616E6EAA
:10203000656C206661696C65640A00005377697499
:10204000636820697320626C6F636B65640A0A00C1
:1020500053657420737769746368206368616E6E7A
:10206000656C206661696C656420320A00000000BE
:102070002DE9F047114890F80690C01DFEF72EFD9F
:1020800080460E480B30FEF729FD02460327002547
:1020900088260B4C4046424504D30146484606F08C
:1020A0003BFF28B12680A770E5700320BDE8F087CC
:1020B0002680A570E5700020F8E70000B6870120B3
:1020C000B0860120F0B587B014216846FEF734F9D8
:1020D00001208DF814001D480025852681798DF892
:1020E0001710C1798DF81510027A8DF81620477AED
:1020F0008DF80070837A8DF8013090F80BC00320C2
:10210000134C8DF802C00C290AD849B11F2A07D8F0
:1021100032B1172F04D83B2B02D8BCF13B0F05D9A5
:102120002680A070E570032007B0F0BD002269464C
:10213000084803F0B5FC002205A9064803F04CFC52
:102140002680A570E5700020EEE70000B68701202C
:10215000B0860120848E0120F0B5454C2DED088B12
:1021600083B0E0880BF0AAFB00B2FEF7C7FA9FED40
:1021700041AB53EC1A2BFEF752FA41EC190B2089B4
:102180000BF09CFB00B2FEF7B9FA53EC1A2BFEF7EA
:1021900046FA41EC180B39480327002500781A2627
:1021A0009FED37BBA4F58374022807D22680012057
:1021B000A070E57003B0BDEC088BF0BD324890ED27
:1021C000000B51EC190B53EC102BFEF705FB17D34A
:1021D00053EC1B2B51EC190BFEF7E6FA10D353EC22
:1021E0001B2B51EC180BFEF7F7FA09D3274890ED9B
:1021F000000B51EC180B53EC102BFEF7D5FA04D260
:102200002680A770E5700320D4E7FEF78DFE082036
:102210000BF06CFA0190082002908DF8000053EC4E
:102220001A2B51EC190BFEF788F9FEF785FA019984
:10223000FEF749FC53EC1A2B51EC180BFEF77DF915
:10224000FEF77AFA0199091DFEF73DFC10480023BC
:102250001A46694600680AF09BFC0E4880ED109B08
:1022600080ED0E8B2680A570E5700020A2E70000AF
:10227000B68701200000000000005940B085012011
:102280000000000000000000B8850120C08501208A
:10229000E485012000FC022005490120002308718B
:1022A0001A461946842007F065FA07F093FB0000F0
:1022B00000FC0220F8B5354C05209FED350B207150
:1022C000684608F0A5FA012700251D26E8BB611D18
:1022D0004FF62420FEF7F3FBE11DBDF80000FEF7EA
:1022E000EEFB9FED2D0B684608F092FA68BB04F1F7
:1022F00009014FF61840FEF7E2FB04F10B01BDF8AF
:102300000000FEF7DCFB9FED260B684608F080FA24
:10231000D8B904F10D014FF60C60FEF7D0FB04F1C3
:102320000F01BDF80000FEF7CAFB9FED1F0B6846CA
:1023300008F06EFA48B904F111010020FEF7BFFB66
:1023400004F11301BDF8000000E007E0FEF7B7FB61
:102350009FED170B684608F05BFA20B12680A77046
:10236000E5700120F8BD09494FF4FA701531FEF708
:10237000A6FB0649BDF800001731FEF7A0FB26803A
:10238000A5701520E0700020F8BD0000B086012087
:102390000000000000002EC000000000000024C06B
:1023A00000000000000014C0000000000000000059
:1023B00000000000000014402DE9F05F884CA51DCE
:1023C000E0880BF07BFAE1784FF0000BAD1C07467C
:1023D0004FF08108A4F583744FF0010AD94686298D
:1023E00001D080A104E087480078012813D086A19D
:1023F000914807F0CBFA9048FDF7A9FF02468E49B5
:10240000012006F0AFFF00BFA4F8008084F802A00E
:1024100084F80390C9E0012F0FD0022F4AD07948E9
:102420000369591CB94202D1017B03297CD0BB420C
:102430004ED1017B022977D04AE07249082224312B
:1024400005F12000FDF78AFF30B903227B4905F131
:102450004000FDF783FF08B179A1C9E769488749C2
:102460000026C0F8209007614979002962D1844A8A
:10247000117899B1407800285FD182A16E4807F0A9
:1024800085FA6D48FDF763FF02466B49012006F0AF
:1024900069FF4FF416700AF097FAB5E782F800A0CA
:1024A00080F801A0814A4168914246D0806800F0DE
:1024B0009FFC3FE0534E3369012B02D0022B04D026
:1024C00006E0307B032809D002E0307B022805D0EB
:1024D0003A4677A1584807F059FA8CE7286C00BAB9
:1024E00020F0FF0295F843000243B261686C95F852
:1024F000471000BA20F0FF0008437061B2F5C03FFA
:102500000FD973A14C4807F041FA4B48FDF71FFF64
:1025100002464949012006F025FF0220307373E787
:1025200002E03761002605E08026076102E06420B2
:102530000AF04AFA5248007820B159460BF1010BD3
:102540000629F4D358464FF0030B06281BD3012F5E
:1025500015D067A1384807F019FA3748FDF7F7FE9C
:1025600002463549012006F0FDFE26490220087387
:10257000A4F8008084F802A00820E07015E021484B
:1025800080F80CB023E03D48417989B1E6B14F466F
:1025900080F8059007F0CEF958B11A490220087367
:1025A000A4F8008084F802A0E7700120BDE8F09F45
:1025B00056B1144FB208396A78680844294600F0C9
:1025C0003BFC386A304438620E4981F80CB0A4F8FC
:1025D000008084F8029084F803900020E6E7000071
:1025E000B68701205570677261646520646174610B
:1025F000206C656E67746820696E76616C69640A28
:1026000000000000BC88012043616E6E6F7420657D
:10261000786375746520636F6D6D616E64206265AB
:102620006361757365206F662077726F6E67206DCA
:102630006F64650A00000000F18801200480012019
:102640005468652066696C65206973206E6F74201C
:10265000746865206669726D7761726520636F7258
:10266000726573706F6E64696E6720746F20746832
:102670006973206D6F64756C650A0000F48C01202D
:10268000A5850120466C61736820696E20757369A9
:102690006E6720666F72206F746865722066756E53
:1026A0006374696F6E732E2E2E0A000000000808F6
:1026B00053657120696E76616C6964203A202575D6
:1026C000097072655F736571203A2025750A0000F4
:1026D00046696C652073697A652825235829206529
:1026E000786365656473206C696D69740A00000025
:1026F00057616974696E6720666C617368207469DC
:102700006D656F75740A000007490120802208700A
:102710000020CA61087308610862A1F503710A808C
:102720008870C87070470000BC8801202DE9F04116
:10273000364C012604F50370832701780025012912
:1027400011D033A13E4807F021F93D48FDF7FFFDC8
:1027500002463B49012006F005FE2780A670E57081
:102760000420BDE8F081026A81698A4202D20B46E8
:1027700034A10EE00269032A01D242A122E0804680
:102780004068FEF7B3F9D8F814300246934204D0FB
:1027900040A12B4807F0FAF817E04748DFF81CC1C2
:1027A0004571D8F80420624501D1012200E00222DF
:1027B0000271D8F81810C0E902133F4807F0BAF8C0
:1027C00080B13FA11E4807F0E1F81D48FDF7BFFDAD
:1027D00002461B49012006F0C5FD2780A670E57062
:1027E0000120BEE740A1164807F0D0F81448FDF7D5
:1027F000AEFD02461249012006F0B4FD00231A4640
:102800001946832006F0B6FF07F0E4F8B0860120F1
:1028100043616E6E6F742065786375746520636FB5
:102820006D6D616E642062656361757365206F66AE
:102830002077726F6E67206D6F64650A000000007C
:10284000F188012054686520726563656976656466
:10285000206C656E677468202575206973206C652F
:102860007373207468616E20746865206C656E6790
:10287000746820696E206865616465722025752E14
:102880000A0000004E6F2076616C696420646174F8
:10289000612E0A0043524320766572696669656459
:1028A000206661696C65642E2025235820213D2017
:1028B0002523580A00000000F48C012000000408C1
:1028C000557064617465207570677261646520730A
:1028D000746174757320746F20656570726F6D20FC
:1028E0006661696C65640A00557067726164652091
:1028F0006669726D77617265207375636365737362
:102900000A00000030B56D4C04202DED0A8B81B01B
:102910006946207205F008FB002508B1ADF80050AB
:10292000BDF80000FDF7FBFE9FED658B53EC182B07
:10293000FDF703FE9FED649B53EC192BFDF7FDFDA6
:102940009FED63CB53EC1C2BFDF7F7FD9FED62ABC6
:1029500053EC1A2BFDF7F1FD9FED61BB53EC1B2BE4
:10296000FDF744FDFDF707FFADF80000611D3220C3
:10297000FEF7A5F8E11DBDF80000FEF7A0F86946D6
:10298000022005F0D1FA08B1ADF80050BDF8000002
:10299000FDF7C5FE53EC182BFDF7CFFD53EC192BBB
:1029A000FDF7CBFD9FED501B53EC112BFDF7C5FD43
:1029B00053EC1A2BFDF7C1FD53EC1B2BFDF716FD55
:1029C000FDF7D9FE3D49ADF8000009312120FEF7A1
:1029D00076F83A49BDF800000B31FEF770F8694609
:1029E000032005F0A1FA08B1ADF80050BDF80000D1
:1029F000FDF795FE53EC182BFDF79FFD53EC192BBB
:102A0000FDF79BFD53EC1C2BFDF797FD53EC1A2BA8
:102A1000FDF793FD53EC1B2BFDF7E8FCFDF7ABFE38
:102A20002649ADF800000D312C20FEF748F8234967
:102A3000BDF800000F31FEF742F86946052005F0A9
:102A400073FA08B1ADF80050BDF80000FDF767FE5D
:102A500053EC182BFDF771FD53EC192BFDF76DFDB1
:102A60009FED231B53EC112BFDF767FD53EC1A2B45
:102A7000FDF763FD53EC1B2BFDF7B8FCFDF77BFE68
:102A80000E49ADF80000113140F26220FEF717F850
:102A90000A49BDF800001331FEF711F80748FF227C
:102AA00008211530FDF741FC1F202080A57019205A
:102AB000E07001B00020BDEC0A8B30BDB086012073
:102AC000000000000000303F000000000000044053
:102AD000000000000000084000000000000024404A
:102AE000000000000000E03F000000000000004087
:102AF000000000000080494038B5010A8DF8001040
:102B00001C4C8DF8010000221021204601F0AFFE80
:102B1000012302226946184803F06CF9002823D0EB
:102B20001548426D15A11F4806F030FF1D48FDF7FE
:102B30000EFC02461B49002006F014FC1A480D2129
:102B4000054604F031FA78B918A1164806F01EFFC0
:102B50001448FDF7FCFB02461249002006F002FC77
:102B60000D21284606F0F0F801221021204601F040
:102B70007EFE38BD00000240A48E012057726974A9
:102B8000652044414335353431206661696C6564A4
:102B90002C204572726F72436F6465203D2025239F
:102BA000580A0000F18801200CFC02204441433502
:102BB0003534312061626E6F726D616C0A00000005
:102BC000014801F059BA00007491012001681823EE
:102BD000CAB2103AB2FBF3F2054B6FF30901032AB4
:102BE0009B5CC36500D9091D8165084670470000DC
:102BF0005CF3002010B5014600208B698A6A4FF013
:102C0000C07453B1B3F5005F15D072B1012A0CD076
:102C1000022A0AD0032A09D104E01AB1012A06D0F7
:102C2000022A03D1C96AC90100D5012010BDC96AB1
:102C3000A142FAD010BD002AF7D0012AF2D0022A10
:102C4000F3D0032AF3D010BD30B50468256825F40D
:102C500080252560046863608368402B036803D087
:102C600099600068C26030BD9A600068C16030BD84
:102C70007047000010B500221146022005F0D6FC76
:102C8000044600221146012005F0D0FC204304D068
:102C90000521024806F058F8012010BD10FC022062
:102CA000012001F0E9BC4FF4005001F0E5BC022026
:102CB00001F0E2BC2DE9F041002440F6FF75224608
:102CC0002946012005F0B2FCD0B10120BDE8F08119
:102CD0000A2009F079FE641C642C14D911A115484E
:102CE00006F054FE1348FDF732FB0246114900205E
:102CF00006F038FB0621104806F026F80220E5E72A
:102D00000E4F4FF480663146384601F0ABFD002887
:102D1000DED000222946022005F088FC0028D5D00C
:102D20000320D3E7544D504744206572726F720AF6
:102D300000000000F188012010FC02200014024075
:102D400070470000002229B101291DD002291ED0A0
:102D50004FF440720B2800D9001D0E490B6823F474
:102D600040730B600B6813430B600A6822F0F80293
:102D70000A600A68022303EBC00002430A60086885
:102D800040F48030086070474FF48072E2E74FF4FF
:102D90000072DFE7103C02401348016889050FD537
:102DA000016821F400710160016841F40061016073
:102DB000016821F400610160016841F40071016063
:102DC000016849050FD5016821F48061016001683F
:102DD00041F480510160016821F480510160016873
:102DE00041F4806101607047003C024001F014BB77
:102DF00010B586B0044618280ED201F0BDFB0120A4
:102E0000CDE9010403900020009002200490684660
:102E100001F0A4FA002800D0012006B010BD000087
:102E200010B501F0A9FB034991200860BDE81040EE
:102E300001F058BB0C3C02402DE9F0470026174634
:102E400089460546344601F097FBDFF83C8012E0E6
:102E500059F8242000232946022001F04FFB08B135
:102E600003260CE059F824002968814201D002268B
:102E700005E0641C2D1DBC4201D24545E8D901F096
:102E800031FB3046BDE8F087F8FF0F080E4A1368A3
:102E900023F44073136003290DD0012911680FD06A
:102EA00041F40041116011684FF4803343EA00207F
:102EB000014311607047116848F204031943F1E7B8
:102EC00041F00401EEE70000103C0240064A13689E
:102ED00023F44073136013681360136843F0010315
:102EE0001360017070470000103C0240094910B5A2
:102EF0000C6824F440740C600C6844F440740C605A
:102F00000C6844F001040C600260BFF36F8F4360F3
:102F100010BD0000103C0240074A136823F44073C0
:102F20001360136843F480731360136843F0010364
:102F30001360018070470000103C0240074A13688C
:102F400023F440731360136843F400731360136831
:102F500043F001031360016070470000103C024021
:102F60001C490868C2061C4805D5C26942F0100217
:102F7000C26110220A600A68920605D5C26942F051
:102F80000802C26120220A600A68520605D5C26999
:102F900042F00402C26140220A600A68120605D5A6
:102FA000C26942F00202C26180220A600A68D20548
:102FB00006D5C26942F00102C2614FF480720A6014
:102FC0000A68920705D5C26942F02002C261022058
:102FD000086070470C3C02401492012070B5114902
:102FE00004460020C86101F047FC06460E4D09E08A
:102FF000601C07D024B101F03FFC801BA04201D926
:10300000032070BD2868C003F2D42868C00701D02F
:1030100001202860286810F4F970F2D0FFF7A0FFB3
:10302000012070BD149201200C3C02402DE9F047B4
:1030300088B007003048109E1D469246894606D04B
:10304000012F07D04FF0FF3008B0BDE8F08744797A
:10305000012001E0847905200DF1040804AB03AAE6
:1030600002A9CDF8008000F061FC10B16FF0010002
:10307000EAE7BDF80C00BDF8081000B200FA81F0D4
:10308000A9F80000BDF80400BDF8101000B200FA65
:1030900081F0AAF80000FF2C08D02146384600F045
:1030A000C5F9002805DA6FF00200CDE7002028807E
:1030B0001FE0124900EB800001EB400004AB807977
:1030C00003AA02A9CDF8008000F030FC10B16FF027
:1030D0000300B9E7BDF80C00BDF8081000B200FA13
:1030E00081F02880BDF80400BDF8101000B200FA8D
:1030F00081F030800020A7E700FC0220208501201D
:103100002DE9F04F2DED028B8BB0DFF830820600F9
:1031100008D0012E09D04FF0FF300BB0BDEC028B70
:10312000BDE8F08F98F8055001E098F806506FF070
:103130000109FF2D30D02946304600F077F90028EC
:103140000EDA2B4632467EA1874806F01FFC8648E1
:10315000FDF7FDF802468449002006F003F91BE064
:10316000824900EB800201EB420494F803B01EB1E7
:10317000A1886FF0170205E0202D0FD3402D0DD050
:10318000A188182202EBC000084487B204AA39467D
:10319000A02008F093F828B14846BEE7A18801EBCB
:1031A000C000F2E73F1DB9B203AAA02008F086F8DC
:1031B00010B16FF00200B0E70DF1140A08AB07AAD6
:1031C00006A95846CDF800A000F0B0FB10B16FF092
:1031D0000300A2E70498002802DBBDF8181001E004
:1031E000BDF81C1089460399002902DBBDF8207048
:1031F00001E0BDF8147009F0CFFB9FED5D8B014637
:103200004846B0EE480AF0EE680A03F0D5FE88B1F1
:10321000039809F0C1FB0146B0EE480AF0EE680AD7
:10322000384603F0C9FE28B1A7790820B6B1202D91
:103230001FD215E003984A46CDE900704EA14A48D6
:10324000049B06F0A3FB4848FDF781F80246464977
:10325000002006F087F86FF004005EE7402D08D2EA
:10326000627805F01F01891A00EBC100218908442A
:1032700001E02089503084B204AA2146A02008F041
:103280001DF810B16FF0050047E7241DA1B203AA95
:10329000A02008F013F810B16FF006003DE708AB6E
:1032A00007AA06A93846CDF800A000F03FFB10B1F0
:1032B0006FF0070031E70498002802DBBDF81850D2
:1032C00001E0BDF81C500399002902DBBDF8204045
:1032D00001E0BDF8144009F05FFB0146B0EE480A7A
:1032E000F0EE680A284603F067FE78B1039809F00B
:1032F00053FB0146B0EE480AF0EE680A204603F0A0
:103300005BFE18B1B6B198F9060006E703982A46A5
:10331000CDE9004025A11448049B06F037FB124874
:10332000FDF715F802461049002006F01BF86FF073
:103330000800F2E698F90500EFE6000000FC022024
:10334000496E76616C696420737769746368206381
:1033500068616E6E656C206E756D626572203A20D4
:1033600025752025750A0000F1880120208501209F
:103370009A9999999999A93F4669727374206C65D5
:1033800076656C207377697463682044412F4144EB
:1033900020646966666572656E743A2025752C2016
:1033A00025642C2025752C2025640A005365636F45
:1033B0006E64206C6576656C207377697463682031
:1033C00044412F414420646966666572656E743AB3
:1033D0002025752C2025642C2025752C2025640A99
:1033E000000000007CB5044606236A464FF44151B4
:1033F000A02005F067FA05000DD16846FDF76EFBC9
:1034000009492060884207D0002021602071607146
:10341000204606F00BFA7CBD9DF8040020719DF853
:103420000500607128467CBD5A5AA5A570B50300F9
:1034300001F01F0203D0202905D2521C06E04029CA
:10344000FBD3212202E02129FBD3FF220D490020DA
:103450000C68091D0FE000BF00EB800511F8156036
:103460009E4207D101EB45056E78964202D8AD78B1
:10347000954202D2401CA042EED3A04201D34FF0AD
:10348000FF3070BD1C85012030B589B00446202373
:103490006A4643F22001A02005F014FA050019D174
:1034A0006846FDF71BFB206007A8FDF717FB1349D3
:1034B0006060884210D01248216061600168E1605C
:1034C0000068A0600F480168A16100686061204643
:1034D00006F002FA09B030BD01A8FDF7FFFAE0607E
:1034E00002A8FDF7FBFAA06003A8FDF7F7FAA061B8
:1034F00004A8FDF7F3FA60612846EBE75A5AA5A540
:10350000F4F1002010F200202DE9F04FD54C0D46CB
:103510002DED0E8B8DB04FF0004A04F1100B9FED96
:10352000D2AB9FEDD38B9FEDD4BB9FEDD5CB9FED61
:10353000D6DB9FEDD7EB94F808C0E77905AB41F2F5
:10354000523941F252469FEDD49B6279A1791328FA
:103550007BD2DFE800F07C0A19487C7F8994989C34
:10356000B7C3D4F3FDF0EFEEED0001A9002004F0A5
:103570006BFE9FEDCB9B002868D1BDF80400FDF7E2
:1035800019FC45E129466CE001A9022004F05CFE2B
:103590000028F1D1BDF80400FDF7C1F853EC1B2B56
:1035A000FCF7CBFF53EC1C2BFCF7C7FF41EC100BD7
:1035B00053EC1D2B8DED020BFCF7B9FF9FEDBA1BF1
:1035C00053EC112BFDF72BF82DE000BF51EC100B45
:1035D000FCF70CFF04E000BF51EC100BFCF7A7FF59
:1035E000FDF7AAF8CEE701A9012004F02DFE00287E
:1035F000C2D1BDF80400FDF792F853EC1B2BFCF789
:103600009CFF53EC1C2BFCF798FF41EC100B53EC88
:103610001D2B8DED020BFCF78AFF9FEDA51B53ECD4
:10362000112BFCF78AFF53EC1E2BFCF786FF41ECB5
:10363000100B53EC1A2B8DED020BFDF7CDF853EC6C
:10364000182B9DED020BC7D8C0E708E1A4E029467E
:10365000504606E0607A17E02946012001E029463D
:103660000020FDF730FA5DE0BCF1000FF7D04FF419
:103670008061914801F0F6F80128F0D1ECE7BCF147
:10368000000FECD0E8E7E07A0028E8D0E4E702A9F0
:1036900001A807F0CFFE01287ED0D8D819E000BFDE
:1036A00051EC100BFDF798F89DED020B53EC192B24
:1036B00051EC100B71D8FCF740FF41EC100B53ECB0
:1036C000182B83E702A901A807F002FE012863D0A6
:1036D000BDD853EC1A2B9DED020BE1E7009308AB2C
:1036E00007AA06A94FF000002DE000BFBDF81800A2
:1036F000294680B2FDF7E3F9BDF820000EE0009303
:1037000008AB07AA06A9002027E000BFBDF81C00EF
:10371000294680B2FDF7D3F9BDF81400A91C80B288
:10372000FDF7CDF900200DB0BDEC0E8BBDE8F08F9C
:1037300087E07EE043E015E00AE0FFE7009308AB96
:1037400007AA06A90120FFF771FC0028CED07EE76A
:10375000009308AB07AA06A90120FFF767FC002821
:10376000D4D074E7002FF2D1402AF0D202A901A8E8
:1037700007F060FE012850D0E9D861794FF00203CC
:1037800009EB810104AA4FF0A00005F09BF804A802
:10379000FDF7A1F900B201E03FE043E0FCF7AEFF26
:1037A00053EC192BFCF73BFF41EC100B53EC102BA7
:1037B0009DED020B51EC100BFCF7B9FE26E0202921
:1037C000C5D202A901A807F083FD012825D0BED8E3
:1037D000A0794FF0020306EB800104AA4FF0A0008D
:1037E00005F070F804A8FDF776F900B2FCF786FF43
:1037F00053EC192BFCF713FF41EC100B53EC102B7F
:103800009DED020B51EC100BFCF7F0FD41EC100BA1
:1038100053EC1A2B8DED020B42E70521584605F0BB
:1038200093FA14E7FCF789FE41EC100B53EC182BCC
:10383000D2E60FB9402A01D32048A3E609EB820162
:1038400003E020298DD206EB8101022304AAA020E7
:1038500005F038F804A8FDF73EF900B292E6012021
:1038600061E7000000FC02200000000000000000F2
:10387000000000000000E03F000000000000303FBA
:103880000000000000000440000000000000F43FC1
:103890000000000000408F40000000000000594080
:1038A00000000000000024403D0AD7A3703DD23F35
:1038B00000000000000010400014024090E8FFFFEC
:1038C00030B505462DED028B83B09FED168B00249D
:1038D000694602A807F0FCFC20B1012003B0BDEC52
:1038E000028B30BD9DED000B51EC180B53EC102BEF
:1038F000FCF77CFD41EC180B0F2009F065F8641C07
:10390000E4B20A2CE4D32046FCF709FF41EC100B8B
:1039100051EC180B53EC102BFCF781FEC5E90001AC
:103920000020DBE700000000000000002DE9F0416E
:103930009846069D16460B46092828D238B3154AE4
:10394000002100BF01EBC104145D844202D0491C78
:103950000829F7D301EBC10084181946607905F0F6
:103960009DF80746A079314605F098F840EA070629
:10397000E079414605F092F80643207A294605F0A1
:103980008DF8304301D06FF00100BDE8F0814FF0B9
:10399000FF30FAE75C85012070B5002438B12F4D67
:1039A0004021284600F05EFF012834D034E02C4D41
:1039B0004FF40061284600F055FF012800D1102483
:1039C0004FF48061284600F04DFF012801D144F0FA
:1039D00008044FF40071284600F044FF012801D18B
:1039E00044F004044FF48071284600F03BFF0128A6
:1039F00001D144F002048021284600F033FF012861
:103A000001D144F001044021284600F02BFF012899
:103A100022D1203420E010242021284600F022FF6B
:103A2000012801D144F008041021284600F01AFFB3
:103A3000012801D144F004040821284600F012FFB7
:103A4000012801D144F002040421284600F00AFFB5
:103A5000012801D144F00104204670BD000C024051
:103A6000001C024070B500242DED0A8B84B0064680
:103A700025469FED3CBB9FED3D9B694602A807F0A4
:103A8000D9FC20B1012004B0BDEC0A8B70BDECB3B1
:103A90000A2C5FD253EC1B2B51EC180BFCF7A6FC45
:103AA0009DED001B53EC112BFCF796FE49D8B0EEB0
:103AB0004B0AF0EE6B0A53EC102B51EC180BFCF791
:103AC00036FD9DED001B53EC112BFCF76DFE38D835
:103AD00053EC192B51EC1A0BFCF788FC9DED001BE5
:103AE00053EC112BFCF778FE2BD8B0EE49CAF0EE60
:103AF00069CA53EC1C2B51EC1A0BFCF718FD9DED19
:103B0000001B53EC112BFCF74FFE00E011E018D81E
:103B10009DED000B641CE4B253EC102B51EC180B20
:103B2000FCF764FC53EC1C2BFCF707FD41EC180B75
:103B30000AE09DED008B0124B0EE48AAF0EE68AAE1
:103B400002E000246D1CEDB2032D05D80F2008F013
:103B50003BFF92E7032D01D9022094E786ED008B0D
:103B6000002090E7333333333333D33F000000007A
:103B70000000E03F70B50D462DED088B01464FF07B
:103B80000040461E9FED5B9B9FED5CBB9FED5DABD8
:103B90009FED5E8B5F4C0B2970D2DFE801F006A22F
:103BA000A2A2A2475B7084A2A20094ED360B53EC54
:103BB0001B2B51EC100BFCF7F7FD94ED360B53EC7F
:103BC0001A2B51EC100B06D2FCF7B7FC53EC182B58
:103BD000FCF7ADFC05E0FCF7B0FC53EC182BFCF750
:103BE00005FCFCF7A9FD2946FCF76DFF94ED320BAF
:103BF00053EC1B2B51EC100BFCF7D6FD53EC1A2B9E
:103C000094ED320B64D251EC100BFCF796FC53ECA4
:103C1000182BFCF78CFC00BFFCF78EFD15F104019E
:103C2000FCF751FF0020BDEC088B70BD94ED260B16
:103C300053EC192B51EC100BFCF77FFC53EC182BB9
:103C4000FCF7D4FBFCF778FD2946FCF73CFF94ED2C
:103C5000220B3BE094ED160B53EC192B51EC100B9F
:103C6000FCF76BFC53EC182BFCF7C0FBFCF764FD76
:103C70002946FCF728FF94ED120B27E037E094ED7E
:103C80001E0B53EC192B51EC100BFCF756FC53ECAC
:103C9000182BFCF7ABFBFCF74FFD2946FCF713FF95
:103CA00094ED1A0B12E094ED2E0B53EC192B51EC02
:103CB000100BFCF742FC53EC182BFCF797FBFCF7BE
:103CC0003BFD2946FCF7FFFE94ED2A0B53EC192B24
:103CD00051EC100BFCF731FC53EC182BFCF786FB76
:103CE0009AE72946FCF7EFFE291D304698E70120A8
:103CF00099E70000000000000000594000000000AB
:103D0000000000000000000000002440000000004F
:103D10000000E03F00FC02209FED300B80ED000B27
:103D20009FED300B80ED020B9FED300B80ED040B0F
:103D30009FED300B80ED060B9FED300B80ED080BF7
:103D40009FED300B80ED0A0B9FED300B80ED0C0BDF
:103D50009FED300B80ED0E0B9FED300B80ED100BC7
:103D60009FED300B80ED120B9FED300B80ED140BAF
:103D70009FED300B80ED160B9FED300B80ED180B97
:103D80009FED300B80ED1A0B9FED300B80ED1C0B7F
:103D90009FED300B80ED1E0B9FED300B80ED200B67
:103DA0009FED300B80ED220B9FED300B80ED240B4F
:103DB0009FED300B80ED260B9FED300B9FED311BFF
:103DC0009FED322B9FED333B00F1A001C03081EC21
:103DD000080B80EC080B00207047000095438B6CAB
:103DE000E7FB0B40B81E85EB51B80B4037894160AB
:103DF000E5D0084014AE47E17A1409400F2DB29D7A
:103E0000EFA712407C14AE47E17A12402506819557
:103E1000438B1040B81E85EB51B810403433333318
:103E2000333315400000000000001540CCCCCCCC52
:103E3000CCCC12400000000000001340F6285C8F3C
:103E4000C2F55040CDCCCCCCCCCC504014AE47E1E8
:103E50007A144E406666666666664E4066666666BC
:103E60006676554000000000004055403333333340
:103E7000333324C000000000000024C00000000014
:103E80000090AF40000000000040AF400000000084
:103E90000090AFC0000000000040AFC0F0B5314E50
:103EA00000252DED028B8BB096F800C0B0EE408A55
:103EB000F0EE608A0746BCF1000F22D02A4CBCF11C
:103EC000010F1ED094ED020B51EC180B53EC102B8C
:103ED000FCF76AFC0BD3307804EB001010ED020BFA
:103EE00051EC180B53EC102BFCF776FC0CD2357808
:103EF000D4E90201D4E9002304EB051CACF1100C59
:103F00001AE065F30F0026E001250CE004EB051034
:103F100090ED020B51EC180B53EC102BFCF744FC0A
:103F200004D96D1CEDB230788542EFD304EB051C4B
:103F30005CE902015CE904239CE870108DE87310D1
:103F4000B0EE480AF0EE680A06A8FCF74FFE0DF145
:103F5000180E9EE80F0087E80F000BB0BDEC028B37
:103F6000F0BD0000B0850120308D012030B587B054
:103F7000044616236A464FF44051A02004F0A2FCE8
:103F800005001ED16846FCF7A9FD20609DF80400DD
:103F900020719DF8050060710DF10600FCF79EFD93
:103FA000A0600DF10A00FCF799FDE0600DF10E0034
:103FB000FCF794FD20610DF11200FCF78FFD6061AC
:103FC000284607B030BD2DE9F0410446876D00F06A
:103FD00053FC064694F835000025022806D08020C0
:103FE000606584F834500120BDE8F08120680168E4
:103FF00021F0160101602068416921F080014161D2
:10400000206C08B9A06C20B12068016821F008017B
:1040100001602068016821F0010101600BE000F0FF
:104020002BFC801B052806D92020606504F8345F2E
:1040300003206070D8E720680068C007EFD194F8CB
:104040005C103F208840B86004F8345F0120607045
:104050000020C9E790F83510022903D0802141657E
:1040600001207047052180F835100068016821F0B3
:1040700001010160002070472DE9F84304464FF02C
:104080000009CDF8009063484FF41651A56D006803
:10409000B0FBF1F72E6894F85C10082000FA01F1EB
:1040A00031420FD021680A6852070BD50A6822F006
:1040B00004020A6094F85C108840A860606D40F0CB
:1040C0000100606594F85C104FF0010808FA01F0F7
:1040D000304208D021684969090604D5A860606D9E
:1040E00040F00200606594F85C1004208840304283
:1040F00008D021680968890704D5A860606D40F080
:104100000400606594F85C1010208840304218D09C
:1041100021680968090714D5A86020680168490367
:1041200004D50068000308D5A16C07E00168C90543
:1041300003D4016821F008010160216C09B1204617
:10414000884794F85C1020208840304231D02168A4
:104150000968C9062DD5A86094F83500052820689F
:10416000016806D0490347D5006800031DD4616C7F
:104170001CE021F0160101602068416921F08001F6
:104180004161206C08B9A06C20B12068016821F061
:104190000801016094F85C103F208840A86084F812
:1041A000349084F83580216D1FE0E16B09B1204621
:1041B0008847606D00282BD0606DC00714D00520A3
:1041C00084F835002068016821F001010160009841
:1041D000401C0090B84203D820680068C007F6D1A0
:1041E00084F8349084F83580E16C002910D001B057
:1041F0002046BDE8F04308470168C905D5D40168E9
:1042000021F01001016084F8349084F83580CCE707
:10421000BDE8F883308601202DE9F041044600F026
:104220002BFB06465CB1002584F83450022084F84C
:1042300035002068016821F0010101600DE00120D6
:10424000BDE8F08100F018FB801B052805D920206F
:104250006065032084F83500F2E720680068C00735
:10426000F0D12268116820480140D4E901031843C5
:10427000D4E903363343184363691843A3691843E9
:10428000E3691843236A18430843616A042903D188
:10429000D4E90B1319430843106020684069666A2B
:1042A00020F0070130460E43012704280CD1A06AF4
:1042B0000643E06A40B12046FEF79CFC20B1402056
:1042C000606584F83570BAE7206846612046FEF7DD
:1042D0007DFC94F85C203F2191408160656584F805
:1042E00035700020ACE700003F8010F02DE9F04170
:1042F0000446866D90F83400002501280DD0012079
:1043000084F8340094F835700020012F07D084F829
:10431000340002252846BDE8F0810220FBE7022791
:1043200084F8357060652046FEF78EFC94F85C10CA
:104330003F208840B0602068016841F016010160AC
:10434000206C20B12068016841F0080101602068FC
:10435000016841F001010160DCE7000070B5174918
:1043600000240A7E012A1ED0154A01230B76156807
:1043700045F080751560156845F000751560104DA5
:10438000F3222D1F2A600268012A0ED00B70C2682A
:104390004A608268CA60027C0A72017C8068FEF70B
:1043A000D1FC204670BD022070BD02220A70426816
:1043B0000A614168007CFEF769FDF2E71492012072
:1043C000103C02400EB5401C15D100F08BF80D4991
:1043D000002048700C494A7872B10C4B01225A7186
:1043E000487002208DF80000094800231A466946EB
:1043F000006808F0CDFB0EBD0648006808F03EFDE1
:104400000EBD0000A4850120BC880120F48C012091
:10441000E0850120D88501202DE9F0412F4F386833
:104420002F4C10F4F97F4FF0FF384FF000050DD0FE
:10443000207801282ED0207802282FD0D4F81460BC
:10444000FEF78EFD304600F057F825703868C0073B
:104450000BD0012038602078012821D02078022854
:1044600038D06069FFF7AEFF2570207800280FD1A3
:104470001A48001D016848F2FF029143016001687B
:1044800021F080710160016821F0007101602576E2
:10449000BDE8F081E668C4F80C80D1E72669CFE773
:1044A0006068401E6060606850B1E068FFF78AFF96
:1044B000E068401CE060E068217AFEF743FCD4E746
:1044C0004646C4F80C802570FEF766FC3046FFF7C0
:1044D00079FFCAE7FEF760FC2069C3E70C3C0240A5
:1044E000149201200348016841F00041016000205E
:1044F00070470000103C0240704700002DE9F04773
:104500001B4E05461446307E1F468946012808D0BA
:10451000012030764CF250384046FEF75FFD18B16E
:1045200014E00220BDE8F0879DB1012D16D0022DC8
:1045300019D022463B464846FEF7D8FC4046FEF7D7
:104540004DFD0C490A6822F001020A600021317613
:10455000E8E7E1B24846FEF7B9FCEFE7A1B248460A
:10456000FEF7DAFCEAE721464846FEF7E7FCE5E716
:1045700014920120103C0240074900200A68002ADA
:1045800009DA054A054B0C3A1360054B13600968BC
:10459000002900DA01207047103C024023016745E2
:1045A000AB89EFCD3EB51F4CB0F5005F10D00228AF
:1045B00027D0012822D1BFF34F8F1B4801681B4A27
:1045C00001F4E06111430160BFF34F8F00BFFDE7CD
:1045D0004FF48051164800F045F901280ED01548D7
:1045E000C07960B114A1224805F0D0F92048FBF74A
:1045F000AEFE02461E49012004F0B4FE3EBD03207B
:1046000006E008211B4800F02DF90128F6D004200F
:104610008DF8000000231A466946206808F0B8FAB1
:104620003EBD0000E08501200CED00E00400FA052D
:10463000001C024000FC02204465746563746564DC
:104640002032783332207377697463682073747210
:104650006F6265207369676E616C20627574206992
:104660007420697320626C6F636B65640A000000DC
:10467000F188012000040240044910B50A68024292
:1046800002D00860FFF78EFF10BD0000143C01400F
:104690002DE9F84F00224FF0010803254FF00F0ECF
:1046A0000B6808FA02F42340A3426ED14E68012E33
:1046B00005D0022E03D0112E01D0122E12D1866801
:1046C0004FEA420C05FA0CF7BE43CF6807FA0CF725
:1046D000374387604668A6430C79C4F300149440BE
:1046E00034434460C668570005FA07FC8C6826EA24
:1046F0000C06BC403443C4604C68022C01D0122C20
:1047000013D1D40800EB8404A346D4F820905407B6
:104710004FEAD46A0EFA0AF629EA06090E6906FA81
:104720000AF646EA0906CBF8206004680E7924EA06
:104730000C0406F00306BE40264306604C68E40005
:104740006FD53B4C266846F480462660246822F0EC
:10475000030604F480440094364C3444A446D4F850
:1047600008489607360F0EFA06F7BC43324FB84298
:1047700001D100272EE0314FB84201D1012729E0B5
:104780002F4FB84202D1022724E04AE02D4FB84211
:1047900001D103271EE02C4FB84201D1042719E0B4
:1047A0002A4FB84201D1052714E0294FB84201D160
:1047B00006270FE0274FB84201D107270AE0264F0E
:1047C000B84201D1082705E0244FB84201D109279A
:1047D00000E00A27B7402743CCF80878204E346819
:1047E0004F689C43FF0300D51C4334601C4E361DAC
:1047F00034684F689C43BF0300D51C433460184E97
:10480000083634684F689C43FF0200D51C4334606F
:10481000134E0C3634684F689C43BF0200D51C43CE
:104820003460521C102AFFF43BAFBDE8F88F000043
:1048300044380240003001400000024000040240C1
:1048400000080240000C0240001002400014024028
:1048500000180240001C02400020024000240240D8
:10486000003C01400069084000D0012070470AB1B7
:10487000816170470904FBE70148806870470000C8
:104880002486012090F83D20202A01D00220704784
:10489000242280F83D200268136823F0010313608E
:1048A0000268536A23F0100353620268536A0B4391
:1048B000536201680A6842F001020A60202180F810
:1048C0003D100020704790F83D20202A01D00220A2
:1048D0007047242280F83D200268136823F001030A
:1048E000136003685A6A22F00F020A4391B25962B8
:1048F00001680A6842F001020A60202180F83D1038
:104900000020704770B5040025D094F83D000025C4
:1049100020B984F83C50204600F04CFA242084F85A
:104920003D002068016821F00101016020680168F4
:1049300041F4004101602068016821F400410160F8
:1049400000F09AFD4D4A6168914201D84C4900E05F
:104950004C49884201D2012070BD4B492368B0FB0D
:10496000F1F15E6826F03F060E435E606368934295
:1049700006D94FF4967359434FF47A73B1FBF3F1B0
:104980002368491C1E6A26F03F063143196261689C
:10499000914210D84900401EB0FBF1F2521CC2F304
:1049A0000B02042A01D2042022E0B0FBF1F0401CEB
:1049B000C0F30B001CE0A268F2B301EBC10303EBF0
:1049C0000116431EB3FBF6F35B1C43F480431B0547
:1049D00049D092B301EBC10202EB0111401EB0FBC2
:1049E000F1F0401CC0F30B0040F4804040F4004064
:1049F0002168CA694CF6FF739A431043C861D4E931
:104A0000071001432068026822F0C00211430160D0
:104A1000D4E9030101432068826848F2FF339A43D6
:104A200011438160D4E9050108432168CA6822F076
:104A3000FF021043C86001E00EE016E02068016844
:104A400041F0010101602564202084F83D002563C8
:104A500084F83E50002070BD01EB4106431EB3FBBD
:104A6000F6F35B1CB3E70120C2E701EB4101401EF6
:104A7000B0FBF1F0401CC0F30B00B7E7A0860100CB
:104A800080841E0000093D0040420F002DE9FF4FC9
:104A900083B09A46DDE9119793460446DDF84080DD
:104AA000FFF7EAFE054694F83D00202870D119234F
:104AB000012271492046009502F024F90028F5D121
:104AC00094F83C00012863D0012084F83C00206861
:104AD0000168C90703D1016841F001010160206844
:104AE000016821F400610160222084F83D0040202B
:104AF00084F83E0000262664C4F82480A4F82A9096
:104B0000608D20855D48E062CDE9007553465A46C8
:104B10002046049901F0FEFF00287CD1208DD0B101
:104B2000012821D00228206824D0416980690090A2
:104B3000208D032869D801282BD0514902283B46F3
:104B40004FF00002009559D08846204602F0DAF86E
:104B5000002860D13CE020684169816900910168CA
:104B600041F40071016077E02068016821F4806100
:104B70000160F0E7016821F480610160206801684C
:104B800041F400610160206841698069009063E040
:104B90006FE02A463946204602F033F998BB206878
:104BA0000069616A08704EE02068016841F4007194
:104BB000016020680069616A0870606A401C606278
:104BC000218D491E2185618D491E6185216838E04E
:104BD0002068016821F48061016020680069616AD1
:104BE0000870606A401C6062208D401E2085608DC8
:104BF000401E60853B46002241460095204602F05B
:104C000081F800B9D0E706E0FFE72A46394620469A
:104C100002F0F7F818B1012007B0BDE8F08F206866
:104C20000069616A0870606A401C6062218D491EDB
:104C30002185618D491E618521684A69D2435207E9
:104C40000AD409690170606A401C6062208D401EB0
:104C50002085608D401E6085208D00287FF468AF20
:104C6000202084F83D0084F83E6084F83C600020F9
:104C7000D2E70220D0E70000020010000000FFFF92
:104C8000040001002DE9FF4F83B09A46DDE911973A
:104C900093460446DDF84080FFF7EEFD054694F8A4
:104CA0003D0020287FD1192301224049204600954C
:104CB00002F028F8002876D194F83C00012872D040
:104CC000012084F83C0020680168C90703D101680D
:104CD00041F0010101602068016821F40061016078
:104CE000212084F83D00402084F83E000026266400
:104CF000C4F82480A4F82A90608D20852C48E062B6
:104D0000CDE9007553465A462046049901F080FFCC
:104D100070B930E02A463946204602F0A5F858B16D
:104D2000206C042804D12068016841F400710160FE
:104D3000012007B0BDE8F08F606A21680078086143
:104D4000606A401C6062218D491E89B22185628D96
:104D5000521E628522685369DB435B070BD469B13D
:104D600000781061606A401C6062208D401E2085C2
:104D7000608D401E6085208D0028CBD12A463946A3
:104D8000204601F099FF0028CAD154F83D0B016874
:104D900041F400710160202004F81E09E67766776F
:104DA0000020C6E7FFE70220C3E700000200100072
:104DB0000000FFFFF0B587B0044614216846FBF7FA
:104DC000BBFA2668214C204F2048122201230321E0
:104DD00004251034BE4219D1066846F0020606606A
:104DE0000068CDE9023100F002000590C020CDE955
:104DF0000002049569461648FFF74AFC206840F413
:104E000000102060206800F4001019E0114FBE422D
:104E100017D1066846F020060660006800F0200002
:104E200005908DE80E00CDE9031569460A48FFF7A5
:104E30002FFC206840F480002060206800F480008F
:104E4000059007B0F0BD000000540040303802402B
:104E500000040240005800400014024070B50400F5
:104E600011D021684CF6CC400860216845F25550BD
:104E70000860D4E9000141602168A0688860FFF7FC
:104E8000FBFC054609E0012070BD00BFFFF7F4FC04
:104E9000401B302801D9032070BD2068C06800285D
:104EA000F4D121684AF6AA200860002070BD00688D
:104EB0004AF6AA210160002070470000024881687C
:104EC0000278114481607047248601200B4810B598
:104ED000016841F400710160016841F48061016082
:104EE000016841F480710160032000F097F8002010
:104EF00000F006F800F03EF8002010BD003C024033
:104F000010B5014688B000221A2000F067F81A2078
:104F100000F056F813480024016841F48021016034
:104F2000006805A900F480200690684600F084FA25
:104F300000F0B2FA0C494000B0FBF1F10C480B4A0A
:104F4000491E026040F2E732C0E90324C0E90114BF
:104F500001F03AF910B1012008B010BD044801F089
:104F60004FF9F9E74438024040420F000048014041
:104F7000D4910120114808B5016841F480410160D5
:104F8000006800F4804000900C48001F016841F068
:104F9000805101600068002200F0805000900F21D5
:104FA000901E00F01BF800220621042000F016F8E5
:104FB000BDE80840042000F003B800004438024077
:104FC000002809DB00F01F02012191404009800008
:104FD00000F1E020C0F8001170470000F0B40E4B63
:104FE0001B680C46C3F30223C3F10705042D00D947
:104FF0000425191D072901D2002300E0DB1E01262C
:1050000006FA05F1491E214099409E40761E164041
:105010003143F0BC04F0CEBC0CED00E0064900F0DA
:10502000070208684FF6FF03184040EA0220034ACF
:1050300010430860704700000CED00E00000FA0526
:105040002DE9F8431748016841F08051016000687C
:10505000154F00F08050012600903E64FFF70CFCD5
:1050600005464FF47A78114C05E000BFFFF704FCC9
:10507000401B40450DD86068C003F7D57E64FFF73C
:10508000FBFB0546464607E0FFF7F6FB401BB04238
:1050900002D90320BDE8F88360688003F4D50020BE
:1050A000F8E700004038024000000E420070004067
:1050B0002DE9F84F04460068DFF824A2894F8A4D95
:1050C000C1074FF001084FF0000603D1810701D45A
:1050D000400648D5CAF86860FFF7CEFB814605E078
:1050E000FFF7CAFBA0EB090002287DD82868000161
:1050F000F6D42078C1077D4805D06168227A8901FD
:1051000041EA027101602178890711D5016862685E
:10511000237B9201C1F3027142EA036242EA017108
:1051200001603968E26921F01F01521E11433960A4
:105130002178490608D56168227B890141EA02612C
:10514000227A41EA02710160CAF86880FFF794FB95
:10515000814605E0FFF790FBA0EB0900022843D849
:1051600028680001F6D52068410701D400074ED514
:10517000CAF87060FFF780FB814605E0FFF77CFB13
:10518000A0EB090002282FD82868C0438000F5D57D
:1051900020784107564814D501682269237D920181
:1051A000C1F3027142EA036242EA017101603968A7
:1051B000226A6FF0FF0321F4F85103EB022211433E
:1051C00039602178090712D501682269C1F30361AA
:1051D000920142EA0161227E41EA0271016038686F
:1051E000616A20F4403000E051E008433860CAF8BA
:1051F0007080FFF741FB074605E000BFFFF73CFB6F
:10520000C01B022843D82868C0438000F6D4207809
:10521000800653D534484030016841F08051016028
:105220000068344D00F080500090286840F4807091
:105230002860FFF721FB074605E000BFFFF71CFBD6
:10524000C01B022823D82868C005F7D5274D143D78
:10525000286810F4407020D0218D01F44071814203
:105260001BD0286820F440712348C0F800800660F5
:1052700029602868C00710D0FFF7FEFA064641F201
:10528000883707E0FFF7F8FA801BB84202D90320FD
:10529000BDE8F88F28688007F4D5A16A1248C1F3E9
:1052A00001220830032A13D0016821F4F8110160AB
:1052B0002868218DC1F30B01084328602078C006BF
:1052C00004D50E4994F82C00C1F8E0010020DFE776
:1052D00002680B4B22F4F81219400A430260E7E718
:1052E000000047428C3802400038024084380240B7
:1052F0008838024000700040400E4742001047428C
:10530000FFFCFF0F2DE9F0470E46050065D0DFF8E2
:105310001481D8F80000F7B200F00F00B04207D2B5
:1053200088F80070D8F8000000F00F00B04254D1A7
:1053300028683D4C810712D5400703D5206840F40A
:10534000E05020602878000703D5206840F46040D2
:1053500020602068A96820F0F000084320602878C9
:10536000C0072DD0304968680839012812D00228BA
:1053700013D0032811D00968890700292DDA216884
:1053800021F0030101432160FFF776FA814641F2E3
:10539000883A0EE009688903EFE709688901ECE7BC
:1053A000FFF76AFAA0EB0901514502D90320BDE8D5
:1053B000F0872068696800F00C00B0EB810FEFD136
:1053C000D8F80010404601F00F01B14207D907702C
:1053D000006800F00F00B04201D00120E7E7287814
:1053E000400705D52068E96820F4E05008432060B4
:1053F0002878000706D52068296920F4604040EA33
:10540000C100206000F058F82168084AC1F3031178
:10541000515CC8400649086006480068FFF770FD07
:105420000020C4E7003C02400838024064F300203A
:1054300030860120288601200F2202600C4A136862
:1054400003F003034360136803F0F0038360136801
:1054500003F4E053C36012684FF4E05303EAD2024E
:1054600002610448006800F00F0008607047000007
:1054700008380240003C02400448054900680968B9
:10548000044AC1F38221515CC84070473086012034
:105490000838024074F30020044805490068096890
:1054A000044AC1F34231515CC84070473086012044
:1054B0000838024074F30020154810B5006810F059
:1054C0000C02144813D01449042A0FD0082A0ED114
:1054D0000F4C241F2268236802F03F025B0207D5AD
:1054E0002068C0F38810A0FB010106E0084610BD4B
:1054F0002168C1F38811A1FB00010023FAF7D2FE55
:105500002168C1F30141491C4900B0FBF1F010BD15
:10551000083802400024F400002D31012DE9F84F35
:10552000040076D02078DFF838A3CE4DC00749D0EC
:10553000DAF800105046C1F38101012908D0006853
:10554000C0F3810002280AD1281D0068400206D558
:105550002868800336D560680028E2D032E06068B1
:10556000B0F5803F10D0B0F5A02F286810D020F4FF
:1055700080302860286820F4802028606068A0B10E
:10558000FFF77AF906460CE0286840F48030F4E72B
:1055900040F480202860F7E7FFF76EF9801B64284D
:1055A00073D828688003F7D50CE0FFF765F9064645
:1055B00005E000BFFFF760F9801B6428F0D8286879
:1055C0008003F7D42078DFF8A08280074FF000092D
:1055D0003ED5DAF80010504611F00C0F09D00068E3
:1055E000C0F3810002280BD19D48001F00684002D3
:1055F00006D42868800715D5E068012809D111E094
:10560000E068B8B10120C8F80000FFF735F9064698
:1056100005E020E1FFF730F9801B0228C0D8286898
:105620008007F7D52868216920F0F80040EAC1001A
:1056300028600DE0C8F80090FFF71EF9064604E068
:10564000FFF71AF9801B02281FD828688007F7D4B3
:105650002078000722D5824E844861696C3671B18A
:1056600001210160FFF708F9074604E0FFF704F99C
:10567000C01B022809D830688007F7D50EE0C0F8B3
:105680000090FFF7F9F8074605E082E0FFF7F4F82D
:10569000C01B02287DD830688007F7D420784007E7
:1056A00068D5DFF8BCB100270BF1380BDBF8000040
:1056B000C0000BD4DBF8001041F08051CBF8001093
:1056C000DBF80000012700F080500090684E306841
:1056D000C00510D4306840F480703060FFF7CCF81B
:1056E000009005E0FFF7C8F80099401A022850D84A
:1056F0003068C005F6D55A4EA068683601280FD02C
:105700000528306810D020F001003060306820F0AB
:1057100004003060A068B8B1FFF7AEF800900FE069
:10572000306840F00100F4E740F004003060F7E733
:10573000FFF7A2F80099411A41F28830814266D8F9
:1057400030688007F4D50EE0FFF796F8009007E088
:10575000FFF792F80099411A41F28830814256D8F9
:1057600030688007F4D42FB1DBF8001021F08051AD
:10577000CBF80010A069D0B3DAF800205146C2F38C
:105780008102022A4AD00228484607D0C8F86000A1
:1057900000E03CE0FFF770F804463BE04746C8F8FD
:1057A0006000FFF769F8064605E000BFFFF764F800
:1057B000801B02282BD828688001F7D4D4E9070180
:1057C0000843A16A2B4A490802EB0141626A41EA97
:1057D0008211084394F82C1040EA01612048001F10
:1057E000016001203866FFF747F8044605E034E021
:1057F000FFF742F8001B022809D828688001F7D576
:105800002BE000BFFFF738F8001B022802D9032065
:10581000BDE8F88F28688001F4D41EE00128F7D095
:105820000868E26900F48001914214D1226A00F014
:105830003F0191420FD147F6C071626A0140914227
:1058400009D1A26A00F44031914204D1E16A00F02A
:105850007060884201D00120DAE70020D8E700001C
:10586000083802400038024000004742800E47429C
:10587000007000400000FFFF10B500680B46416853
:105880000D480140080CD870C1F304245C7001F08D
:105890003F049C70C1F34231197052B902F011FB00
:1058A000D870587802F00DFB5870987802F009FB18
:1058B0009870002010BD00003FFFFF0010B50B46A0
:1058C0000168896A596001680969C1F30E0199602C
:1058D000006801680E480140C1F305401870C1F32B
:1058E00006245C7001F07F049C70402404EA11419E
:1058F000D97052B902F0E5FA1870587802F0E1FA5E
:105900005870987802F0DDFA9870002010BD000001
:105910007F7F7F0070B5040002D0607F10B106E089
:10592000012070BD00202077204600F049F80220B9
:1059300060772168CA204862216853204862204667
:1059400002F0D4FAFF25042618BB206881681B4AA0
:10595000114081602168886862681043D4E904239B
:105960001A43104388602168E06808612068016973
:10597000228941EA024101612068C16821F0800169
:10598000C16020688068800607D4204600F0FEF8D9
:1059900018B1206845626677C2E72068016C21F47F
:1059A000802101642068016CA269114301642068B0
:1059B000456201206077002070BD0000BFFF8FFFAF
:1059C00000680349884202D10249012008607047FB
:1059D000002800403C0E47422DE9F0470446007F76
:1059E0000B4601281FD04FF0010984F81C900220BB
:1059F0006077DAB19878D97840EA01455878197813
:105A0000000240EA413005432168CA20486221680B
:105A100053204862204602F069FA0026FF274FF023
:105A2000040860BB1AE00220BDE8F0875878C10680
:105A300003D500F0EF000A305870D87802F04AFA27
:105A40000204587802F046FA42EA0022987802F0FE
:105A500041FA0243187842EA4035D5E70F4805403D
:105A6000206845602068C16821F08001C16020681D
:105A7000806880060AD4204600F088F830B120689B
:105A8000476284F81D8026770120CDE720684762B1
:105A900084F81D9026770020C6E700003FFFFF0036
:105AA0002DE9F0470446007F0D46012827D04FF02E
:105AB000010A84F81CA00220607720680026806814
:105AC0004FEA4060F2B1002800DBEE70A878297838
:105AD00040EA01476878E978000240EA014007435C
