:020000040808EA
:1000000098970120C10108089B2D0808B12908080C
:10001000992D08084F140808D93508080000000079
:10002000000000000000000000000000353008085B
:100030009114080800000000452F08083730080810
:10004000DB010808DB010808DB010808DB01080800
:10005000DB010808DB010808DB010808DB010808F0
:10006000DB010808DB010808DB010808DB010808E0
:10007000DB010808DB010808DB010808DB010808D0
:10008000DB010808DB010808DB010808DB010808C0
:10009000DB010808DB010808DB010808DB010808B0
:1000A000DB010808DB010808DB010808DB010808A0
:1000B000E5300808F1300808DB010808DB01080812
:1000C000DB010808DB010808DB010808DB01080880
:1000D000DB010808E1340808ED3408086935080830
:1000E000DB010808DB010808DB010808DB01080860
:1000F000DB010808DB010808DB010808DB01080850
:10010000DB010808DB010808DB010808DB0108083F
:10011000DB010808DB010808DB010808DB0108082F
:10012000DB010808DB010808DB010808DB0108081F
:10013000DB010808DB010808DB010808DB0108080F
:10014000DB010808DB010808DB010808DB010808FF
:10015000DB010808DB010808DB010808DB010808EF
:10016000DB010808DB010808DB010808DB010808DF
:10017000DB010808DB010808DB01080800000000BB
:10018000DB010808DB010808DB010808DB010808BF
:10019000DB010808DB010808DB010808DB010808AF
:1001A0000000000000000000DB010808DFF80CD0B0
:1001B00000F01EFF00480047CD78080898970120FE
:1001C0000648804706480047FEE7FEE7FEE7FEE7F1
:1001D000FEE7FEE7FEE7FEE7FEE7FEE7C9300808B8
:1001E000AD0108082DE9F05F0546002092469B46C8
:1001F00088460646814640241BE02846414647463D
:10020000224600F094FC53465A46C01A914110D33E
:1002100011461846224600F07BFC2D1A67EB0108B8
:100220004F4622460120002100F072FC17EB000926
:100230004E41201EA4F10104DFDC484631462A4627
:100240004346BDE8F09F40EA01039B0703D009E065
:1002500008C9121F08C0042AFAD203E011F8013BB2
:1002600000F8013B521EF9D27047D2B201E000F80B
:10027000012B491EFBD270470022F6E710B513464A
:100280000A4604461946FFF7F0FF204610BD421CFF
:1002900010F8011B0029FBD1801A704710B500220D
:1002A00000E0521C835C8C5CA34201D1002BF8D18E
:1002B000D8B2E1B2401A10BD034611F8012B00F884
:1002C000012B002AF9D118467047000070B50F4D78
:1002D00000B92868002412E00A4602E09E4203D0DA
:1002E000521C1378002BF9D1DAB2224305D02BB17E
:1002F00024B1002100F8011B04E00446401C0678EC
:10030000002EE9D12860204670BD0000840D002039
:100310002DE9F0410E460546002400E0641C285DEE
:1003200000F023FC0746305D00F01FFC381A02D1B4
:10033000295D0029F2D1BDE8F0812DE9F0410546A3
:10034000002090460E46044600E0641C44450BD253
:10035000285D00F00AFC0746305D00F006FC381A04
:1003600002D1295D0029F0D1BDE8F0810FB400B5BC
:100370008DB010A909900B9000914FF0FF300A90BA
:1003800000200C9005480690054807906A4609A889
:100390000F9900F005FC0DB05DF814FBBD0B0808CB
:1003A000DB0B08082DE9FF5F1D464FF0FF3BD5E949
:1003B000014691465F464FF00008A9697F1C0198ED
:1003C0008847296A824688470028F6D1BAF1FF3F5C
:1003D0000CD024F4C064002E19DD600614D5BAF1E7
:1003E0002B0F09D0BAF12D0F0ED103E0584604B0FF
:1003F000BDE8F09F44F48064A9697F1C0198884798
:10040000761E8246002E02DDBAF1300F03D0B9F11C
:10041000000F26D032E0A969761E44F400747F1CD8
:10042000019888478246002E05DDBAF1780F06D084
:10043000BAF1580F03D0B9F1000F10D01EE0B9F196
:10044000000F02D0B9F1100F18D1A969761E24F45B
:1004500000747F1C019888478246102002E0082023
:1004600000E00A20814609E008FB0908A969761E18
:1004700044F400747F1C019888478246002E05DDF5
:100480004946504600F077FB0028EDDAE96901980B
:100490008847A00502D46FF00100A8E7E00725D146
:1004A000600613D5600502D5C8F1000000E04046A3
:1004B00029680A1D2A600968220501D5087015E01F
:1004C000220701D5088011E008600FE02868011DAF
:1004D00029600068210502D580F8008006E0210728
:1004E00002D5A0F8008001E0C0F8008038467EE721
:1004F0002DE9FF4F087883B09946FF2805D0491CA5
:100500002D2804D00024002008E000200BE0012466
:10051000F9E700EB800003EB4000491C0B78FF2B50
:10052000F7D104B1404200230293147819461D46C6
:100530002D2C01D02B2C04D1521C2D2C13D0002497
:100540000294AA461478FF2C0FD00A25A3FB057845
:1005500001FB05814FF0000C03FB0C11521CE31949
:100560004AEB0101EEE70124EAE7814453EA010086
:1005700002D019F5C87F06DA03980021C0E90011FE
:1005800007B0BDE8F08F0025AE4E2F46DFF8B882E9
:10059000184600F0D5FCCDE90001B9F1000002DAFF
:1005A000C9F1000400E004460023A74A1AEB030B3C
:1005B00042EB045A12E0E00707D02A463346384699
:1005C000414600F07EF9074688462A4633461046E3
:1005D000194600F076F905460E466410002CEAD163
:1005E000DDE90001B9F1000F5A46534606DA00F082
:1005F000DAF93A46434600F0D6F905E000F061F931
:100600003A46434600F05DF9029A0AB181F0004192
:10061000039AC2E90001B3E72DE9FF4F1F468DB0F1
:10062000D7E901464FF0FF382E2045464FF000092C
:100630000B90B9696D1C0E988847396A82468847C5
:100640000028F6D1BAF1FF3F0AD024F4D064002E7E
:1006500011DDBAF12B0F08D0BAF12D0F0BD102E04A
:10066000404611B08DE744F48064B9696D1C0E9862
:1006700088478246761E6946600501D52D2000E038
:100680002B208DF8000001F1010B0DF1200809E08D
:10069000B9696D1C0E98884782460F9844F400741F
:1006A000761E0560002E02DDBAF1300FF0D00B99F6
:1006B0008A453ED144F0800406E00F99681CA9F1F8
:1006C000010944F400740860B9696D1C761E0E9827
:1006D000884782463028F0D02BE00B998A4505D117
:1006E000200603D444F08004761E18E0504603F040
:1006F00099F808B30DF11301761E44F400748B458C
:1007000008D2AAF130000BF8010B200607D5A9F199
:10071000010003E0200602D409F101008146A00592
:1007200002D50F99681C0860B9696D1C0E9888473E
:100730008246002ED1DC53E0002E51DDBAF1650F68
:1007400002D0BAF1450F4BD1A00549D5B9696D1C4E
:1007500024F44074761E0E9888478246002E0CDDE5
:100760002B2804D0BAF12D0F07D144F48074B96955
:100770006D1C0E9888478246761EE00501D52D2116
:1007800000E02B2108F8011BCDF82C8021E00DF1B1
:100790002901761E44F4007488450CD2AAF1300079
:1007A00010F0FF0088F8000002D10B99884509D9A4
:1007B00008F1010806E0E00501D5244801E042F215
:1007C0000F708146B9696D1C0E98884782460F9854
:1007D0000560002E04DD504603F024F80028D6D131
:1007E000F9690E988847FF208BF8000088F8000010
:1007F0000020069007904B466A4608A906A8FFF716
:1008000077FEA00502D46FF001002AE714F0240F50
:100810000AD0E00714D1DDE906123868031D3B60F9
:100820000068C0E900120BE0DDE9060100F0C4FB3E
:100830000146E00704D13868021D3A600068016093
:1008400028460EE7000014400000F03FF1D8FFFFFB
:100850002DE9F05F93460F4680460446002602F0DD
:10086000E1FED0F80090824614F8015B2DB100F053
:100870006FF90068405DC007F6D12B2D02D02D2DF9
:100880001AD0641E0021CAF800105A463946204684
:1008900000F0B4F9014627B13868A04201D1C7F889
:1008A0000080DAF80000022809D0CAF8009070052C
:1008B00005D54842BDE8F09F46F48066E2E7084669
:1008C000F8E72DE9FE4F81EA030404F0004421F02B
:1008D000004100944FF0000B23F0004350EA010464
:1008E0005ED052EA03045BD0C3F30A54C1F30A5545
:1008F0002C44A4F2F3340194A0FB0254C1F313017D
:1009000041F48011C3F3130343F4801301FB024449
:1009100000FB034E840A970A44EA815447EA83574E
:10092000A4FB076802958D0A05FB07854FEA932C07
:1009300004FB0C542705029D4FEA065847EA163778
:10094000B5EB08056EEB070C870E920E47EA811790
:1009500042EA8312A7FB0201B6EB0B0164EB000431
:100960002B0D43EA0C335E1844EB1C50DA4651461B
:10097000E7FB0201C5F313044FEA0B3343EA1453B8
:100980004FEA0432019C43EA0603A4F10C040294EA
:10099000009CCDE900B400F0DEF903B0BDE8F08FB3
:1009A00000200146F9E72DE9F04D81EA030404F047
:1009B000004B21F0004514464FF0000A23F000419F
:1009C00050EA050220D054EA01021DD0C5F30A57AF
:1009D0000246C5F31303C1F31300C1F30A5640F4F2
:1009E000801543F48013A7EB0608101BD64608F2C7
:1009F000FD3873EB050002D308F1010801E09218FD
:100A00005B41B8F1000F03DA00200146BDE8F08D2C
:100A100000204FF48011064684460EE0171B73EB4E
:100A2000050705D3121B63EB050306434CEA010CD3
:100A300049084FEA300092185B4150EA0107EDD1B6
:100A400052EA030012D082EA040083EA0501084357
:100A500005D0101BAB4106D20122002306E0002284
:100A60004FF0004302E06FF0010253101AEB060052
:100A70004CEB085110EB0A0041EB0B01BDE8F04DC7
:100A800000F05AB90EB5C10F80EAE0700844CA07F9
:100A9000002140F233438DE80E000A460B4600F079
:100AA0005AF903B000BD70B5C1F30A5201F0004518
:100AB0000024C1F3130140F2FF3341F480119A4244
:100AC00001DA002070BD40F233439A42A2F2334271
:100AD00003DC524200F02BF800E090402C43F1D0B0
:100AE000404270BD30B50B46014600202022012453
:100AF00009E021FA02F59D4205D303FA02F5491BEC
:100B000004FA02F52844151EA2F10102F1DC30BD01
:100B1000202A04DB203A00FA02F1002070479140BD
:100B2000C2F1200320FA03F3194390407047202AB2
:100B300004DB203A21FA02F00021704721FA02F387
:100B4000D040C2F12002914008431946704700008E
:100B5000004870472488080810B50446FFF7F8FFDE
:100B60000068005D00F0010010BDA0F141011929ED
:100B700000D8203070473A2800D2303820F02002C8
:100B8000412A01D3A2F13700884201D34FF0FF3050
:100B900070470000026811441378016018467047DE
:100BA000D16004495161044911620021116111466B
:100BB00000F042BA950B0808590B0808426842B188
:100BC000016811F8013B23B1521EC0E9001218461A
:100BD00070470121C160881E704742685AB1C368DE
:100BE000016843B983688B4205D0491E521CC0E995
:100BF0000012002070474FF0FF3070472DE9F05F82
:100C000082460078002715468B460AF10104B94652
:100C1000302801D09DB113E014F8010B012778288A
:100C200003D0582801D045B10AE00DB1102D07D1ED
:100C30000027102514F8010B02E0082500E00A2522
:100C40000026B0460EE005FB080005FB06F1012773
:100C500001EB10461FFA80F8B6F5803F00D3B94685
:100C600014F8010B2946FFF786FF0028EBDABBF1E9
:100C7000000F05D00FB1641E00E05446CBF80040D1
:100C8000B9F1000F06D002F0CDFC02210160C81EB0
:100C9000BDE8F09F48EA0640FAE700000FB40023E1
:100CA00000B589B00CA900910B996FF00042CB60A0
:100CB0001E4B06931E4B07930423CDE901321D4AB8
:100CC000089202466B460020FFF7A6FC09B05DF8CB
:100CD00014FB70B586B006464FF0FF300091CDE9A9
:100CE0000101002015460C4604903246694604A8CE
:100CF000FFF7D4FF02460498211825B108B1084631
:100D000000E020462860049800280DD0002A02DD6B
:100D10000098884208D0081B0094CDE901043246AF
:100D2000694604A8FFF7BAFF06B070BDBD0B0808FE
:100D3000DB0B0808590B080810B5141E73F10004EA
:100D400008DA401C41F1000192185B411A4301D1BD
:100D500020F0010010BD2DE9F04D92469B4611B1E7
:100D6000B1FA81F202E0B0FA80F220329046FFF749
:100D7000CFFE04460F4640EA0A0041EA0B01534603
:100D80005A46084313D0114653EA010019D0C8F15E
:100D900040025046FFF7CBFE05460E4650465946E8
:100DA0004246FFF7B5FE084305D0012004E0204687
:100DB0003946BDE8F08D0020054346EAE0762C4335
:100DC00037430A986305E40AA0EB08000022FD0AF5
:100DD00044EA47540A3002D500200146E9E70105FC
:100DE00010196941DDE9084500196941BDE8F04D78
:100DF000A2E72DE9FE4F804681EA0300C00F0C46B2
:100E0000009021F0004123F00045B8EB0200A94119
:100E100005D24046214690461C460B46024623F02A
:100E20000040104347D0270DC7F30A00C3F30A510F
:100E30000290401A019040286BDAC3F3130040F48B
:100E4000801B0098924620B10023D2EB030A63EB8B
:100E50000B0B01985946C0F140025046FFF758FE6F
:100E600006460D4650465946019A00F0D3F810EB5D
:100E700008006141002487EA115284EAE7731A43AB
:100E800040D0009A62B3019A012A4FEA075215DC5A
:100E9000001B61EB02014FF0004202EA0752CDE96C
:100EA0000042001C41F5801132462B46FFF753FFEC
:100EB00003B0BDE8F08F40462146F9E7001B61EB27
:100EC0000201001C41F5801300185B412018A2F5B7
:100ED000001747EB030140EAD570B6196D4111E0E8
:100EE0006D084FEA360645EAC0754FEA0752001B07
:100EF00061EB0201001C41F5801149084FEA300006
:100F00000019514132462B4603B0BDE8F04FFFF7C0
:100F100013BF0098012240000023D0EB020263EBD4
:100F2000E073009821464FEAE074B8EB000061EBF3
:100F30000401E9E783F000435BE781F0004158E7F3
:100F40000EB540F2334202920022CDE90022134650
:100F5000FFF701FF03B000BDC1F30A52C1F3130153
:100F600040F2FF3341F480119A4202DA0020014638
:100F7000704740F233439A42A2F2334202DC5242BB
:100F8000FFF7D5BDFFF7C4BD30B5041E71F10004F5
:100F900004DB4FF00044404264EB0101141E73F186
:100FA000000405DB1C464FF00043524263EB040390
:100FB000994208BF904230BD01F0004330B421F0A7
:100FC000004150EA010206D00A0DA2F56072C1F399
:100FD0001301002A02DC30BC00207047440F44EAB1
:100FE000C104C100E01830BC00EBC25000F0BAB937
:100FF000064C074D06E0E06840F0010394E8070066
:1010000098471034AC42F6D3FFF7D4F8A08B080809
:10101000C08B0808202A06DBCB17203A41FA02F0E1
:1010200043EAE07306E041FA02F3D040C2F1200245
:1010300091400843194670472DE9F34F8BB04FF0AC
:10104000000801F10C000C464FF0010B46460DF173
:10105000080A01906269012101989047051E2DD070
:10106000252D2CD0216A8847C0B1626901210198E1
:101070009047216A88470028F7D1411E626901988C
:10108000904700E0761CA1690B988847216A884741
:101090000028F7D1E1690B988847DBE7A1690B9835
:1010A00088470746A84201D1761CD3E7E1690B982F
:1010B00088477F1C02D1B8F1000F6FD046E10027AE
:1010C00062693D463946019890472A2804D16269F1
:1010D0000121019890470125DFF88492626901217E
:1010E00001989047A0F130010A290AD24F45E5DC6A
:1010F00007EB870100EB4107303FDFD445F01005D7
:10110000ECE7E90601D46FF000476C280AD04C28C0
:1011100014D0682815D06A280DD074281CD07A28DD
:101120001AD01DE062690121019890476C2802D015
:1011300045F0040514E045F002050DE045F02005FA
:101140000AE06269012101989047682802D045F0C1
:10115000080505E045F400656269012101989047A2
:10116000C4E9015765283DD019DC58287AD00CDC39
:10117000452837D004DC252826D0412831D131E05C
:1011800046282FD047282CD12CE05B2877D0612827
:1011900028D063287CD0642823D15AE0D0E06F287F
:1011A00048D008DC66281DD067281BD0692821D0CC
:1011B0006E2816D127E0702845D0732868D075288E
:1011C00047D078280DD14DE0A1690B988847054696
:1011D00025283FF469AFE1690B9888476D1C3FF4FF
:1011E0006AAFB3E023466A466FF001000B99FFF740
:1011F00013FA9EE045F040006060A80723464FF0D8
:10120000000236D43EE0E8077FF447AF2068011DB6
:1012100021600068290501D506701BE7290701D563
:10122000068017E7A90703D5F117C0E9006111E7A8
:1012300006600FE745F040006060A80723464FF0C6
:10124000080216D41EE040F60E0125EA0100606097
:1012500016E045F040006060A80723464FF00A0200
:1012600007D40FE045F040006060A80708D523468A
:1012700010226FF001000B99AFF3008059E007E0F6
:10128000234610226FF001000B99FFF78BF850E016
:101290004FF000094F464B46632802D05B2806D02A
:1012A00040E0E80601D40120A06001273AE062692D
:1012B0000121019890475E2805D14FF0010962692C
:1012C000494601989047216939B900210A46534699
:1012D00043F82120491C0829FADBB0B3216969B918
:1012E000C11700EBD16253110AEB830122F01F02F8
:1012F000821A01200B68904003430B606269012150
:10130000019890475D28E8D1B9F1000F09D000207D
:10131000514651F82020D24341F82020401C082893
:10132000F7DB02AB224600976FF001000B99AFF399
:10133000008000280CDA401C08D1BBF1000F05D05A
:101340004FF0FF300DB0BDE8F08FFFE74046F9E702
:10135000E90701D108F1010806444FF0000B79E6D6
:10136000CCCCCC0C0029A8BF7047401C490008BF5A
:1013700020F00100704710B4B0FA80FC00FA0CF0C5
:1013800050EA010404BF10BC704749B1CCF12004FD
:1013900021FA04F411FA0CF118BF0121214308438A
:1013A000A3EB0C01CB1D4FEA00614FEA102042BFB6
:1013B000002010BC704700EBC35010440029A4BFAC
:1013C00010BC7047401C490008BF20F0010010BC51
:1013D000704770B58C1810F8015B15F0070301D148
:1013E00010F8013B2A1106D110F8012B03E010F888
:1013F000016B01F8016B5B1EF9D12B0705D40023AB
:10140000521E0DD401F8013BFAE710F8013BCB1A4C
:10141000921C03E013F8015B01F8015B521EF9D541
:10142000A142D8D3002070BD020A0A7048707047EC
:10143000020E0A70020C4A70020A8A70C870704765
:101440000168C07809BA21F0FF0108437047FEE740
:1014500030B54FF0FF330022064C07E0855C5D405D
:10146000EDB2521C54F8255085EA13238A42F5D375
:10147000D84330BD0800002010B50022134602E01A
:10148000C45C62405B1C8B42FAD3521CD0B210BDCC
:101490007047704790F83510022903D080214165CC
:1014A00001207047052180F835100068016821F09F
:1014B000010101600020704770B5044600F00AF990
:1014C0000546601C02D004480078044400F002F98C
:1014D000401BA042FAD370BD740D00202DE9F84FD7
:1014E00000224FF0010803254FF00F0E0B6808FA99
:1014F00002F42340A3426ED14E68012E05D0022E85
:1015000003D0112E01D0122E12D186684FEA420C60
:1015100005FA0CF7BE43CF6807FA0CF7374387602C
:101520004668A6430C79C4F30014944034434460E5
:10153000C668570005FA07FC8C6826EA0C06BC4012
:101540003443C4604C68022C01D0122C13D1D4084F
:1015500000EB8404A346D4F8209054074FEAD46AE1
:101560000EFA0AF629EA06090E6906FA0AF646EAAA
:101570000906CBF8206004680E7924EA0C0406F012
:101580000306BE40264306604C68E4006FD53B4C22
:10159000266846F480462660246822F0030604F498
:1015A00080440094364C3444A446D4F80848960746
:1015B000360F0EFA06F7BC43324FB84201D100276E
:1015C0002EE0314FB84201D1012729E02F4FB84218
:1015D00002D1022724E04AE02D4FB84201D103276F
:1015E0001EE02C4FB84201D1042719E02A4FB8421F
:1015F00001D1052714E0294FB84201D106270FE099
:10160000274FB84201D107270AE0264FB84201D13F
:10161000082705E0244FB84201D1092700E00A2736
:10162000B7402743CCF80878204E34684F689C4375
:10163000FF0300D51C4334601C4E361D34684F68D0
:101640009C43BF0300D51C433460184E08363468F1
:101650004F689C43FF0200D51C433460134E0C3688
:1016600034684F689C43BF0200D51C433460521C51
:10167000102AFFF43BAFBDE8F88F00004438024069
:101680000030014000000240000402400008024017
:10169000000C0240001002400014024000180240FA
:1016A000001C02400020024000240240003C014097
:1016B0000069084000D001207047426931EA020207
:1016C00000D10904816170470AB181617047090442
:1016D000FBE700000148806870470000740D00209F
:1016E000024881680278114481607047740D0020BF
:1016F0000B4810B5016841F400710160016841F4C4
:1017000080610160016841F480710160032000F094
:101710006FF8002000F006F800F024F8002010BD5B
:10172000003C024070B50D4D04464FF47A712878A4
:10173000B1FBF0F00A490968B1FBF0F000F0BFFC22
:1017400048B9102C07D200222146501E00F030F874
:1017500000206C6070BD012070BD0000740D002081
:10176000800D00200A4808B5016841F480410160FD
:10177000006800F4804000900548001F016841F0B7
:1017800080510160006800F08050009008BD0000AA
:1017900044380240002809DB00F01F02012191407B
:1017A0004009800000F1E020C0F8001170470000FF
:1017B000F0B40E4B1B680C46C3F30223C3F10705BC
:1017C000042D00D90425191D072901D2002300E0AA
:1017D000DB1E012606FA05F1491E214099409E4074
:1017E000761E16403143F0BC01F00CBF0CED00E05A
:1017F000064900F0070208684FF6FF03184040EA68
:101800000220034A10430860704700000CED00E01E
:101810000000FA052DE9F8431748016841F08051AE
:1018200001600068154F00F08050012600903E6472
:10183000FFF750FF05464FF47A78114C05E000BFE2
:10184000FFF748FF401B40450DD86068C003F7D53F
:101850007E64FFF73FFF0546464607E0FFF73AFF85
:10186000401BB04202D90320BDE8F88360688003C2
:10187000F4D50020F8E700004038024000000E4296
:10188000007000402DE9F0470E46050065D0DFF8F6
:101890001481D8F80000F7B200F00F00B04207D270
:1018A00088F80070D8F8000000F00F00B04254D162
:1018B00028683D4C810712D5400703D5206840F4C5
:1018C000E05020602878000703D5206840F460408D
:1018D00020602068A96820F0F00008432060287884
:1018E000C0072DD0304968680839012812D0022875
:1018F00013D0032811D00968890700292DDA21683F
:1019000021F0030101432160FFF7E4FE814641F22B
:10191000883A0EE009688903EFE709688901ECE776
:10192000FFF7D8FEA0EB0901514502D90320BDE81D
:10193000F0872068696800F00C00B0EB810FEFD1F0
:10194000D8F80010404601F00F01B14207D90770E6
:10195000006800F00F00B04201D00120E7E72878CE
:10196000400705D52068E96820F4E050084320606E
:101970002878000706D52068296920F4604040EAED
:10198000C100206000F038F82168084AC1F3031153
:10199000515CC8400649086006480068FFF7C2FE6F
:1019A0000020C4E7003C024008380240888708084D
:1019B000800D0020780D0020044805490068096862
:1019C000044AC1F38221515CC8407047800D002059
:1019D00008380240988708080448054900680968E3
:1019E000044AC1F34231515CC8407047800D002069
:1019F0000838024098870808154810B5006810F0AC
:101A00000C02144813D01449042A0FD0082A0ED10E
:101A10000F4C241F2268236802F03F025B0207D5A7
:101A20002068C0F38810A0FB010106E0084610BD45
:101A30002168C1F38811A1FB00010023FEF7D2FB4E
:101A40002168C1F30141491C4900B0FBF1F010BD10
:101A5000083802400024F400002D31012DE9F84F30
:101A6000040076D02078DFF838A3CE4DC00749D0E7
:101A7000DAF800105046C1F38101012908D000684E
:101A8000C0F3810002280AD1281D0068400206D553
:101A90002868800336D560680028E2D032E06068AC
:101AA000B0F5803F10D0B0F5A02F286810D020F4FA
:101AB00080302860286820F4802028606068A0B109
:101AC000FFF708FE06460CE0286840F48030F4E793
:101AD00040F480202860F7E7FFF7FCFD801B6428B6
:101AE00073D828688003F7D50CE0FFF7F3FD0646AE
:101AF00005E000BFFFF7EEFD801B6428F0D82868E2
:101B00008003F7D42078DFF8A08280074FF0000927
:101B10003ED5DAF80010504611F00C0F09D00068DD
:101B2000C0F3810002280BD19D48001F00684002CD
:101B300006D42868800715D5E068012809D111E08E
:101B4000E068B8B10120C8F80000FFF7C3FD064601
:101B500005E020E1FFF7BEFD801B0228C0D8286801
:101B60008007F7D52868216920F0F80040EAC10015
:101B700028600DE0C8F80090FFF7ACFD064604E0D1
:101B8000FFF7A8FD801B02281FD828688007F7D41C
:101B90002078000722D5824E844861696C3671B185
:101BA00001210160FFF796FD074604E0FFF792FD73
:101BB000C01B022809D830688007F7D50EE0C0F8AE
:101BC0000090FFF787FD074605E082E0FFF782FD02
:101BD000C01B02287DD830688007F7D420784007E2
:101BE00068D5DFF8BCB100270BF1380BDBF800003B
:101BF000C0000BD4DBF8001041F08051CBF800108E
:101C0000DBF80000012700F080500090684E30683B
:101C1000C00510D4306840F480703060FFF75AFD82
:101C2000009005E0FFF756FD0099401A022850D8B1
:101C30003068C005F6D55A4EA068683601280FD026
:101C40000528306810D020F001003060306820F0A6
:101C500004003060A068B8B1FFF73CFD00900FE0D1
:101C6000306840F00100F4E740F004003060F7E72E
:101C7000FFF730FD0099411A41F28830814266D861
:101C800030688007F4D50EE0FFF724FD009007E0F0
:101C9000FFF720FD0099411A41F28830814256D861
:101CA00030688007F4D42FB1DBF8001021F08051A8
:101CB000CBF80010A069D0B3DAF800205146C2F387
:101CC0008102022A4AD00228484607D0C8F860009C
:101CD00000E03CE0FFF7FEFC04463BE04746C8F866
:101CE0006000FFF7F7FC064605E000BFFFF7F2FCD7
:101CF000801B02282BD828688001F7D4D4E907017B
:101D00000843A16A2B4A490802EB0141626A41EA91
:101D10008211084394F82C1040EA01612048001F0A
:101D2000016001203866FFF7D5FC044605E034E089
:101D3000FFF7D0FC001B022809D828688001F7D5DE
:101D40002BE000BFFFF7C6FC001B022802D90320CE
:101D5000BDE8F88F28688001F4D41EE00128F7D090
:101D60000868E26900F48001914214D1226A00F00F
:101D70003F0191420FD147F6C071626A0140914222
:101D800009D1A26A00F44031914204D1E16A00F025
:101D90007060884201D00120DAE70020D8E7000017
:101DA000083802400038024000004742800E474297
:101DB000007000400000FFFF70B5040005D0002552
:101DC000A56294F8510010B106E0012070BD84F8BE
:101DD0005050204600F030F8022084F8510020686E
:101DE000016821F040010160D4E901010843D4E910
:101DF00003121143084361690843218B01F4007108
:101E00000843E1690843216A0843A16A084321683D
:101E10000860A069042101EA1040616A0843216852
:101E200048602068C16921F40061C16165650120D5
:101E300084F85100002070BDF0B587B0044614212D
:101E40006846FEF719FA21481F4F266800221F49ED
:101E50001438022303240525BE4215D10E6846F42A
:101E600080560E60096801F480510591016841F0C7
:101E7000010101600068694600F001000590E02062
:101E8000CDE90003124818E0124FBE421AD10E6885
:101E900046F480160E60096801F48011059101680E
:101EA00041F0200101600068694600F020000590C3
:101EB0004FF46070CDE90003074802AE86E83400B5
:101EC000FFF70CFB07B0F0BD003001404438024082
:101ED0000000024000500140001402402DE9F84F7C
:101EE000044690F8500000270A9E1D4692468B46F5
:101EF0004FF0010901280ED0012084F85000FFF7AF
:101F0000E9FB804694F85100616801280CD0B1F5D6
:101F1000827F07D102E00220BDE8F88FA16809B9ED
:101F2000042801D00227C2E0BBF1000F27D0BAF18C
:101F3000000F24D01DB394F85100042802D00520CE
:101F400084F8510000206065C4F838A0E587A587B3
:101F5000C4F830B0E586A586206460642068016816
:101F6000490603D4016841F040010160E068B0F522
:101F7000006F606805D0E8B3012D46D07FE00127EF
:101F800095E008B1012D39D1206B21680088C86027
:101F9000206B801C2063E08E401EE0862EE02068CF
:101FA000816889070FD5E18E69B1B9F1010F0AD1B6
:101FB000216B0988C160206B801C2063E08E401E6D
:101FC000E0864FF0000920688168C9070CD0E18FD6
:101FD00051B1C068A16B0880A06B801CA063E08F2A
:101FE000401EE0874FF00109FFF774FBA0EB0800EB
:101FF000B04200E009E001D3701C50D1E08E00280F
:10200000CDD1E08F0028CAD13FE0206B2168007855
:102010000873206B401C2063E08E401EE0862EE09B
:102020002068816889070FD5E18E69B1B9F1010F88
:102030000AD1216B09780173206B401C2063E08E6C
:10204000401EE0864FF0000920688168C9070CD067
:10205000E18F51B1C068A16B0870A06B401CA063F8
:10206000E08F401EE0874FF00109FFF733FBA0EB44
:102070000800B04202D3701C01D010E07EB1E08EA7
:102080000028CDD1E08F0028CAD1424631462046F3
:1020900000F05AFF28B101272020606507E00327E0
:1020A00005E0A06818B92068C16880680090012028
:1020B00084F85100002084F8500038462CE710B511
:1020C000401EB0F1807F01D3012010BD4FF0E0240D
:1020D00060610F21601701F095FA0020A0610720D0
:1020E0002061002010BD70477047000070B590F867
:1020F0003C20012A32D0012480F83C40022280F8A2
:102100003D2003685A689D6822F070060A683243D1
:102110005A60134B02689A4214D0B2F1804F11D02A
:10212000104B9A420ED0104B9A420BD00F4B9A4252
:1021300008D00F4B9A4205D00E4B9A4202D00E4B5C
:102140009A4204D1496825F080031943916080F8D0
:102150003D40002180F83C10084670BD022070BD53
:10216000000001400004004000080040000C004056
:1021700000040140004001400018004010B5040078
:1021800003D094F83D0010B107E0012010BD0020FD
:1021900084F83C00204600F00DF8022084F83D0051
:1021A000211D206800F0AAFF012084F83D000020D6
:1021B00010BD000008B501681448B1F1804F14D07B
:1021C000134A914220D1016841F002010160006888
:1021D000002200F00200009011461D20FFF7E8FAEF
:1021E0001D20BDE80840FFF7D5BA016841F00101A4
:1021F00001600068002200F00100009011461C20E0
:10220000FFF7D6FA1C20ECE708BD0000403802407A
:10221000000400400168CA6842F00102CA60006818
:10222000816801F00701062903D0016841F001012E
:102230000160002070470168CA6822F00102CA608C
:102240000068016A41F21112114207D1016A92102D
:10225000114203D1016821F00101016000207047A3
:1022600070B5044690F83C00012817D0012584F889
:102270003C50022084F83D002068826822F07702FA
:1022800022F47F4282600868502830D00DDC20287C
:102290004DD005DC98B310283BD148E0022070BD3A
:1022A000302844D0402834D139E0602828D0702824
:1022B00006D0B0F5805F2CD0B0F5005F29D10AE0E0
:1022C000CB68D1E90121206800F07CFF206881689B
:1022D00041F0770109E0CB68D1E90121206800F0E5
:1022E00071FF2068816841F48041816011E0CA6813
:1022F0004968206800F078FF5021206807E016E068
:10230000CA684968206800F080FF6021206800F0FA
:1023100063FF84F83D50002084F83C0070BDCA681B
:102320004968206800F060FF40212068EFE72268DC
:1023300001461046EBE7704770B504460068016936
:102340004FF00005C943890715D4C168C9438907FF
:1023500011D4E91E0161012020772068806980077F
:10236000204602D0FFF7E7FF04E000F098F820468F
:1023700000F096F8257720680169C943490717D40A
:10238000C168C943490713D46FF0040101610220F9
:1023900020772068806910F4407F204602D0FFF744
:1023A000CAFF04E000F07BF8204600F079F82577BA
:1023B00020680169C943090716D4C168C9430907E0
:1023C00012D46FF008010161042020772068C069F1
:1023D0008007204602D0FFF7AEFF04E000F05FF870
:1023E000204600F05DF8257720680169C943C906D9
:1023F00017D4C168C943C90613D46FF01001016135
:10240000082020772068C06910F4407F204602D061
:10241000FFF791FF04E000F042F8204600F040F89A
:10242000257720680169C943C90708D1C168C94334
:10243000C90704D1891E0161204600F033F82068E5
:102440000169C943090609D4C168C943090605D40D
:102450006FF0800101612046FFF745FE20680169A9
:10246000C943490609D4C168C943490605D46FF078
:1024700040010161204600F02FF820680169C9433E
:1024800089060BD4C168C943890607D46FF02001BF
:1024900001612046BDE87040FFF726BE70BD704761
:1024A0007047000010B50068084988420CD1084CFC
:1024B0006068401C6060A168884205D340210548DF
:1024C000FFF7FBF80020606010BD00000004004032
:1024D00008040020000802407047704770B5026889
:1024E00004461068D168536910F00F0F52D003F002
:1024F000010501F490762E435FD0C20705D0CA05CE
:1025000003D5E26B42F00102E263420705D5DA0728
:1025100003D0E26B42F00202E263820705D5DA07DC
:1025200003D0E26B42F00402E263020707D501F038
:1025300020022A4303D0E26B42F00802E263E26B1E
:10254000002A33D0800604D5880602D5204600F044
:1025500084FE20684069E16BC0F38010090700D455
:1025600028B3204600F06BFE2068416949061AD561
:10257000416921F040014161606BA0B11B490165D7
:10258000606BFEF787FF002810D0606B016DBDE81F
:1025900070400847830610D58B060ED52046BDE84F
:1025A000704000F05ABE2046FFF797FF70BD2046EE
:1025B000FFF793FF0020E06370BD030606D50B060E
:1025C00004D52046BDE8704000F026BF4006F3D594
:1025D0004806F1D5D168204621F04001D160202184
:1025E00084F8391000F0E3F970BD00002F320808BC
:1025F00070B5040004D094F83900002510B106E04D
:10260000012070BD84F83850204600F023F82420C3
:1026100084F839002068C16821F40051C160204667
:1026200000F066FE2068016921F490410161206894
:10263000416921F02A0141612068C16841F40051DB
:10264000C160E563202084F8390084F83A00002056
:1026500070BD0000F0B587B0044614216846FDF750
:102660000BFE3D4B276800223C4902240325072628
:102670003B489F4221D1394B14331F6847F0100764
:102680001F601B6803F0100305930B6843F0010300
:102690000B60096802AB01F0010105916902CDE907
:1026A000001483E864006946FEF718FF0022114613
:1026B0002520FFF77DF8252024E0284BDFF8A4C073
:1026C0001033674522D11F6847F400371F601B682D
:1026D00003F4003305930B6843F001030B600968B2
:1026E00002AF01F0010105910C21CDE9001487E84A
:1026F00064006946FEF7F2FE002211462620FFF72D
:1027000057F82620FFF746F807B0F0BD1648874275
:10271000FAD1186840F480201860186800F480200E
:102720000590086840F002000860086802AF00F0F9
:10273000020005904FF44060CDE9000487E8640092
:1027400069460A48FEF7CAFE002211462720FFF715
:102750002FF82720D6E70000001001403038024053
:1027600000000240004400400048004000040240D5
:102770002DE9F843044690F83A00994616460D466E
:10278000202852D1BDB1B6B194F8380001284CD000
:10279000012084F838000027E763222084F83A00FB
:1027A0002C34FEF797FF24F8026B804624F80A6B5E
:1027B00004F8387931E00120BDE8F883E08D401E4F
:1027C000E085A0684346B0F5805F4FF000024FF00F
:1027D00020012046CDF8009004D000F04EFE98B1C4
:1027E0000320E9E700F049FE0028F9D1206900281C
:1027F0002068406803D0C1B225F8011B0DE0C0F38A
:10280000080125F8021B08E02069002820684068BC
:1028100001D000F07F0005F8010BE08D0028CDD13C
:10282000202084F83A000020C6E70220C4E790F890
:102830003A30202B22D1F9B1F2B190F83830012B87
:102840001CD081628285C2850021C163222280F86A
:102850003A2080F838100168CA6842F48072CA6071
:1028600001684A6942F001024A610068C16841F0AA
:102870002001C1600020704701207047022070478E
:1028800019490068096888422DD11848016808680C
:10289000C2888388521C9A4205D0C3880289934219
:1028A0000DD182885AB983880268D25C82880389F4
:1028B0009A4201D1002201E08288521C828008687D
:1028C0000B49C38809780268D154C18802899142B2
:1028D00001D1002101E0C188491CC18001220449C5
:1028E0000148FFF7A4BF70473C930120700D002002
:1028F000080400202DE9F843044690F839001F46EB
:1029000016460D46202850D1B5B1AEB194F8380026
:1029100001284AD0012084F838004FF00008C4F89C
:102920003C80212084F83900FEF7D4FEA68481463D
:10293000E68484F8388026E00120BDE8F883E08C46
:10294000401EE084A0684B46B0F5805F4FF0000267
:102950004FF080012046009703D000F08EFDE8B9CB
:102960000DE000F08AFDC8B928882168C0F308008E
:102970004860206908B16D1C05E0AD1C03E02168CA
:1029800015F8010B4860E08C0028D8D14B46002296
:1029900040212046009700F070FD08B10320CCE7ED
:1029A000202084F839000020C7E70220C5E77047DF
:1029B000FEE700002DE9F04F87B014216846FDF7CF
:1029C0005BFC6B480024016841F002010160016872
:1029D00001F002010591016841F008010160016800
:1029E00001F008010591016841F4807101600168FE
:1029F00001F480710591016841F0010101600168F5
:102A000001F001010591016841F080010160016858
:102A100001F080010591016841F004010160016845
:102A200001F004010591016841F020010160006896
:102A3000504E00F020000590002208213046FEF79D
:102A400043FE4D4F00224FF4BF713846FEF73CFE67
:102A5000DFF82881002219214046FEF735FEDFF815
:102A600020A100224FF47F515046FEF72DFEDFF8E3
:102A700014B1002240215846FEF726FEDFF80891E7
:102A8000002240214846FEF71FFE002210213F4849
:102A9000FEF71AFE01250820CDE90005CDE9025414
:102AA00069463046FEF71AFD7C20022603948DE825
:102AB000610069463846FEF711FDCDE900546946CC
:102AC00038460294FEF70AFD4FF48170CDE9000507
:102AD000CDE9025469463846FEF700FD1920CDE9DC
:102AE0000005CDE9025469464046FEF7F7FC062092
:102AF000CDE90004694640460294FEF7EFFC4FF42E
:102B00004050CDE90005CDE9025469465046FEF734
:102B1000E5FCA803CDE90004694650460294FEF79F
:102B2000DDFC40270097CDE90154694658460394DF
:102B3000FEF7D4FC0097CDE901546946484603945A
:102B4000FEF7CCFC4FF47C6003948DE8610069468D
:102B50005046FEF7C3FC10200090CDE901546946B1
:102B60000A480394FEF7BAFC07B0BDE8F08F0000F6
:102B70003038024000040240000C024000200240B5
:102B8000001C024000080240001402400000024005
:102B9000104810B50E4901604FF482714160002168
:102BA0008160C1604FF400720161C0E9051210221A
:102BB000C0E90721416281620A21C162FFF7FCF886
:102BC000002803D0BDE81040FEF763BC10BD000034
:102BD000003001408C910120104810B50E49016071
:102BE0004FF48271416000218160C1604FF4007236
:102BF0000161C0E905121022C0E90721416281622A
:102C00000A21C162FFF7D8F8002803D0BDE81040C0
:102C1000FEF73FBC10BD000000500140E4910120D0
:102C200010B586B0002417480094019402940394D0
:102C300004944FF08041059401604AF6C771C0E9E1
:102C400001144FF47A71C0E9031480218161FFF708
:102C500095FA08B1FEF71DFC4FF4805000906946CC
:102C60000848FFF7FDFA08B1FEF713FC049404A925
:102C700004480594FFF73AFA002801D0FEF709FC52
:102C800006B010BD3C92012010B586B00024174854
:102C900000940194029403940494134905940160F0
:102CA0004AF6C771C0E901140121C0E9031480216B
:102CB0008161FFF763FA08B1FEF7EBFB4FF4805038
:102CC000009069460948FFF7CBFA08B1FEF7E1FB2F
:102CD000049404A905480594FFF708FA002801D0D8
:102CE000FEF7D7FB06B010BD000400407C92012027
:102CF0000C4810B50A4901604FF4E13141600021F0
:102D000081600C22C160C0E904128161C161FFF7DA
:102D10006FFC002803D0BDE81040FEF7BABB10BD21
:102D200000100140BC9201200C4810B50A49016016
:102D30004FF4E1314160002181600C22C160C0E9A3
:102D400004128161C161FFF753FC002803D0BDE884
:102D50001040FEF79EBB10BD00440040FC920120D5
:102D60000C4810B50A4901604FF4E131416000217F
:102D700081600C22C160C0E904128161C161FFF76A
:102D800037FC002803D0BDE81040FEF782BB10BD21
:102D9000004800403C930120FEE770472DE9F041D8
:102DA0000F460446164647A1504800F017FC504D08
:102DB000287800284D4806D0FDF769FA01464B48AF
:102DC00005F0E2F907E0FDF762FA82B2FF23474916
:102DD0004848FFF78FFD224647A1444800F0FEFB1C
:102DE00028780028414806D0FDF751FA01463F48AF
:102DF00005F0CAF907E0FDF74AFA82B2FF233B4922
:102E00003C48FFF777FD00243FE020071AD105205A
:102E1000FEF752FB22093AA1344800F0DFFB287884
:102E20000028324806D0FDF732FA01462F4805F057
:102E3000ABF907E0FDF72BFA82B2FF232B492D48AF
:102E4000FFF758FD2007B0F1704F02D0701E84428A
:102E500001D12DA300E02DA33A5D2DA1234800F060
:102E6000BDFB28780028214806D0FDF710FA01465E
:102E70001E4805F089F907E0FDF709FA82B2FF2341
:102E80001A491C48FFF736FD641CB442BDD323A188
:102E9000164800F0A3FB28780028144807D0FDF757
:102EA000F6F9BDE8F0410146104805F06DB9FDF7AF
:102EB000EEF9BDE8F04182B2FF230C490D48FFF75F
:102EC00019BD00002A2A2A2A2A2A2A2A2A2A2A2A34
:102ED0002A205052494E5420484558202A2A2A2A4E
:102EE0002A2A2A2A2A2A2A2A2A0D0A008C8F012015
:102EF000090400203C93012025733A0D0A000000CC
:102F000025303858203A20000D0A0000200000002B
:102F10003078253032582573000000002A2A2A2AEA
:102F20002A2A2A2A2A2A2A2A2A205052494E54205A
:102F3000454E44202A2A2A2A2A2A2A2A2A2A2A2AA2
:102F40002A0D0A007047000038B504461248134B9A
:102F50000068B0FBF3F04FF47A7358430090606858
:102F6000B0F5827F0DD10B460092002280212046D1
:102F700000F016F870B1606D40F02000606503202D
:102F800038BD009830B1401E009020688068C04372
:102F90000006F6D5002038BD800D002000366E01F9
:102FA0002DE9F0411D4617460E460446DDF818800F
:102FB00008E0681C06D0FEF78DFBA0EB0800A842D5
:102FC0000BD255B12068806836EA000030D000206E
:102FD000B842EED10020BDE8F0812068416821F0C0
:102FE000E00141606068B0F5827F0BD1A068B0F568
:102FF000004F02D0B0F5806F04D12068016821F045
:1030000040010160A06AB0F5005F09D12068016845
:1030100021F4005101602068016841F40051016011
:10302000012084F85100002084F850000320D2E7EA
:103030000120CDE77047FEF753BB000030B593B0D9
:1030400030216846FDF718F914210CA8FDF714F992
:103050001B480025016841F080510160006800F0C4
:10306000805011901748016841F4404101600068A8
:10307000022400F4404011900120009000040190CF
:103080008001CDE90640142008904FF4B470CDE9DA
:10309000090404200B906846FEF7E0FCFEF7BAFB3B
:1030A0000CA90F2081E831004FF4A0500F90E002EE
:1030B000109005210CA8FEF7E5FB13B030BD000011
:1030C00040380240007000400448016841F470013B
:1030D00001600249024880390860704788ED00E0CD
:1030E000000008080148FFF727B900003C920120C2
:1030F0000148FFF721B900007C920120F0B5026879
:10310000254C264D264E274F274B4FF0804CA04292
:1031100009D0604507D0A84205D0B04203D0B842DC
:1031200001D0984204D122F0700E4A6842EA0E02A1
:10313000A0421BD0604519D0A84217D0B04215D08C
:10314000B84213D0984211D0184DA8420ED0184D55
:10315000A8420BD0174DA84208D0174DA84205D061
:10316000164DA84202D0164DA84203D122F4407554
:10317000CA682A434D6922F080022A4302608A68A5
:10318000C2620A688262A04201D0984201D10969F4
:10319000016301214161F0BD0000014000040040D5
:1031A00000080040000C00400004014000400140C5
:1031B000004401400048014000180040001C00404D
:1031C0000020004010B5846842EA032224F47F44C2
:1031D0000A432243826010BD826822F070020A43D3
:1031E00042F007018160704710B5036A046A24F059
:1031F00001040462846924F0F00444EA021423F018
:103200000A020A438461026210BD10B5036A23F00A
:10321000100303628369046A23F4704343EA0232B1
:1032200024F0A00343EA01118261016210BD10B5D0
:10323000806B0021C185C184FFF74FF910BD016883
:10324000CA6822F49072CA6001684A6922F00102D9
:103250004A61202180F83A10704710B590F83A1072
:10326000222901D0022010BD8168B1F5805F11D004
:103270000169002901681FD0496801F07F03816A54
:103280004A1C82620B70C18D491E0904090CC1855C
:1032900018D02BE00269816A002A0268526805D0C2
:1032A000D2B20A80816A491C8162ECE7C2F308024B
:1032B0000A80816A891CF7E74A68816A4B1C83622D
:1032C0000A70E0E70168CA6822F02002CA6001685B
:1032D000CA6822F48072CA6001684A6922F0010259
:1032E0004A61202180F83A10FFF7CAFA002010BD89
:1032F0002DE9F041044600680169E26821F440517B
:10330000114301612169A068E269084361691143C1
:1033100008432168CA6849F20C639A430243CA60B1
:1033200020684169A26921F4407111434161E0695B
:10333000192764253226B0F5004F354A35492068F3
:103340004FF0000806D0884201D0904236D1FEF7F7
:1033500043FB35E0884201D0904202D1FEF73CFBAE
:1033600001E0FEF729FB61684A18A0FB070148EB62
:103370000803FCF737FF0146B0FBF5F00201B1FB93
:10338000F5F06FF01803584301EB800006EBC00026
:10339000B0FBF5F000F0F80002EB4002B1FBF5F0F5
:1033A000584301EB800006EBC000B0FBF5F000F0E5
:1033B0000700216810448860BDE8F081FEF7FCFA40
:1033C00061688B0F8A00A0FB0701FCF70BFF014629
:1033D000B0FBF5F06FF01802504301EB800006EBF4
:1033E0000010B0FBF5F000F0F002B1FBF5F002EBDD
:1033F0000012B1FBF5F06FF01803584301EB8000A9
:1034000006EB0010B0FBF5F000F00F00D1E7000074
:10341000001401400010014090F83910212901D01A
:10342000022070478168B1F5805F016A0BD04A1CA9
:103430000262026809785160C18C491E0904090CB6
:10344000C1840ED017E009880268C1F308015160F9
:1034500001690029016A02D0491C0162ECE7891C5C
:10346000FBE70168CA6822F08002CA600068C16890
:1034700041F04001C160002070472DE9F0419846BD
:1034800017460E460446069D1DE0681C1BD02DB154
:10349000FEF720F9A0EB0800A84214D92068C16803
:1034A00021F4D071C1602068416921F001014161BE
:1034B000202084F8390084F83A00002084F838008D
:1034C0000320BDE8F0812068006836EA000004D0DF
:1034D0000020B842D9D00020F3E70120F9E700002E
:1034E0000148FEF7FBBF0000BC92012070B51A4CEA
:1034F0001A4920680968884228D11949097829B3EE
:10350000C168184D890608D50168890605D5406847
:10351000C1B22868006804F0E4FD2068C1680906AB
:103520000CD50068000609D52868406804F0D1FD74
:1035300028B12068C16821F08001C16070BD286891
:10354000406804F0EEFD2168486070BDBDE8704041
:103550000248FEF7C3BF00003C930120FC9201200B
:1035600009040020700D002070B51848007838B3A9
:10357000174D2868C168174C890608D50168890667
:1035800005D54068C1B22068006804F0AAFD28682B
:10359000C16809060CD50068000609D52068406896
:1035A00004F097FD28B12868C16821F08001C1604E
:1035B00070BD2068406804F0B4FD2968486070BDA3
:1035C000BDE870400248FEF789BF000009040020F2
:1035D0003C930120700D0020FEE700000FB4084B63
:1035E00010B504A902AA039800F024F9044602A920
:1035F000002000F0B6FC204610BC5DF814FB000073
:10360000633F08080907090E002804DB00F1E020E9
:1036100080F80014704700F00F0000F1E02080F8FF
:10362000141D704700487047880D002000000000FE
:1036300030B583B0044600F017F89FED090B05463E
:103640008DED000B002221466846FDF742FB28461F
:1036500000F020F89DED000B03B030BD000000002D
:1036600000000000000000000148006870470000F2
:10367000880D002002E008C8121F08C1002AFAD1F4
:1036800070477047002001E001C1121F002AFBD1E2
:10369000704700000149086070470000880D002055
:1036A0002DE9FF5F82B00021DDE90430020DDDF875
:1036B00040B0034318D044F61050A2F2FF32424308
:1036C0001514119801281FD0A5EB0B00401C5FEAD0
:1036D000000A4FF000064E4FDFF83891B0465046D2
:1036E00015D5CAF1000413E0119801244AA301285A
:1036F00001D16FEA0B010298119AC0E90031C0E9CB
:10370000024206B0BDE8F09FCBF10000DFE70446BF
:103710000021404A491842EB0450CDE9001012E064
:10372000E00707D032463B4640464946FDF7C9F818
:103730008046894632463B4610461946FDF7C1F899
:1037400006460F466410002CEAD1DDE90401DDE9EC
:103750000023BAF1000F06DAFDF7B3F842464B46F4
:10376000FDF7AFF805E0FDF71EF942464B46FDF7C1
:103770001AF904460E460022284BFDF705FC03D833
:103780004FF0FF30014607E00022254B204631462E
:10379000FDF72FFBFDF7E0FB102409E0002C0ADB0E
:1037A0000A220023FCF71EFD039B30321A55641ECB
:1037B00050EA0102F2D1641C039AC4F111031444CB
:1037C000119A012A03D0012208430DD10AE00843CF
:1037D00004D000204FF0110B119072E7A3EB0B0502
:1037E0006D1E0DE05B4504DD4FF0000205F10105A3
:1037F00004E003DA4FF00002A5F10105002AECD045
:1038000002981199C0E90231C0E9004579E700004A
:10381000000014400000F03F300000000000F043C2
:103820000000E03F30380A2801D201207047002014
:10383000704700002DE9FF4F95B09B46894606462C
:1038400000250FE2252877D100242746F84A0121D8
:10385000059400E0044316F8013F203B01FA03F011
:103860001042F7D130782A2811D06FF02F0330782A
:10387000A0F13002092A16D8059A44F0020402EB9E
:10388000820203EB42021044761C0590EFE759F8E0
:10389000042B0592002A03DA504244F400540590A8
:1038A00044F00204761C30782E2816D116F8010F49
:1038B00044F004042A280DD06FF02F023078A0F1D4
:1038C0003003092B09D807EB870302EB4303C71822
:1038D000761CF3E759F8047B761C30786C280FD0FF
:1038E00006DC4C2817D068280DD06A2814D104E0D3
:1038F000742810D07A280FD10DE044F400140AE0A7
:1039000044F4801401E044F440147278824202D1FD
:1039100004F58014761C761C307866280BD013DCF6
:10392000582877D009DC002875D04528F6D04628DD
:10393000F4D047281AD19DE118E0632835D06428D7
:1039400079D0652812D195E1702873D008DC6728FA
:10395000F1D069286FD06E280DD06F2806D1B5E060
:1039600073282CD0752875D0782874D05A461799AA
:1039700090476D1C75E1C4F30250022809D003285A
:103980000DD0D9F8001004280DD00D6009F10409FC
:1039900067E1D9F80010EA17C1E90052F6E7D9F853
:1039A00000100D80F2E70D70F0E719F8041B8DF898
:1039B000001000208DF80100EA46012003E059F8CC
:1039C00004AB4FF0FF3061074FF0000102D40DE06F
:1039D00008F101018846B9420FDA8045F8DB1AF890
:1039E00008100029F4D108E008F10101884681425D
:1039F000FADB1AF808100029F6D105985B46A0EB0F
:103A0000080721463846179A00F094FA284400EB3C
:103A1000080507E04DE029E10DE01AF8010B5A46D0
:103A200017999047B8F10108F7D25B46214638460E
:103A3000179A13E142E00A220092C4F302524FF0B7
:103A4000000A022A08D059F804CB032A4FEAEC7185
:103A50000AD00DE029E02AE009F1070121F0070270
:103A6000F2E802C1914609E00FFA8CFC4FEAEC71D2
:103A7000042A03D14FFA8CFC4FEAEC71002907DAD3
:103A80000A460021DCF1000C61EB02012D2202E06C
:103A9000220504D52B228DF80420012203E0E20741
:103AA00001D02022F7E7904659E00A2102E01022D7
:103AB0000DE010214FF0000A00910BE010224FF0B2
:103AC000000A44F004040827009203E008224FF0A3
:103AD000000A0092C4F30252022A05D059F804CB1E
:103AE0000021032A08D009E009F1070121F00702AB
:103AF000F2E802C1914605E01FFA8CFC042A01D1CC
:103B00000CF0FF0C4FF00008220728D5702806D0D3
:103B1000009B83F0100353EA0A0305D00EE0402215
:103B20008DF80420012208E05CEA010206D0302270
:103B30008DF804208DF8050002229046009B83F04A
:103B4000080353EA0A030AD15CEA010201D16207C1
:103B500005D530228DF804204FF001087F1E58282B
:103B600004D034A003900EA802900DE036A0F9E72F
:103B700053466046009AFCF735FB84460398825C06
:103B80000298401E029002705CEA0100F0D1029897
:103B900006A9081A00F1200A600702D524F480342F
:103BA00000E00127574502DDA7EB0A0000E00020F6
:103BB00000EB0A01009005984144401A0590E0038B
:103BC00006D45B462146179A059800F0B3F90544E0
:103BD000002706E001A85A46C05D179990476D1C62
:103BE0007F1C4745F6DBE0030CD55B462146179A60
:103BF000059800F09FF9054404E030205A461799D3
:103C000090476D1C0099481E00900029F5DC08E0E3
:103C1000029802995A460078491C029117999047D8
:103C20006D1CBAF10001AAF1010AF1DC65E10000A6
:103C30000928010030313233343536373839616282
:103C40006364656600000000303132333435363746
:103C500038394142434445460000000000F058F91D
:103C60000544761C307800287FF4ECAD19B0284666
:103C7000BDE8F08F620700D4062709F1070222F0A1
:103C8000070CFCE80223E14603F000485FEA080C59
:103C900002D00FF2702C0DE05FEA045C02D50FF247
:103CA000682C07E05FEAC47C02D00FF2602C01E0D0
:103CB000AFF2700C4FF0FF3823F00043CDF850C046
:103CC00065280CD006DC452809D046281DD0472899
:103CD0003DD13DE0662818D067287ED138E000212C
:103CE000112F01DB112000E0781CCDE9000106A9AD
:103CF0000EA8FFF7D5FCDDE90F010E9A0391002114
:103D0000009207F1010A04914DE04FF00040009746
:103D1000CDE9011006A90EA8FFF7C2FCDDE90F02EC
:103D200003920E9B11990022DDF80CA000930492DF
:103D300011B9791C00EB010AB7EB0A0004D4C0F1F9
:103D4000FF3007F1010A0490AAEB0700019044E05C
:103D5000012F00DA01270021112F01DD112000E0E1
:103D60003846CDE9000106A90EA8FFF799FCDDE968
:103D70000F010E9A0391002104910092BA46210787
:103D80000CD40399514500DA8A46BAF1010F05DDDA
:103D9000009AAAF10101515C302908D0B84202DA38
:103DA00010F1040F06DA0121CDE9011015E0AAF1A6
:103DB0000101E9E7002805DC049901440491AAEB1C
:103DC000000102E0411C514500DD8A460499401A79
:103DD000401C01904FF000400290200704D401984D
:103DE000504501DBCDF8048000208DF84F0002988B
:103DF0000DF14F07B0F1004F25D02B200E90029807
:103E00004FF0020800280CDA404202902D200E905C
:103E100007E00A210298FCF765FE3031029007F8AE
:103E2000011DB8F10001A8F10108F2DC0298002898
:103E3000EFD1791E0E980870307800F0200040F025
:103E4000450007F8020D12A8C01B00F107081498DE
:103E5000007800B1012000EB0A01019801EBE0714C
:103E600005984144401A401E0590E00306D45B4685
:103E70002146179A059800F05DF8054414980078DB
:103E800018B15A46179990476D1CE00324D55B463C
:103E90002146179A059800F04DF805441CE0049857
:103EA000002807DBDDE90301884203DD0098405C60
:103EB000179901E0179930205A469047049805F168
:103EC0000105401C04900198401E019004D12E2051
:103ED0005A46179990476D1CBAF10001AAF1010AE0
:103EE000DDDC05E017F8010B5A46179990476D1C69
:103EF000B8F10001A8F10108F4DC5B462146179AED
:103F00000598ABE62D0000002B000000200000000B
:103F10002DE9F041044600251E461746880404D4C6
:103F200005E039462020B0476D1C641EF9D52846AF
:103F3000BDE8F0812DE9F041044600251E4690467B
:103F4000C80301D5302700E02027880404D505E008
:103F500041463846B0476D1C641EF9D52846BDE879
:103F6000F0810A68531C0B6010707047F0B52DED9E
:103F7000028B83B00C4602280AD132A16068FCF79C
:103F8000C7F9314D68B131A16068FCF7C1F938B1AA
:103F9000206800F09DFB002003B0BDEC028BF0BD5B
:103FA000012028702A4800902A4B01222649182017
:103FB00003F0BAFE0500EFD127A12C48FFF70EFB56
:103FC0002B4E30780028294806D0FCF760F90146CE
:103FD000264804F0D9F807E0FCF759F982B2FF232C
:103FE00022492448FEF786FC1A4F9FED238B0024BC
:103FF00007EB4400808840BA00B2FCF743FD53EC65
:10400000182BFCF7D0FCCDE90001621C1CA117485D
:10401000FFF7E4FA30780028144806D0FCF737F9A7
:104020000146124804F0B0F807E0FCF730F982B21C
:10403000FF230E490F48FEF75DFC641C402CD7D3CC
:104040002846A9E7300000008C8E012031000000D6
:10405000000000208C8D0120496E73657274696FB9
:104060006E204C6F73733A0D0A0000008C8F012094
:10407000090400203C93012000000000000059408A
:1040800025752C252E326C660D0A000070B50C4685
:104090000546052822D0032D2CD0042D42D0052D15
:1040A00005D392A16068FCF733F9002852D0022DA5
:1040B00056D0032D23D0042D39D0052D75D0032DD6
:1040C00029D0022D57D0042D37D0032D6ED0022DCC
:1040D00057D0032D6BD0022D59D0BDE084A160686C
:1040E000FCF716F90028DCD121462846BDE87040CF
:1040F00001F018B97FA16068FCF70AF960B17EA1F0
:104100006068FCF705F9002858D07DA16068FCF7CD
:10411000FFF8002858D05CE021462846BDE87040F2
:1041200000F044BE77A16068FCF7F2F860B176A1B8
:104130006068FCF7EDF8002876D074A16068FCF7A1
:10414000E7F800287ED087E021462846BDE8704089
:1041500002F060BF21462846BDE8704000F054BF21
:104160006DA16068FCF7D4F810B36FA16068FCF72C
:10417000CFF8002852D06EA16068FCF7C9F800287B
:104180007BD06EA16068FCF7C3F800287DD00222C6
:104190006DA16068FCF7D1F8002877D06BA160684A
:1041A000FCF7B6F8002872D056E043E01BE024E0AC
:1041B00021462846BDE8704001F0ACBF21462846A4
:1041C000BDE8704001F08AB963A1A068FCF7A0F8CF
:1041D000F0B163A16068FCF79BF8A0B362A16068CE
:1041E000FCF796F880B363A16068FCF791F860B3C0
:1041F00062A16068FCF78CF840B362A16068FCF7CC
:1042000087F828B362A16068FCF782F8E0B323E086
:1042100021462846BDE8704002F06CBB2146284686
:10422000BDE8704002F0C4B821462846BDE87040A1
:1042300002F08EB957A16068FCF76AF860B957A11F
:10424000E06806E01FE00CE011E027E02CE014E05D
:1042500036E0FCF75DF820B1206800F039FA002064
:1042600070BD21462846BDE8704002F0A7BD21463A
:104270002846BDE8704002F021BB21462846BDE833
:10428000704002F0C1BF03E020E013E024E029E029
:1042900021462846BDE8704002F0A0BB21462846D2
:1042A000BDE8704002F052BB21462846BDE8704090
:1042B00002F074BB21462846BDE8704001F0C2BD43
:1042C00021462846BDE8704002F030BB2146284612
:1042D000BDE8704002F0EABB21462846BDE87040C8
:1042E00001F0FEBCBDE8704001F0A6BC63616C004B
:1042F000646163006164630064756D7000000000B8
:10430000667700007461670070696E007365745FA2
:10431000746F7361000000006765745F746F736190
:104320005F76616C000000006D6F6E69746F7200E3
:10433000746573745F746F73610000006765745F08
:1043400074656D700000000070640000696E746533
:10435000725F65787000000072657365740000001C
:10436000727873775F696F007072696E745F6865E9
:10437000780000007365745F7465630074696D652F
:10438000720000007365745F667265710000000062
:1043900073706900747873775F696F00746F0000E1
:1043A00038B5012804D9086800F092F9002038BD1A
:1043B000134800220090134B1146062003F0B4FC72
:1043C0000400F4D10F4A10A150731548121DFFF7D5
:1043D00005F9144800780028114806D0FBF757FF6C
:1043E00001460F4803F0D0FE07E0FBF750FF82B212
:1043F000FF230B490C48FEF77DFA204638BD00002C
:10440000000000208C8D01204D656E75666163741F
:1044100075726520446174653A2025730D0A0000A9
:104420008C8F0120090400203C93012038B501281D
:1044300004D9086800F04CF9002038BD1348002268
:104440000090134B1146072003F06EFC0400F4D1DA
:104450000F4A10A150751448121DFFF7BFF81348FA
:1044600000780028104806D0FBF711FF01460E48DF
:1044700003F08AFE07E0FBF70AFF82B2FF230A4936
:104480000B48FEF737FA204638BD00000000002038
:104490008C8D012050617274204E756D6265723A88
:1044A0002025730D0A0000008C8F012009040020D4
:1044B0003C93012038B5012804D9086800F008F9B8
:1044C000002038BD134800220090134B11460220F3
:1044D00003F02AFC0400F4D10F4A10A19073144891
:1044E000121DFFF77BF8134800780028104806D00B
:1044F000FBF7CDFE01460E4803F046FE07E0FBF752
:10450000C6FE82B2FF230A490B48FEF7F3F92046A4
:1045100038BD0000000000208C8D012053657269B9
:10452000616C204E756D6265723A2025730D0A002C
:104530008C8F0120090400203C93012038B501280C
:1045400004D9086800F0C4F8002038BD13480022E0
:104550000090134B1146082003F0E6FB0400F4D151
:104560000F4A10A150751348121DFFF737F8124873
:10457000007800280F4806D0FBF789FE01460D4859
:1045800003F002FE07E0FBF782FE82B2FF23094937
:104590000A48FEF7AFF9204638BD000000000020B1
:1045A0008C8D012056656E646F723A2025730D0A5A
:1045B000000000008C8F0120090400203C930120A2
:1045C0002DE9F04786B02022102101A8FBF74DFE0F
:1045D0000024DFF8C8900DF1040A314D314F56E048
:1045E00004EB840605EB86082FA1D8F80C00FBF736
:1045F00055FE00284AD055F82600FBF748FEC0F1CA
:104600000C0100220AF801202AA12C48FEF7E6FF3F
:1046100099F800000028294806D0FBF738FE01462B
:10462000264803F0B1FD07E0FBF731FE82B2FF231D
:1046300022492348FEF75EF9D8F80800009055F8A3
:10464000262001AB1FA11D48FEF7C8FF99F8000006
:1046500000281A4806D0FBF71AFE0146174803F057
:1046600093FD07E0FBF713FE82B2FF2313491448C2
:10467000FEF740F955F82600FBF709FEC0F10C01E2
:1046800020220AF801201E20FCF716FF641C38685F
:104690008442A5D306B00020BDE8F08709040020BD
:1046A0001404002084870808494E5445524E414C5A
:1046B00000000000636D643A200000008C8F012030
:1046C0003C930120257325732D2025730D0A0000CE
:1046D0002DE9F04107460026534D544C09E000BF38
:1046E00006EB8600394655F82000FBF711FE30B185
:1046F000761C20688642F3D30020BDE8F0814CA1EF
:104700004D48FEF76BFF4D4C207800284A4806D0F4
:10471000FBF7BDFD0146484803F036FD07E0FBF717
:10472000B6FD82B2FF2344494548FEF7E3F806EBA5
:10473000860644A155F826203F48FEF74FFF207813
:1047400000283D4806D0FBF7A2FD01463A4803F099
:104750001BFD07E0FBF79BFD82B2FF23364938487B
:10476000FEF7C8F839A13448FEF738FF2078002852
:10477000314806D0FBF78BFD01462F4803F004FDBE
:1047800007E0FBF784FD82B2FF232B492C48FEF79C
:10479000B1F805EB86052BA12748EA68FEF71EFF56
:1047A00020780028244806D0FBF771FD01462248F6
:1047B00003F0EAFC07E0FBF76AFD82B2FF231E4923
:1047C0001F48FEF797F825A11B48FEF707FF207842
:1047D0000028194806D0FBF75AFD0146164803F099
:1047E000D3FC07E0FBF753FD82B2FF2312491448C4
:1047F000FEF780F813A110482A69FEF7EFFE207833
:1048000000280D4806D0FBF742FD01460A4803F098
:10481000BBFC71E7FBF73BFD82B2FF23064908486A
:10482000FEF768F868E70000140400208487080891
:10483000636D643A200000008C8F01200904002081
:104840003C93012025730D0A000000002020202049
:104850002075736167653A20202000002020202009
:10486000206578616D706C653A200000F8B50C46E3
:10487000022810D126A16068FBF74AFD254E264D7F
:1048800070B126A16068FBF743FD50B124A16068B8
:10489000FBF73EFD80B12068FFF71AFF0020F8BD4E
:1048A00001203070204B01221A492520009503F089
:1048B0003BFA0028F3D1F1E71B4B002215492620D3
:1048C000009503F031FA0028E9D11748174C007918
:1048D00080B1012819D016A11F48FEF77FFE20786D
:1048E00000281D4808D0FBF7D2FC01461A4803F007
:1048F0004BFCD3E719A1EFE7FBF7C9FC82B2FF231A
:1049000015491E48FDF7F6FFC8E71DA1E4E70000C2
:104910006F6E00008C8E0120000000206F66660024
:104920006D6F6465000000008C8D0120090400207B
:10493000496E76616C69642076616C75652072657C
:104940007475726E65642066726F6D206D6F64752C
:104950006C650D0A000000008C8F01204D6F64759E
:104960006C6520696E204E6F6E2D6D6F64756C6185
:1049700074696F6E206D6F64650D0A003C930120B1
:104980004D6F64756C6520696E206D6F64756C6128
:1049900074696F6E206D6F64650D0A00F8B50025AF
:1049A0000C4602280FD11DA16068FBF7B1FC1D4E1B
:1049B00070B11DA16068FBF7ABFCA0B11CA16068E1
:1049C000FBF7A6FCE8B12068FFF782FE0020F8BDE7
:1049D000002201213046FCF777FE0120FCF76CFD38
:1049E0000122114609E0002210213046FCF76CFE3E
:1049F0000120FCF761FD012210213046FCF764FE26
:104A00000AE00D480D4B0090002203F580718420D0
:104A100003F08AF90500DAD12846F8BD68617264AE
:104A200000000000002002406D6173746572000098
:104A3000736F667400000000000000208C8D012060
:104A400070B50C460546032804D30FA16068FBF738
:104A50005FFC10B1022D06D00AE021462846BDE8D1
:104A6000704003F015BC0AA16068FBF751FC20B14F
:104A70002068FFF72DFE002070BD21462846BDE8C6
:104A8000704002F02BBC0000777269746500000072
:104A9000726561640000000038B5012804D9086817
:104AA000FFF716FE002038BD1A481B4B009000226D
:104AB00003F58071172003F037F90400F3D116488D
:104AC000808840BA00B2FBF7DDFF9FED141B53EC6A
:104AD000112BFBF768FF41EC100B12A153EC102BCC
:104AE0001648FEF77BFD164800780028134806D0CC
:104AF000FBF7CDFB0146114803F046FB07E0FBF74F
:104B0000C6FB82B2FF230D490E48FDF7F3FE204697
:104B100038BD0000000000208C8D01200000000046
:104B20000000244054656D70657261747572653A59
:104B300020252E316C66430D0A0000008C8F012069
:104B4000090400203C93012010B50C46082802D02F
:104B500002280CD010E00DA16068FBF7D9FB58B912
:104B600004F10801BDE81040062003F059BB08A17C
:104B70006068FBF7CDFB20B12068FFF7A9FD00209E
:104B800010BDBDE8104002F05BBB0000736574000F
:104B90006765740070B50C460546042802D0022DE6
:104BA0000AD013E011A16068FBF7B2FB70B921468F
:104BB000284603F0C1FB0CE00DA16068FBF7A8FBE1
:104BC00048B10CA16068FBF7A3FB48B12068FFF770
:104BD0007FFD002070BD2146284602F027FCF8E743
:104BE0002146284602F0AAFCF3E700007365740032
:104BF000676574007468720010B50C46022802D014
:104C0000032816D01FE016A16068FBF781FB50B1A6
:104C100015A16068FBF77CFB48B115A16068FBF744
:104C200077FBC8B10FE0BDE8104003F055BD01208F
:104C30000EE00DA16068FBF76BFB20B90DA1A06829
:104C4000FBF766FB20B12068FFF742FD002010BD96
:104C5000BDE8104003F0B6BBBDE8104003F07ABDDC
:104C6000696E69740000000066696C6500000000F0
:104C700072756E006E6F5F7665726966790000000E
:104C8000F8B5304F304E0C46022806D0012832D9F4
:104C90002068FFF71DFD0020F8BD2CA16068FBF720
:104CA00037FB0028F4D141F287342A4B002203F568
:104CB00080710320009603F037F8050019D02246D2
:104CC00025A12848FEF78AFC38780028254806D018
:104CD000FBF7DDFA0146234803F056FA07E0FBF73D
:104CE000D6FA82B2FF231F491F48FDF703FE28466C
:104CF000F8BD641ED9D2174B002203F58071032042
:104D0000009603F011F80400F2D1124A17A11073B3
:104D10001448121DFEF762FC38780028114806D0AE
:104D2000FBF7B5FA01460F4803F02EFA07E0FBF750
:104D3000AEFA82B2FF230B490B48FDF7DBFD20469C
:104D4000F8BD0000090400200000002072657065B5
:104D5000617400008C8D012069203D2025750D0AAD
:104D6000000000008C8F01203C9301204669726D89
:104D7000776172652056657273696F6E3A2025738C
:104D80000D0A000010B50C46022804D106A1606887
:104D9000FBF7BEFA20B12068FFF79AFC002010BD97
:104DA000BDE8104002F0D0BC676574002DE9F84FF3
:104DB0000C468868022269A1FBF7BFFA684E0028FA
:104DC000DFF8A0A1DFF8A081684DA06806F108090E
:104DD000A6F5807747F6FF7B0BD0032264A1FBF793
:104DE000ACFA002864D02068FFF772FC0020BDE810
:104DF000F88F0A220021801CFBF72AFD0346401E83
:104E0000082818D35BA16148FEF7E8FB2878002842
:104E10005E4806D0FBF73BFA01465C4803F0B4F964
:104E200007E0FBF734FA82B2FF2358495848FDF7F0
:104E300061FD0120DBE74A495046FCF7F9FA311DD4
:104E40000220FCF7F5FA49461846FCF7F1FA514BF7
:104E50000C2243495846CDF8008002F065FF04005B
:104E6000C5D1381DFCF7ECFA83B2020C4AA14748C1
:104E7000FEF7B4FB28780028444806D0FBF707FA71
:104E80000146424803F080F907E0FBF700FA82B2DE
:104E9000FF233E493E48FDF72DFD3E480830FCF714
:104EA000CFFA83B2020C45A13848FEF797FB3FE0EA
:104EB000A0680A220021C01CFBF7CAFC0346072891
:104EC00018D947A13148FEF789FB287800282F48D8
:104ED00006D0FBF7DCF901462C4803F055F907E052
:104EE000FBF7D5F982B2FF2328492948FDF702FDD7
:104EF00002207CE71A495046FCF79AFA311D03203C
:104F0000FCF796FA49461846FCF792FA214B0C2218
:104F100013495846CDF8008002F006FF040089D1FD
:104F2000381DFCF78DFA82B233A11848FEF756FB04
:104F300028780028154806D0FBF7A9F90146134840
:104F400003F022F907E0FBF7A2F982B2FF230F4931
:104F50000F48FDF7CFFC204649E7000073770000BB
:104F60008C8E0120A5A55A5A0000002009040020BB
:104F7000766F6C00537769746368206E756D626537
:104F80007220696E76616C69640D0A008C8F012055
:104F90003C9301208C8D0120506F73697469766594
:104FA0002078203D2025752C204E65676174697638
:104FB000652078203D2025750D0A0000506F73692B
:104FC000746976652079203D2025752C204E656713
:104FD00061746976652079203D2025750D0A0000F1
:104FE000414443206E756D62657220696E76616C16
:104FF00069640D0A0000000056616C7565203D2053
:1050000025750D0A000000002DE9F04FAB4D0C4650
:105010002DED028B8DB0DFF8A082A94E05F10801BD
:1050200005F10C0B05F1100A05F114099FEDA58B94
:105030000391062804D0082863D005287DD0D9E044
:105040000222A2A1A068FBF778F90028A06805D089
:105050009FA1FBF75DF9002870D0CBE00A22002168
:10506000801CFBF7F5FB0746401E08281DD399A1BD
:105070009E48FEF7B3FA98F8000000289B4806D037
:10508000FBF705F90146994803F07EF807E0FBF7C6
:10509000FEF882B2FF2395499548FDF72BFC0120CD
:1050A0000DB0BDEC028BBDE8F08F0A220021E06854
:1050B000FBF7CEFB804601AA8EA12069FBF756F9CB
:1050C0000AAA8CA16069FBF751F97C498A48FCF770
:1050D000AFF9291D0620FCF7ABF938460399FCF718
:1050E000A7F959464046FCF7A3F951460198FCF749
:1050F0009FF949460A98FCF79BF9804B18220096C5
:105100006DE07FA1A068FBF703F9002872D10A22A5
:105110000021E068FBF79CFB411E0A291CD37AA101
:105120007248FEF75BFA98F8000000286F4809D033
:10513000FBF7ADF801466D4801E056E087E003F06B
:1051400023F807E0FBF7A3F882B2FF23674968481A
:10515000FDF7D0FB0220A3E7471E0A2200212069A9
:10516000FBF776FB02900A2200216069FBF770FBD7
:1051700004900A220021A069FBF76AFB804606AA78
:1051800066A1E069FBF7F2F89DED060B53EC182BD6
:1051900051EC100BFBF795FBFBF785FC01904749A1
:1051A0005548FCF745F9291D1220FCF741F938460E
:1051B0000399FCF73DF959460298FCF739F9514635
:1051C0000498FCF735F949464046FCF731F93B496C
:1051D00001981831FCF72CF9484B1C2200963749EE
:1051E00047F6FF7002F0A0FD5AE74DA1A068FBF75B
:1051F0008FF820B12068FFF76BFA002050E70A22F1
:105200000021E068FBF724FB07462069FEF710FA4F
:105210008DED060B53EC182B51EC100BFBF751FBEB
:10522000FBF741FC019025493348FCF701F9291DA2
:105230000720FCF7FDF838460399FCF7F9F85946C2
:105240000198FCF7F5F82D4B10220096C7E70A22CB
:105250000021E068FBF7FCFA80460A220021206961
:10526000FBF7F6FA074606AA2CA16069FBF77EF861
:105270009DED060B53EC182B51EC100BFBF721FBAB
:10528000FBF711FC01900D491B48FCF7D1F8291DD3
:105290001420FCF7CDF840460399FCF7C9F85946AD
:1052A0003846FCF7C5F851460198FCF7C1F8134B96
:1052B0001422009693E70000090400208C8E012040
:1052C000000000200000000000005940737700003B
:1052D00070643200496E76616C696420537769743A
:1052E0006368206E756D6265720D0A008C8F0120F7
:1052F0003C93012025640000A5A55A5A8C8D0120FD
:10530000746F736100000000496E76616C696420FF
:105310006E756D6265720D0A00000000256C6600F6
:10532000696C00002DE9FE430C46886850A1FAF72D
:10533000EFFF504E58B102224FA1A068FAF7FDFFCF
:1053400038B12068FFF7C4F90020BDE8FE830025CE
:1053500022E0A0680A220021801CFBF779FA0546AA
:10536000401E082818D345A14A48FEF737F930787F
:105370000028484806D0FAF78AFF0146454802F05F
:1053800003FF07E0FAF783FF82B2FF234149424857
:10539000FDF7B0FA0120D8E701AA40A1E068FAF7CA
:1053A000E5FFDFF8FC800198404503DD4FF48047BE
:1053B000B84218DB3BA13748FEF710F930780028D7
:1053C000344806D0FAF763FF0146324802F0DCFEAB
:1053D00007E0FAF75CFF82B2FF232E492E48FDF763
:1053E00089FA0220B1E702AA2CA12069FAF7BEFFD0
:1053F0000298404501DDB84218DB2FA12548FEF791
:10540000EDF830780028234806D0FAF740FF01462F
:10541000204802F0B9FE07E0FAF739FF82B2FF2315
:105420001C491D48FDF766FA03208EE727492848E6
:10543000FBF7FEFF25490120091DFBF7F9FF234972
:1054400028460831FBF7F4FF204901980C31FBF79F
:10545000EFFF1E4902981031FBF7EAFF1D4800904C
:105460001D4B1422194947F6FF7002F05DFC6CE7F2
:10547000616C6C0009040020737700005377697435
:105480006368206E756D62657220696E76616C6905
:10549000640D0A008C8F01203C93012025640000DC
:1054A00000C0FFFF56616C7565207820696E7661DB
:1054B0006C69640D0A00000056616C7565207920E6
:1054C000696E76616C69640D0A0000008C8E0120A3
:1054D000A5A55A5A000000208C8D01202DE9F04F1F
:1054E0002DED028B0C46886883B00222FBA1FAF7EF
:1054F00024FF0028FA4DA06817D0FAA1FAF708FF98
:10550000002840D0F9A1A068FAF702FF78B3F8A10B
:10551000A068FAF7FDFE58B32068FFF7D9F800201D
:1055200003B0BDEC028BBDE8F08F0A220021801C85
:10553000FBF78EF90646401E08281AD3EDA1F34862
:10554000FEF74CF828780028F04806D0FAF79FFEBE
:105550000146EE4802F018FE07E0FAF798FE82B224
:10556000FF23EA49EA48FDF7C5F90120D8E70CE036
:105570000DE0012E03D0052E03D00B2709E00627EE
:1055800007E0032705E00A2602E00B2601E00F26CC
:105590000A27DFF884B3DF495846FBF749FFDFF8F5
:1055A0007493092009F10401FBF742FF09F1080196
:1055B00030460291FBF73CFFDFF860A3A9F580734A
:1055C0000C22494647F6FF70CDF800A002F0ACFB74
:1055D0000400A5D1701EA9F5807807283FD8D0A176
:1055E000CA48FDF7FBFF28780028C84806D0FAF71C
:1055F0004EFE0146C54802F0C7FD07E0FAF747FE38
:1056000082B2FF23C149C248FDF774F9002623E0A6
:1056100008EBC602101DFBF713FF034602F108005A
:10562000FBF70EFF0090721CC0A1B848FDF7D6FF33
:1056300028780028B54806D0FAF729FE0146B34875
:1056400002F0A2FD07E0FAF722FE82B2FF23AF4983
:10565000AF48FDF74FF9761CBE42D9D3C4E29FEDA7
:10566000B68B0A2E04D00B2E7ED00F2E7DD0BBE23F
:10567000B3A1A648FDF7B2FF2878A9460028A348A1
:1056800006D0FAF704FE0146A04802F07DFD07E0CF
:10569000FAF7FDFD82B2FF239C499D48FDF72AF9E8
:1056A00000269AE0721CA8A19848FDF797FF99F888
:1056B00000000028954806D0FAF7E9FD0146934816
:1056C00002F062FD07E0FAF7E2FD82B2FF238F49A4
:1056D0008F48FDF70FF908EB0615281DFBF7B0FE04
:1056E000024699A18948FDF779FF99F80000002842
:1056F000864806D0FAF7CBFD0146844802F044FD07
:1057000007E0FAF7C4FD82B2FF2380498048FDF725
:10571000F1F805F10800FBF793FE02468AA17B48E9
:10572000FDF75CFF99F800000028784806D0FAF7EA
:10573000AEFD0146754802F027FD07E0FAF7A7FD28
:1057400082B2FF2371497248FDF7D4F805F10C00CD
:10575000FBF776FE02467CA16C48FDF73FFF99F807
:1057600000000028694801E03BE0C0E106D0FAF7FC
:105770008EFD0146654802F007FD07E0FAF787FD58
:1057800082B2FF2361496248FDF7B4F805F11000C9
:10579000FBF756FEFBF776F953EC182BFBF703F9F2
:1057A00041EC100B69A153EC102B5848FDF716FF84
:1057B00099F800000028554806D0FAF768FD014620
:1057C000524802F0E1FC07E0FAF761FD82B2FF23E4
:1057D0004E494F48FDF78EF8761CBE42FFF462AF8B
:1057E00002E25CA14948FDF7F9FE28780028474805
:1057F00006D0FAF74CFD0146444802F0C5FC07E02C
:10580000FAF745FD82B2FF2340494148FDF772F89F
:105810000024464606EB8400001DFBF711FEFBF753
:1058200031F953EC182BFBF7BEF8CDE90001621CEF
:105830004EA13648FDF7D2FE28780028334806D01E
:10584000FAF725FD0146314802F09EFC07E0FAF721
:105850001EFD82B2FF232D492D48FDF74BF8641C35
:10586000202CD7D30C232B495846FBF7E1FD4F469C
:10587000391D0920FBF7DCFD18460299FBF7D8FD1E
:1058800047F6FF79D0463C4B0C2222494846CDF8DA
:1058900000A002F049FA00287FF468AE5FF000042F
:1058A00006EB8400001DFBF7CBFDFBF7EBF853EC98
:1058B000182BFBF778F8CDE9000104F121022BA1A8
:1058C0001248FDF78BFE28780028104856D0FAF7CA
:1058D000DEFC01460D4802F057FC57E073770000EC
:1058E00009040020746F736100000000696C0000FF
:1058F00070643200537769746368206E756D6265F9
:105900007220696E76616C69640D0A008C8F0120CB
:105910003C9301208C8E0120A5A55A5A000000203E
:105920005377697463683A0D0A00000025752C25C9
:10593000642C25640D0A000000000000000059409E
:10594000546F73613A0D0A0025752C00252E326CB8
:10595000660D0A003278333220496E7365727469BD
:105960006F6E204C6F73733A0D0A000025752C255D
:105970002E326C660D0A00008C8D0120FAF787FC30
:1059800082B2FF2399499A48FCF7B4FF641C202C8B
:1059900086D30D2397495846FBF74AFD391D092048
:1059A000FBF746FD18460299FBF742FD924B0C228D
:1059B00090494846CDF8008002F0B6F900287FF4FF
:1059C000D5AD8EA18948FDF709FE287800288748C3
:1059D00006D0FAF75CFC0146844802F0D5FB07E0EC
:1059E000FAF755FC82B2FF2380498148FCF782FF19
:1059F0005FF0000406EB8400001DFBF721FDFBF7C0
:105A000041F853EC182BFAF7CEFF621CCDE90001E8
:105A1000AFF2A8017548FDF7E1FD2878002873482A
:105A200006D0FAF734FC0146704802F0ADFB07E0FF
:105A3000FAF72DFC82B2FF236C496D48FCF75AFF40
:105A4000641C202CD6D30E236A495846FBF7F0FC81
:105A5000391D0920FBF7ECFC18460299FBF7E8FC1E
:105A6000654B0C2263494846CDF8008002F05CF992
:105A70000400A4D167A15D48FDF7B0FD2878002897
:105A80005A4806D0FAF703FC0146584802F07CFB5E
:105A900007E0FAF7FCFB82B2FF2354495448FCF7B5
:105AA00029FF301DFBF7CCFCFAF7ECFF53EC182B69
:105AB000FAF779FF41EC100B53EC102BAFF2741195
:105AC0004A48FDF78BFD28780028484806D0FAF7A9
:105AD000DEFB0146454802F057FB85E0FAF7D7FBAD
