:020000040808EA
:1000000000A70120C1010808F72D08080D2A0808DB
:10001000F52D080877140808C1370808000000000B
:100020000000000000000000000000001D32080871
:10003000E1140808000000002D3108081F320808EC
:10004000DB010808DB010808DB010808DB01080800
:10005000DB010808DB010808DB010808DB010808F0
:10006000DB010808DB010808DB010808DB010808E0
:10007000DB010808DB010808DB010808DB010808D0
:10008000DB010808DB010808DB010808DB010808C0
:10009000DB010808DB010808DB010808DB010808B0
:1000A000DB010808DB010808DB010808DB010808A0
:1000B000CD320808D9320808DB010808DB0108083E
:1000C000DB010808DB010808DB010808DB01080880
:1000D000DB010808C9360808D53608085137080872
:1000E000DB010808DB010808DB010808DB01080860
:1000F000DB010808DB010808DB010808DB01080850
:10010000DB010808DB010808DB010808DB0108083F
:10011000DB010808DB010808DB010808DB0108082F
:10012000DB010808DB010808DB010808DB0108081F
:10013000DB010808DB010808DB010808DB0108080F
:10014000DB010808DB010808DB010808DB010808FF
:10015000DB010808DB010808DB010808DB010808EF
:10016000DB010808DB010808DB010808DB010808DF
:10017000DB010808DB010808DB01080800000000BB
:10018000DB010808DB010808DB010808DB010808BF
:10019000DB010808DB010808DB010808DB010808AF
:1001A0000000000000000000DB010808DFF80CD0B0
:1001B00000F036FF004800471D98080800A70120FE
:1001C0000648804706480047FEE7FEE7FEE7FEE7F1
:1001D000FEE7FEE7FEE7FEE7FEE7FEE7B1320808CE
:1001E000AD0108082DE9F05F0546002092469B46C8
:1001F00088460646814640241BE02846414647463D
:10020000224600F0ADFC53465A46C01A914110D325
:1002100011461846224600F094FC2D1A67EB01089F
:100220004F4622460120002100F08BFC17EB00090D
:100230004E41201EA4F10104DFDC484631462A4627
:100240004346BDE8F09F40EA01039B0703D009E065
:1002500008C9121F08C0042AFAD203E011F8013BB2
:1002600000F8013B521EF9D27047D2B201E000F80B
:10027000012B491EFBD270470022F6E710B513464A
:100280000A4604461946FFF7F0FF204610BD421CFF
:1002900010F8011B0029FBD1801A704710B500220D
:1002A00000E0521C835C8C5CA34201D1002BF8D18E
:1002B000D8B2E1B2401A10BD034611F8012B00F884
:1002C000012B002AF9D118467047000070B50F4D78
:1002D00000B92868002412E00A4602E09E4203D0DA
:1002E000521C1378002BF9D1DAB2224305D02BB17E
:1002F00024B1002100F8011B04E00446401C0678EC
:10030000002EE9D12860204670BD0000EC150020C9
:100310002DE9F0410E460546002400E0641C285DEE
:1003200000F03BFC0746305D00F037FC381A02D184
:10033000295D0029F2D1BDE8F0812DE9F0410546A3
:10034000002090460E46044600E0641C44450BD253
:10035000285D00F022FC0746305D00F01EFC381AD4
:1003600002D1295D0029F0D1BDE8F0810FB400B5BC
:100370008DB010A909900B9000914FF0FF300A90BA
:1003800000200C9005480690054807906A4609A889
:100390000F9900F01DFC0DB05DF814FBED0B080883
:1003A0000B0C08082DE9FF5F1D464FF0FF3BD5E918
:1003B000014691465F464FF00008A9697F1C0198ED
:1003C0008847296A824688470028F6D1BAF1FF3F5C
:1003D0000CD024F4C064002E19DD600614D5BAF1E7
:1003E0002B0F09D0BAF12D0F0ED103E0584604B0FF
:1003F000BDE8F09F44F48064A9697F1C0198884798
:10040000761E8246002E02DDBAF1300F03D0B9F11C
:10041000000F26D032E0A969761E44F400747F1CD8
:10042000019888478246002E05DDBAF1780F06D084
:10043000BAF1580F03D0B9F1000F10D01EE0B9F196
:10044000000F02D0B9F1100F18D1A969761E24F45B
:1004500000747F1C019888478246102002E0082023
:1004600000E00A20814609E008FB0908A969761E18
:1004700044F400747F1C019888478246002E05DDF5
:100480004946504600F08FFB0028EDDAE9690198F3
:100490008847A00502D46FF00100A8E7E00725D146
:1004A000600613D5600502D5C8F1000000E04046A3
:1004B00029680A1D2A600968220501D5087015E01F
:1004C000220701D5088011E008600FE02868011DAF
:1004D00029600068210502D580F8008006E0210728
:1004E00002D5A0F8008001E0C0F8008038467EE721
:1004F0002DE9FF4F087883B09946FF2805D0491CA5
:100500002D2804D00024002008E000200BE0012466
:10051000F9E700EB800003EB4000491C0B78FF2B50
:10052000F7D104B1404200230293147819461D46C6
:100530002D2C01D02B2C04D1521C2D2C13D0002497
:100540000294AA461478FF2C0FD00A25A3FB057845
:1005500001FB05814FF0000C03FB0C11521CE31949
:100560004AEB0101EEE70124EAE7814453EA010086
:1005700002D019F5C87F06DA03980021C0E90011FE
:1005800007B0BDE8F08F0025AE4E2F46DFF8B882E9
:10059000184600F0EDFCCDE90001B9F1000002DAE7
:1005A000C9F1000400E004460023A74A1AEB030B3C
:1005B00042EB045A12E0E00707D02A463346384699
:1005C000414600F07EF9074688462A4633461046E3
:1005D000194600F076F905460E466410002CEAD163
:1005E000DDE90001B9F1000F5A46534606DA00F082
:1005F000DAF93A46434600F0D6F905E000F061F931
:100600003A46434600F05DF9029A0AB181F0004192
:10061000039AC2E90001B3E72DE9FF4F1F468DB0F1
:10062000D7E901464FF0FF382E2045464FF000092C
:100630000B90B9696D1C0E988847396A82468847C5
:100640000028F6D1BAF1FF3F0AD024F4D064002E7E
:1006500011DDBAF12B0F08D0BAF12D0F0BD102E04A
:10066000404611B08DE744F48064B9696D1C0E9862
:1006700088478246761E6946600501D52D2000E038
:100680002B208DF8000001F1010B0DF1200809E08D
:10069000B9696D1C0E98884782460F9844F400741F
:1006A000761E0560002E02DDBAF1300FF0D00B99F6
:1006B0008A453ED144F0800406E00F99681CA9F1F8
:1006C000010944F400740860B9696D1C761E0E9827
:1006D000884782463028F0D02BE00B998A4505D117
:1006E000200603D444F08004761E18E0504603F040
:1006F0008DF908B30DF11301761E44F400748B4597
:1007000008D2AAF130000BF8010B200607D5A9F199
:10071000010003E0200602D409F101008146A00592
:1007200002D50F99681C0860B9696D1C0E9888473E
:100730008246002ED1DC53E0002E51DDBAF1650F68
:1007400002D0BAF1450F4BD1A00549D5B9696D1C4E
:1007500024F44074761E0E9888478246002E0CDDE5
:100760002B2804D0BAF12D0F07D144F48074B96955
:100770006D1C0E9888478246761EE00501D52D2116
:1007800000E02B2108F8011BCDF82C8021E00DF1B1
:100790002901761E44F4007488450CD2AAF1300079
:1007A00010F0FF0088F8000002D10B99884509D9A4
:1007B00008F1010806E0E00501D5244801E042F215
:1007C0000F708146B9696D1C0E98884782460F9854
:1007D0000560002E04DD504603F018F90028D6D13C
:1007E000F9690E988847FF208BF8000088F8000010
:1007F0000020069007904B466A4608A906A8FFF716
:1008000077FEA00502D46FF001002AE714F0240F50
:100810000AD0E00714D1DDE906123868031D3B60F9
:100820000068C0E900120BE0DDE9060100F0DCFB26
:100830000146E00704D13868021D3A600068016093
:1008400028460EE7000014400000F03FF1D8FFFFFB
:100850002DE9F05F93460F4680460446002602F0DD
:10086000D5FFD0F80090824614F8015B2DB100F05E
:1008700087F90068405DC007F6D12B2D02D02D2DE1
:100880001AD0641E0021CAF800105A463946204684
:1008900000F0CCF9014627B13868A04201D1C7F871
:1008A0000080DAF80000022809D0CAF8009070052C
:1008B00005D54842BDE8F09F46F48066E2E7084669
:1008C000F8E72DE9FE4F81EA030404F0004421F02B
:1008D000004100944FF0000B23F0004350EA010464
:1008E0005ED052EA03045BD0C3F30A54C1F30A5545
:1008F0002C44A4F2F3340194A0FB0254C1F313017D
:1009000041F48011C3F3130343F4801301FB024449
:1009100000FB034E840A970A44EA815447EA83574E
:10092000A4FB076802958D0A05FB07854FEA932C07
:1009300004FB0C542705029D4FEA065847EA163778
:10094000B5EB08056EEB070C870E920E47EA811790
:1009500042EA8312A7FB0201B6EB0B0164EB000431
:100960002B0D43EA0C335E1844EB1C50DA4651461B
:10097000E7FB0201C5F313044FEA0B3343EA1453B8
:100980004FEA0432019C43EA0603A4F10C040294EA
:10099000009CCDE900B400F0F6F903B0BDE8F08F9B
:1009A00000200146F9E72DE9F04D81EA030404F047
:1009B000004B21F0004514464FF0000A23F000419F
:1009C00050EA050220D054EA01021DD0C5F30A57AF
:1009D0000246C5F31303C1F31300C1F30A5640F4F2
:1009E000801543F48013A7EB0608101BD64608F2C7
:1009F000FD3873EB050002D308F1010801E09218FD
:100A00005B41B8F1000F03DA00200146BDE8F08D2C
:100A100000204FF48011064684460EE0171B73EB4E
:100A2000050705D3121B63EB050306434CEA010CD3
:100A300049084FEA300092185B4150EA0107EDD1B6
:100A400052EA030012D082EA040083EA0501084357
:100A500005D0101BAB4106D20122002306E0002284
:100A60004FF0004302E06FF0010253101AEB060052
:100A70004CEB085110EB0A0041EB0B01BDE8F04DC7
:100A800000F072B90EB5C10F80EAE0700844CA07E1
:100A9000002140F233438DE80E000A460B4600F079
:100AA00072F903B000BD70B5C1F30A5201F0004500
:100AB0000024C1F3130140F2FF3341F480119A4244
:100AC00001DA002070BD40F233439A42A2F2334271
:100AD00003DC524200F044F800E090402C43F1D097
:100AE000404270BDC1F30A5210B5C1F3130140F288
:100AF000FF3341F480119A4201DA002010BD40F228
:100B000033439A42A2F2334203DC524200F028F807
:100B100010BD904010BD30B50B460146002020228C
:100B2000012409E021FA02F59D4205D303FA02F5FA
:100B3000491B04FA02F52844151EA2F10102F1DC5A
:100B400030BD202A04DB203A00FA02F10020704771
:100B50009140C2F1200320FA03F3194390407047FB
:100B6000202A04DB203A21FA02F00021704721FA02
:100B700002F3D040C2F12002914008431946704769
:100B800000487047B0A7080810B50446FFF7F8FF03
:100B90000068005D00F0010010BDA0F141011929BD
:100BA00000D8203070473A2800D2303820F0200298
:100BB000412A01D3A2F13700884201D34FF0FF3020
:100BC00070470000026811441378016018467047AE
:100BD000D16004495161044911620021116111463B
:100BE00000F042BAC50B0808890B0808426842B1F8
:100BF000016811F8013B23B1521EC0E900121846EA
:100C000070470121C160881E704742685AB1C368AD
:100C1000016843B983688B4205D0491E521CC0E964
:100C20000012002070474FF0FF3070472DE9F05F51
:100C300082460078002715468B460AF10104B94622
:100C4000302801D09DB113E014F8010B012778285A
:100C500003D0582801D045B10AE00DB1102D07D1BD
:100C60000027102514F8010B02E0082500E00A25F2
:100C70000026B0460EE005FB080005FB06F1012743
:100C800001EB10461FFA80F8B6F5803F00D3B94655
:100C900014F8010B2946FFF786FF0028EBDABBF1B9
:100CA000000F05D00FB1641E00E05446CBF80040A1
:100CB000B9F1000F06D002F0A9FD02210160C81EA3
:100CC000BDE8F09F48EA0640FAE700000FB40023B1
:100CD00000B589B00CA900910B996FF00042CB6070
:100CE0001E4B06931E4B07930423CDE901321D4A88
:100CF000089202466B460020FFF78EFC09B05DF8B3
:100D000014FB70B586B006464FF0FF300091CDE978
:100D10000101002015460C4604903246694604A89D
:100D2000FFF7D4FF02460498211825B108B1084600
:100D300000E020462860049800280DD0002A02DD3B
:100D40000098884208D0081B0094CDE9010432467F
:100D5000694604A8FFF7BAFF06B070BDED0B08089E
:100D60000B0C0808890B080810B5141E73F1000459
:100D700008DA401C41F1000192185B411A4301D18D
:100D800020F0010010BD2DE9F04D92469B4611B1B7
:100D9000B1FA81F202E0B0FA80F220329046FFF719
:100DA000D0FE04460F4640EA0A0041EA0B015346D2
:100DB0005A46084313D0114653EA010019D0C8F12E
:100DC00040025046FFF7CCFE05460E4650465946B7
:100DD0004246FFF7B6FE084305D0012004E0204656
:100DE0003946BDE8F08D0020054346EAE0762C4305
:100DF00037430A986305E40AA0EB08000022FD0AC5
:100E000044EA47540A3002D500200146E9E70105CB
:100E100010196941DDE9084500196941BDE8F04D47
:100E2000A2E72DE9FE4F804681EA0300C00F0C4681
:100E3000009021F0004123F00045B8EB0200A941E9
:100E400005D24046214690461C460B46024623F0FA
:100E50000040104347D0270DC7F30A00C3F30A51DF
:100E60000290401A019040286BDAC3F3130040F45B
:100E7000801B0098924620B10023D2EB030A63EB5B
:100E80000B0B01985946C0F140025046FFF759FE3E
:100E900006460D4650465946019A00F0D3F810EB2D
:100EA00008006141002487EA115284EAE7731A437B
:100EB00040D0009A62B3019A012A4FEA075215DC2A
:100EC000001B61EB02014FF0004202EA0752CDE93C
:100ED0000042001C41F5801132462B46FFF753FFBC
:100EE00003B0BDE8F08F40462146F9E7001B61EBF7
:100EF0000201001C41F5801300185B412018A2F587
:100F0000001747EB030140EAD570B6196D4111E0B7
:100F10006D084FEA360645EAC0754FEA0752001BD6
:100F200061EB0201001C41F5801149084FEA3000D5
:100F30000019514132462B4603B0BDE8F04FFFF790
:100F400013BF0098012240000023D0EB020263EBA4
:100F5000E073009821464FEAE074B8EB000061EBC3
:100F60000401E9E783F000435BE781F0004158E7C3
:100F70000EB540F2334202920022CDE90022134620
:100F8000FFF701FF03B000BDC1F30A52C1F3130123
:100F900040F2FF3341F480119A4202DA0020014608
:100FA000704740F233439A42A2F2334202DC52428B
:100FB000FFF7D6BDFFF7C5BD30B5041E71F10004C3
:100FC00004DB4FF00044404264EB0101141E73F156
:100FD000000405DB1C464FF00043524263EB040360
:100FE000994208BF904230BD01F0004330B421F077
:100FF000004150EA010206D00A0DA2F56072C1F369
:101000001301002A02DC30BC00207047440F44EA80
:10101000C104C100E01830BC00EBC25000F0BAB906
:10102000064C074D06E0E06840F0010394E8070035
:1010300098471034AC42F6D3FFF7BCF8CCAB0808A5
:10104000ECAB0808202A06DBCB17203A41FA02F065
:1010500043EAE07306E041FA02F3D040C2F1200215
:1010600091400843194670472DE9F34F8BB04FF07C
:10107000000801F10C000C464FF0010B46460DF143
:10108000080A01906269012101989047051E2DD040
:10109000252D2CD0216A8847C0B1626901210198B1
:1010A0009047216A88470028F7D1411E626901985C
:1010B000904700E0761CA1690B988847216A884711
:1010C0000028F7D1E1690B988847DBE7A1690B9805
:1010D00088470746A84201D1761CD3E7E1690B98FF
:1010E00088477F1C02D1B8F1000F6FD046E100277E
:1010F00062693D463946019890472A2804D16269C1
:101100000121019890470125DFF88492626901214D
:1011100001989047A0F130010A290AD24F45E5DC39
:1011200007EB870100EB4107303FDFD445F01005A6
:10113000ECE7E90601D46FF000476C280AD04C2890
:1011400014D0682815D06A280DD074281CD07A28AD
:101150001AD01DE062690121019890476C2802D0E5
:1011600045F0040514E045F002050DE045F02005CA
:101170000AE06269012101989047682802D045F091
:10118000080505E045F40065626901210198904772
:10119000C4E9015765283DD019DC58287AD00CDC09
:1011A000452837D004DC252826D0412831D131E02C
:1011B00046282FD047282CD12CE05B2877D06128F7
:1011C00028D063287CD0642823D15AE0D0E06F284F
:1011D00048D008DC66281DD067281BD0692821D09C
:1011E0006E2816D127E0702845D0732868D075285E
:1011F00047D078280DD14DE0A1690B988847054666
:1012000025283FF469AFE1690B9888476D1C3FF4CE
:101210006AAFB3E023466A466FF001000B99FFF70F
:10122000FBF99EE045F040006060A80723464FF0C0
:10123000000236D43EE0E8077FF447AF2068011D86
:1012400021600068290501D506701BE7290701D533
:10125000068017E7A90703D5F117C0E9006111E778
:1012600006600FE745F040006060A80723464FF096
:10127000080216D41EE040F60E0125EA0100606067
:1012800016E045F040006060A80723464FF00A02D0
:1012900007D40FE045F040006060A80708D523465A
:1012A00010226FF001000B99AFF3008059E007E0C6
:1012B000234610226FF001000B99FFF773F850E0FE
:1012C0004FF000094F464B46632802D05B2806D0FA
:1012D00040E0E80601D40120A06001273AE06269FD
:1012E0000121019890475E2805D14FF001096269FC
:1012F000494601989047216939B900210A46534669
:1013000043F82120491C0829FADBB0B3216969B9E7
:10131000C11700EBD16253110AEB830122F01F02C7
:10132000821A01200B68904003430B60626901211F
:10133000019890475D28E8D1B9F1000F09D000204D
:10134000514651F82020D24341F82020401C082863
:10135000F7DB02AB224600976FF001000B99AFF369
:10136000008000280CDA401C08D1BBF1000F05D02A
:101370004FF0FF300DB0BDE8F08FFFE74046F9E7D2
:10138000E90701D108F1010806444FF0000B79E6A6
:10139000CCCCCC0C0029A8BF7047401C490008BF2A
:1013A00020F00100704710B4B0FA80FC00FA0CF095
:1013B00050EA010404BF10BC704749B1CCF12004CD
:1013C00021FA04F411FA0CF118BF0121214308435A
:1013D000A3EB0C01CB1D4FEA00614FEA102042BF86
:1013E000002010BC704700EBC35010440029A4BF7C
:1013F00010BC7047401C490008BF20F0010010BC21
:10140000704770B58C1810F8015B15F0070301D117
:1014100010F8013B2A1106D110F8012B03E010F857
:10142000016B01F8016B5B1EF9D12B0705D400237A
:10143000521E0DD401F8013BFAE710F8013BCB1A1C
:10144000921C03E013F8015B01F8015B521EF9D511
:10145000A142D8D3002070BD020E0A70020C4A705F
:10146000020A8A70C87070470168C07809BA21F012
:10147000FF0108437047FEE730B54FF0FF3300220D
:10148000064C07E0855C5D40EDB2521C54F82550D7
:1014900085EA13238A42F5D3D84330BD08000020E3
:1014A00030B503460020074C07E01D5C5540EDB207
:1014B000401C54F8255085EA12228842F5D3104684
:1014C00030BD00000800002010B50022134602E0E5
:1014D000C45C62405B1C8B42FAD3521CD0B210BD7C
:1014E0007047704790F83510022903D0802141657C
:1014F00001207047052180F835100068016821F04F
:10150000010101600020704770B5044600F00AF93F
:101510000546601C02D004480078044400F002F93B
:10152000401BA042FAD370BDDC1500202DE9F84F16
:1015300000224FF0010803254FF00F0E0B6808FA48
:1015400002F42340A3426ED14E68012E05D0022E34
:1015500003D0112E01D0122E12D186684FEA420C10
:1015600005FA0CF7BE43CF6807FA0CF737438760DC
:101570004668A6430C79C4F3001494403443446095
:10158000C668570005FA07FC8C6826EA0C06BC40C2
:101590003443C4604C68022C01D0122C13D1D408FF
:1015A00000EB8404A346D4F8209054074FEAD46A91
:1015B0000EFA0AF629EA06090E6906FA0AF646EA5A
:1015C0000906CBF8206004680E7924EA0C0406F0C2
:1015D0000306BE40264306604C68E4006FD53B4CD2
:1015E000266846F480462660246822F0030604F448
:1015F00080440094364C3444A446D4F808489607F6
:10160000360F0EFA06F7BC43324FB84201D100271D
:101610002EE0314FB84201D1012729E02F4FB842C7
:1016200002D1022724E04AE02D4FB84201D103271E
:101630001EE02C4FB84201D1042719E02A4FB842CE
:1016400001D1052714E0294FB84201D106270FE048
:10165000274FB84201D107270AE0264FB84201D1EF
:10166000082705E0244FB84201D1092700E00A27E6
:10167000B7402743CCF80878204E34684F689C4325
:10168000FF0300D51C4334601C4E361D34684F6880
:101690009C43BF0300D51C433460184E08363468A1
:1016A0004F689C43FF0200D51C433460134E0C3638
:1016B00034684F689C43BF0200D51C433460521C01
:1016C000102AFFF43BAFBDE8F88F00004438024019
:1016D00000300140000002400004024000080240C7
:1016E000000C0240001002400014024000180240AA
:1016F000001C02400020024000240240003C014047
:101700000069084000D001207047426931EA0202B6
:1017100000D10904816170470AB1816170470904F1
:10172000FBE700000148806870470000DC150020DE
:10173000024881680278114481607047DC150020FE
:101740000B4810B5016841F400710160016841F473
:1017500080610160016841F480710160032000F044
:101760006FF8002000F006F800F024F8002010BD0B
:10177000003C024070B50D4D04464FF47A71287854
:10178000B1FBF0F00A490968B1FBF0F000F0BFFCD2
:1017900048B9102C07D200222146501E00F030F824
:1017A00000206C6070BD012070BD0000DC150020C1
:1017B000E81500200A4808B5016841F4804101603D
:1017C000006800F4804000900548001F016841F067
:1017D00080510160006800F08050009008BD00005A
:1017E00044380240002809DB00F01F02012191402B
:1017F0004009800000F1E020C0F8001170470000AF
:10180000F0B40E4B1B680C46C3F30223C3F107056B
:10181000042D00D90425191D072901D2002300E059
:10182000DB1E012606FA05F1491E214099409E4023
:10183000761E16403143F0BC01F0D8BF0CED00E03D
:10184000064900F0070208684FF6FF03184040EA17
:101850000220034A10430860704700000CED00E0CE
:101860000000FA052DE9F8431748016841F080515E
:1018700001600068154F00F08050012600903E6422
:10188000FFF750FF05464FF47A78114C05E000BF92
:10189000FFF748FF401B40450DD86068C003F7D5EF
:1018A0007E64FFF73FFF0546464607E0FFF73AFF35
:1018B000401BB04202D90320BDE8F8836068800372
:1018C000F4D50020F8E700004038024000000E4246
:1018D000007000402DE9F0470E46050065D0DFF8A6
:1018E0001481D8F80000F7B200F00F00B04207D220
:1018F00088F80070D8F8000000F00F00B04254D112
:1019000028683D4C810712D5400703D5206840F474
:10191000E05020602878000703D5206840F460403C
:1019200020602068A96820F0F00008432060287833
:10193000C0072DD0304968680839012812D0022824
:1019400013D0032811D00968890700292DDA2168EE
:1019500021F0030101432160FFF7E4FE814641F2DB
:10196000883A0EE009688903EFE709688901ECE726
:10197000FFF7D8FEA0EB0901514502D90320BDE8CD
:10198000F0872068696800F00C00B0EB810FEFD1A0
:10199000D8F80010404601F00F01B14207D9077096
:1019A000006800F00F00B04201D00120E7E728787E
:1019B000400705D52068E96820F4E050084320601E
:1019C0002878000706D52068296920F4604040EA9D
:1019D000C100206000F038F82168084AC1F3031103
:1019E000515CC8400649086006480068FFF7C2FE1F
:1019F0000020C4E7003C02400838024014A7080851
:101A0000E8150020E0150020044805490068096831
:101A1000044AC1F38221515CC8407047E815002098
:101A20000838024024A708080448054900680968E6
:101A3000044AC1F34231515CC8407047E8150020A8
:101A40000838024024A70808154810B5006810F0AF
:101A50000C02144813D01449042A0FD0082A0ED1BE
:101A60000F4C241F2268236802F03F025B0207D557
:101A70002068C0F38810A0FB010106E0084610BDF5
:101A80002168C1F38811A1FB00010023FEF7AAFB26
:101A90002168C1F30141491C4900B0FBF1F010BDC0
:101AA000083802400024F400002D31012DE9F84FE0
:101AB000040076D02078DFF838A3CE4DC00749D097
:101AC000DAF800105046C1F38101012908D00068FE
:101AD000C0F3810002280AD1281D0068400206D503
:101AE0002868800336D560680028E2D032E060685C
:101AF000B0F5803F10D0B0F5A02F286810D020F4AA
:101B000080302860286820F4802028606068A0B1B8
:101B1000FFF708FE06460CE0286840F48030F4E742
:101B200040F480202860F7E7FFF7FCFD801B642865
:101B300073D828688003F7D50CE0FFF7F3FD06465D
:101B400005E000BFFFF7EEFD801B6428F0D8286891
:101B50008003F7D42078DFF8A08280074FF00009D7
:101B60003ED5DAF80010504611F00C0F09D000688D
:101B7000C0F3810002280BD19D48001F006840027D
:101B800006D42868800715D5E068012809D111E03E
:101B9000E068B8B10120C8F80000FFF7C3FD0646B1
:101BA00005E020E1FFF7BEFD801B0228C0D82868B1
:101BB0008007F7D52868216920F0F80040EAC100C5
:101BC00028600DE0C8F80090FFF7ACFD064604E081
:101BD000FFF7A8FD801B02281FD828688007F7D4CC
:101BE0002078000722D5824E844861696C3671B135
:101BF00001210160FFF796FD074604E0FFF792FD23
:101C0000C01B022809D830688007F7D50EE0C0F85D
:101C10000090FFF787FD074605E082E0FFF782FDB1
:101C2000C01B02287DD830688007F7D42078400791
:101C300068D5DFF8BCB100270BF1380BDBF80000EA
:101C4000C0000BD4DBF8001041F08051CBF800103D
:101C5000DBF80000012700F080500090684E3068EB
:101C6000C00510D4306840F480703060FFF75AFD32
:101C7000009005E0FFF756FD0099401A022850D861
:101C80003068C005F6D55A4EA068683601280FD0D6
:101C90000528306810D020F001003060306820F056
:101CA00004003060A068B8B1FFF73CFD00900FE081
:101CB000306840F00100F4E740F004003060F7E7DE
:101CC000FFF730FD0099411A41F28830814266D811
:101CD00030688007F4D50EE0FFF724FD009007E0A0
:101CE000FFF720FD0099411A41F28830814256D811
:101CF00030688007F4D42FB1DBF8001021F0805158
:101D0000CBF80010A069D0B3DAF800205146C2F336
:101D10008102022A4AD00228484607D0C8F860004B
:101D200000E03CE0FFF7FEFC04463BE04746C8F815
:101D30006000FFF7F7FC064605E000BFFFF7F2FC86
:101D4000801B02282BD828688001F7D4D4E907012A
:101D50000843A16A2B4A490802EB0141626A41EA41
:101D60008211084394F82C1040EA01612048001FBA
:101D7000016001203866FFF7D5FC044605E034E039
:101D8000FFF7D0FC001B022809D828688001F7D58E
:101D90002BE000BFFFF7C6FC001B022802D903207E
:101DA000BDE8F88F28688001F4D41EE00128F7D040
:101DB0000868E26900F48001914214D1226A00F0BF
:101DC0003F0191420FD147F6C071626A01409142D2
:101DD00009D1A26A00F44031914204D1E16A00F0D5
:101DE0007060884201D00120DAE70020D8E70000C7
:101DF000083802400038024000004742800E474247
:101E0000007000400000FFFF70B5040005D0002501
:101E1000A56294F8510010B106E0012070BD84F86D
:101E20005050204600F030F8022084F8510020681D
:101E3000016821F040010160D4E901010843D4E9BF
:101E400003121143084361690843218B01F40071B7
:101E50000843E1690843216A0843A16A08432168ED
:101E60000860A069042101EA1040616A0843216802
:101E700048602068C16921F40061C1616565012085
:101E800084F85100002070BDF0B587B004461421DD
:101E90006846FEF7F1F921481F4F266800221F49C6
:101EA0001438022303240525BE4215D10E6846F4DA
:101EB00080560E60096801F480510591016841F077
:101EC000010101600068694600F001000590E02012
:101ED000CDE90003124818E0124FBE421AD10E6835
:101EE00046F480160E60096801F4801105910168BE
:101EF00041F0200101600068694600F02000059073
:101F00004FF46070CDE90003074802AE86E8340064
:101F1000FFF70CFB07B0F0BD003001404438024031
:101F20000000024000500140001402402DE9F84F2B
:101F3000044690F8500000270A9E1D4692468B46A4
:101F40004FF0010901280ED0012084F85000FFF75E
:101F5000E9FB804694F85100616801280CD0B1F586
:101F6000827F07D102E00220BDE8F88FA16809B99D
:101F7000042801D00227C2E0BBF1000F27D0BAF13C
:101F8000000F24D01DB394F85100042802D005207E
:101F900084F8510000206065C4F838A0E587A58763
:101FA000C4F830B0E586A5862064606420680168C6
:101FB000490603D4016841F040010160E068B0F5D2
:101FC000006F606805D0E8B3012D46D07FE001279F
:101FD00095E008B1012D39D1206B21680088C860D7
:101FE000206B801C2063E08E401EE0862EE020687F
:101FF000816889070FD5E18E69B1B9F1010F0AD166
:10200000216B0988C160206B801C2063E08E401E1C
:10201000E0864FF0000920688168C9070CD0E18F85
:1020200051B1C068A16B0880A06B801CA063E08FD9
:10203000401EE0874FF00109FFF774FBA0EB08009A
:10204000B04200E009E001D3701C50D1E08E0028BE
:10205000CDD1E08F0028CAD13FE0206B2168007805
:102060000873206B401C2063E08E401EE0862EE04B
:102070002068816889070FD5E18E69B1B9F1010F38
:102080000AD1216B09780173206B401C2063E08E1C
:10209000401EE0864FF0000920688168C9070CD017
:1020A000E18F51B1C068A16B0870A06B401CA063A8
:1020B000E08F401EE0874FF00109FFF733FBA0EBF4
:1020C0000800B04202D3701C01D010E07EB1E08E57
:1020D0000028CDD1E08F0028CAD1424631462046A3
:1020E00001F026F828B101272020606507E00327CA
:1020F00005E0A06818B92068C168806800900120D8
:1021000084F85100002084F8500038462CE710B5C0
:10211000401EB0F1807F01D3012010BD4FF0E024BC
:1021200060610F21601701F061FB0020A0610720B2
:102130002061002010BD70477047000070B590F816
:102140003C20012A32D0012480F83C40022280F851
:102150003D2003685A689D6822F070060A68324381
:102160005A60134B02689A4214D0B2F1804F11D0DA
:10217000104B9A420ED0104B9A420BD00F4B9A4202
:1021800008D00F4B9A4205D00E4B9A4202D00E4B0C
:102190009A4204D1496825F080031943916080F880
:1021A0003D40002180F83C10084670BD022070BD03
:1021B000000001400004004000080040000C004006
:1021C00000040140004001400018004010B5040028
:1021D00003D094F83D0010B107E0012010BD0020AD
:1021E00084F83C00204600F00DF8022084F83D0001
:1021F000211D206801F076F8012084F83D000020C0
:1022000010BD000008B501681448B1F1804F14D02A
:10221000134A914220D1016841F002010160006837
:10222000002200F00200009011461D20FFF7E8FA9E
:102230001D20BDE80840FFF7D5BA016841F0010153
:1022400001600068002200F00100009011461C208F
:10225000FFF7D6FA1C20ECE708BD0000403802402A
:10226000000400400168CA6842F00102CA600068C8
:10227000816801F00701062903D0016841F00101DE
:102280000160002070470168CA6822F00102CA603C
:102290000068016A41F21112114207D1016A9210DD
:1022A000114203D1016821F0010101600020704753
:1022B00070B5044690F83C00012817D0012584F839
:1022C0003C50022084F83D002068826822F07702AA
:1022D00022F47F4282600868502830D00DDC20282C
:1022E0004DD005DC98B310283BD148E0022070BDEA
:1022F000302844D0402834D139E0602828D07028D4
:1023000006D0B0F5805F2CD0B0F5005F29D10AE08F
:10231000CB68D1E90121206801F048F82068816884
:1023200041F0770109E0CB68D1E90121206801F093
:102330003DF82068816841F48041816011E0CA68FD
:102340004968206801F044F85021206807E016E051
:10235000CA684968206801F04CF86021206801F0E3
:102360002FF884F83D50002084F83C0070BDCA6806
:102370004968206801F02CF840212068EFE72268C6
:1023800001461046EBE7704770B5044600680169E6
:102390004FF00005C943890715D4C168C9438907AF
:1023A00011D4E91E0161012020772068806980072F
:1023B000204602D0FFF7E7FF04E000F098F820463F
:1023C00000F096F8257720680169C943490717D4BA
:1023D000C168C943490713D46FF0040101610220A9
:1023E00020772068806910F4407F204602D0FFF7F4
:1023F000CAFF04E000F07BF8204600F079F825776A
:1024000020680169C943090716D4C168C94309078F
:1024100012D46FF008010161042020772068C069A0
:102420008007204602D0FFF7AEFF04E000F05FF81F
:10243000204600F05DF8257720680169C943C90688
:1024400017D4C168C943C90613D46FF010010161E4
:10245000082020772068C06910F4407F204602D011
:10246000FFF791FF04E000F042F8204600F040F84A
:10247000257720680169C943C90708D1C168C943E4
:10248000C90704D1891E0161204600F033F8206895
:102490000169C943090609D4C168C943090605D4BD
:1024A0006FF0800101612046FFF745FE2068016959
:1024B000C943490609D4C168C943490605D46FF028
:1024C00040010161204600F035F820680169C943E8
:1024D00089060BD4C168C943890607D46FF020016F
:1024E00001612046BDE87040FFF726BE70BD704711
:1024F0007047000010B500680B490C4C88420CD1A5
:102500006068401C6060A168884205D3402108488B
:10251000FFF7FBF80020606010BDB0F1804FFBD1E9
:10252000E068401CE06010BD00040040080400208A
:10253000000802407047704770B502680446106892
:10254000D168536910F00F0F52D003F0010501F468
:1025500090762E435FD0C20705D0CA0503D5E26B43
:1025600042F00102E263420705D5DA0703D0E26BCD
:1025700042F00202E263820705D5DA0703D0E26B7C
:1025800042F00402E263020707D501F020022A4369
:1025900003D0E26B42F00802E263E26B002A33D020
:1025A000800604D5880602D5204600F04AFF206840
:1025B0004069E16BC0F38010090700D428B32046BE
:1025C00000F031FF2068416949061AD5416921F0C0
:1025D00040014161606BA0B11B490165606BFEF772
:1025E00081FF002810D0606B016DBDE87040084786
:1025F000830610D58B060ED52046BDE8704000F04E
:1026000020BF2046FFF797FF70BD2046FFF793FFDE
:102610000020E06370BD030606D50B0604D52046F6
:10262000BDE8704000F0ECBF4006F3D54806F1D598
:10263000D168204621F04001D160202184F8391072
:1026400000F0E3F970BD00001734080870B504000D
:1026500004D094F83900002510B106E0012070BDC7
:1026600084F83850204600F023F8242084F83900FC
:102670002068C16821F40051C160204600F02CFFA1
:102680002068016921F4904101612068416921F0CD
:102690002A0141612068C16841F40051C160E563CD
:1026A000202084F8390084F83A00002070BD000032
:1026B000F0B587B0044614216846FDF7DDFD3D4BBB
:1026C000276800223C490224032507263B489F42F5
:1026D00021D1394B14331F6847F010071F601B6866
:1026E00003F0100305930B6843F001030B600968C6
:1026F00002AB01F0010105916902CDE9001483E804
:1027000064006946FEF712FF002211462520FFF7FC
:1027100077F8252024E0284BDFF8A4C01033674564
:1027200022D11F6847F400371F601B6803F4003391
:1027300005930B6843F001030B60096802AF01F0D9
:10274000010105910C21CDE9001487E86400694678
:10275000FEF7ECFE002211462620FFF751F8262056
:10276000FFF740F807B0F0BD16488742FAD1186865
:1027700040F480201860186800F4802005900868F4
:1027800040F002000860086802AF00F00200059007
:102790004FF44060CDE9000487E8640069460A48C8
:1027A000FEF7C4FE002211462720FFF729F8272054
:1027B000D6E700000010014030380240000002401F
:1027C0000044004000480040000402402DE9F84366
:1027D000044690F83A00994616460D46202852D1F4
:1027E000BDB1B6B194F8380001284CD0012084F86E
:1027F00038000027E763222084F83A002C34FEF7E3
:1028000091FF24F8026B804624F80A6B04F83879AB
:1028100031E00120BDE8F883E08D401EE085A0682E
:102820004346B0F5805F4FF000024FF02001204694
:10283000CDF8009004D000F014FF98B10320E9E730
:1028400000F00FFF0028F9D12069002820684068B7
:1028500003D0C1B225F8011B0DE0C0F3080125F833
:10286000021B08E0206900282068406801D000F0C1
:102870007F0005F8010BE08D0028CDD1202084F8E1
:102880003A000020C6E70220C4E790F83A30202B37
:1028900022D1F9B1F2B190F83830012B1CD081620D
:1028A0008285C2850021C163222280F83A2080F807
:1028B00038100168CA6842F48072CA6001684A69C7
:1028C00042F001024A610068C16841F02001C16024
:1028D00000207047012070470220704719490068A6
:1028E000096888422DD1184801680868C288838821
:1028F000521C9A4205D0C388028993420DD1828826
:102900005AB983880268D25C828803899A4201D1CD
:10291000002201E08288521C828008680B49C3882B
:1029200009780268D154C1880289914201D10021FD
:1029300001E0C188491CC180012204490148FFF718
:10294000A4BF7047A4A20120D815002008040020CD
:102950002DE9F843044690F839001F4616460D4607
:10296000202850D1B5B1AEB194F8380001284AD032
:10297000012084F838004FF00008C4F83C80212082
:1029800084F83900FEF7CEFEA6848146E68484F8FA
:10299000388026E00120BDE8F883E08C401EE0840A
:1029A000A0684B46B0F5805F4FF000024FF0800109
:1029B0002046009703D000F054FEE8B90DE000F087
:1029C00050FEC8B928882168C0F308004860206913
:1029D00008B16D1C05E0AD1C03E0216815F8010B82
:1029E0004860E08C0028D8D14B4600224021204688
:1029F000009700F036FE08B10320CCE7202084F8D1
:102A000039000020C7E70220C5E77047FEE7000055
:102A10002DE9F04F87B014216846FDF72DFC6B4877
:102A20000024016841F002010160016801F0020127
:102A30000591016841F008010160016801F0080199
:102A40000591016841F480710160016801F48071B1
:102A50000591016841F001010160016801F0010187
:102A60000591016841F080010160016801F0800179
:102A70000591016841F004010160016801F0040161
:102A80000591016841F0200101600068504E00F09E
:102A900020000590002208213046FEF73DFE4D4FF4
:102AA00000224FF4BF713846FEF736FEDFF828816A
:102AB000002219214046FEF72FFEDFF820A1002258
:102AC0004FF47F515046FEF727FEDFF814B1002285
:102AD00040215846FEF720FEDFF8089100224021F1
:102AE0004846FEF719FE002210213F48FEF714FE6B
:102AF00001250820CDE90005CDE90254694630469C
:102B0000FEF714FD7C20022603948DE861006946DF
:102B10003846FEF70BFDCDE900546946384602946D
:102B2000FEF704FD4FF48170CDE90005CDE90254B4
:102B300069463846FEF7FAFC1920CDE90005CDE9D3
:102B4000025469464046FEF7F1FC0620CDE9000438
:102B5000694640460294FEF7E9FC4FF44050CDE947
:102B60000005CDE9025469465046FEF7DFFCA80394
:102B7000CDE90004694650460294FEF7D7FC402791
:102B80000097CDE90154694658460394FEF7CEFC00
:102B90000097CDE90154694648460394FEF7C6FC08
:102BA0004FF47C6003948DE8610069465046FEF75F
:102BB000BDFC10200090CDE9015469460A480394F9
:102BC000FEF7B4FC07B0BDE8F08F000030380240DB
:102BD00000040240000C024000200240001C0240A1
:102BE000000802400014024000000240104810B5E6
:102BF0000E4901604FF48271416000218160C16023
:102C00004FF400720161C0E905121022C0E90721EA
:102C1000416281620A21C162FFF7F6F8002803D001
:102C2000BDE81040FEF75DBC10BD00000030014063
:102C3000F4A00120104810B50E4901604FF48271D4
:102C4000416000218160C1604FF400720161C0E900
:102C500005121022C0E90721416281620A21C16286
:102C6000FFF7D2F8002803D0BDE81040FEF739BCCA
:102C700010BD0000005001404CA1012010B586B0ED
:102C800000241748009401940294039404944FF094
:102C90008041059401604AF6C771C0E9011440F211
:102CA000DC51C0E9031480218161FFF78FFA08B17C
:102CB000FEF717FC4FF48050009069460848FFF774
:102CC000F7FA08B1FEF70DFC049404A90448059432
:102CD000FFF734FA002801D0FEF703FC06B010BD60
:102CE000A4A1012010B586B00024174800940194D7
:102CF0000294039404941349059401604AF6C77141
:102D0000C0E901140121C0E9031480218161FFF7AA
:102D10005DFA08B1FEF7E5FB4FF48050009069467C
:102D20000948FFF7C5FA08B1FEF7DBFB049404A9D4
:102D300005480594FFF702FA002801D0FEF7D1FB01
:102D400006B010BD00040040E4A101200C4810B5FD
:102D50000A4901604FF4E1314160002181600C2299
:102D6000C160C0E904128161C161FFF76FFC0028F6
:102D700003D0BDE81040FEF7B4BB10BD0010014009
:102D800024A201200C4810B50A4901604FF4E1313A
:102D90004160002181600C22C160C0E904128161A0
:102DA000C161FFF753FC002803D0BDE81040FEF7D7
:102DB00098BB10BD0044004064A201200C4810B52F
:102DC0000A4901604FF4E1314160002181600C2229
:102DD000C160C0E904128161C161FFF737FC0028BE
:102DE00003D0BDE81040FEF77CBB10BD004800409A
:102DF000A4A20120FEE770472DE9F0410F460446EA
:102E000016464BA1554800F0DDFC554D28780028AA
:102E1000524806D0FDF73BFA0146504807F09CF9AE
:102E200007E0FDF734FA82B2FF234C494D48FFF723
:102E30008FFD22464CA1494800F0C4FC28780028A8
:102E4000464806D0FDF723FA0146444807F084F9C6
:102E500007E0FDF71CFA82B2FF2340494148FFF723
:102E600077FD002447E0A0061AD10520FEF74CFBB1
:102E7000A2093FA1394800F0A5FC2878002837486E
:102E800006D0FDF704FA0146344807F065F907E07B
:102E9000FDF7FDF982B2FF2330493248FFF758FDB4
:102EA000A006B0F17C4F02D0701E844201D132A343
:102EB00000E029A33A5D0A2A02D00D2A02D002E0DE
:102EC0004E2200E052222DA1244800F07BFC2878FD
:102ED0000028224806D0FDF7DAF901461F4807F01E
:102EE0003BF907E0FDF7D3F982B2FF231B491D48E8
:102EF000FFF72EFD641CB442B5D30DA1174800F0B6
:102F000061FC28780028154807D0FDF7C0F9BDE816
:102F1000F0410146114807F01FB9FDF7B8F9BDE8C7
:102F2000F04182B2FF230D490E48FFF711BD0000AA
:102F30002A2A2A2A2A2A2A2A2A2A2A2A2A205052AD
:102F4000494E542043484152202A2A2A2A2A2A2A12
:102F50002A2A2A2A2A2A0D0A00000000F4970120B2
:102F600009040020A4A2012025733A0D0A000000E4
:102F700025303858203A20000D0A000025632573BB
:102F8000000000002DE9F0410F460446164647A117
:102F9000504800F017FC504D287800284D4806D0C6
:102FA000FDF775F901464B4807F0D6F807E0FDF745
:102FB0006EF982B2FF2347494848FFF7C9FC224611
:102FC00047A1444800F0FEFB28780028414806D07D
:102FD000FDF75DF901463F4807F0BEF807E0FDF751
:102FE00056F982B2FF233B493C48FFF7B1FC00246D
:102FF0003FE020071AD10520FEF786FA22093AA100
:10300000344800F0DFFB28780028324806D0FDF76E
:103010003EF901462F4807F09FF807E0FDF737F922
:1030200082B2FF232B492D48FFF792FC2007B0F115
:10303000704F02D0701E844201D12DA300E02DA359
:103040003A5D2DA1234800F0BDFB287800282148D7
:1030500006D0FDF71CF901461E4807F07DF807E091
:10306000FDF715F982B2FF231A491C48FFF770FCDF
:10307000641CB442BDD323A1164800F0A3FB2878FA
:103080000028144807D0FDF702F9BDE8F0410146D9
:10309000104807F061B8FDF7FAF8BDE8F04182B2D8
:1030A000FF230C490D48FFF753BC00002A2A2A2AA7
:1030B0002A2A2A2A2A2A2A2A2A205052494E5420C9
:1030C000484558202A2A2A2A2A2A2A2A2A2A2A2A03
:1030D0002A0D0A00F497012009040020A4A201206F
:1030E00025733A0D0A00000025303858203A200098
:1030F0000D0A00002000000030782530325825737A
:10310000000000002A2A2A2A2A2A2A2A2A2A2A2AC7
:103110002A205052494E5420454E44202A2A2A2A19
:103120002A2A2A2A2A2A2A2A2A0D0A007047000057
:1031300038B504461248134B0068B0FBF3F04FF467
:103140007A73584300906068B0F5827F0DD10B46CA
:10315000009200228021204600F016F870B1606DC8
:1031600040F020006065032038BD009830B1401E5B
:10317000009020688068C0430006F6D5002038BD66
:10318000E815002000366E012DE9F0411D46174676
:103190000E460446DDF8188008E0681C06D0FEF7ED
:1031A000C1FAA0EB0800A8420BD255B12068806894
:1031B00036EA000030D00020B842EED10020BDE851
:1031C000F0812068416821F0E00141606068B0F55D
:1031D000827F0BD1A068B0F5004F02D0B0F5806FB0
:1031E00004D12068016821F040010160A06AB0F5B7
:1031F000005F09D12068016821F400510160206856
:10320000016841F400510160012084F85100002060
:1032100084F850000320D2E70120CDE77047FEF785
:1032200087BA000030B593B030216846FDF724F826
:1032300014210CA8FDF720F81B480025016841F077
:1032400080510160006800F08050119017480168BB
:1032500041F4404101600068022400F440401190B4
:1032600001200090000401908001CDE90640142067
:1032700008904FF4B470CDE9090404200B9068461F
:10328000FEF714FCFEF7EEFA0CA90F2081E83100DE
:103290004FF4A0500F90E002109005210CA8FEF70B
:1032A00019FB13B030BD00004038024000700040F0
:1032B0000448016841F47001016002490248803904
:1032C0000860704788ED00E0000008080148FFF73B
:1032D0005BB80000A4A101200148FFF755B8000029
:1032E000E4A10120F0B50268254C264D264E274F5B
:1032F000274B4FF0804CA04209D0604507D0A84230
:1033000005D0B04203D0B84201D0984204D122F097
:10331000700E4A6842EA0E02A0421BD0604519D0E6
:10332000A84217D0B04215D0B84213D0984211D05D
:10333000184DA8420ED0184DA8420BD0174DA842E8
:1033400008D0174DA84205D0164DA84202D0164D00
:10335000A84203D122F44075CA682A434D6922F07D
:1033600080022A4302608A68C2620A688262A042BE
:1033700001D0984201D10969016301214161F0BD89
:10338000000001400004004000080040000C004024
:103390000004014000400140004401400048014059
:1033A00000180040001C00400020004010B5846858
:1033B00042EA032224F47F440A432243826010BD80
:1033C000826822F070020A4342F007018160704770
:1033D00010B5036A046A24F001040462846924F0CD
:1033E000F00444EA021423F00A020A4384610262F0
:1033F00010BD10B5036A23F0100303628369046AE9
:1034000023F4704343EA023224F0A00343EA01119B
:103410008261016210BD10B5806B0021C185C1843D
:10342000FFF789F810BD0168CA6822F49072CA607B
:1034300001684A6922F001024A61202180F83A10AD
:10344000704710B590F83A10222901D0022010BD23
:103450008168B1F5805F11D00169002901681FD032
:10346000496801F07F03816A4A1C82620B70C18D3A
:10347000491E0904090CC18518D02BE00269816A34
:10348000002A0268526805D0D2B20A80816A491CBB
:103490008162ECE7C2F308020A80816A891CF7E7BF
:1034A0004A68816A4B1C83620A70E0E70168CA6857
:1034B00022F02002CA600168CA6822F48072CA60E1
:1034C00001684A6922F001024A61202180F83A101D
:1034D000FFF704FA002010BD2DE9F0410446006812
:1034E0000169E26821F44051114301612169A0683A
:1034F000E26908436169114308432168CA6849F2D7
:103500000C639A430243CA6020684169A26921F4AE
:10351000407111434161E069192764253226B0F5F5
:10352000004F354A354920684FF0000806D08842E0
:1035300001D0904236D1FEF777FA35E0884201D0CB
:10354000904202D1FEF770FA01E0FEF75DFA616881
:103550004A18A0FB070148EB0803FCF743FE0146AD
:10356000B0FBF5F00201B1FBF5F06FF01803584322
:1035700001EB800006EBC000B0FBF5F000F0F800B6
:1035800002EB4002B1FBF5F0584301EB800006EB83
:10359000C000B0FBF5F000F007002168104488601F
:1035A000BDE8F081FEF730FA61688B0F8A00A0FB5E
:1035B0000701FCF717FE0146B0FBF5F06FF01802AB
:1035C000504301EB800006EB0010B0FBF5F000F07B
:1035D000F002B1FBF5F002EB0012B1FBF5F06FF079
:1035E0001803584301EB800006EB0010B0FBF5F028
:1035F00000F00F00D1E7000000140140001001406E
:1036000090F83910212901D0022070478168B1F566
:10361000805F016A0BD04A1C02620268097851601F
:10362000C18C491E0904090CC1840ED017E0098819
:103630000268C1F30801516001690029016A02D0E2
:10364000491C0162ECE7891CFBE70168CA6822F0AB
:103650008002CA600068C16841F04001C16000207A
:1036600070472DE9F041984617460E460446069DE0
:103670001DE0681C1BD02DB1FEF754F8A0EB08002C
:10368000A84214D92068C16821F4D071C1602068B3
:10369000416921F001014161202084F8390084F85A
:1036A0003A00002084F838000320BDE8F08120684B
:1036B000006836EA000004D00020B842D9D00020CB
:1036C000F3E70120F9E700000148FEF735BF0000ED
:1036D00024A2012070B51A4C1A4920680968884252
:1036E00028D11949097829B3C168184D890608D528
:1036F0000168890605D54068C1B22868006806F0EF
:10370000D8FC2068C16809060CD50068000609D5F8
:103710002868406806F0C5FC28B12068C16821F01F
:103720008001C16070BD2868406806F0E2FC216835
:10373000486070BDBDE870400248FEF7FDBE000065
:10374000A4A2012064A2012009040020D8150020B1
:1037500070B51848007838B3174D2868C168174C01
:10376000890608D50168890605D54068C1B2206878
:10377000006806F09EFC2868C16809060CD5006840
:10378000000609D52068406806F08BFC28B128683F
:10379000C16821F08001C16070BD2068406806F0FA
:1037A000A8FC2968486070BDBDE870400248FEF77B
:1037B000C3BE000009040020A4A20120D8150020E7
:1037C000FEE700000FB4084B10B504A902AA039845
:1037D00000F024F9044602A9002000F0B6FC2046BF
:1037E00010BC5DF814FB00004B4108080907090EE6
:1037F000002804DB00F1E02080F80014704700F09E
:103800000F0000F1E02080F8141D70470048704759
:10381000F01500200000000030B583B0044600F031
:1038200017F89FED090B05468DED000B0022214690
:103830006846FDF766FA284600F020F89DED000B7B
:1038400003B030BD000000000000000000000000D8
:103850000148006870470000F015002002E008C829
:10386000121F08C1002AFAD170477047002001E0FA
:1038700001C1121F002AFBD17047000001490860F6
:1038800070470000F01500202DE9FF5F82B0002195
:10389000DDE90430020DDDF840B0034318D044F6F2
:1038A0001050A2F2FF3242431514119801281FD084
:1038B000A5EB0B00401C5FEA000A4FF000064E4FDC
:1038C000DFF83891B046504615D5CAF1000413E030
:1038D000119801244AA3012801D16FEA0B01029833
:1038E000119AC0E90031C0E9024206B0BDE8F09F7C
:1038F000CBF10000DFE704460021404A491842EBC3
:103900000450CDE9001012E0E00707D032463B46F4
:1039100040464946FCF7D5FF8046894632463B463D
:1039200010461946FCF7CDFF06460F466410002CE2
:10393000EAD1DDE90401DDE90023BAF1000F06DA7E
:10394000FCF7BFFF42464B46FCF7BBFF05E0FDF727
:103950002AF842464B46FDF726F804460E4600225A
:10396000284BFDF729FB03D84FF0FF30014607E055
:103970000022254B20463146FDF753FAFDF704FBA4
:10398000102409E0002C0ADB0A220023FCF72AFCA1
:10399000039B30321A55641E50EA0102F2D1641CB6
:1039A000039AC4F111031444119A012A03D001228D
:1039B00008430DD10AE0084304D000204FF0110B5A
:1039C000119072E7A3EB0B056D1E0DE05B4504DD66
:1039D0004FF0000205F1010504E003DA4FF00002A8
:1039E000A5F10105002AECD002981199C0E9023135
:1039F000C0E9004579E70000000014400000F03FF6
:103A0000300000000000F0430000E03F30380A289A
:103A100001D2012070470020704700002DE9FF4FC0
:103A200095B09B468946064600250FE2252877D1AA
:103A300000242746F84A0121059400E0044316F8C3
:103A4000013F203B01FA03F01042F7D130782A28D9
:103A500011D06FF02F033078A0F13002092A16D868
:103A6000059A44F0020402EB820203EB4202104486
:103A7000761C0590EFE759F8042B0592002A03DA2B
:103A8000504244F40054059044F00204761C30780F
:103A90002E2816D116F8010F44F004042A280DD060
:103AA0006FF02F023078A0F13003092B09D807EB13
:103AB000870302EB4303C718761CF3E759F8047B2E
:103AC000761C30786C280FD006DC4C2817D068287C
:103AD0000DD06A2814D104E0742810D07A280FD1B0
:103AE0000DE044F400140AE044F4801401E044F4CE
:103AF00040147278824202D104F58014761C761C40
:103B0000307866280BD013DC582877D009DC0028E1
:103B100075D04528F6D04628F4D047281AD19DE123
:103B200018E0632835D0642879D0652812D195E152
:103B3000702873D008DC6728F1D069286FD06E2810
:103B40000DD06F2806D1B5E073282CD0752875D01C
:103B5000782874D05A46179990476D1C75E1C4F3C4
:103B60000250022809D003280DD0D9F800100428EB
:103B70000DD00D6009F1040967E1D9F80010EA17CA
:103B8000C1E90052F6E7D9F800100D80F2E70D7098
:103B9000F0E719F8041B8DF8001000208DF80100E3
:103BA000EA46012003E059F804AB4FF0FF3061070B
:103BB0004FF0000102D40DE008F101018846B9423E
:103BC0000FDA8045F8DB1AF808100029F4D108E074
:103BD00008F1010188468142FADB1AF80810002931
:103BE000F6D105985B46A0EB080721463846179AA0
:103BF00000F094FA284400EB080507E04DE029E1C5
:103C00000DE01AF8010B5A4617999047B8F10108D0
:103C1000F7D25B4621463846179A13E142E00A2262
:103C20000092C4F302524FF0000A022A08D059F859
:103C300004CB032A4FEAEC710AD00DE029E02AE018
:103C400009F1070121F00702F2E802C1914609E0FB
:103C50000FFA8CFC4FEAEC71042A03D14FFA8CFC6A
:103C60004FEAEC71002907DA0A460021DCF1000C6A
:103C700061EB02012D2202E0220504D52B228DF8F2
:103C80000420012203E0E20701D02022F7E790465A
:103C900059E00A2102E010220DE010214FF0000A45
:103CA00000910BE010224FF0000A44F004040827B2
:103CB000009203E008224FF0000A0092C4F302527F
:103CC000022A05D059F804CB0021032A08D009E0C4
:103CD00009F1070121F00702F2E802C1914605E06F
:103CE0001FFA8CFC042A01D10CF0FF0C4FF00008E5
:103CF000220728D5702806D0009B83F0100353EAD2
:103D00000A0305D00EE040228DF80420012208E0CD
:103D10005CEA010206D030228DF804208DF80500FF
:103D200002229046009B83F0080353EA0A030AD15B
:103D30005CEA010201D1620705D530228DF804202A
:103D40004FF001087F1E582804D034A003900EA81D
:103D500002900DE036A0F9E753466046009AFCF762
:103D600041FA84460398825C0298401E02900270D9
:103D70005CEA0100F0D1029806A9081A00F1200AB5
:103D8000600702D524F4803400E00127574502DDA6
:103D9000A7EB0A0000E0002000EB0A010090059864
:103DA0004144401A0590E00306D45B462146179A29
:103DB000059800F0B3F90544002706E001A85A462B
:103DC000C05D179990476D1C7F1C4745F6DBE003EB
:103DD0000CD55B462146179A059800F09FF90544DB
:103DE00004E030205A46179990476D1C0099481EF0
:103DF00000900029F5DC08E0029802995A46007804
:103E0000491C0291179990476D1CBAF10001AAF163
:103E1000010AF1DC65E1000009280100303132338C
:103E200034353637383961626364656600000000F6
:103E300030313233343536373839414243444546E0
:103E40000000000000F058F90544761C3078002886
:103E50007FF4ECAD19B02846BDE8F08F620700D4BE
:103E6000062709F1070222F0070CFCE80223E146CD
:103E700003F000485FEA080C02D00FF2702C0DE04E
:103E80005FEA045C02D50FF2682C07E05FEAC47CAD
:103E900002D00FF2602C01E0AFF2700C4FF0FF384F
:103EA00023F00043CDF850C065280CD006DC45282F
:103EB00009D046281DD047283DD13DE0662818D0BE
:103EC00067287ED138E00021112F01DB112000E0AE
:103ED000781CCDE9000106A90EA8FFF7D5FCDDE9A5
:103EE0000F010E9A03910021009207F1010A04913B
:103EF0004DE04FF000400097CDE9011006A90EA853
:103F0000FFF7C2FCDDE90F0203920E9B119900221C
:103F1000DDF80CA00093049211B9791C00EB010AA2
:103F2000B7EB0A0004D4C0F1FF3007F1010A049096
:103F3000AAEB0700019044E0012F00DA01270021DD
:103F4000112F01DD112000E03846CDE9000106A95E
:103F50000EA8FFF799FCDDE90F010E9A03910021ED
:103F600004910092BA4621070CD40399514500DA16
:103F70008A46BAF1010F05DD009AAAF10101515CF0
:103F8000302908D0B84202DA10F1040F06DA012114
:103F9000CDE9011015E0AAF10101E9E7002805DCEF
:103FA000049901440491AAEB000102E0411C51452F
:103FB00000DD8A460499401A401C01904FF00040F1
:103FC0000290200704D40198504501DBCDF804800D
:103FD00000208DF84F0002980DF14F07B0F1004F0F
:103FE00025D02B200E9002984FF0020800280CDA02
:103FF000404202902D200E9007E00A210298FCF723
:104000008AFD3031029007F8011DB8F10001A8F1D6
:104010000108F2DC02980028EFD1791E0E98087092
:10402000307800F0200040F0450007F8020D12A89B
:10403000C01B00F107081498007800B1012000EBC4
:104040000A01019801EBE07105984144401A401EB5
:104050000590E00306D45B462146179A059800F0C8
:104060005DF805441498007818B15A46179990479E
:104070006D1CE00324D55B462146179A059800F095
:104080004DF805441CE00498002807DBDDE9030136
:10409000884203DD0098405C179901E017993020B1
:1040A0005A469047049805F10105401C0490019878
:1040B000401E019004D12E205A46179990476D1C3E
:1040C000BAF10001AAF1010ADDDC05E017F8010BE5
:1040D0005A46179990476D1CB8F10001A8F10108E4
:1040E000F4DC5B462146179A0598ABE62D000000EC
:1040F0002B000000200000002DE9F04104460025BF
:104100001E461746880404D405E039462020B047EF
:104110006D1C641EF9D52846BDE8F0812DE9F041FB
:10412000044600251E469046C80301D5302700E00E
:104130002027880404D505E041463846B0476D1C69
:10414000641EF9D52846BDE8F0810A68531C0B604F
:1041500010707047F0B52DED028B83B00C4602282D
:104160000AD134A16068FCF7D3F8334D68B133A1AC
:104170006068FCF7CDF838B1206800F0E5FD00205C
:1041800003B0BDEC028BF0BD012028702C480090DC
:104190002C4B01222849182005F070FD0500EFD1B5
:1041A000284F29A12E483A79FFF70CFB2D4E307885
:1041B00000282B4806D0FCF76AF80146284805F08D
:1041C000CBFF07E0FCF763F882B2FF2324492648BF
:1041D000FEF7BEFB9FED258B002400BF07EB4400DC
:1041E000B0F8050040BA00B2FCF74CFC53EC182BB9
:1041F000FCF7D9FBCDE90001621C1EA11848FFF7AE
:10420000E1FA30780028164806D0FCF740F801465D
:10421000134805F0A1FF07E0FCF739F882B2FF234D
:104220000F491148FEF794FB641C402CD6D3284656
:10423000A6E7000030000000F496012031000000E5
:1042400000000020F4950120496E73657274696F57
:104250006E204C6F73732025753A0D0A0000000024
:10426000F497012009040020A4A20120000000000E
:104270000000594025752C252E326C660D0A000071
:1042800038B5012804D9086800F05EFD002038BD6B
:104290001448154B0090002203F58071222005F090
:1042A000EDFC0400F3D11048001DFDF7DDF80246D7
:1042B0000EA11248FFF786FA1148007800280F482F
:1042C00006D0FBF7E4FF01460C4805F045FF07E088
:1042D000FBF7DDFF82B2FF2308490A48FEF738FBEF
:1042E000204638BD00000020F4950120416C617229
:1042F0006D3A202523580D0A00000000F497012094
:1043000009040020A4A2012038B5012804D90868B6
:1043100000F01AFD002038BD1648174B009000220F
:1043200003F58071272005F0A9FC0400F3D11248A1
:10433000124D007918B1012803D011A102E018A193
:1043400000E01CA12048FFF73DFA287800281E480D
:1043500006D0FBF79CFF01461B4805F0FDFE07E079
:10436000FBF795FF82B2FF2317491848FEF7F0FAD2
:10437000204638BD00000020F495012009040020EB
:10438000556E6B6E6F776E2064657669636520731A
:10439000746174757320636F64650D0A000000001A
:1043A0004465766963652069732069646C650D0AEC
:1043B00000000000446576696365206973206275BA
:1043C00073790D0A00000000F4970120A4A20120D7
:1043D0007FB50C46054605284DD0032D58D0042D39
:1043E0006FD005D3FEA16068FBF792FF002875D05F
:1043F000022D7AD0032D50D02BD3FAA16068FBF7A1
:1044000087FF00287ED0032D7DD0022D72D0042D91
:104410007AD0052D79D0032D78D0022D70D0042DBF
:1044200075D0032D74D0022D73D0032D72D0022DC0
:1044300071D0032D70D0022D6FD0032D6ED0022DC0
:104440006DD0042D6CD0022D6BD0032D6AD0022DBF
:1044500069D0022D0ED3E5A16068FBF759FF6E1EEF
:1044600000287DD0042D7CD3E2A16068FBF750FFCB
:10447000002878D04CE2E0A16068FBF749FF0028F3
:10448000B0D104B021462846BDE8704002F01AB809
:10449000DAA16068FBF73CFF60B1D9A16068FBF767
:1044A00037FF0028A9D104B021462846BDE8704056
:1044B00002F0E4B804B021462846BDE8704001F09F
:1044C00015BCD1A16068FBF723FF00288AD104B096
:1044D00021462846BDE8704004F0F6BC04B02146F1
:1044E0002846BDE8704001F02FBDC8A16068FBF709
:1044F0000FFFB8B3C9A16068FBF70AFF00287CD0A2
:10450000C8A111E04FE055E0B5E0D9E06EE0B7E0BA
:104510007AE00EE083E012E090E017E094E01CE027
:10452000B3E025E030E129E06068FBF7F1FE002808
:104530007DD0BFA16068FBF7EBFE002878D0022297
:10454000BEA16068FBF7F9FE002872D00222BCA170
:104550006068FBF7F2FE00286CD0BDA1606803E044
:1045600030E1C9E118E034E1FBF7D2FE002872D057
:10457000BAA16068FBF7CCFE00286DD0BAA16068D4
:10458000FBF7C6FE00287FF466AF04B0214628463C
:10459000BDE8704001F0E4BE04B021462846BDE805
:1045A000704003F08BB804B021462846BDE8704047
:1045B00002F048BC8FA16068FBF7AAFE20B9AEA14B
:1045C000A068FBF7A5FE28B1ADA16068FBF7A0FECF
:1045D00038B10BE004B021462846BDE8704003F036
:1045E000D3BDA5A1A068FBF793FE98B3A5A1606811
:1045F000FBF78EFE00286FD000E035E0A3A16068D5
:10460000FBF786FE00286ED0A3A16068FBF780FE52
:1046100000287FD0A2A16068FBF77AFEF0B3A2A1C8
:104620006068FBF775FED0B3A2A1606803E061E0AB
:104630007EE092E09FE0FBF76BFE88B302229EA132
:104640006068FBF77AFE60B389A16068FBF760FEE3
:1046500040B399E001E0B1E0A2E004B02146284671
:10466000BDE8704003F074BD04B021462846BDE8A3
:10467000704003F0AFBA93A16068FBF749FEC0B188
:1046800091A16068FBF744FED8B392A16068FBF784
:104690003FFE00287FF4DFAE214604E041E04EE01B
:1046A00054E061E06BE004B02846BDE8704004F0DF
:1046B00069B804B021462846BDE8704003F05ABBF3
:1046C00086A16068FBF724FE0028E3D185A1E0689D
:1046D000FBF71EFE0028DDD104B021462846BDE8C8
:1046E000704004F0C5BA04B021462846BDE87040C9
:1046F00003F0F6BC04B021462846BDE8704004F043
:10470000DDBC04B021462846BDE8704000E001E071
:1047100004F0BEB804B021462846BDE8704004F05D
:104720006FB804B021462846BDE8704004F090B848
:1047300004B021462846BDE8704002F057BE04B0E0
:1047400021462846BDE8704003F08CBF04B02146E6
:104750002846BDE8704004F003B904B0214628465D
:10476000BDE8704002F0A2BC04B021462846BDE876
:10477000704003F0CFBFBDE87F4002F049BD3EA1CD
:10478000A068FBF7C5FD90B134A16068FBF7C0FDE0
:1047900000289AD154A1A068FBF7BAFD002894D153
:1047A00004B021462846BDE8704003F009BD04B0BE
:1047B00021462846BDE8704003F0AEBCBDE87F400E
:1047C00002F0C0BB04B0F0B2211DBDE8704001F0A2
:1047D0004FBE04B0F0B2211DBDE870408AE0000079
:1047E00063616C00656570726F6D00006461746573
:1047F000000000006C6F6700646163006164630027
:1048000064756D7000000000746167006765745F17
:10481000746F73615F76616C000000006D6F6E698C
:10482000746F7200746573745F746F73610000005D
:104830006765745F74656D7000000000706400004F
:104840007377697463685F6368616E6E656C00009E
:10485000696E7465725F65787000000073656E64E0
:104860005F68657800000000686973746F72795F33
:10487000616C61726D000000726573657400000008
:1048800066770000727873775F696F007072696E87
:10489000745F6865780000007365745F7465630019
:1048A00074696D65720000007365745F667265718E
:1048B00000000000737069006C6F6F706261636B61
:1048C0000000000070696E007365745F746F73613F
:1048D0000000000073775F61646300007478737791
:1048E0005F696F00746F00006E6F5F636865636B74
:1048F0000000000001F08EBD022D09D131A16068D9
:10490000FBF706FD40B132A16068FBF701FD38B14D
:10491000206800F019FA51E0BDE87F4001F0D6BCF4
:104920002EA30FCB8DE80F0010216846FCF7A4FDE5
:1049300002462EA13148FEF745FF314C2078002871
:104940002E4806D0FBF7A3FC01462C4805F004FCDA
:1049500007E0FBF79CFC82B2FF2328492948FDF7BA
:10496000F7FF4FF0FF3204216846FCF799FD02463D
:10497000042101A8FCF794FD0246042102A8FCF7DB
:104980008FFD0246042103A8FCF78AFDC2431EA145
:104990001A48FEF717FF20780028184806D0FBF7C2
:1049A00076FC0146154805F0D7FB07E0FBF76FFCE6
:1049B00082B2FF2311491348FDF7CAFF04B000205B
:1049C00070BD0000636865636B5F63616C690000C4
:1049D00063726333325F7465737400000001020315
:1049E0000405060708090A0B0C0D0E0F435243334A
:1049F00032203A202523580D0A000000F4970120A8
:104A000009040020A4A2012043524333325F322024
:104A10003A202523580D0A0038B5012804D9086822
:104A200000F092F9002038BD134800220090134B8B
:104A30001146062005F022F90400F4D10F4A10A116
:104A400050731548121DFEF7BDFE1448007800286B
:104A5000114806D0FBF71BFC01460F4805F07CFB14
:104A600007E0FBF714FC82B2FF230B490C48FDF76B
:104A70006FFF204638BD000000000020F4950120A3
:104A80004D656E7566616374757265204461746509
:104A90003A2025730D0A0000F49701200904002034
:104AA000A4A2012038B5012804D9086800F04CF907
:104AB000002038BD134800220090134B11460720F8
:104AC00005F0DCF80400F4D10F4A10A15075144829
:104AD000121DFEF777FE134800780028104806D014
:104AE000FBF7D5FB01460E4805F036FB07E0FBF768
:104AF000CEFB82B2FF230A490B48FDF729FF20466F
:104B000038BD000000000020F4950120506172744F
:104B1000204E756D6265723A2025730D0A00000003
:104B2000F497012009040020A4A2012038B501282F
:104B300004D9086800F008F9002038BD13480022A5
:104B40000090134B1146022005F098F80400F4D1B0
:104B50000F4A10A190731448121DFEF733FE13483C
:104B600000780028104806D0FBF791FB01460E485C
:104B700005F0F2FA07E0FBF78AFB82B2FF230A494D
:104B80000B48FDF7E5FE204638BD00000000002080
:104B9000F495012053657269616C204E756D6265F4
:104BA000723A2025730D0A00F497012009040020B1
:104BB000A4A2012038B5012804D9086800F0C4F87F
:104BC000002038BD134800220090134B11460820E6
:104BD00005F054F80400F4D10F4A10A150751348A1
:104BE000121DFEF7EFFD1248007800280F4806D08E
:104BF000FBF74DFB01460D4805F0AEFA07E0FBF769
:104C000046FB82B2FF2309490A48FDF7A1FE204670
:104C100038BD000000000020F495012056656E6448
:104C20006F723A2025730D0A00000000F4970120EE
:104C300009040020A4A201202DE9F04786B020221B
:104C4000102101A8FBF711FB0024DFF8C8900DF13B
:104C5000040A314D314F56E004EB840605EB86081B
:104C60002FA1D8F80C00FBF719FB00284AD055F803
:104C70002600FBF70CFBC0F10C0100220AF8012012
:104C80002AA12C48FEF79EFD99F80000002829482B
:104C900006D0FBF7FCFA0146264805F05DFA07E06E
:104CA000FBF7F5FA82B2FF2322492348FDF750FEB5
:104CB000D8F80800009055F8262001AB1FA11D4828
:104CC000FEF780FD99F8000000281A4806D0FBF78F
:104CD000DEFA0146174805F03FFA07E0FBF7D7FA7E
:104CE00082B2FF2313491448FDF732FE55F826001F
:104CF000FBF7CDFAC0F10C0120220AF801201E209A
:104D0000FCF702FC641C38688442A5D306B000207E
:104D1000BDE8F087090400201804002010A7080847
:104D2000494E5445524E414C00000000636D643AB8
:104D300020000000F4970120A4A201202573257310
:104D40002D2025730D0A00002DE9F04107460026AD
:104D5000534D544C09E000BF06EB8600394655F828
:104D60002000FBF7D5FA30B1761C20688642F3D3D9
:104D70000020BDE8F0814CA14D48FEF723FD4D4CCD
:104D8000207800284A4806D0FBF781FA01464848B7
:104D900005F0E2F907E0FBF77AFA82B2FF23444913
:104DA0004548FDF7D5FD06EB860644A155F82620BB
:104DB0003F48FEF707FD207800283D4806D0FBF766
:104DC00066FA01463A4805F0C7F907E0FBF75FFAD3
:104DD00082B2FF2336493848FDF7BAFD39A134487D
:104DE000FEF7F0FC20780028314806D0FBF74FFA98
:104DF00001462F4805F0B0F907E0FBF748FA82B208
:104E0000FF232B492C48FDF7A3FD05EB86052BA1BD
:104E10002748EA68FEF7D6FC20780028244806D008
:104E2000FBF735FA0146224805F096F907E0FBF753
:104E30002EFA82B2FF231E491F48FDF789FD25A1E6
:104E40001B48FEF7BFFC20780028194806D0FBF766
:104E50001EFA0146164805F07FF907E0FBF717FA3E
:104E600082B2FF2312491448FDF772FD13A11048C6
:104E70002A69FEF7A7FC207800280D4806D0FBF72A
:104E800006FA01460A4805F067F971E7FBF7FFF9F2
:104E900082B2FF2306490848FDF75AFD68E7000083
:104EA0001804002010A70808636D643A2000000071
:104EB000F497012009040020A4A2012025730D0A03
:104EC00000000000202020202075736167653A20D3
:104ED0002020000020202020206578616D706C6506
:104EE0003A200000F8B50C46022810D126A16068CF
:104EF000FBF70EFA254E264D70B126A16068FBF730
:104F000007FA50B124A16068FBF702FA80B120686B
:104F1000FFF71AFF0020F8BD01203070204B01225E
:104F20001A492520009504F0A9FE0028F3D1F1E7E5
:104F30001B4B002215492620009504F09FFE0028F7
:104F4000E9D11748174C007980B1012819D016A172
:104F50001F48FEF737FC207800281D4808D0FBF7D3
:104F600096F901461A4805F0F7F8D3E719A1EFE7DB
:104F7000FBF78DF982B2FF2315491E48FDF7E8FCC7
:104F8000C8E71DA1E4E700006F6E0000F496012061
:104F9000000000206F6666006D6F64650000000011
:104FA000F495012009040020496E76616C69642043
:104FB00076616C75652072657475726E65642066C5
:104FC000726F6D206D6F64756C650D0A00000000D6
:104FD000F49701204D6F64756C6520696E204E6FEB
:104FE0006E2D6D6F64756C6174696F6E206D6F648A
:104FF000650D0A00A4A201204D6F64756C652069DF
:105000006E206D6F64756C6174696F6E206D6F6476
:10501000650D0A002DE9F043DD4CDFF878930F466B
:105020002DED028B81B0064604F1FC08022801D068
:1050300000251DE0D8A17868FBF76AF94FF000055C
:1050400058B9404645556D1C6DB2122DFADDD04B56
:10505000CDF800901B1F132212E007EB8500002201
:1050600040681146FBF7F4FB08F805006D1C6DB2B3
:10507000701E8542F1DBC64BC2B21B1FCDF80090FB
:10508000C3498720FC3104F0F9FD07009FEDC38B75
:10509000C44E75D172E12278132A72D2DFE802F091
:1050A0000A1130373E454C535A617688AACBF1EF4E
:1050B000EEEDEC00601CFCF7D7F902460346BAA1FE
:1050C000FFE0601CFCF7D0F98046FBF7DBFC9FEDAE
:1050D000BD1B53EC112BFBF766FC41EC100BBBA185
:1050E00053EC102BCDF8008036E130780028BF4813
:1050F00071D0FBF7CCF80146BC4805F02DF83CE137
:10510000601CFCF7B1F902460346B9A1D9E0601C66
:10511000FCF7AAF902460346BCA1D2E0601CFCF7EA
:10512000A3F902460346C0A1CBE0601CFCF79CF942
:1051300002460346C4A1C4E0601CFCF795F9024690
:105140000346C8A1BDE0601CFCF78EF90246034689
:10515000CBA1B6E0601CFCF787F902460346CFA15D
:10516000AFE0601CFCF780F98046FBF78BFC53EC4A
:10517000182BFBF718FC41EC100B53EC102B01E043
:1051800001E1EDE0CDA1CDF80080E5E0601CFCF789
:105190006BF98046FBF776FC53EC182BFBF703FC0E
:1051A00041EC100BCDA153EC102BCDF80080D3E0D7
:1051B000B4F80100D1A142BA13468C48FEF702FBB5
:1051C00030780028894807D0FBF761F80146874806
:1051D00004F0C2FF08E0C8E0FBF759F882B2FF23F1
:1051E0008249CB48FDF7B4FBB4F80300C9A142BA29
:1051F000134666E0B4F80100CBA142BA13467B48DF
:10520000FEF7E0FA30780028784806D0FBF73FF840
:105210000146764804F0A0FF07E0FBF738F882B2B9
:10522000FF237249BA48FDF793FBB4F80300C3A10A
:1052300042BA134645E0B4F80100C5A142BA13468C
:105240006A48FEF7BFFA30780028684806D0FBF7B6
:105250001EF80146654804F07FFF07E0FBF717F8EA
:1052600082B2FF236149AA48FDF772FBB4F803003C
:10527000BCA142BA134624E05DE04AE037E024E0F6
:10528000FFE7B4F80100BCA142BA13465748FEF745
:1052900099FA30780028554806D0FAF7F8FF014609
:1052A000524804F059FF07E0FAF7F1FF82B2FF23FA
:1052B0004E499748FDF74CFBB4F80300B3A142BA3E
:1052C00013464A48FEF77EFA0FE7601CFCF7CCF85D
:1052D0008046FBF7D7FB53EC182BFBF764FB41EC44
:1052E000100BAFA153EC102BCDF8008034E0601C04
:1052F000FCF7BAF88046FBF7C5FB53EC182BFBF71D
:1053000052FB41EC100BB2A153EC102BCDF80080F6
:1053100022E0601CFCF7A8F88046FBF7B3FB53ECD7
:10532000182BFBF740FB41EC100BB5A153EC102BF5
:10533000CDF8008010E0601CFCF796F88046FBF783
:10534000A1FB53EC182BFBF72EFB41EC100BB6A185
:1053500053EC102BCDF800802448FEF733FAC4E656
:10536000BBA12248FEF72EFABFE6FAF790FF82B201
:10537000FF231E496648FDF7EBFA641D6D1E6DB2F2
:10538000BFF489AE384601B0BDEC028BBDE8F083B6
:10539000F895012000000020616C6C000000000006
:1053A00000005940090400204C445F437572726E3E
:1053B0006574203A20256428252358296D410D0A5B
:1053C0000000000000000000000024404C445F5436
:1053D000656D7065726174757265203A20252E3195
:1053E0006C662825235829430D0A0000F4970120F4
:1053F0005445435F43757272656E74203A2025648C
:1054000028252358296D410D0A0000005445435FAB
:10541000566F6C74616765203A20256428252358EF
:10542000296D560D0A0000004C445F4241434B4C2D
:10543000494748545F564F4C203A2025642825237D
:1054400058296D560D0A00004C445F4C4F434B5F8A
:105450005354415445203A20256428252358290DCA
:105460000A0000005445435F4C4F434B5F53544187
:105470005445203A20256428252358290D0A000088
:105480004C445F4F4E5F4F46465F53544154452056
:105490003A20256428252358290D0A004C445F4DE5
:1054A0006F64756C6174696F6E5F4D6F6465203AEF
:1054B00020256428252358290D0A00005441502036
:1054C000504420506F776572203A20252E326C664A
:1054D000282523582964426D0D0A00005265762064
:1054E000506420506F776572203A20252E326C660A
:1054F000282523582964426D0D0A00003278333282
:10550000205831203A20257528252358290D0A00D6
:10551000A4A2012032783332205832203A20257557
:1055200028252358290D0A0032783332205931209A
:105530003A20257528252358290D0A003278333260
:10554000205932203A20257528252358290D0A0094
:1055500031783332205831203A20257528252358B8
:10556000290D0A0031783332205832203A2025752F
:1055700028252358290D0A0031783332205931204B
:105580003A20257528252358290D0A003178333211
:10559000205932203A20257528252358290D0A0044
:1055A00054415020504420506F776572202B203298
:1055B000783332206368616E20494C203A20252ED2
:1055C000326C66282523582964426D0D0A000000BC
:1055D00052657620506420506F776572202B203101
:1055E000783332206368616E20494C203A20252EA2
:1055F000326C66282523582964426D0D0A0000008C
:10560000327833322043757272656E74206368613C
:105610006E20494C203A20252E326C6628252358CE
:105620002964426D0D0A00003178333220437572CF
:1056300072656E74206368616E20494C203A2025A3
:105640002E326C66282523582964426D0D0A00000D
:10565000556E6B6E6F776E20706572666F726D61DE
:105660006E63652069642025750D0A00F8B5002574
:105670000C4602280FD11DA16068FAF749FE1D4EA5
:1056800070B11DA16068FAF743FEA0B11CA160686B
:10569000FAF73EFEE8B12068FFF756FB0020F8BDA0
:1056A000002201213046FCF737F80120FBF72CFFE0
:1056B0000122114609E0002210213046FCF72CF8A7
:1056C0000120FBF721FF012210213046FCF724F8CE
:1056D0000AE00D480D4B0090002203F580718420F4
:1056E00004F0CCFA0500DAD12846F8BD686172648E
:1056F00000000000002002406D61737465720000BC
:10570000736F66740000000000000020F495012013
:105710002DE9FC41012805D90868FFF715FB002099
:10572000BDE8FC8139483A4B0090002203F58071B6
:105730001C2004F0A3FA0500F2D1354F35A13C48F6
:105740003A79FEF73FF8DFF8EC8098F8000000287F
:10575000374806D0FAF79BFD0146354804F0FCFCBB
:1057600007E0FAF794FD82B2FF2331493248FDF792
:10577000EFF8002445E000BF07EB8406B6F805000B
:1057800040BA00B2FBF77EF99FED2C1B53EC112BB6
:10579000FBF709F9CDE90001621C2AA12448FEF7B4
:1057A00011F898F800000028214806D0FAF76FFD9C
:1057B00001461F4804F0D0FC07E0FAF768FD82B20A
:1057C000FF231B491C48FDF7C3F8B6F8070020A1CA
:1057D00042BA1748FDF7F6FF98F800000028144871
:1057E00006D0FAF754FD0146114804F0B5FC07E075
:1057F000FAF74DFD82B2FF230D490F48FDF7A8F8D7
:10580000641C3879A042B7D8284689E700000020F8
:10581000F495012052582050442043616C69204483
:1058200061746120436F756E743A2025750D0A000E
:10583000F497012009040020A4A201200000000028
:105840000000594025752C252E326C662C20000056
:1058500025750D0A0000000070B50C4605460328AA
:1058600004D30FA16068FAF753FD10B1022D06D0E2
:105870000AE021462846BDE8704004F0B9BC0AA100
:105880006068FAF745FD20B12068FFF75DFA002057
:1058900070BD21462846BDE8704003F02BBC0000D7
:1058A0007772697465000000726561640000000031
:1058B0002DE9FC41012805D90868FFF745FA0020C9
:1058C000BDE8FC8139483A4B0090002203F5807115
:1058D0001D2004F0D3F90500F2D1354F35A13D4824
:1058E0003A79FDF76FFFDFF8F08098F800000028A4
:1058F000384806D0FAF7CBFC0146364804F02CFCB9
:1059000007E0FAF7C4FC82B2FF2332493348FDF7BF
:105910001FF8002445E000BF07EB8406B6F8050039
:1059200040BA00B2FBF7AEF89FED2D1B53EC112BE4
:10593000FBF739F8CDE90001621C2BA12548FDF7E2
:1059400041FF98F800000028224806D0FAF79FFC93
:105950000146204804F000FC07E0FAF798FC82B208
:10596000FF231C491D48FCF7F3FFB6F8070017A1F9
:1059700042BA1848FDF726FF98F80000002815489D
:1059800006D0FAF784FC0146124804F0E5FB07E074
:10599000FAF77DFC82B2FF230E491048FCF7D8FFCE
:1059A000641C3879A042B7D8284689E70000002057
:1059B000F49501205441502050442043616C6920EB
:1059C0004461746120436F756E743A2025750D0A29
:1059D00000000000F497012009040020A4A2012087
:1059E000000000000000594025752C252E326C6601
:1059F0002C20000038B5012804D90868FFF7A4F965
:105A0000002038BD1A481B4B0090002203F580711E
:105A1000172004F033F90400F3D11648808840BA07
:105A200000B2FBF72FF89FED141B53EC112BFAF784
:105A3000BAFF41EC100B12A153EC102B1648FDF7E6
:105A4000C1FE164800780028134806D0FAF71FFC5C
:105A50000146114804F080FB07E0FAF718FC82B217
:105A6000FF230D490E48FCF773FF204638BD0000A8
:105A700000000020F49501200000000000002440F8
:105A800054656D70657261747572653A20252E31AA
:105A90006C66430D0A000000F49701200904002001
:105AA000A4A2012070B50C460546052802D0032D9E
:105AB0000BD00FE00DA16068FAF72AFC50B921461F
:105AC0002846BDE8704004F0E7BB09A16068FAF71A
:105AD0001FFC20B12068FFF737F9002070BD214678
